:100000000C94ED000C9476030C949D030C94C403A3
:100010000C94EB030C9415010C9415010C94120430
:100020000C9415010C9415010C94470B0C94D909F0
:100030000C9415010C9415010C9415010C941501E8
:100040000C9415010C949D010C9415010C94150150
:100050000C9415010C9415010C9415010C943904A1
:100060000C9415010C9415010C9415010C941501B8
:100070000C9415010C9415010C9415010C941501A8
:100080000C9415010C9415010C9415010C94150198
:100090000C9415010C9415010C9415010C94150188
:1000A0000C9415010C9415010C94150148054B0591
:1000B0003A053E0544056C056C056C054F05530576
:1000C00057055D0561056C05670500000002000924
:1000D0000F0000030401000C0000000000000000FD
:1000E0000000000000000000000408020110408031
:1000F000401020408040800802040180402010020F
:10010000011080102040402004040404040304056E
:1001100002020202040302020202060606060606A4
:100120000404020202040400000000230026002947
:10013000002C002F0000000000250028002B002EBE
:1001400000310000000000240027002A002D0030AC
:1001500000080B0002020201000904000001020273
:1001600000000524001001052401010104240206F9
:100170000524060001070581031000400904010061
:10018000020A000000070502024000000705830282
:1001900040000012010002EF0201404123378000BD
:1001A0000101020301120100020000004041233757
:1001B0008000010102030141726475696E6F204C79
:1001C0004C430041726475696E6F204D6963726FB4
:1001D0000004030904005C01FB0611241FBECFEFDD
:1001E000DAE0DEBFCDBF12E0A0E0B1E0EAE4F9E181
:1001F00002C005900D92AA32B107D9F723E0AAE216
:10020000B2E001C01D92AB3BB207E1F711E0CAEDCD
:10021000D1E004C02297FE010E949F0CC63DD10789
:10022000C9F70E9419070C94A30C0C94000040ED30
:1002300057E060E070E084E193E00E94E80220E093
:1002400032EC41E050E064E573E084E193E00E9429
:10025000A10284E193E00E949E026DE171E0809131
:100260004503909146030E9442076AE070E080E0F7
:1002700090E00E94B20441E060E084E193E00E94DB
:100280005A0361E08DE00E946D0560E082E00E940B
:100290006D0561E088E00C946D0582E00E94DC054C
:1002A0009093420280934102019711F461E001C0F2
:1002B00060E08DE00C94A6058CE292E00E946E0254
:1002C00087E991E090932B0280932A028DE991E0D7
:1002D000909334028093330283EA91E09093360244
:1002E0008093350289EA91E0909338028093370237
:1002F0008FEA91E090933A028093390285EB91E086
:1003000090933C0280933B028BEB91E090933E02F2
:1003100080933D0281EC91E09093400280933F02F4
:10032000089580914602882339F08091130380FF5D
:1003300002C02D9A08952D9808951F920F920FB61E
:100340000F9211242F933F934F935F936F937F935B
:100350008F939F93AF93BF93EF93FF93809143024B
:100360000E94DC0540914702509148026091490289
:1003700070914A024F5F5F4F6F4F7F4F409347022C
:10038000509348026093490270934A0220911303EC
:10039000243630F024E030E03093450220934402CC
:1003A00020914402309145022230310509F124F4B4
:1003B0002130310549F07FC023303105E1F124308F
:1003C000310509F46EC077C0892B09F074C08091A3
:1003D000470290914802A0914902B0914A028436A6
:1003E0009105A105B10508F45EC01092130325C064
:1003F000019709F060C0E091130381E08E0F8093B4
:100400001303F0E08091470290914802A0914902C5
:10041000B0914A02EE0FFF1FE55BFD4F9183808391
:1004200010924702109248021092490210924A021A
:1004300083E090E031C0892B01F5E091130381E066
:100440008E0F80931303F0E0809147029091480251
:10045000A0914902B0914A02EE0FFF1FE55BFD4FEC
:1004600091838083109247021092480210924902B1
:1004700010924A0282E090E00FC080914702909172
:100480004802A0914902B0914A0285369105A10522
:10049000B10588F084E090E0909345028093440297
:1004A0000AC0892B41F41092470210924802109220
:1004B000490210924A020E949101FF91EF91BF916F
:1004C000AF919F918F917F916F915F914F913F91EC
:1004D0002F910F900FBE0F901F90189561E089E04B
:1004E0000E946D0560E089E00C94A6050F931F93B0
:1004F000CF93DF93EC01662359F00E948304698354
:100500007A838B839C83DF91CF911F910F91089504
:100510000E94830409811A812B813C81601B710B2D
:10052000820B930B623371058105910530F763E00F
:1005300070E080E090E00E94B204EACF60E00C94AA
:100540007602CF92DF92EF92FF920F931F93CF9399
:10055000DF9300D000D0CDB7DEB78C017B01FC016A
:1005600072AB61AB8BE1C82ED12CC70129833A83D2
:100570004B835C830E94EC0629813A814B815C812C
:10058000811113C0F1E0CF1AD10879F064E670E070
:1005900080E090E029833A834B835C830E94B2041D
:1005A0005C814B813A812981E0CFBA01A901F80130
:1005B00081A992A90F900F900F900F90DF91CF918A
:1005C0001F910F91FF90EF90DF90CF900C94E60673
:1005D000FC0113AA14AA15AA16AA11821282138268
:1005E0001482411551056105710521F0CB01BA0155
:1005F0000C94B20408951F93CF93DF93EC01162F50
:1006000061EC71E089A99AA90E9442074AE050E092
:10061000612F89A99AA90E94AA0768EC71E089A9AB
:100620009AA90E94420762E370E080E090E0DF91C7
:10063000CF911F910C94B2041F93CF93DF93EC01E1
:10064000162F8D81882389F189A99AA9DC01ED9162
:10065000FC910480F581E02D0995892BA9F307C051
:100660002637310519F12835310509F41D8289A98C
:100670009AA9DC01ED91FC910480F581E02D0995AA
:100680001816190694F489A99AA9DC01ED91FC9138
:100690000680F781E02D09959C013327233631052B
:1006A000F9F6612FCE010E94FB0283E6DF91CF9124
:1006B0001F9108950F931F93CF93DF931F92CDB790
:1006C000DEB78C01662349F081E0F801858360E0A4
:1006D000C80149830E941C034981F80145830F909A
:1006E000DF91CF911F910F91089508951F920F925E
:1006F0000FB60F9211242F933F934F935F936F93F5
:100700007F938F939F93AF93BF93EF93FF93E0916A
:100710000001F09101010995FF91EF91BF91AF9117
:100720009F918F917F916F915F914F913F912F9109
:100730000F900FBE0F901F9018951F920F920FB63B
:100740000F9211242F933F934F935F936F937F9357
:100750008F939F93AF93BF93EF93FF93E091020129
:10076000F09103010995FF91EF91BF91AF919F9196
:100770008F917F916F915F914F913F912F910F904A
:100780000FBE0F901F9018951F920F920FB60F92E9
:1007900011242F933F934F935F936F937F938F9386
:1007A0009F93AF93BF93EF93FF93E0910401F09178
:1007B00005010995FF91EF91BF91AF919F918F91A5
:1007C0007F916F915F914F913F912F910F900FBE4D
:1007D0000F901F9018951F920F920FB60F92112431
:1007E0002F933F934F935F936F937F938F939F9339
:1007F000AF93BF93EF93FF93E0910601F091070150
:100800000995FF91EF91BF91AF919F918F917F914A
:100810006F915F914F913F912F910F900FBE0F906D
:100820001F9018951F920F920FB60F9211242F93BD
:100830003F934F935F936F937F938F939F93AF9368
:10084000BF93EF93FF93E0910801F091090109959F
:10085000FF91EF91BF91AF919F918F917F916F9198
:100860005F914F913F912F910F900FBE0F901F906E
:1008700018951F920F920FB60F9211242F933F934A
:100880008F939F93AF93BF9380914C0390914D03AF
:10089000A0914E03B0914F0330914B0323E0230FFF
:1008A0002D3720F40196A11DB11D05C026E8230FA8
:1008B0000296A11DB11D20934B0380934C0390938E
:1008C0004D03A0934E03B0934F038091500390913A
:1008D0005103A0915203B09153030196A11DB11D84
:1008E0008093500390935103A0935203B09353030A
:1008F000BF91AF919F918F913F912F910F900FBE1C
:100900000F901F9018952FB7F89460914C03709139
:100910004D0380914E0390914F032FBF08953FB731
:10092000F8948091500390915103A0915203B0919B
:10093000530326B5A89B05C02F3F19F00196A11DB2
:10094000B11D3FBF6627782F892F9A2F620F711D27
:10095000811D911D42E0660F771F881F991F4A95E0
:10096000D1F70895CF92DF92EF92FF92CF93DF936A
:100970006B017C010E948F04EB01C114D104E104DE
:10098000F10489F00E94DF0B0E948F046C1B7D0B29
:10099000683E734090F381E0C81AD108E108F1087D
:1009A000C851DC4FEACFDF91CF91FF90EF90DF90FD
:1009B000CF900895789484B5826084BD84B58160B9
:1009C00084BD85B5826085BD85B5816085BDEEE657
:1009D000F0E0808181608083E1E8F0E01082808136
:1009E00082608083808181608083E0E8F0E08081A4
:1009F00081608083E1E9F0E0808182608083808192
:100A000081608083E0E9F0E0808181608083E1ECB7
:100A1000F0E0808184608083808182608083808137
:100A200081608083E3ECF0E0808181608083E0EC92
:100A3000F0E0808182608083E2ECF0E08081816080
:100A40008083EAE7F0E08081846080838081826037
:100A50008083808181608083808180688083089525
:100A600090E0FC013197EF30F105B0F5EA5AFF4F05
:100A70000C949D0C809180008F7703C08091800042
:100A80008F7D80938000089580918000877FF9CFCB
:100A900084B58F7702C084B58F7D84BD0895809121
:100AA00090008F7707C0809190008F7D03C0809168
:100AB0009000877F8093900008958091C0008F7789
:100AC00003C08091C0008F7D8093C0000895809105
:100AD000C200877F8093C2000895CF93DF9390E098
:100AE000FC01E751FF4F2491FC01E85FFE4F849128
:100AF000882349F190E0880F991FFC01ED5BFE4FC0
:100B0000A591B4918B5C9E4FFC01C591D4919FB788
:100B1000611108C0F8948C91209582238C93888170
:100B200082230AC0623051F4F8948C91322F3095B0
:100B300083238C938881822B888304C0F8948C91C2
:100B4000822B8C939FBFDF91CF9108950F931F93BA
:100B5000CF93DF931F92CDB7DEB7282F30E0F90196
:100B6000E653FF4F8491F901E751FF4F1491F901CA
:100B7000E85FFE4F04910023C9F0882321F06983C8
:100B80000E9430056981E02FF0E0EE0FFF1FEB5C63
:100B9000FE4FA591B4919FB7F8948C91611103C059
:100BA0001095812301C0812B8C939FBF0F90DF9103
:100BB000CF911F910F910895CF93DF93282F30E0AD
:100BC000F901E653FF4F8491F901E751FF4FD491AA
:100BD000F901E85FFE4FC491CC2391F081110E948E
:100BE0003005EC2FF0E0EE0FFF1FE95DFE4FA59101
:100BF000B4912C912D2381E090E021F480E002C09B
:100C000080E090E0DF91CF910895CF93DF931F9222
:100C1000CDB7DEB76983DC01ED91FC910280F381F1
:100C2000E02D41E050E0BE016F5F7F4F09950F90CE
:100C3000DF91CF910895CF93DF93EC018C859D8553
:100C400097FF05C082E00E94C2089D878C878C8533
:100C50009D85DF91CF91089583E00C943D0BFC01BD
:100C60008485958597FD06C082E00E946A0890E021
:100C70000196089582E00E946A0890E00895FC01C0
:100C80008485958597FD05C02FEF3FEF3587248735
:100C9000089582E00C94C208CF93DF93EC01809119
:100CA0001501882331F083E00E94F3081816190615
:100CB00034F081E090E09B838A8380E090E0DF91D4
:100CC000CF910895FC0120812E5F208342E450E003
:100CD00061E571E080E80C948E09FC01218180813E
:100CE000813A59F4213209F05CC047E050E06EE0EF
:100CF00071E080E00E948E0967C0813209F051C026
:100D0000233289F4838190E0982F88273281832BC6
:100D1000A0E0B0E080930A0190930B01A0930C0136
:100D2000B0930D010FC0203239F467E070E08EE01F
:100D300091E00E94BF090AC0223221F4828180938F
:100D4000150104C02D7F203209F03EC080910E01B4
:100D500090910F01A0911001B0911101803B94403E
:100D6000A105B10501F58091150180FD1CC08091A0
:100D70000008909101089093FF0A8093FE0A87E78C
:100D800097E790930108809300082BE088E190E0BA
:100D90000FB6F894A895809360000FBE2093600072
:100DA00013C080E0089588E10FB6F8948093600046
:100DB000109260000FBEA8958091FE0A9091FF0AE4
:100DC000909301088093000881E008952FEF3FEF92
:100DD000FC01358724870895CF93C09115016AE0FF
:100DE00070E080E090E00E94B20481E0C11101C097
:100DF00080E0CF910895109257031092560388EE29
:100E000093E0A0E0B0E08093580390935903A0933F
:100E10005A03B0935B038DE192E090935503809366
:100E200054038FEF9FEF90936103809360030895C5
:100E300008950E94DA040E94180784EA93E00E9451
:100E4000CA0B0E941701C0E0D0E00E944D0120971C
:100E5000E1F30E940000F9CF6115710581F0DB011B
:100E60000D900020E9F7AD0141505109461B570B89
:100E7000DC01ED91FC910280F381E02D099480E08A
:100E800090E008950C942C078F929F92AF92BF929E
:100E9000CF92DF92EF92FF920F931F93CF93DF9346
:100EA000CDB7DEB7A1970FB6F894DEBF0FBECDBFAA
:100EB0007C01C42EE52FCB01D22E19A221E02D15E5
:100EC00010F02AE0D22E8E010F5D1F4F8D2C912C39
:100ED000A12CB12C6C2D7E2FA50194010E947B0CBE
:100EE0008C2DD29E80191124015011098A3014F4DE
:100EF000805D01C0895CF8018083211531054105C1
:100F0000510521F0C22EE32FCA01E4CFB801C70179
:100F10000E942C07A1960FB6F894DEBF0FBECDBF7E
:100F2000DF91CF911F910F91FF90EF90DF90CF90C5
:100F3000BF90AF909F908F9008952115310541F497
:100F4000DC01ED91FC910190F081E02D642F09947A
:100F50000C9444079A01462F50E060E070E00C9436
:100F60009D07615030F02091F100FC012083019633
:100F7000F8CF289A84E68093AD0308954091A803A2
:100F80005091A9032091A6033091A703421753075C
:100F9000B4F49091E8009570E1F39091E80092FD2F
:100FA00019C08093F1008091A8039091A903019644
:100FB0008F739927892B19F48EEF8093E800809125
:100FC000A8039091A90301969093A9038093A80385
:100FD00081E0089580E00895CF92DF92EF92FF9232
:100FE0000F931F93CF93DF931F92CDB7DEB7082FD8
:100FF000162FF42E862F880F8E5F99830E94BE07CE
:1010000083E00E94BE07E02EC02E9981D92E8C2D40
:101010008E19811798F4F601F7FE02C0849101C081
:1010200080810E94BE07082F80E00E94BE078023B7
:10103000FFEFCF1ADF0A8111EACF01C081E00F90E4
:10104000DF91CF911F910F91FF90EF90DF90CF90A4
:1010500008958091D70081608093D70080EA8093C3
:10106000D80089B5806189BD89B5826089BD09B420
:1010700000FEFDCF61E070E080E090E00E94B204ED
:101080008091D8008F7C80618093D8008091E000AF
:10109000807F8093E0000895CF93DF931F92CDB7B8
:1010A000DEB71982CE0101960E9462060E94670C8B
:1010B000BE016F5F7F4F0E94E00B89810F90DF912F
:1010C000CF9108952FB7FC012083F8946770609347
:1010D000E9000895CF93DF931F92CDB7DEB7682F55
:1010E000CE0101960E9462088091F20099819FBF13
:1010F0000F90DF91CF910895FF920F931F93CF939D
:10110000DF9300D0CDB7DEB7F62E8A019091AC0305
:10111000992311F057FF03C08FEF9FEF2BC0682F6B
:10112000CE0101967A830E9462088091F20090E0DD
:10113000A8017A81801791070CF4AC01EF2DF72FED
:10114000F40E84E6FE1639F0289A8093AD03909150
:10115000F1009193F7CF4115510521F08091F200F4
:10116000882321F089818FBFCA0104C08BE6809358
:10117000E800F8CF0F900F90DF91CF911F910F9162
:10118000FF900895CF93DF931F92CDB7DEB741E074
:1011900050E0BE016F5F7F4F0E947C08019719F4F9
:1011A000898190E002C08FEF9FEF0F90DF91CF9188
:1011B0000895CF93DF931F92CDB7DEB7682FCE018E
:1011C00001960E9462089091E800892F807295FF35
:1011D00004C09091F20080E4891B99819FBF0F9019
:1011E000DF91CF9108956F927F928F929F92AF92ED
:1011F000BF92CF92DF92EF92FF920F931F93CF9304
:10120000DF931F92CDB7DEB7782E7B01C42EB52EAB
:101210008091AC03882369F0042F152F8AEFD82E14
:10122000872D8072982E9AE3A92E872D8074882EA0
:1012300011C08FEF9FEF57C0872D0E94D908682EED
:1012400081110CC0DA94A9F361E070E080E090E0D5
:101250000E94B2040115110579F73BC0282F30E038
:10126000021713070CF4602E672DCE0101960E9421
:1012700062088091E80085FF29C0262D30E0021B1E
:10128000130B992039F06A948FEF6816B1F0109221
:10129000F100F9CFF701862D77FE07C0815058F095
:1012A00094919093F1003196F9CF815020F0919173
:1012B0009093F100FACFE20EF31E8091E80085FFD3
:1012C0000FC00115110511F481100AC089818FBF6B
:1012D000C1CF5D9A84E68093AE038C2D9B2D03C015
:1012E000A092E800F3CF0F90DF91CF911F910F9163
:1012F000FF90EF90DF90CF90BF90AF909F908F9036
:101300007F906F9008951092E9001092A9031092B7
:10131000A8039093A7038093A6030895CF92DF922A
:10132000FF920F931F93CF93DF9300D0CDB7DEB71B
:10133000F82E8A016B0101151105B1F0F601F7FED7
:1013400002C0849101C0808149835A830E94BE07F4
:1013500001501109FFEFCF1ADF0A49815A8181112B
:10136000EACF8FEF9FEF01C0CA010F900F90DF917E
:10137000CF911F910F91FF90DF90CF9008951F9311
:10138000CF93DF931F92CDB7DEB7162F2091E800E1
:1013900022FFFCCF612F79830E94B1078BEF8093EE
:1013A000E800812F7981972F0F90DF91CF911F91C6
:1013B00008951F920F920FB60F921124DF92EF92B1
:1013C000FF920F931F932F933F934F935F936F93CE
:1013D0007F938F939F93AF93BF93EF93FF93CF939D
:1013E000DF93CDB7DEB76C97DEBFCDBF1092E900BB
:1013F0008091E80083FF23C168E0CE0145960E94FA
:10140000B10782EF8093E8003D8937FF05C08091E6
:10141000E80080FFFCCF03C08EEF8093E800832FAD
:10142000807609F0F0C02E894F89D88C21110CC02C
:10143000303829F48091AB038093F10002C0109200
:10144000F1001092F100F4C0842F90E09D2921302A
:1014500049F43111EDC0019709F0EAC08091AB0366
:101460008D7F0AC0233059F43111E2C0019709F091
:10147000DFC08091AB0382608093AB03D9C025307D
:1014800041F48091E80080FFFCCF40684093E30086
:10149000CFC0263009F08DC0EB8CFC8C22E0D2123C
:1014A0002CC080E090E00E9483090E944C0899E0E3
:1014B0008E010F5F1F4FF801292F11922A95E9F72E
:1014C0009983DA8291E09E8390EA98879AEF9987D0
:1014D0002091A8033091A903275F3F4F3C832B83C2
:1014E0008D83C7010E94830949E050E0B80180E084
:1014F0000E948E090E944C089BC0C7010E9483096C
:101500000E94670CBE016B5E7F4F0E94090C009722
:1015100019F00CF08DC090C081E0D8120EC08B8DF8
:101520009C8D089719F481E08093A5038091A50311
:1015300081112FC065EA71E031C0E3E0DE127CC0AA
:101540008F89882349F1823029F440E86DE083ECEB
:1015500091E01CC0813029F440E86BE087EB91E01A
:1015600015C0833009F068C00E94670C8E010F5FC0
:101570001F4FB8010E94280CF80101900020E9F7E4
:101580003197E01BF10B40E06E2FC8010E94EC0781
:101590004DC063E971E002C061ED71E06115710554
:1015A00009F44AC0FB01449150E080E80E948E0992
:1015B0003FC0273009F440C0283021F481E08093F7
:1015C000F10036C02930A1F53370B1F5E7E1F1E063
:1015D00081E021E036E39081992361F08093E90076
:1015E0002093EB0091919093EC003093ED008F5F8E
:1015F000873089F78EE78093EA001092EA008F899E
:101600008093AC0315C08B8D9C8D0E948309898DBE
:10161000811105C0CE0145960E946D0607C00E944B
:10162000670CBE016B5E7F4F0E94470C882321F040
:101630008EEF8093E80003C081E28093EB006C960C
:101640000FB6F894DEBF0FBECDBFDF91CF91FF91F3
:10165000EF91BF91AF919F918F917F916F915F912A
:101660004F913F912F911F910F91FF90EF90DF903D
:101670000F900FBE0F901F9018958093E9008091F6
:10168000F200882319F08AE38093E80008951F92FE
:101690000F920FB60F9211242F933F934F935F93A6
:1016A0006F937F938F939F93AF93BF93CF93EF935A
:1016B000FF93C091E1008091E100837F8093E1007E
:1016C0008093E100C3FF0FC01092E90081E0809396
:1016D000EB001092EC0082E38093ED001092AC03DB
:1016E00088E08093F000C2FF19C083E00E943D0BA8
:1016F0008091AE03882339F08091AE0381508093AE
:10170000AE03882389F18091AD03882339F080915D
:10171000AD0381508093AD03882341F1C4FF10C015
:101720008091E2008E7E81608093E2008091E100F2
:101730008F7E8093E1008091AA038E7E806111C02C
:10174000C0FF16C08091E2008E7E80618093E2002F
:101750008091E1008E7E8093E1008091AA038E7ECD
:1017600081608093AA0304C05D98CDCF2898D6CF1E
:10177000FF91EF91CF91BF91AF919F918F917F9109
:101780006F915F914F913F912F910F900FBE0F90EE
:101790001F9018951092AC031092AB031092AA03FD
:1017A0000E942908E1EEF0E080818E7E80838DE04A
:1017B0008093E200559A209A5D982898089508959C
:1017C000EF92FF920F931F93CF93DF937B01FC0166
:1017D000C281D38100E010E0209781F0E881F98197
:1017E0000280F381E02DB701CE01099597FD08C075
:1017F000080F191F0884D985C02DEECFC80102C07B
:101800008FEF9FEFDF91CF911F910F91FF90EF909E
:1018100008950F931F93CF93DF938B01FC01C28137
:10182000D381209771F0E881F9810480F581E02D62
:10183000B801CE010995009731F40884D985C02DEF
:10184000F0CF80E090E0DF91CF911F910F9108954C
:101850000F931F93CF93DF938B01FC01C281D38140
:10186000209771F0E881F9810680F781E02DB801B9
:10187000CE010995080F111D0884D985C02DF0CF20
:10188000F8011082DF91CF911F910F9108950F936E
:101890001F93CF93DF938B01FC01C281D3812097EB
:1018A00071F0E881F9810190F081E02DB801CE015D
:1018B0000995811106C00884D985C02DF0CF80E03C
:1018C00001C081E0DF91CF911F910F910895809128
:1018D000B30381110DC082E08093AF0384E0809355
:1018E000B0031092B2031092B10381E08093B3036E
:1018F0008FEA93E00895A1E21A2EAA1BBB1BFD01FB
:101900000DC0AA1FBB1FEE1FFF1FA217B307E407DE
:10191000F50720F0A21BB30BE40BF50B661F771F36
:10192000881F991F1A9469F7609570958095909516
:101930009B01AC01BD01CF010895EE0FFF1F059083
:0A194000F491E02D0994F894FFCF14
:10194A0075037503750375037503FFFFFFFF00E158
:10195A0000000000000000C18081000000564D44D4
:10196A0050565F317C315F564D4450560D0A00ED9A
:10197A00FF00000000EFFF00000000F1FF00000080
:10198A0000F3FF00000000F5FF00000000F7FF0071
:10199A00000000F9FF0000000002000000000097AC
:1019AA000197019D01A301A901AF01B501BB01C1C5
:1019BA00015F01590153014D01470141013B0135C5
:1019CA00011500130011000F000D000B00090000A3
:1019DA0000020000000000F9FFF7FF0000F7FFF522
:1019EA00FF0000F5FFF3FF0000F3FFF1FF0000F135
:1019FA00FFEFFF0000EFFFEDFF0000EDFFEBFF0040
:101A0A0000564D4450435F005F564D4450430D0A03
:101A1A00004572726F723A20417474656D70742059
:101A2A00746F20736574206120726561642D6F6E16
:101A3A006C79207661726961626C65206F722064CC
:101A4A006174612074797065206E6F74207375708B
:101A5A00706F727465640D0A000000000005064C80
:0A1A6A00062F063F061B062C06009F
:00000001FF
