:100000000C9463000C9440040C9467040C948B00D3
:100010000C948B000C948B000C948B000C94350189
:100020000C948B000C948B000C948B000C948B0024
:100030000C948B000C948B000C948B000C948B0014
:100040000C948E040C948B000C947B070C94AD07DD
:100050000C948B000C948B000C948B000C948B00F4
:100060000C948B000C948B0000000008000201002F
:100070000003040700000000000000000102040863
:100080001020408001020408102001020408102002
:10009000040404040404040402020202020203032E
:1000A00003030303000000002300260029000000D2
:1000B0000000250028002B0000000000240027007D
:1000C0002A00E000DD0711241FBECFEFD8E0DEBF1D
:1000D000CDBF12E0A0E0B1E0E6E7F2E102C005909A
:1000E0000D92A432B107D9F723E0A4E2B2E001C037
:1000F0001D92AD3FB207E1F710E0C6ECD0E004C0BE
:100100002297FE010E943509C23CD107C9F70E941F
:1001100021080C9439090C94000040ED57E060E090
:1001200070E080E293E00E94A60320E032EC41E020
:1001300050E060E673E080E293E00E94B90380E261
:1001400093E00E94A30368E071E0809151039091D5
:1001500052030E946E086AE070E080E090E00E9426
:10016000070541E060E080E293E00E94240461E042
:100170008DE00E949E0560E082E00E949E0561E0A5
:1001800085E00C949E0582E00E940D0690934E023D
:1001900080934D02019781F461E08DE00E94D705C4
:1001A00040910001509101016091020170910301A1
:1001B00084E492E00C94340360E08DE00C94D70565
:1001C00086E492E00E942D028AE291E0909345023B
:1001D000809344028FE292E00E942D0282E991E036
:1001E00090932E0280932D0288E991E0909337023C
:1001F000809336028EE991E0909339028093380221
:1002000084EA91E090933B0280933A028AEA91E07B
:1002100090933D0280933C0280EB91E090933F02EB
:1002200080933E0286EB91E09093410280934002DE
:100230008CEB91E0909343028093420286E292E03D
:100240000E942D0282E291E0909325028093240285
:10025000089580915202882339F080911F0380FF16
:1002600002C02D9A08952D9808951F920F920FB6EF
:100270000F9211242F933F934F935F936F937F932C
:100280008F939F93AF93BF93EF93FF9380914F0210
:100290000E940D0640915302509154026091550204
:1002A000709156024F5F5F4F6F4F7F4F40935302E5
:1002B00050935402609355027093560220911F038D
:1002C000243630F024E030E0309351022093500285
:1002D00020915002309151022230310509F124F46D
:1002E0002130310549F07FC023303105E1F1243060
:1002F000310509F46EC077C0892B09F074C0809174
:10030000530290915402A0915502B0915602843646
:100310009105A105B10508F45EC010921F0325C028
:10032000019709F060C0E0911F0381E08E0F809378
:100330001F03F0E08091530290915402A091550266
:10034000B0915602EE0FFF1FE95AFD4F9183808353
:1003500010925302109254021092550210925602BB
:1003600083E090E031C0892B01F5E0911F0381E02B
:100370008E0F80931F03F0E08091530290915402FE
:10038000A0915502B0915602EE0FFF1FE95AFD4FA2
:10039000918380831092530210925402109255025E
:1003A0001092560282E090E00FC08091530290912B
:1003B0005402A0915502B091560285369105A105CF
:1003C000B10588F084E090E0909351028093500250
:1003D0000AC0892B41F410925302109254021092D9
:1003E0005502109256020E942901FF91EF91BF9190
:1003F000AF919F918F917F916F915F914F913F91BD
:100400002F910F900FBE0F901F901895CF93C62F6E
:100410001092700061E083E00E949E0560E083E03E
:100420000E94D7052C2F30E040E050E060E47FE1EF
:1004300080E090E00E94140981E08093B00089E0A0
:100440008093B1002093B3008BEA289F212D1124C3
:1004500026952093B400CF91089561E083E00E9437
:100460009E0560E083E00C94D705CF93DF9300975F
:10047000B1F081382EE3920770F068EE73E00E94CD
:10048000DE08EB010E942F05BE0180E090E0DF91C5
:10049000CF910C940705DF91CF910C942F05DF913C
:1004A000CF9108950F931F93CF93DF93EC018B01AE
:1004B000E0EBF0E0808180628083CB010E94350216
:1004C000488159816A817B81400F511F611D711DD7
:1004D000488359836A837B83DF91CF911F910F916A
:1004E00008950F931F93CF93DF93EC018B01E0EB03
:1004F000F0E080818F7D8083CB010E9435024881AE
:1005000059816A817B81400F511F611D711D488394
:1005100059836A837B83DF91CF911F910F91089557
:100520002F923F924F925F926F927F928F929F9203
:10053000AF92BF92CF92DF92EF92FF920F931F93F1
:10054000CF93DF93CDB7DEB729970FB6F894DEBF10
:100550000FBECDBF3C011A012B018E8D9F8D988758
:100560008F8368A139A139878AA19BA1ACA1BDA1C4
:100570008B839C83AD83BE83D3011D921D921D92FC
:100580001C921397E22FF0E0FA83E98380E290E077
:100590008E1B9F0B04C0220C331C441C551C8A95D7
:1005A000D2F7C3010E9406020115110521F0B8011E
:1005B000C3010E945202E114F10421F0B701C3010A
:1005C0000E94710200E010E029813A8102171307AE
:1005D000C4F457FE06C0B601C3010E945202B40122
:1005E00006C0B501C3010E9452026F817885C30124
:1005F0000E947102220C331C441C551C0F5F1F4FBC
:10060000E3CF3985332321F0B601C3010E945202A2
:100610008B819C81AD81BE81892B8A2B8B2B41F0F4
:10062000D3018D919C916B817C81681B790B01C0FA
:10063000B401C30129960FB6F894DEBF0FBECDBF3B
:10064000DF91CF911F910F91FF90EF90DF90CF90AE
:10065000BF90AF909F908F907F906F905F904F90E2
:100660003F902F900C9471028F929F92AF92BF9205
:10067000CF92DF92EF92FF920F931F93DC01ED91E7
:10068000FC9136970190F081E02D1F921F921F92EE
:100690001F9221E02F9329E32F9323E02F9321E44E
:1006A0002F9323EC822E29E0922E31E4A32E33E007
:1006B000B32EA1E4CA2EA3E0DA2EB4E0EB2EBDE007
:1006C000FB2E04E01DE026E18E0F9F1F0E9490028A
:1006D0008DB79EB708960FB6F8949EBF0FBE8DBF1C
:1006E0001F910F91FF90EF90DF90CF90BF90AF9050
:1006F0009F908F9008950F931F93CF93DF93EC01FA
:10070000662359F00E94D80469837A838B839C8383
:10071000DF91CF911F910F9108950E94D804098114
:100720001A812B813C81601B710B820B930B62330E
:1007300071058105910530F763E070E080E090E09D
:100740000E940705EACF60E00C947B03FC0113AA2A
:1007500014AA15AA16AA11821282138214824115B4
:1007600051056105710521F0CB01BA010C94070513
:100770000895FB01BA01A901DC01D296FC93EE9326
:10078000D19726E0CF010C9419071F93CF93DF93E5
:10079000EC01162F6CEB71E089A99AA90E946E08F2
:1007A0004AE050E0612F89A99AA90E94D60863EC1B
:1007B00071E089A99AA90E946E0862E370E080E066
:1007C00090E0DF91CF911F910C9407051F93CF9379
:1007D000DF93EC01162F8D81882389F189A99AA9CD
:1007E000DC01ED91FC910480F581E02D0995892BC8
:1007F000A9F307C02637310519F12835310509F469
:100800001D8289A99AA9DC01ED91FC910480F581F2
:10081000E02D09951816190694F489A99AA9DC0106
:10082000ED91FC910680F781E02D09959C0133271D
:1008300023363105F9F6612FCE010E94C50383E608
:10084000DF91CF911F9108950F931F93CF93DF9363
:100850001F92CDB7DEB78C01662349F081E0F80125
:10086000858360E0C80149830E94E6034981F8015D
:1008700045830F90DF91CF911F910F9108950895B7
:100880001F920F920FB60F9211242F933F934F9305
:100890005F936F937F938F939F93AF93BF93EF93E8
:1008A000FF93E0910401F09105010995FF91EF910B
:1008B000BF91AF919F918F917F916F915F914F9178
:1008C0003F912F910F900FBE0F901F9018951F9280
:1008D0000F920FB60F9211242F933F934F935F9374
:1008E0006F937F938F939F93AF93BF93EF93FF93F8
:1008F000E0910601F09107010995FF91EF91BF91F9
:10090000AF919F918F917F916F915F914F913F91A7
:100910002F910F900FBE0F901F9018951F920F925E
:100920000FB60F9211242F933F938F939F93AF9302
:10093000BF938091580390915903A0915A03B091AD
:100940005B033091570323E0230F2D3720F40196EA
:10095000A11DB11D05C026E8230F0296A11DB11DE2
:10096000209357038093580390935903A0935A03FD
:10097000B0935B0380915C0390915D03A0915E0353
:10098000B0915F030196A11DB11D80935C0390930C
:100990005D03A0935E03B0935F03BF91AF919F91FE
:1009A0008F913F912F910F900FBE0F901F90189530
:1009B0002FB7F894609158037091590380915A03AE
:1009C00090915B032FBF08953FB7F89480915C032B
:1009D00090915D03A0915E03B0915F0326B5A89B43
:1009E00005C02F3F19F00196A11DB11D3FBF66271D
:1009F000782F892F9A2F620F711D811D911D42E062
:100A0000660F771F881F991F4A95D1F70895CF92D7
:100A1000DF92EF92FF92CF93DF936B017C010E94F4
:100A2000E404EB01C114D104E104F10489F00E9453
:100A3000DD080E94E4046C1B7D0B683E734090F35C
:100A400081E0C81AD108E108F108C851DC4FEACFAB
:100A5000DF91CF91FF90EF90DF90CF90089582309B
:100A6000910538F0880F991F880F991F05970197F6
:100A7000F1F70895789484B5826084BD84B581606F
:100A800084BD85B5826085BD85B5816085BDEEE696
:100A9000F0E0808181608083E1E8F0E01082808175
:100AA00082608083808181608083E0E8F0E08081E3
:100AB00081608083E1EBF0E0808184608083E0EB03
:100AC000F0E0808181608083EAE7F0E080818460EB
:100AD0008083808182608083808181608083808147
:100AE000806880831092C1000895833081F028F4DB
:100AF000813099F08230A1F008958730A9F08830D4
:100B0000B9F08430D1F4809180008F7D03C0809152
:100B100080008F7780938000089584B58F7702C01E
:100B200084B58F7D84BD08958091B0008F7703C018
:100B30008091B0008F7D8093B0000895CF93DF93B4
:100B400090E0FC01E458FF4F2491FC01E057FF4F77
:100B50008491882349F190E0880F991FFC01E854A3
:100B6000FF4FA591B49182559F4FFC01C591D4913F
:100B70009FB7611108C0F8948C91209582238C93C3
:100B8000888182230AC0623051F4F8948C91322F0C
:100B9000309583238C938881822B888304C0F894BA
:100BA0008C91822B8C939FBFDF91CF9108950F93EF
:100BB0001F93CF93DF931F92CDB7DEB7282F30E07E
:100BC000F901E859FF4F8491F901E458FF4F14915E
:100BD000F901E057FF4F04910023C9F0882321F069
:100BE00069830E9475056981E02FF0E0EE0FFF1F19
:100BF000E255FF4FA591B4919FB7F8948C91611184
:100C000003C01095812301C0812B8C939FBF0F904F
:100C1000DF91CF911F910F910895CF93DF93282FEC
:100C200030E0F901E859FF4F8491F901E458FF4F92
:100C3000D491F901E057FF4FC491CC2391F0811179
:100C40000E947505EC2FF0E0EE0FFF1FEC55FF4FF3
:100C5000A591B4912C912D2381E090E021F480E0C6
:100C600002C080E090E0DF91CF910895FC01818D7A
:100C7000228D90E0805C9F4F821B91098F73992792
:100C80000895FC01918D828D981731F0828DE80FC7
:100C9000F11D858D90E008958FEF9FEF0895FC0181
:100CA000918D828D981761F0828DDF01A80FB11DA3
:100CB0005D968C91928D9F5F9F73928F90E00895C7
:100CC0008FEF9FEF089583ED97E0892B49F080E047
:100CD00090E0892B29F00E94D30781110C94000029
:100CE0000895FC01848DDF01A80FB11DA35ABF4FE9
:100CF0002C91848D90E001968F739927848FA6891B
:100D0000B7892C93A089B1898C9180648C93938D41
:100D1000848D981306C00288F389E02D80818F7D31
:100D200080830895CF93DF93EC01888D8823C9F0E9
:100D3000EA89FB89808185FD05C0A889B9898C91E4
:100D400086FD0FC00FB607FCF5CF808185FFF2CF7F
:100D5000A889B9898C9185FFEDCFCE010E947106DB
:100D6000E7CFDF91CF910895CF92DF92FF920F935B
:100D70001F93CF93DF931F92CDB7DEB76C0181E055
:100D8000D60158968C9358975B969C915B975C968E
:100D90008C915C97981307C05096ED91FC915197F8
:100DA000808185FD2EC0F601038D10E00F5F1F4F7F
:100DB0000F731127F02EF601848DF81211C00FB6B3
:100DC00007FCF9CFD6015096ED91FC9151978081A7
:100DD00085FFF1CFC60169830E9471066981EBCF5F
:100DE000838DE80FF11DE35AFF4F6083D6015B96B8
:100DF0000C935B975296ED91FC91539780818062A2
:100E00000CC0D6015696ED91FC9157976083509691
:100E1000ED91FC91519780818064808381E090E026
:100E20000F90DF91CF911F910F91FF90DF90CF90A6
:100E30000895BF92CF92DF92EF92FF92CF93DF930C
:100E4000EC016A017B01B22EE889F98982E0808396
:100E5000411581EE580761057105A1F060E079E068
:100E60008DE390E0A70196010E94F208215031091C
:100E7000410951095695479537952795211580E1E8
:100E8000380798F0E889F989108260E874E88EE103
:100E900090E0A70196010E94F20821503109410912
:100EA00051095695479537952795EC85FD853083F3
:100EB000EE85FF852083188EEC89FD89B082EA8952
:100EC000FB89808180618083EA89FB8980818860D9
:100ED0008083EA89FB89808180688083EA89FB8935
:100EE00080818F7D8083DF91CF91FF90EF90DF90A5
:100EF000CF90BF9008951F920F920FB60F921124BA
:100F00002F938F939F93EF93FF93E0917003F09152
:100F100071038081E0917603F091770382FD12C026
:100F20009081809179038F5F8F7320917A0382176C
:100F300051F0E0917903F0E0E05AFC4F958F8093F7
:100F4000790301C08081FF91EF919F918F912F9143
:100F50000F900FBE0F901F9018951F920F920FB613
:100F60000F9211242F933F934F935F936F937F932F
:100F70008F939F93AF93BF93EF93FF9380E693E09C
:100F80000E947106FF91EF91BF91AF919F918F9158
:100F90007F916F915F914F913F912F910F900FBE75
:100FA0000F901F90189580E693E00E94360621E08E
:100FB000892B09F420E0822F089510926303109288
:100FC000620388EE93E0A0E0B0E080936403909326
:100FD0006503A0936603B093670388E192E0909362
:100FE00061038093600385EC90E090936D038093A0
:100FF0006C0384EC90E090936F0380936E0380EC1D
:1010000090E0909371038093700381EC90E0909353
:1010100073038093720382EC90E090937503809346
:10102000740386EC90E0909377038093760310929C
:10103000790310927A0310927B0310927C03089537
:1010400008950E943A050E9420080E948D00C3E680
:10105000D6E00E94C3002097E1F30E946306F9CF17
:10106000CF92DF92EF92FF920F931F93CF93DF9374
:101070007C016A01EB0100E010E00C151D0571F028
:101080006991D701ED91FC910190F081E02DC701AC
:101090000995892B19F00F5F1F4FEFCFC801DF9122
:1010A000CF911F910F91FF90EF90DF90CF90089517
:1010B0006115710581F0DB010D900020E9F7AD01AC
:1010C00041505109461B570BDC01ED91FC91028008
:1010D000F381E02D099480E090E008950C94580885
:1010E0008F929F92AF92BF92CF92DF92EF92FF9238
:1010F0000F931F93CF93DF93CDB7DEB7A1970FB6B2
:10110000F894DEBF0FBECDBF7C01C42EE52FCB010E
:10111000D22E19A221E02D1510F02AE0D22E8E0138
:101120000F5D1F4F8D2C912CA12CB12C6C2D7E2F7F
:10113000A50194010E94F2088C2DD29E80191124E1
:10114000015011098A3014F4805D01C0895CF801F6
:101150008083211531054105510521F0C22EE32F71
:10116000CA01E4CFB801C7010E945808A1960FB682
:10117000F894DEBF0FBECDBFDF91CF911F910F91CD
:10118000FF90EF90DF90CF90BF90AF909F908F90A7
:1011900008952115310541F4DC01ED91FC91019098
:1011A000F081E02D642F09940C9470089A01462F69
:1011B00050E060E070E00C94C9080895AA1BBB1BC6
:1011C00051E107C0AA1FBB1FA617B70710F0A61B47
:1011D000B70B881F991F5A95A9F780959095BC0168
:1011E000CD010895A1E21A2EAA1BBB1BFD010DC063
:1011F000AA1FBB1FEE1FFF1FA217B307E407F507C7
:1012000020F0A21BB30BE40BF50B661F771F881FA2
:10121000991F1A9469F760957095809590959B0138
:10122000AC01BD01CF010895052E97FB1EF400947B
:101230000E942B0957FD07D00E94F20807FC03D03B
:101240004EF40C942B0950954095309521953F4FC5
:101250004F4F5F4F089590958095709561957F4FA2
:101260008F4F9F4F0895EE0FFF1F0590F491E02DD3
:061270000994F894FFCF81
:10127600020000003F043F04564D4450565F317C47
:10128600315F564D4450560D0A00220102000000FF
:1012960000002A01020000000000EDFF000000002F
:1012A600EFFF00000000F1FF00000000F3FF000068
:1012B6000000F5FF00000000F7FF00000000F9FF46
:1012C6000000000002000000000092019201980157
:1012D6009E01A401AA01B001B601BC015A01540144
:1012E6004E01480142013C01360130011500130050
:1012F60011000F000D000B000900000002000000A5
:101306000000F9FFF7FF0000F7FFF5FF0000F5FF0B
:10131600F3FF0000F3FFF1FF0000F1FFEFFF000015
:10132600EFFFEDFF0000EDFFEBFF0000564D4450D0
:10133600435F005F564D4450430D0A004572726F7D
:10134600723A20417474656D707420746F207365F1
:1013560074206120726561642D6F6E6C79207661F0
:10136600726961626C65206F7220646174612074B9
:10137600797065206E6F7420737570706F72746506
:10138600640D0A0000000000B406300836064F0659
:041396004106920674
:00000001FF
