:100000000C9463000C940E040C9435040C948B0037
:100010000C948B000C948B000C948B000C940301BB
:100020000C948B000C948B000C948B000C948B0024
:100030000C948B000C948B000C948B000C948B0014
:100040000C945C040C948B000C9449070C947B0773
:100050000C948B000C948B000C948B000C948B00F4
:100060000C948B000C948B0000000008000201002F
:100070000003040700000000000000000102040863
:100080001020408001020408102001020408102002
:10009000040404040404040402020202020203032E
:1000A00003030303000000002300260029000000D2
:1000B0000000250028002B0000000000240027007D
:1000C0002A00EC00AB0711241FBECFEFD8E0DEBF43
:1000D000CDBF11E0A0E0B1E0E2E1F2E102C00590A5
:1000E0000D92AA38B107D9F723E0AAE8B1E001C020
:1000F0001D92A334B207E1F710E0C6ECD0E004C0D3
:100100002297FE010E940309C23CD107C9F70E9451
:10011000EF070C9407090C94000040ED57E060E0F5
:1001200070E086E692E00E94740320E032EC41E049
:1001300050E066EA72E086E692E00E94870386E677
:1001400092E00E94710368E071E0809197029091C3
:1001500098020E943C086AE070E080E090E00E9413
:10016000D50441E060E086E692E00E94F20361E09F
:100170008DE00E946C0560E082E00E946C0561E009
:1001800085E00C946C05CF93DF9382E00E94DB0541
:1001900090939401809393010197A9F461E08DE01D
:1001A0000E94A505CFE0D0E04091000150910101EF
:1001B00060910201709103018AE891E00E940203BC
:1001C000219791F706C060E08DE0DF91CF910C940C
:1001D000A505DF91CF9108958CE891E00E94FB0185
:1001E00082E291E090938B0180938A01089580913F
:1001F0009801882339F08091650280FF02C02D9A12
:1002000008952D9808951F920F920FB60F92112402
:100210002F933F934F935F936F937F938F939F930E
:10022000AF93BF93EF93FF93809195010E94DB05FD
:100230004091990150919A0160919B0170919C01AC
:100240004F5F5F4F6F4F7F4F4093990150939A01DB
:1002500060939B0170939C0120916502243630F0DD
:1002600024E030E03093970120939601209196018D
:10027000309197012230310509F124F42130310504
:1002800049F07FC023303105E1F12430310509F414
:100290006EC077C0892B09F074C08091990190914C
:1002A0009A01A0919B01B0919C0184369105A10512
:1002B000B10508F45EC01092650225C0019709F0EF
:1002C00060C0E091650281E08E0F80936502F0E0EE
:1002D0008091990190919A01A0919B01B0919C010C
:1002E000EE0FFF1FE356FE4F91838083109299011A
:1002F00010929A0110929B0110929C0183E090E071
:1003000031C0892B01F5E091650281E08E0F809369
:100310006502F0E08091990190919A01A0919B0172
:10032000B0919C01EE0FFF1FE356FE4F9183808337
:100330001092990110929A0110929B0110929C01C7
:1003400082E090E00FC08091990190919A01A09174
:100350009B01B0919C0185369105A105B10588F0FE
:1003600084E090E090939701809396010AC0892BD6
:1003700041F41092990110929A0110929B011092EF
:100380009C010E94F700FF91EF91BF91AF919F9167
:100390008F917F916F915F914F913F912F910F902E
:1003A0000FBE0F901F901895CF93C62F109270001C
:1003B00061E083E00E946C0560E083E00E94A50597
:1003C0002C2F30E040E050E060E47FE180E090E0FE
:1003D0000E94E20881E08093B00089E08093B10040
:1003E0002093B3008BEA289F212D1124269520937A
:1003F000B400CF91089561E083E00E946C0560E055
:1004000083E00C94A505CF93DF930097B1F081387A
:100410002EE3920770F068EE73E00E94AC08EB01E7
:100420000E94FD04BE0180E090E0DF91CF910C942A
:10043000D504DF91CF910C94FD04DF91CF91089505
:100440000F931F93CF93DF93EC018B01E0EBF0E070
:10045000808180628083CB010E94030248815981A0
:100460006A817B81400F511F611D711D4883598333
:100470006A837B83DF91CF911F910F9108950F9332
:100480001F93CF93DF93EC018B01E0EBF0E08081D1
:100490008F7D8083CB010E940302488159816A814C
:1004A0007B81400F511F611D711D488359836A83F1
:1004B0007B83DF91CF911F910F9108952F923F92EF
:1004C0004F925F926F927F928F929F92AF92BF9264
:1004D000CF92DF92EF92FF920F931F93CF93DF9310
:1004E000CDB7DEB729970FB6F894DEBF0FBECDBFEC
:1004F0003C011A012B018E8D9F8D98878F8368A1F7
:1005000039A139878AA19BA1ACA1BDA18B839C8312
:10051000AD83BE83D3011D921D921D921C92139731
:10052000E22FF0E0FA83E98380E290E08E1B9F0BDC
:1005300004C0220C331C441C551C8A95D2F7C301FD
:100540000E94D4010115110521F0B801C3010E94D8
:100550002002E114F10421F0B701C3010E943F021F
:1005600000E010E029813A8102171307C4F457FE16
:1005700006C0B601C3010E942002B40106C0B50145
:10058000C3010E9420026F817885C3010E943F024F
:10059000220C331C441C551C0F5F1F4FE3CF3985C1
:1005A000332321F0B601C3010E9420028B819C817C
:1005B000AD81BE81892B8A2B8B2B41F0D3018D918C
:1005C0009C916B817C81681B790B01C0B401C301D4
:1005D00029960FB6F894DEBF0FBECDBFDF91CF9145
:1005E0001F910F91FF90EF90DF90CF90BF90AF9051
:1005F0009F908F907F906F905F904F903F902F9043
:100600000C943F028F929F92AF92BF92CF92DF9253
:10061000EF92FF920F931F93DC01ED91FC913697BF
:100620000190F081E02D1F921F921F921F9221E0F6
:100630002F9329E32F9323E02F9321E42F9323EC8F
:10064000822E29E0922E31E4A32E33E0B32EA1E4D2
:10065000CA2EA3E0DA2EB4E0EB2EBDE0FB2E04E0C0
:100660001DE026E18E0F9F1F0E945E028DB79EB790
:1006700008960FB6F8949EBF0FBE8DBF1F910F91C5
:10068000FF90EF90DF90CF90BF90AF909F908F90B2
:1006900008950F931F93CF93DF93EC01662359F0D6
:1006A0000E94A60469837A838B839C83DF91CF9118
:1006B0001F910F9108950E94A60409811A812B8130
:1006C0003C81601B710B820B930B623371058105BA
:1006D000910530F763E070E080E090E00E94D5047F
:1006E000EACF60E00C944903FC0113AA14AA15AAEE
:1006F00016AA1182128213821482411551056105D6
:10070000710521F0CB01BA010C94D5040895FB01C9
:10071000BA01A901DC01D296FC93EE93D19726E0B1
:10072000CF010C94E7061F93CF93DF93EC01162FB4
:1007300062E271E089A99AA90E943C084AE050E06F
:10074000612F89A99AA90E94A40869E271E089A988
:100750009AA90E943C0862E370E080E090E0DF919B
:10076000CF911F910C94D5041F93CF93DF93EC018D
:10077000162F8D81882389F189A99AA9DC01ED9131
:10078000FC910480F581E02D0995892BA9F307C020
:100790002637310519F12835310509F41D8289A95B
:1007A0009AA9DC01ED91FC910480F581E02D099579
:1007B0001816190694F489A99AA9DC01ED91FC9107
:1007C0000680F781E02D09959C01332723363105FA
:1007D000F9F6612FCE010E94930383E6DF91CF915A
:1007E0001F9108950F931F93CF93DF931F92CDB75F
:1007F000DEB78C01662349F081E0F801858360E073
:10080000C80149830E94B4034981F80145830F90D0
:10081000DF91CF911F910F91089508951F920F922C
:100820000FB60F9211242F933F934F935F936F93C3
:100830007F938F939F93AF93BF93EF93FF93E09139
:100840000401F09105010995FF91EF91BF91AF91DE
:100850009F918F917F916F915F914F913F912F91D8
:100860000F900FBE0F901F9018951F920F920FB60A
:100870000F9211242F933F934F935F936F937F9326
:100880008F939F93AF93BF93EF93FF93E0910601F4
:10089000F09107010995FF91EF91BF91AF919F9161
:1008A0008F917F916F915F914F913F912F910F9019
:1008B0000FBE0F901F9018951F920F920FB60F92B8
:1008C00011242F933F938F939F93AF93BF93809166
:1008D0009E0290919F02A091A002B091A10230913E
:1008E0009D0223E0230F2D3720F40196A11DB11D99
:1008F00005C026E8230F0296A11DB11D20939D027D
:1009000080939E0290939F02A093A002B093A102B5
:100910008091A2029091A302A091A402B091A5029D
:100920000196A11DB11D8093A2029093A302A093F2
:10093000A402B093A502BF91AF919F918F913F9177
:100940002F910F900FBE0F901F9018952FB7F8940E
:1009500060919E0270919F028091A0029091A102ED
:100960002FBF08953FB7F8948091A2029091A302FF
:10097000A091A402B091A50226B5A89B05C02F3F67
:1009800019F00196A11DB11D3FBF6627782F892F51
:100990009A2F620F711D811D911D42E0660F771F16
:1009A000881F991F4A95D1F70895CF92DF92EF9251
:1009B000FF92CF93DF936B017C010E94B204EB01A5
:1009C000C114D104E104F10489F00E94AB080E9433
:1009D000B2046C1B7D0B683E734090F381E0C81A33
:1009E000D108E108F108C851DC4FEACFDF91CF917F
:1009F000FF90EF90DF90CF9008958230910538F00E
:100A0000880F991F880F991F05970197F1F708958F
:100A1000789484B5826084BD84B5816084BD85B5D9
:100A2000826085BD85B5816085BDEEE6F0E08081A0
:100A300081608083E1E8F0E01082808182608083C1
:100A4000808181608083E0E8F0E080818160808344
:100A5000E1EBF0E0808184608083E0EBF0E0808176
:100A600081608083EAE7F0E0808184608083808118
:100A700082608083808181608083808180688083C0
:100A80001092C1000895833081F028F4813099F0EC
:100A90008230A1F008958730A9F08830B9F0843011
:100AA000D1F4809180008F7D03C0809180008F778A
:100AB00080938000089584B58F7702C084B58F7DC0
:100AC00084BD08958091B0008F7703C08091B000FD
:100AD0008F7D8093B0000895CF93DF9390E0FC0169
:100AE000E458FF4F2491FC01E057FF4F8491882385
:100AF00049F190E0880F991FFC01E854FF4FA59140
:100B0000B49182559F4FFC01C591D4919FB761115B
:100B100008C0F8948C91209582238C93888182233D
:100B20000AC0623051F4F8948C91322F30958323AF
:100B30008C938881822B888304C0F8948C91822BBB
:100B40008C939FBFDF91CF9108950F931F93CF9305
:100B5000DF931F92CDB7DEB7282F30E0F901E859B7
:100B6000FF4F8491F901E458FF4F1491F901E057C8
:100B7000FF4F04910023C9F0882321F069830E946C
:100B800043056981E02FF0E0EE0FFF1FE255FF4FB4
:100B9000A591B4919FB7F8948C91611103C0109501
:100BA000812301C0812B8C939FBF0F90DF91CF9148
:100BB0001F910F910895CF93DF93282F30E0F90113
:100BC000E859FF4F8491F901E458FF4FD491F9019E
:100BD000E057FF4FC491CC2391F081110E9443054F
:100BE000EC2FF0E0EE0FFF1FEC55FF4FA591B491F5
:100BF0002C912D2381E090E021F480E002C080E080
:100C000090E0DF91CF910895FC01818D228D90E0DD
:100C1000805C9F4F821B91098F7399270895FC0177
:100C2000918D828D981731F0828DE80FF11D858DA1
:100C300090E008958FEF9FEF0895FC01918D828DD4
:100C4000981761F0828DDF01A80FB11D5D968C9120
:100C5000928D9F5F9F73928F90E008958FEF9FEF2B
:100C6000089581EA97E0892B49F080E090E0892B94
:100C700029F00E94A10781110C9400000895FC0145
:100C8000848DDF01A80FB11DA35ABF4F2C91848D15
:100C900090E001968F739927848FA689B7892C934A
:100CA000A089B1898C9180648C93938D848D9813E5
:100CB00006C00288F389E02D80818F7D80830895AE
:100CC000CF93DF93EC01888D8823C9F0EA89FB89F3
:100CD000808185FD05C0A889B9898C9186FD0FC0EA
:100CE0000FB607FCF5CF808185FFF2CFA889B989BF
:100CF0008C9185FFEDCFCE010E943F06E7CFDF91BB
:100D0000CF910895CF92DF92FF920F931F93CF93CD
:100D1000DF931F92CDB7DEB76C0181E0D601589604
:100D20008C9358975B969C915B975C968C915C97A3
:100D3000981307C05096ED91FC915197808185FDE5
:100D40002EC0F601038D10E00F5F1F4F0F731127A8
:100D5000F02EF601848DF81211C00FB607FCF9CF02
:100D6000D6015096ED91FC915197808185FFF1CF8E
:100D7000C60169830E943F066981EBCF838DE80F2E
:100D8000F11DE35AFF4F6083D6015B960C935B978E
:100D90005296ED91FC915397808180620CC0D601F0
:100DA0005696ED91FC91579760835096ED91FC918A
:100DB000519780818064808381E090E00F90DF9183
:100DC000CF911F910F91FF90DF90CF900895BF9228
:100DD000CF92DF92EF92FF92CF93DF93EC016A0103
:100DE0007B01B22EE889F98982E08083411581EE8A
:100DF000580761057105A1F060E079E08DE390E0AE
:100E0000A70196010E94C0082150310941095109EA
:100E10005695479537952795211580E1380798F025
:100E2000E889F989108260E874E88EE190E0A70112
:100E300096010E94C0082150310941095109569577
:100E4000479537952795EC85FD853083EE85FF85A1
:100E50002083188EEC89FD89B082EA89FB89808124
:100E600080618083EA89FB89808188608083EA8948
:100E7000FB89808180688083EA89FB8980818F7DFE
:100E80008083DF91CF91FF90EF90DF90CF90BF9064
:100E900008951F920F920FB60F9211242F938F93E4
:100EA0009F93EF93FF93E091B602F091B702808198
:100EB000E091BC02F091BD0282FD12C09081809150
:100EC000BF028F5F8F732091C002821751F0E091B3
:100ED000BF02F0E0EA55FD4F958F8093BF0201C03D
:100EE0008081FF91EF919F918F912F910F900FBE75
:100EF0000F901F9018951F920F920FB60F9211240A
:100F00002F933F934F935F936F937F938F939F9311
:100F1000AF93BF93EF93FF9386EA92E00E943F0660
:100F2000FF91EF91BF91AF919F918F917F916F91C1
:100F30005F914F913F912F910F900FBE0F901F9097
:100F4000189586EA92E00E94040621E0892B09F4B4
:100F500020E0822F08951092A9021092A80288EE34
:100F600093E0A0E0B0E08093AA029093AB02A0933C
:100F7000AC02B093AD028EE791E09093A70280930C
:100F8000A60285EC90E09093B3028093B20284ECC9
:100F900090E09093B5028093B40280EC90E090933F
:100FA000B7028093B60281EC90E09093B9028093EF
:100FB000B80282EC90E09093BB028093BA0286EC78
:100FC00090E09093BD028093BC021092BF021092F9
:100FD000C0021092C1021092C202089508950E94A8
:100FE00008050E94EE070E948D00C1E3D6E00E9432
:100FF000C3002097E1F30E943106F9CFCF92DF9230
:10100000EF92FF920F931F93CF93DF937C016A01BE
:10101000EB0100E010E00C151D0571F06991D7019E
:10102000ED91FC910190F081E02DC7010995892B8C
:1010300019F00F5F1F4FEFCFC801DF91CF911F91C4
:101040000F91FF90EF90DF90CF900895611571059B
:1010500081F0DB010D900020E9F7AD01415051090D
:10106000461B570BDC01ED91FC910280F381E02DD2
:10107000099480E090E008950C9426088F929F9246
:10108000AF92BF92CF92DF92EF92FF920F931F9396
:10109000CF93DF93CDB7DEB7A1970FB6F894DEBF3D
:1010A0000FBECDBF7C01C42EE52FCB01D22E19A2DD
:1010B00021E02D1510F02AE0D22E8E010F5D1F4F7A
:1010C0008D2C912CA12CB12C6C2D7E2FA50194017F
:1010D0000E94C0088C2DD29E801911240150110944
:1010E0008A3014F4805D01C0895CF8018083211589
:1010F00031054105510521F0C22EE32FCA01E4CF8D
:10110000B801C7010E942608A1960FB6F894DEBF69
:101110000FBECDBFDF91CF911F910F91FF90EF9048
:10112000DF90CF90BF90AF909F908F900895211542
:10113000310541F4DC01ED91FC910190F081E02D4D
:10114000642F09940C943E089A01462F50E060E009
:1011500070E00C9497080895AA1BBB1B51E107C0CF
:10116000AA1FBB1FA617B70710F0A61BB70B881F37
:10117000991F5A95A9F780959095BC01CD010895C6
:10118000A1E21A2EAA1BBB1BFD010DC0AA1FBB1F8B
:10119000EE1FFF1FA217B307E407F50720F0A21BFD
:1011A000B30BE40BF50B661F771F881F991F1A946A
:1011B00069F760957095809590959B01AC01BD0194
:1011C000CF010895052E97FB1EF400940E94F908A4
:1011D00057FD07D00E94C00807FC03D04EF40C94C2
:1011E000F90850954095309521953F4F4F4F5F4FEF
:1011F000089590958095709561957F4F8F4F9F4F83
:101200000895EE0FFF1F0590F491E02D0994F894D6
:02121000FFCF0E
:10121200020000000D040D04564D4450565F317C0F
:10122200315F564D4450560D0A0022010200000063
:101232000000564D4450435F005F564D4450430DED
:101242000A004572726F723A20417474656D70744F
:1012520020746F20736574206120726561642D6F44
:101262006E6C79207661726961626C65206F7220A2
:10127200646174612074797065206E6F7420737577
:1012820070706F727465640D0A00000000008206BF
:0A129200FE0704061D060F066006A5
:00000001FF
