:100000000C94BD000C94210F0C94480F0C94E50047
:100010000C94E5000C94E5000C94E5000C94030CA2
:100020000C94E5000C94E5000C94E5000C94E500BC
:100030000C94E5000C94E5000C94E5000C94E500AC
:100040000C946F0F0C94E5000C945C120C948E12BF
:100050000C94E5000C94E5000C94E5000C94E5008C
:100060000C94E5000C94E50009206D61783A00538A
:1000700070616365206D696E3A0009206D61783AA0
:10008000004D61726B20206D696E3A004578746591
:100090006E743D0009200009002073003A6D0020B5
:1000A0002073002020486561643A206D00293A20C1
:1000B0004761703A005261772073616D706C6573AF
:1000C000280020626974732900202800293A2056EC
:1000D000616C75653A0028004465636F646564204F
:1000E000004861736820436F6465004E45437800A3
:1000F0004A56430050616E61736F6E6963204F6CA6
:1001000064005243360052433500536F6E79004EFF
:10011000454300556E6B6E6F776E0000000008005F
:1001200002010000030407000000000000000001BD
:10013000020408102040800102040810200102047B
:10014000081020040404040404040402020202024D
:100150000203030303030300000000230026002919
:100160000000000000250028002B000000000024F3
:100170000027002A00004B02BE1211241FBECFEF41
:10018000D8E0DEBFCDBF13E0A0E0B1E0ECEEFCE2D2
:1001900002C005900D92A03AB107D9F725E0A0EA78
:1001A000B3E001C01D92A838B207E1F711E0CAE739
:1001B000D1E004C02297FE010E947016C637D10715
:1001C000C9F70E9402130C9474160C940000CF938C
:1001D000DF93EC0102960E944C04E2E8F2E0A4896D
:1001E000B58916970D90BC91A02DAC0FBD1F8689C7
:1001F00097898D939C93A08DB18D16970D90BC918E
:10020000A02DAC0FBD1F828D938D50969C938E9325
:100210001F97A2A1B3A116970D90BC91A02DAC0F72
:10022000BD1F84A195A154969C938E935397CE01A4
:100230004196248D358DD90116970D90BC91A02D36
:10024000A80FB91F468D578D4D935C93D901189710
:100250000D90BC91A02DA80FB91F80A191A18D93E5
:100260009C93CE014B9626A137A1D90116970D90EC
:10027000BC91A02DA80FB91F40A551A54D935C932B
:10028000D90118970D90BC91A02DA80FB91F82A578
:1002900093A58D939C93A4A5B5A516970D90BC919D
:1002A000A02DAC0FBD1F86A597A55E969C938E933F
:1002B0005D97A0A9B1A916970D90BC91A02DAC0F88
:1002C000BD1F82A993A990969C938E935F97A4A932
:1002D000B5A916970D90BC91A02DAC0FBD1F86A996
:1002E00097A992969C938E93919782ED92E0998331
:1002F00088838EED92E09B838A838CEE92E0988BCC
:100300008F8788EF92E09A8B898B80E093E09C8BBB
:100310008B8B8AE093E09C8F8B8F84E193E09E8FA0
:100320008D8F8EE193E098A38F8F88E293E09AA35C
:1003300089A3DF91CF91089540ED57E060E070E030
:100340008BEA94E00E94870E20E835E240E050E01E
:100350006BEE74E08BEA94E00E949A0E8BEA94E0D4
:100360000E94840E66E071E08091DC049091DD04CF
:100370000E9472136AE070E080E090E00E94E80F53
:1003800041E060E08BEA94E00E94050F62E082E0C9
:100390000E947F1062E08BE00E947F1061E08DE0A0
:1003A0000E947F1026E040E855E260E070E08BEEAE
:1003B00094E00C94FA118F929F92AF92BF92CF92D9
:1003C000DF92EF92FF920F931F938BE00E94EE104B
:1003D000892B09F055C082E00E94EE10892B19F498
:1003E00043E050E002C044E050E0662757FD6095CE
:1003F000762F1F921F921F921F9281E08F9386E2A9
:100400008F9383E08F9388EE8F9380ED882E87E023
:10041000982E98EEA92E93E0B92E28EEC22E23E056
:10042000D22E38EEE32E33E0F32E08E017E023E07F
:1004300085EC93E00E945E0D61E08DE00E94B810B3
:100440006091000170910101882777FD8095982FB8
:100450000E94E80F8DB79EB708960FB6F8949EBF1E
:100460000FBE8DBF60E08DE01F910F91FF90EF9068
:10047000DF90CF90BF90AF909F908F900C94B8106A
:100480001F910F91FF90EF90DF90CF90BF90AF90B2
:100490009F908F90089585EC93E00E94FB0C80E87C
:1004A00091E09093C4038093C30386E891E0909316
:1004B000CD038093CC038CE891E09093CF0380939D
:1004C000CE0382E991E09093D1038093D00388E931
:1004D00091E09093D3038093D2038EE991E09093BF
:1004E000D5038093D40384EA91E09093D70380935B
:1004F000D6038AEA91E09093D9038093D80380EAE7
:1005000093E00C94E70080E00895FC0112821382CE
:10051000148215821682178212860895CF93DF9374
:10052000CDB7DEB762970FB6F894DEBF0FBECDBF72
:1005300089300CF080E023E131E03A8329832FE019
:1005400031E03C832B832AE031E03E832D8326E09B
:1005500031E038872F8322E031E03A87298724EF82
:1005600030E03C872B8720EF30E03E872D872BEE55
:1005700030E0388B2F8721EE30E03A8B298BE82F43
:10058000EE0FFF0BEC0FFD1F8181928162960FB67B
:10059000F894DEBF0FBECDBFDF91CF9108952F92AB
:1005A0003F924F925F926F927F928F929F92AF9203
:1005B000BF92CF92DF92EF92FF920F931F93CF9350
:1005C000DF93EC018A81893074F568ED70E08BEE81
:1005D00094E00E944F138A810E948E02BC018BEE30
:1005E00094E00E944F1366ED70E08BEE94E00E9461
:1005F0004F136A81772767FD70954AE050E08BEED4
:1006000094E00E9434146CEC70E08BEE94E00E9455
:100610004F134B815C816D817E8120E130E08BEE58
:1006200094E00E94541469EC70E08BEE94E00E9418
:100630004F134AE050E06F818BEE94E00E9461140A
:1006400062EC70E08BEE94E00E947F1365EB70E04B
:100650008BEE94E00E944F134AE050E06A858BEEE7
:1006600094E00E9461146DEA70E08BEE94E00E94C9
:100670004F13E885F985608171814AE050E08BEE87
:1006800094E00E946E1463EA70E08BEE94E00E94A6
:100690004F13E885F985628173814AE050E08BEE63
:1006A00094E00E9468146FE970E08BEE94E00E9481
:1006B0004F13E885F985648175814AE050E08BEE3F
:1006C00094E00E946E14E885F985828193814480CC
:1006D0005580480E591E612C712CC12CD12C212C17
:1006E000312CAA24AA943FE7B32E88248A944FE79A
:1006F000942E53E0E52EF12C8A8590E0E816F90659
:100700000CF06EC0E885F985C701880F991FE80FC6
:10071000F91F00811181C801AA2797FDA095BA2F62
:10072000480E591E6A1E7B1EE0FE16C00A151B05E8
:100730000CF45801C016D1060CF46801B701759588
:100740006795615071094AE050E08BEE94E00E9499
:1007500034146CE970E00DC01016110624F408156D
:1007600019050CF44801201631060CF4180169E94A
:1007700070E08BEE94E00E944F134AE050E0B80125
:100780008BEE94E00E94341487010150110900FFA0
:1007900006C067E970E08BEE94E00E944F13C80139
:1007A00083709927019731F464E970E08BEE94E04F
:1007B0000E944F13C80187709927019721F48BEE8F
:1007C00094E00E947B130F7111270130110521F471
:1007D0008BEE94E00E947B138FEFE81AF80A8CCF1F
:1007E0008BEE94E00E947B136CE870E08BEE94E05B
:1007F0000E944F132AE030E0B301A2018BEE94E097
:100800000E94841461E870E08BEE94E00E944F1324
:100810004AE050E0B5018BEE94E00E9434146AE7A0
:1008200070E08BEE94E00E944F134AE050E0B60176
:100830008BEE94E00E943C146FE670E08BEE94E047
:100840000E944F134AE050E0B4018BEE94E00E9406
:10085000341468E670E08BEE94E00E944F134AE097
:1008600050E0B1018BEE94E00E943C148BEE94E0DA
:10087000DF91CF911F910F91FF90EF90DF90CF907C
:10088000BF90AF909F908F907F906F905F904F90B0
:100890003F902F900C947B13FC018EEA91E09183A2
:1008A000808382EE93E09187808713861282138281
:1008B0001482158216821782128608952F923F9213
:1008C0004F925F926F927F928F929F92AF92BF9260
:1008D000CF92DF92EF92FF920F931F93CF93DF930C
:1008E000CDB7DEB72E970FB6F894DEBF0FBECDBFE3
:1008F0001C013A872987BE82AD8281E0D1011C9616
:100900008C931C97662321F01A968C91861388C1CC
:10091000F101938491103AC041155105B9F1A084B9
:10092000B184D50112960D90BC91A02DBA83A983F4
:10093000BA0180E090E00E9428152B013C0120E0E4
:1009400030E040E45FE30E94B6150E94FC14E981A8
:10095000FA81E617F70708F415C2D5011296AD9093
:10096000BC90139720E030E040EA5FE3C301B2019E
:100970000E94B61520E030E040E85FE30E94981442
:100980000E94FC146A157B0508F4FCC182E0F101A9
:10099000848729853A852115310589F1A084B184A0
:1009A000D50114968D909C901597B90180E090E048
:1009B0000E9428152B013C0120E030E040E45FE379
:1009C0000E94B6150E94FC148616970608F428C1EA
:1009D000F501A480B58020E030E040EA5FE3C30188
:1009E000B2010E94B61520E030E040E85FE30E94CB
:1009F00098140E94FC146A157B0508F411C1D101FA
:100A00001A966C900115110509F463C0812C912C84
:100A10005401C601A0E0B0E089839A83AB83BC8314
:100A2000C801A0E0B0E08D839E83AF83B887C70183
:100A3000A0E0B0E089879A87AB87BC87D1011C967C
:100A40007C90272D30E07614D8F5D10118964D9082
:100A50005C901997F901EE0FFF1FE40DF51DFE875D
:100A6000ED870081118169817A818B819C810E944F
:100A700028156B017C0120E030E040E45FE30E9438
:100A8000B6150E94FC140617170708F4C9C0AD85F7
:100A9000BE850D911C9120E030E040EA5FE3C70184
:100AA000B6010E94B61520E030E040E85FE30E9406
:100AB00098140E94FC146017710708F07BC0B0C046
:100AC000C901019797FDC90195958795F101878324
:100AD00069C06A9483E0D1011C968C93812C912C7F
:100AE0005401C701A0E0B0E089839A83AB83BC8343
:100AF000C601A0E0B0E089879A87AB87BC87AD814B
:100B0000BE81CD01A0E0B0E08D839E83AF83B88726
:100B1000F1017484272D30E07614D0F5F101408482
:100B20005184C901880F991F840D951D9E878D875B
:100B3000DC010D911C9169817A818B819C810E94DD
:100B400028156B017C0120E030E040E45FE30E9467
:100B5000B6150E94FC140617170708F461C0ED854E
:100B6000FE850081118120E030E040EA5FE3C701AB
:100B7000B6010E94B61520E030E040E85FE30E9435
:100B800098140E94FC146017710708F087C048C0D1
:100B9000C901019797FDC901959587958150D101AC
:100BA00017968C93F10183829482A582B682992450
:100BB0009394E8C081E0870DD1011C968C9382014B
:100BC000080F111D080F111DF801408051806D8123
:100BD0007E818F8198850E9428156B017C0120E021
:100BE00030E040E45FE30E94B6150E94FC14461614
:100BF0005706C0F4D8014D905C9069857A858B8545
:100C00009C850E9428156B017C0120E030E040E4C7
:100C10005FE30E94B6150E94FC144616570618F5AD
:100C2000912CB0C0F8014080518020E030E040EAD3
:100C30005FE3C701B6010E94B61520E030E040E84E
:100C40005FE30E9498140E94FC146415750590F2ED
:100C5000880C991CAA1CBB1C689480F8739473942C
:100C6000F1017486EBCED8010D911C9120E030E0AB
:100C700040EA5FE3C701B6010E94B61520E030E00C
:100C800040E85FE30E9498140E94FC14601771070B
:100C900038F2880C991CAA1CBB1CE0CF81E0870DA0
:100CA000F10184878201080F111D080F111DD80161
:100CB0004D905C9069857A858B859C850E9428156E
:100CC0006B017C0120E030E040E45FE30E94B61558
:100CD0000E94FC144616570610F1D8014D905C9006
:100CE00020E030E040EA5FE3C701B6010E94B6159C
:100CF00020E030E040E85FE30E9498140E94FC147A
:100D00006415750560F0880C991CAA1CBB1C6894BE
:100D100080F873947394D1011C967C92F9CEF801FB
:100D2000408051806D817E818F8198850E94281539
:100D30006B017C0120E030E040E45FE30E94B615E7
:100D40000E94FC144616570608F46ACFF801008189
:100D5000118120E030E040EA5FE3C701B6010E9464
:100D6000B61520E030E040E85FE30E9498140E944E
:100D7000FC146017710708F453CF880C991CAA1C47
:100D8000BB1CC7CF892D2E960FB6F894DEBF0FBEC1
:100D9000CDBFDF91CF911F910F91FF90EF90DF902A
:100DA000CF90BF90AF909F908F907F906F905F900B
:100DB0004F903F902F900895AF92BF92CF92DF92C5
:100DC000EF92FF920F931F93CF93DF93EC01E88193
:100DD000F98136970190F081E02DE80FF91F8285A7
:100DE000843089F5A085B18514968D919C911597D5
:100DF0008739964040F114968D919C9115978E3FBE
:100E00009A4008F516968D919C911797873A9140D4
:100E1000D0F016968D919C911797833C924098F450
:100E20001782E881F98136970190F081E02DEC0F6F
:100E3000FD1F8FEF9FEFDC0183839483A583B6832F
:100E400081E0828322C084E3A82E82E0B82E9CE950
:100E5000C92E96E0D92E24E3E22E22E0F22E00E005
:100E600010E020EA31E140E453E264E4CF010E9463
:100E70005E04882351F0E881F98136970190F08172
:100E8000E02DEC0FFD1F91E09283DF91CF911F9138
:100E90000F91FF90EF90DF90CF90BF90AF900895AB
:100EA000AF92BF92CF92DF92EF92FF920F931F9378
:100EB000CF93DF93EC01E881F981369780819181AE
:100EC0008C0F9D1FFC012285322F377F323131F08C
:100ED000203221F02A3211F080E01FC0A12CB12C69
:100EE00038E5C32E32E0D32E48E5E42E42E0F42E5E
:100EF00000EB14E028E532E040E659E060E00E94B3
:100F00005E04882349F3E881F98136970190F081E6
:100F1000E02DEC0FFD1F92E09283DF91CF911F91A6
:100F20000F91FF90EF90DF90CF90BF90AF9008951A
:100F3000AF92BF92CF92DF92EF92FF920F931F93E7
:100F4000CF93DF93EC01E881F9813697808191811D
:100F500051E4A52E53E0B52E63ECC62E69E0D62EE3
:100F600071E4E72E73E0F72E00E010E024E03DE0AE
:100F700044E05DE060E38C0F9D1F0E945E048823C7
:100F800051F0E881F98136970190F081E02DEC0F66
:100F9000FD1F95E09283DF91CF911F910F91FF90FC
:100FA000EF90DF90CF90BF90AF900895AF92BF9237
:100FB000CF92DF92EF92FF920F931F93CF93DF9325
:100FC000EC01E881F981369780819181E4E3AE2ECE
:100FD000E2E0BE2EFCE9CF2EF6E0DF2EA4E3EA2EFF
:100FE000A2E0FA2E00E010E020EA31E140EA51E10F
:100FF00064E48C0F9D1F0E945E04882351F0E881F9
:10100000F98136970190F081E02DEC0FFD1F97E0FC
:101010009283DF91CF911F910F91FF90EF90DF901E
:10102000CF90BF90AF9008959F92AF92BF92CF9212
:10103000DF92EF92FF920F931F93CF93DF93EC0118
:10104000E881F981369780819181BDE0AB2EB2E0D5
:10105000BB2E17E2C12E16E0D12E0DE0E02E02E0ED
:10106000F02E00E010E028E630E140ED50E264E2CE
:101070008C0F9D1F0E945E04982E81113BC0E88159
:10108000F98136970190F081E02DEC0FFD1F8285EC
:10109000823209F04AC020E030E04DE052E060E0EA
:1010A000CF010E945E04882309F43FC0E881F981E2
:1010B00036970190F081E02DEC0FFD1FA085B185E2
:1010C00018968D919C9119978D39944000F118963E
:1010D0008D919C911997823B9740C8F4438154812C
:1010E00065817681506843835483658376838781E5
:1010F0008F5F8783E881F98136970190F081E02D39
:10110000EC0FFD1F86E08283992493940EC01896FD
:101110008D919C9119978938914038F018968D914E
:101120009C9119978239924010F3892DDF91CF91CC
:101130001F910F91FF90EF90DF90CF90BF90AF90F5
:101140009F9008952F923F924F925F926F927F925D
:101150008F929F92AF92BF92CF92DF92EF92FF92C7
:101160000F931F93CF93DF9300D01F92CDB7DEB7BD
:101170007C015B016A01DC01ED91FC9136970081F5
:101180001181080F191FF80194848285981608F0C0
:10119000BAC090858185E92FF82FE90DF11DE90D81
:1011A000F11D208131813B832A83892D80958170B7
:1011B0008983812CBA0180E090E00E9428152B01E0
:1011C0003C0120E030E040E45FE30E94B6150E945D
:1011D000FC14AA81BB81A617B707B0F020E030E06D
:1011E00040EA5FE3C301B2010E94B61520E030E09F
:1011F00040E85FE30E9498140E94FC14EA81FB819E
:101200006E177F0708F064C01601220C331CB10171
:1012100080E090E00E9428152B013C0120E030E0A6
:1012200040E45FE30E94B6150E94FC142A813B81D2
:1012300026173707A8F020E030E040EA5FE3C3015B
:10124000B2010E94B61520E030E040E85FE30E9462
:1012500098140E94FC14AA81BB816A177B07D0F501
:10126000B1016C0D7D1D80E090E00E9428152B01DE
:101270003C0120E030E040E45FE30E94B6150E94AC
:10128000FC14EA81FB81E617F707A8F020E030E0C4
:1012900040EA5FE3C301B2010E94B61520E030E0EE
:1012A00040E85FE30E9498140E94FC142A813B816D
:1012B0006217730788F4D8011B968C91882331F14B
:1012C000B1E09B1226C0EA81FB81EC15FD0520F5FB
:1012D00091E003C092E001C093E0D5018C918F5F53
:1012E000891710F48C931BC0F5011082D701ED9182
:1012F000FC9136970190F081E02DEE0DFF1D848565
:101300008F5F84870CC0B1E0B98308C0E2E0E98355
:1013100005C0F2E0F98302C022E02983812C898193
:10132000982D0F900F900F90DF91CF911F910F91FB
:10133000FF90EF90DF90CF90BF90AF909F908F90F5
:101340007F906F905F904F903F902F9008950F93F4
:101350001F93CF93DF93EC01E881F98138970190D7
:10136000F081E02DE80FF91F82858D3008F4B1C0BF
:1013700081E08487E881F98136970190F081E02D42
:10138000EC0FFD1F14821582168217821382E881EA
:10139000F9813697808191818C0F9D1FBC016D5F13
:1013A0007F4F49E753E00E94A208892B09F091C0C2
:1013B000E881F98136970190F081E02DEC0FFD1F57
:1013C000128288819981FC0138970190F081E02D8B
:1013D000EC0FFD1F34852285321708F05AC0FC013E
:1013E0003697808191818C0F9D1FBC016D5F7F4F6F
:1013F00049E753E00E94A2088C01E881F981369701
:10140000808191818C0F9D1FBC016D5F7F4F49E7EB
:1014100053E00E94A20801301105A9F4892B09F0BC
:1014200058C0E881F98136970190F081E02DEC0FEA
:10143000FD1F4481558166817781440F551F661FCA
:10144000771F416016C0012B09F043C0019709F0D6
:1014500040C0E881F98136970190F081E02DEC0FD2
:10146000FD1F4481558166817781440F551F661F9A
:10147000771F4483558366837783E881F9813697A4
:101480000190F081E02DEC0FFD1F82818F5F828340
:1014900098CF8DE0878388819981FC0138970190EE
:1014A000F081E02DEC0FFD1FDC0116970D90BC9133
:1014B000A02DAC0FBD1F14968D919D910D90BC91E8
:1014C000A02D83839483A583B68383E0828381E008
:1014D00001C080E0DF91CF911F910F910895EF92AD
:1014E000FF920F931F93CF93DF93EC01E881F98173
:1014F00038970190F081E02DE80FF91F8285811166
:1015000002C080E019C18385A085B18581110EC01C
:1015100012968D919C9113978F3C974090F3129661
:101520008D919C91139786309D4058F714968D911C
:101530009C9115978A39924020F314968D919C9135
:10154000159789359440E8F683E08487E881F9812E
:1015500036970190F081E02DEC0FFD1F148215826B
:10156000168217821382E881F981369780819181F2
:101570008C0F9D1FBC016D5F7F4F4CEB51E00E94B3
:10158000A208892B09F0BDCFE881F98136978081C7
:1015900091818C0F9D1FBC016D5F7F4F4CEB51E023
:1015A0000E94A208019709F0ACCFE881F981369733
:1015B0000190F081E02DEC0FFD1F1282A881B9810E
:1015C000FD0138970190F081E02DEC0FFD1F94850F
:1015D00082851697981708F08AC08D919C918C0F80
:1015E0009D1FBC016D5F7F4F4CEB51E00E94A20834
:1015F0008C01E881F98136970190F081E02DEC0FA4
:10160000FD1F82818330D9F0E881F981369780818E
:1016100091818C0F9D1FBC016D5F7F4F4CEB51E0A2
:101620000E94A2087C01E881F98136970190F0813F
:10163000E02DEC0FFD1F82818330C9F40CC0BF0187
:101640006D5F7F4F4CEB51E0CF010E94A20808175D
:101650001907D1F256CFBF016D5F7F4F4CEB51E0C0
:10166000CF010E94A208E816F90609F04ACF011539
:101670001105B1F4EA94EF2809F043CFE881F9812C
:1016800036970190F081E02DEC0FFD1F44815581CC
:1016900066817781440F551F661F771F416017C011
:1016A0000130110509F02DCFEF2809F02ACFE8818C
:1016B000F98136970190F081E02DEC0FFD1F4481F8
:1016C000558166817781440F551F661F771F4483BC
:1016D000558366837783E881F98136970190F0819D
:1016E000E02DEC0FFD1F82818F5F828367CF0D900D
:1016F000BC91A02DAC0FBD1F12968C918783888161
:101700009981FC0138970190F081E02DEC0FFD1FCD
:10171000DC0116970D90BC91A02DAC0FBD1F149647
:101720008D919D910D90BC91A02D83839483A58371
:10173000B68384E0828381E0DF91CF911F910F9186
:10174000FF90EF900895CF93DF93EC01E881F9814A
:101750003A97808191818C0F9D1F0E94DC06811138
:1017600042C0E881F9813C97808191818C0F9D1F57
:101770000E945007811137C0E881F9813E9780812E
:1017800091818C0F9D1F0E94A70981112CC0E881B7
:10179000F9817297808191818C0F9D1F0E946F0A41
:1017A000811121C0E881F9817497808191818C0F2A
:1017B0009D1F0E949807811116C0E881F9817897D2
:1017C000808191818C0F9D1F0E94D60781110BC0D3
:1017D000E881F9817697808191818C0F9D1FDF913F
:1017E000CF910C94140881E0DF91CF9108958091FE
:1017F000DD03882339F08091AA0480FF02C02D9A6E
:1018000008952D9808951F920F920FB60F921124EC
:101810002F933F934F935F936F937F938F939F93F8
:10182000AF93BF93EF93FF938091DA030E94EE1082
:101830004091DE035091DF036091E0037091E1037A
:101840004F5F5F4F6F4F7F4F4093DE035093DF0337
:101850006093E0037093E1032091AA04243630F0F2
:1018600024E030E03093DC032093DB032091DB03A2
:101870003091DC032230310509F124F421303105A7
:1018800049F07FC023303105E1F12430310509F4FE
:101890006EC077C0892B09F074C08091DE039091EF
:1018A000DF03A091E003B091E10384369105A10527
:1018B000B10508F45EC01092AA0425C0019709F092
:1018C00060C0E091AA0481E08E0F8093AA04F0E04A
:1018D0008091DE039091DF03A091E003B091E103DA
:1018E000EE0FFF1FEE51FC4F918380831092DE03B9
:1018F0001092DF031092E0031092E10383E090E086
:1019000031C0892B01F5E091AA0481E08E0F80930C
:10191000AA04F0E08091DE039091DF03A091E00340
:10192000B091E103EE0FFF1FEE51FC4F91838083D6
:101930001092DE031092DF031092E0031092E10395
:1019400082E090E00FC08091DE039091DF03A091D0
:10195000E003B091E10385369105A105B10588F05A
:1019600084E090E09093DC038093DB030AC0892B32
:1019700041F41092DE031092DF031092E003109204
:10198000E1030E94F70BFF91EF91BF91AF919F91FF
:101990008F917F916F915F914F913F912F910F9018
:1019A0000FBE0F901F901895CF93C62F1092700006
:1019B00061E083E00E947F1060E083E00E94B81045
:1019C0002C2F30E040E050E060E47FE180E090E0E8
:1019D0000E944F1681E08093B00089E08093B100AF
:1019E0002093B3008BEA289F212D11242695209364
:1019F000B400CF91089561E083E00E947F1060E021
:101A000083E00C94B810CF93DF930097B1F0813846
:101A10002EE3920770F068EE73E00E941916EB0156
:101A20000E941010BE0180E090E0DF91CF910C94F5
:101A3000E80FDF91CF910C941010DF91CF910895B2
:101A40000F931F93CF93DF93EC018B01E0EBF0E05A
:101A5000808180628083CB010E94030D488159817F
:101A60006A817B81400F511F611D711D488359831D
:101A70006A837B83DF91CF911F910F9108950F931C
:101A80001F93CF93DF93EC018B01E0EBF0E08081BB
:101A90008F7D8083CB010E94030D488159816A812B
:101AA0007B81400F511F611D711D488359836A83DB
:101AB0007B83DF91CF911F910F9108952F923F92D9
:101AC0004F925F926F927F928F929F92AF92BF924E
:101AD000CF92DF92EF92FF920F931F93CF93DF93FA
:101AE000CDB7DEB729970FB6F894DEBF0FBECDBFD6
:101AF0003C011A012B018E8D9F8D98878F8368A1E1
:101B000039A139878AA19BA1ACA1BDA18B839C83FC
:101B1000AD83BE83D3011D921D921D921C9213971B
:101B2000E22FF0E0FA83E98380E290E08E1B9F0BC6
:101B300004C0220C331C441C551C8A95D2F7C301E7
:101B40000E94D40C0115110521F0B801C3010E94B7
:101B5000200DE114F10421F0B701C3010E943F0DF3
:101B600000E010E029813A8102171307C4F457FE00
:101B700006C0B601C3010E94200DB40106C0B50124
:101B8000C3010E94200D6F817885C3010E943F0D23
:101B9000220C331C441C551C0F5F1F4FE3CF3985AB
:101BA000332321F0B601C3010E94200D8B819C815B
:101BB000AD81BE81892B8A2B8B2B41F0D3018D9176
:101BC0009C916B817C81681B790B01C0B401C301BE
:101BD00029960FB6F894DEBF0FBECDBFDF91CF912F
:101BE0001F910F91FF90EF90DF90CF90BF90AF903B
:101BF0009F908F907F906F905F904F903F902F902D
:101C00000C943F0DDC01ED91FC91389720813181DE
:101C1000820F931F0C94DC06DC01ED91FC91389748
:101C200020813181820F931F0C945007DC01ED91CC
:101C3000FC91389720813181820F931F0C94980773
:101C4000DC01ED91FC91389720813181820F931F47
:101C50000C94D607DC01ED91FC91389720813181FD
:101C6000820F931F0C941408DC01ED91FC913897BE
:101C700020813181820F931F0C94A709DC01ED9123
:101C8000FC91389720813181820F931F0C946F0A49
:101C9000DC01ED91FC91389720813181820F931FF7
:101CA0000C94A30BDC01ED91FC913A9720813181DA
:101CB000820F931F0C94A30B0F931F93CF93DF936B
:101CC000EC01662359F00E94B90F69837A838B83F4
:101CD0009C83DF91CF911F910F9108950E94B90FBE
:101CE00009811A812B813C81601B710B820B930B44
:101CF000623371058105910530F763E070E080E0A3
:101D000090E00E94E80FEACF60E00C945C0EFC01CA
:101D100013AA14AA15AA16AA118212821382148277
:101D2000411551056105710521F0CB01BA010C94F3
:101D3000E80F0895FB01BA01A901DC01D296FC93DA
:101D4000EE93D19726E0CF010C94FA111F93CF9315
:101D5000DF93EC01162F6AE273E089A99AA90E9429
:101D600072134AE050E0612F89A99AA90E94611478
:101D700061E373E089A99AA90E94721362E370E09B
:101D800080E090E0DF91CF911F910C94E80F1F93BA
:101D9000CF93DF93EC01162F8D81882389F189A9D8
:101DA0009AA9DC01ED91FC910480F581E02D099563
:101DB000892BA9F307C02637310519F128353105DC
:101DC00009F41D8289A99AA9DC01ED91FC91048096
:101DD000F581E02D09951816190694F489A99AA998
:101DE000DC01ED91FC910680F781E02D09959C01C5
:101DF000332723363105F9F6612FCE010E94A60E56
:101E000083E6DF91CF911F9108950F931F93CF9396
:101E1000DF931F92CDB7DEB78C01662349F081E0D6
:101E2000F801858360E0C80149830E94C70E49819B
:101E3000F80145830F90DF91CF911F910F91089585
:101E400008951F920F920FB60F9211242F933F9374
:101E50004F935F936F937F938F939F93AF93BF93B2
:101E6000EF93FF93E0910201F09103010995FF9137
:101E7000EF91BF91AF919F918F917F916F915F9102
:101E80004F913F912F910F900FBE0F901F9018957B
:101E90001F920F920FB60F9211242F933F934F93DF
:101EA0005F936F937F938F939F93AF93BF93EF93C2
:101EB000FF93E0910401F09105010995FF91EF91E5
:101EC000BF91AF919F918F917F916F915F914F9152
:101ED0003F912F910F900FBE0F901F9018951F925A
:101EE0000F920FB60F9211242F933F938F939F93CE
:101EF000AF93BF938091E3049091E404A091E50433
:101F0000B091E6043091E20423E0230F2D3720F452
:101F10000196A11DB11D05C026E8230F0296A11D43
:101F2000B11D2093E2048093E3049093E404A09312
:101F3000E504B093E6048091E7049091E804A09151
:101F4000E904B091EA040196A11DB11D8093E70454
:101F50009093E804A093E904B093EA04BF91AF9191
:101F60009F918F913F912F910F900FBE0F901F90D7
:101F700018952FB7F8946091E3047091E404809170
:101F8000E5049091E6042FBF08953FB7F89480913F
:101F9000E7049091E804A091E904B091EA0426B521
:101FA000A89B05C02F3F19F00196A11DB11D3FBF91
:101FB0006627782F892F9A2F620F711D811D911D21
:101FC00042E0660F771F881F991F4A95D1F7089541
:101FD000CF92DF92EF92FF92CF93DF936B017C0160
:101FE0000E94C50FEB01C114D104E104F10489F092
:101FF0000E9496140E94C50F6C1B7D0B683E7340B7
:1020000090F381E0C81AD108E108F108C851DC4F0B
:10201000EACFDF91CF91FF90EF90DF90CF900895BE
:102020008230910538F0880F991F880F991F059706
:102030000197F1F70895789484B5826084BD84B5E2
:10204000816084BD85B5826085BD85B5816085BDB3
:10205000EEE6F0E0808181608083E1E8F0E01082CC
:10206000808182608083808181608083E0E8F0E00D
:10207000808181608083E1EBF0E0808184608083F7
:10208000E0EBF0E0808181608083EAE7F0E080812E
:10209000846080838081826080838081816080838E
:1020A0008081806880831092C1000895833081F020
:1020B00028F4813099F08230A1F008958730A9F09A
:1020C0008830B9F08430D1F4809180008F7D03C0D6
:1020D000809180008F7780938000089584B58F77FA
:1020E00002C084B58F7D84BD08958091B0008F7744
:1020F00003C08091B0008F7D8093B0000895CF938E
:10210000DF9390E0FC01E15DFE4F2491FC01ED5B6B
:10211000FE4F8491882349F190E0880F991FFC01BC
:10212000E559FE4FA591B4918F599E4FFC01C59181
:10213000D4919FB7611108C0F8948C9120958223A7
:102140008C93888182230AC0623051F4F8948C9178
:10215000322F309583238C938881822B888304C00F
:10216000F8948C91822B8C939FBFDF91CF9108952F
:102170000F931F93CF93DF931F92CDB7DEB7282F16
:1021800030E0F901E55EFE4F8491F901E15DFE4F1B
:102190001491F901ED5BFE4F04910023C9F08823EF
:1021A00021F069830E9456106981E02FF0E0EE0F64
:1021B000FF1FEF59FE4FA591B4919FB7F8948C91F2
:1021C000611103C01095812301C0812B8C939FBFA7
:1021D0000F90DF91CF911F910F910895CF93DF93CF
:1021E000282F30E0F901E55EFE4F8491F901E15DB1
:1021F000FE4FD491F901ED5BFE4FC491CC2391F0D9
:1022000081110E945610EC2FF0E0EE0FFF1FE95AEB
:10221000FE4FA591B4912C912D2381E090E021F403
:1022200080E002C080E090E0DF91CF910895FC0152
:10223000818D228D90E0805C9F4F821B91098F736E
:1022400099270895FC01918D828D981731F0828D28
:10225000E80FF11D858D90E008958FEF9FEF0895B1
:10226000FC01918D828D981761F0828DDF01A80F9E
:10227000B11D5D968C91928D9F5F9F73928F90E0C0
:1022800008958FEF9FEF089584EB92E1892B49F039
:1022900080E090E0892B29F00E94B41281110C9407
:1022A00000000895FC01848DDF01A80FB11DA35A21
:1022B000BF4F2C91848D90E001968F739927848F66
:1022C000A689B7892C93A089B1898C9180648C935D
:1022D000938D848D981306C00288F389E02D808148
:1022E0008F7D80830895CF93DF93EC01888D8823C1
:1022F000C9F0EA89FB89808185FD05C0A889B98973
:102300008C9186FD0FC00FB607FCF5CF808185FF4D
:10231000F2CFA889B9898C9185FFEDCFCE010E94BB
:102320005211E7CFDF91CF910895CF92DF92FF92C4
:102330000F931F93CF93DF931F92CDB7DEB76C013E
:1023400081E0D60158968C9358975B969C915B9749
:102350005C968C915C97981307C05096ED91FC9118
:102360005197808185FD2EC0F601038D10E00F5F2F
:102370001F4F0F731127F02EF601848DF81211C034
:102380000FB607FCF9CFD6015096ED91FC9151970D
:10239000808185FFF1CFC60169830E945211698156
:1023A000EBCF838DE80FF11DE35AFF4F6083D60119
:1023B0005B960C935B975296ED91FC9153978081BD
:1023C00080620CC0D6015696ED91FC9157976083C0
:1023D0005096ED91FC91519780818064808381E0DB
:1023E00090E00F90DF91CF911F910F91FF90DF90C0
:1023F000CF900895BF92CF92DF92EF92FF92CF934A
:10240000DF93EC016A017B01B22EE889F98982E051
:102410008083411581EE580761057105A1F060E0E8
:1024200079E08DE390E0A70196010E942D162150DE
:102430003109410951095695479537952795211539
:1024400080E1380798F0E889F989108260E874E83B
:102450008EE190E0A70196010E942D1621503109CE
:10246000410951095695479537952795EC85FD8586
:102470003083EE85FF852083188EEC89FD89B0823C
:10248000EA89FB89808180618083EA89FB89808178
:1024900088608083EA89FB89808180688083EA89FB
:1024A000FB8980818F7D8083DF91CF91FF90EF90BA
:1024B000DF90CF90BF9008951F920F920FB60F92AA
:1024C00011242F938F939F93EF93FF93E091FB043D
:1024D000F091FC048081E0910105F091020582FDFC
:1024E00012C09081809104058F5F8F732091050544
:1024F000821751F0E0910405F0E0E551FB4F958F14
:102500008093040501C08081FF91EF919F918F918D
:102510002F910F900FBE0F901F9018951F920F9242
:102520000FB60F9211242F933F934F935F936F93A6
:102530007F938F939F93AF93BF93EF93FF938BEE14
:1025400094E00E945211FF91EF91BF91AF919F9142
:102550008F917F916F915F914F913F912F910F904C
:102560000FBE0F901F9018958BEE94E00E941711EC
:1025700021E0892B09F420E0822F08951092EE04C7
:102580001092ED0488EE93E0A0E0B0E08093EF04B9
:102590009093F004A093F104B093F20486E893E0E2
:1025A0009093EC048093EB0485EC90E09093F80416
:1025B0008093F70484EC90E09093FA048093F904FC
:1025C00080EC90E09093FC048093FB0481EC90E01D
:1025D0009093FE048093FD0482EC90E090930005BC
:1025E0008093FF0486EC90E09093020580930105B0
:1025F0001092040510920505109206051092070529
:10260000089508950E941B100E9401130E949C01CE
:10261000C4E4D1E10E94DB012097E1F30E94441160
:10262000F9CFCF92DF92EF92FF920F931F93CF9348
:10263000DF937C016A01EB0100E010E00C151D0541
:1026400071F06991D701ED91FC910190F081E02D3D
:10265000C7010995892B19F00F5F1F4FEFCFC801F4
:10266000DF91CF911F910F91FF90EF90DF90CF906E
:1026700008956115710581F0DB010D900020E9F7E7
:10268000AD0141505109461B570BDC01ED91FC9106
:102690000280F381E02D099480E090E00895EF92AC
:1026A000FF920F931F93CF93DF938C017B01C0E0C8
:1026B000D0E0F701EC0FFD1F6491662359F0F8019B
:1026C000A081B181ED91FC91C8010995892B11F090
:1026D0002196EFCFCE01DF91CF911F910F91FF9007
:1026E000EF9008950C943913DC01ED91FC91019069
:1026F000F081E02D099467E373E00C9439130F9394
:102700001F93CF93DF93EC010E944F138C01CE01F6
:102710000E947B13800F911FDF91CF911F910F912A
:1027200008958F929F92AF92BF92CF92DF92EF92D5
:10273000FF920F931F93CF93DF93CDB7DEB7A1978F
:102740000FB6F894DEBF0FBECDBF7C01C42EE52FBF
:10275000CB01D22E19A221E02D1510F02AE0D22EA5
:102760008E010F5D1F4F8D2C912CA12CB12C6C2D47
:102770007E2FA50194010E942D168C2DD29E8019CA
:102780001124015011098A3014F4805D01C0895C64
:10279000F8018083211531054105510521F0C22E34
:1027A000E32FCA01E4CFB801C7010E943913A196F3
:1027B0000FB6F894DEBF0FBECDBFDF91CF911F9152
:1027C0000F91FF90EF90DF90CF90BF90AF909F90D0
:1027D0008F900895CF92DF92EF92FF920F931F9305
:1027E000CF93DF93EC016A017B012115310579F468
:1027F000E881F9810190F081E02D642FDF91CF9184
:102800001F910F91FF90EF90DF90CF9009942A30A5
:102810003105E9F477FF1AC06DE20E9474138C0150
:1028200044275527BA014C195D096E097F092AE032
:10283000CE010E949113800F911FDF91CF911F91C4
:102840000F91FF90EF90DF90CF9008952AE0B701AD
:10285000A601CE01DF91CF911F910F91FF90EF90D4
:10286000DF90CF900C9491139A01AB01662757FD2E
:102870006095762F0C94EA130F931F93CF93DF93F9
:10288000EC019A01AB01662757FD6095762F0E94F7
:10289000EA138C01CE010E947B13800F911FDF9100
:1028A000CF911F910F9108952115310541F4DC015D
:1028B000ED91FC910190F081E02D642F09940C942E
:1028C00091139A01462F50E060E070E00C9454148C
:1028D0009A01AB0160E070E00C9454140F931F93C5
:1028E000CF93DF93EC019A01AB0160E070E00E94AE
:1028F00054148C01CE010E947B13800F911FDF9135
:10290000CF911F910F9108950F931F93CF93DF9352
:10291000EC010E9454148C01CE010E947B13800FA5
:10292000911FDF91CF911F910F91089508955058F5
:10293000BB27AA270ED0E0C0D1D030F0D6D020F0EF
:1029400031F49F3F11F41EF4C6C00EF4E095E7FB8E
:10295000BCC0E92FE2D080F3BA176207730784077F
:10296000950718F071F49EF5FAC00EF4E0950B2E61
:10297000BA2FA02D0B01B90190010C01CA01A001D1
:102980001124FF27591B99F0593F50F4503E68F12C
:102990001A16F040A22F232F342F4427585FF3CF6D
:1029A000469537952795A795F0405395C9F77EF43E
:1029B0001F16BA0B620B730B840BBAF09150A1F087
:1029C000FF0FBB1F661F771F881FC2F70EC0BA0F0D
:1029D000621F731F841F48F4879577956795B79595
:1029E000F7959E3F08F0B3CF9395880F08F099278D
:1029F000EE0F97958795089598D088F09F5790F09F
:102A0000B92F9927B751A0F0D1F0660F771F881F13
:102A1000991F1AF0BA95C9F712C0B13081F09FD052
:102A2000B1E008959CC0672F782F8827B85F39F0F0
:102A3000B93FCCF3869577956795B395D9F73EF472
:102A400090958095709561957F4F8F4F9F4F08951A
:102A5000E89409C097FB3EF4909580957095619538
:102A60007F4F8F4F9F4F9923A9F0F92F96E9BB27EE
:102A70009395F695879577956795B795F111F8CF6A
:102A8000FAF4BB0F11F460FF1BC06F5F7F4F8F4FD5
:102A90009F4F16C0882311F096E911C0772321F0CB
:102AA0009EE8872F762F05C0662371F096E8862F63
:102AB00070E060E02AF09A95660F771F881FDAF7BA
:102AC000880F9695879597F9089597F99F6780E8FD
:102AD00070E060E008959FEF80EC089500240A9470
:102AE0001616170618060906089500240A941216E9
:102AF0001306140605060895092E0394000C11F41C
:102B0000882352F0BB0F40F4BF2B11F460FF04C0C8
:102B10006F5F7F4F8F4F9F4F089557FD9058440F21
:102B2000551F59F05F3F71F04795880F97FB991F2C
:102B300061F09F3F79F087950895121613061406E9
:102B4000551FF2CF4695F1DF08C016161706180676
:102B5000991FF1CF86957105610508940895E89451
:102B6000BB2766277727CB0197F908950BD0C4CFF1
:102B7000B5DF28F0BADF18F0952309F0A6CFABCF68
:102B80001124EECFCADFA0F3959FD1F3950F50E04B
:102B9000551F629FF001729FBB27F00DB11D639F0F
:102BA000AA27F00DB11DAA1F649F6627B00DA11DB5
:102BB000661F829F2227B00DA11D621F739FB00D5B
:102BC000A11D621F839FA00D611D221F749F3327CB
:102BD000A00D611D231F849F600D211D822F762F64
:102BE0006A2F11249F5750408AF0E1F088234AF061
:102BF000EE0FFF1FBB1F661F771F881F91505040AD
:102C0000A9F79E3F510570F060CFAACF5F3FECF36C
:102C1000983EDCF3869577956795B795F795E79598
:102C20009F5FC1F7FE2B880F911D9695879597F9A9
:102C30000895AA1BBB1B51E107C0AA1FBB1FA61703
:102C4000B70710F0A61BB70B881F991F5A95A9F755
:102C500080959095BC01CD010895A1E21A2EAA1B82
:102C6000BB1BFD010DC0AA1FBB1FEE1FFF1FA2173C
:102C7000B307E407F50720F0A21BB30BE40BF50B39
:102C8000661F771F881F991F1A9469F760957095C2
:102C9000809590959B01AC01BD01CF010895052E53
:102CA00097FB1EF400940E94661657FD07D00E9401
:102CB0002D1607FC03D04EF40C94661650954095E3
:102CC000309521953F4F4F4F5F4F089590958095D8
:102CD000709561957F4F8F4F9F4F0895EE0FFF1FA7
:0C2CE0000590F491E02D0994F894FFCFCA
:102CEC00E803200F200F564D4450565F317C315F66
:102CFC00564D4450560D0A00EDFF00000000EFFF4A
:102D0C0000000000F1FF00000000F3FF00000000D5
:102D1C00F5FF00000000F7FF00000000F9FF0000C5
:102D2C0000000200000000008001800186018C017F
:102D3C00920198019E01A401AA01480142013C01A3
:102D4C00360130012A0124011E0115001300110067
:102D5C000F000D000B000900000002000000000035
:102D6C00F9FFF7FF0000F7FFF5FF0000F5FFF3FF99
:102D7C000000F3FFF1FF0000F1FFEFFF0000EFFF99
:102D8C00EDFF0000EDFFEBFF0000000000008502EE
:102D9C008302CF02E1FF00000000D60700001F00F5
:102DAC0000001F0000008502200ECF02E3FF000090
:102DBC000000140800001D0000001D00000085022A
:102DCC002A0ECF02E5FF00000000980700001B0050
:102DDC0000001B0000008502160ECF02E7FFF8FF73
:102DEC00000000006F0AEFFF08000000000019004F
:102DFC0000001900000085023E0ECF02EFFF00001C
:102E0C000000000000000000110000008502830299
:102E1C00CF02F1FF020000000000A709EFFFFEFF48
:102E2C00000000000F0000000F0000008502340EAF
:102E3C00CF02F3FF00000000500700000D0000005F
:102E4C000D00000085020C0ECF02020000000000F5
:102E5C00DC060000FEFF0000FEFF00008502020EF3
:102E6C00CF02D202D202DE02EC02F80200030A0305
:102E7C0014031E03280370027C02580264023A02F7
:102E8C0042024C0222022C0204020C021602EA013B
:102E9C00F601D201DE01BA01C60121001F001D009E
:102EAC001B00130011000F000000000002000000C6
:102EBC000000A30B0000FEFF0000FEFF00008502D7
:102ECC00480ECF02F1FFF3FFF1FF0000480EEFFFB9
:102EDC00F1FF0200EFFF0000520EEFFFEDFF0000CC
:102EEC00E5FFE7FFF8FFE5FF0000520EE3FFE5FF0B
:102EFC00E3FF0000480EE1FFE3FFE1FF0000480E96
:102F0C00DFFFE1FFDFFF0000480E564D4450435FEA
:102F1C00005F564D4450430D0A004572726F723A71
:102F2C0020417474656D707420746F207365742007
:102F3C006120726561642D6F6E6C792076617269A7
:102F4C0061626C65206F72206461746120747970A9
:102F5C0065206E6F7420737570706F727465640D7C
:102F6C000A000000000095111113171130112211E5
:102F7C0073116E616E00696E66006F7666002E00CE
:00000001FF
