:100000000C945D000C9485000C9485000C94850084
:100010000C9485000C9485000C9485000C9485004C
:100020000C9485000C9485000C9485000C9485003C
:100030000C9485000C9485000C9485000C9485002C
:100040000C9473020C9485000C9437050C9469058C
:100050000C9485000C9485000C9485000C9485000C
:100060000C9485000C94850000000008000201003B
:100070000003040700000000000000000102040863
:100080001020408001020408102001020408102002
:10009000040404040404040402020202020203032E
:1000A0000303030300000000250028002B000000CC
:1000B0000000240027002A00990511241FBECFEF5D
:1000C000D8E0DEBFCDBF11E0A0E0B1E0EAEAFEE09B
:1000D00002C005900D92AA3CB107D9F722E0AAEC24
:1000E000B1E001C01D92AF3AB207E1F710E0CAEBF0
:1000F000D0E004C02297FE010E944007C83BD10710
:10010000C9F70E94DD050C9453070C94000040EDE4
:1001100057E060E070E082ED91E00E94DA0120E8B3
:1001200035E240E050E062E172E082ED91E00E9451
:10013000ED0182ED91E00E94D7016EE371E08091C4
:100140000302909104020E942A066AE070E080E0B7
:1001500090E00E94EC0241E060E082ED91E00E94BC
:10016000580261E080913C010E94830380913A0132
:1001700090913B01892B49F026E040E855E260E090
:1001800070E082E192E00C94D5040895CF92DF9262
:10019000EF92FF928091D0019091D101181619062B
:1001A0001CF0E12CF12C3BC0C12CD12C76018091AC
:1001B000CA019091CB01A091CC01B091CD01C8169C
:1001C000D906EA06FB06E4F561E080913C010E9455
:1001D000BC038091D0019091D10197FD0196959536
:1001E00087950E94140360E080913C010E94BC034B
:1001F0008091D0019091D10197FD019695958795B9
:100200000E9414038091D0019091D101AA2797FDFB
:10021000A095BA2FC80ED91EEA1EFB1EC8CF80912A
:10022000000190910101E816F90654F48091CA0189
:100230009091CB010E9414038FEFE81AF80AEFCFD8
:10024000FF90EF90DF90CF900895EF92FF920F9381
:100250001F93CF93DF9302E211E04AE0E42E41E0E6
:10026000F42EC0E0D0E08091080190910901C817F8
:10027000D9070CF06DC0F801819191918F01909395
:10028000D1018093D001F701A191B1917F01B09389
:10029000CF01A093CE01209104013091050140913E
:1002A0000601509107010E9436076093CA017093BE
:1002B000CB018093CC019093CD010E94C600809128
:1002C0000201909103010E94140380913A019091E0
:1002D0003B01892BD9F14AE050E0BE0182E192E076
:1002E0000E94DA0660E571E082E192E00E942A064F
:1002F0006091CE017091CF014AE050E082E192E03E
:100300000E94DA0662E571E082E192E00E942A062C
:100310006091D0017091D1014AE050E082E192E019
:100320000E94DA0662E571E082E192E00E942A060C
:100330004091CA015091CB016091CC017091CD01E7
:100340002AE030E082E192E00E94E20621968BCF23
:10035000DF91CF911F910F91FF90EF9008950F9330
:100360001F93CF93DF93EC01662359F00E94BD02E7
:1003700069837A838B839C83DF91CF911F910F9147
:1003800008950E94BD0209811A812B813C81601B66
:10039000710B820B930B623371058105910530F768
:1003A00063E070E080E090E00E94EC02EACF60E061
:1003B0000C94AF01FC0113AA14AA15AA16AA118263
:1003C000128213821482411551056105710521F0D5
:1003D000CB01BA010C94EC020895FB01BA01A9010A
:1003E000DC01D296FC93EE93D19726E0CF010C94DA
:1003F000D5041F93CF93DF93EC01162F64E571E0D2
:1004000089A99AA90E942A064AE050E0612F89A989
:100410009AA90E9401076BE571E089A99AA90E9437
:100420002A0662E370E080E090E0DF91CF911F91B7
:100430000C94EC021F93CF93DF93EC01162F8D8168
:10044000882389F189A99AA9DC01ED91FC910480A6
:10045000F581E02D0995892BA9F307C026373105D1
:1004600019F12835310509F41D8289A99AA9DC0101
:10047000ED91FC910480F581E02D0995181619067F
:1004800094F489A99AA9DC01ED91FC910680F78189
:10049000E02D09959C01332723363105F9F6612FAC
:1004A000CE010E94F90183E6DF91CF911F9108955B
:1004B0000F931F93CF93DF931F92CDB7DEB78C01BD
:1004C000662349F081E0F801858360E0C801498333
:1004D0000E941A024981F80145830F90DF91CF9164
:1004E0001F910F9108951F920F920FB60F92112432
:1004F0002F933F938F939F93AF93BF9380910A0263
:1005000090910B02A0910C02B0910D023091090262
:1005100023E0230F2D3720F40196A11DB11D05C046
:1005200026E8230F0296A11DB11D20930902809396
:100530000A0290930B02A0930C02B0930D028091DB
:100540000E0290910F02A0911002B091110201963B
:10055000A11DB11D80930E0290930F02A093100273
:10056000B0931102BF91AF919F918F913F912F91C5
:100570000F900FBE0F901F9018952FB7F8946091B1
:100580000A0270910B0280910C0290910D022FBF14
:1005900008953FB7F89480910E0290910F02A091B8
:1005A0001002B091110226B5A89B05C02F3F19F08B
:1005B0000196A11DB11D3FBF6627782F892F9A2F65
:1005C000620F711D811D911D42E0660F771F881F0C
:1005D000991F4A95D1F70895CF92DF92EF92FF923B
:1005E000CF93DF936B017C010E94C902EB01C11420
:1005F000D104E104F10489F00E9408070E94C902B5
:100600006C1B7D0B683E734090F381E0C81AD108E3
:10061000E108F108C851DC4FEACFDF91CF91FF909C
:10062000EF90DF90CF9008958230910538F0880FD9
:10063000991F880F991F05970197F1F708957894EE
:1006400084B5826084BD84B5816084BD85B58260D7
:1006500085BD85B5816085BDEEE6F0E08081816075
:100660008083E1E8F0E01082808182608083808175
:1006700081608083E0E8F0E0808181608083E1EB4D
:10068000F0E0808184608083E0EBF0E08081816035
:100690008083EAE7F0E080818460808380818260EB
:1006A00080838081816080838081806880831092D4
:1006B000C1000895833081F028F4813099F08230B0
:1006C000A1F008958730A9F08830B9F08430D1F4D2
:1006D000809180008F7D03C0809180008F77809310
:1006E0008000089584B58F7702C084B58F7D84BD66
:1006F00008958091B0008F7703C08091B0008F7D06
:100700008093B0000895CF93DF9390E0FC01E4580C
:10071000FF4F2491FC01E057FF4F8491882349F15A
:1007200090E0880F991FFC01E255FF4FA591B4910D
:100730008C559F4FFC01C591D4919FB7611108C0A2
:10074000F8948C91209582238C93888182230AC00F
:10075000623051F4F8948C91322F309583238C932E
:100760008881822B888304C0F8948C91822B8C938F
:100770009FBFDF91CF9108950F931F93CF93DF9386
:100780001F92CDB7DEB7282F30E0F901E859FF4FAF
:100790008491F901E458FF4F1491F901E057FF4F9C
:1007A00004910023C9F0882321F069830E945A0331
:1007B0006981E02FF0E0EE0FFF1FEC55FF4FA59190
:1007C000B4919FB7F8948C91611103C01095812367
:1007D00001C0812B8C939FBF0F90DF91CF911F9110
:1007E0000F910895FC01818D228D90E0805C9F4FD8
:1007F000821B91098F7399270895FC01918D828D39
:10080000981731F0828DE80FF11D858D90E00895E5
:100810008FEF9FEF0895FC01918D828D981761F005
:10082000828DDF01A80FB11D5D968C91928D9F5F27
:100830009F73928F90E008958FEF9FEF08958FE858
:1008400095E0892B49F080E090E0892B29F00E9407
:100850008F0581110C9400000895FC01848DDF0147
:10086000A80FB11DA35ABF4F2C91848D90E0019623
:100870008F739927848FA689B7892C93A089B18912
:100880008C9180648C93938D848D981306C002881C
:10089000F389E02D80818F7D80830895CF93DF934E
:1008A000EC01888D8823C9F0EA89FB89808185FD68
:1008B00005C0A889B9898C9186FD0FC00FB607FCC9
:1008C000F5CF808185FFF2CFA889B9898C9185FF0A
:1008D000EDCFCE010E942D04E7CFDF91CF91089597
:1008E000CF92DF92FF920F931F93CF93DF931F92CC
:1008F000CDB7DEB76C0181E0D60158968C9358973E
:100900005B969C915B975C968C915C97981307C063
:100910005096ED91FC915197808185FD2EC0F60196
:10092000038D10E00F5F1F4F0F731127F02EF6019C
:10093000848DF81211C00FB607FCF9CFD60150967E
:10094000ED91FC915197808185FFF1CFC6016983BC
:100950000E942D046981EBCF838DE80FF11DE35ACE
:10096000FF4F6083D6015B960C935B975296ED9197
:10097000FC915397808180620CC0D6015696ED9110
:10098000FC91579760835096ED91FC91519780812F
:100990008064808381E090E00F90DF91CF911F9180
:1009A0000F91FF90DF90CF900895BF92CF92DF928A
:1009B000EF92FF92CF93DF93EC016A017B01B22E9D
:1009C000E889F98982E08083411581EE5807610545
:1009D0007105A1F060E079E08DE390E0A701960158
:1009E0000E9409072150310941095109569547953F
:1009F00037952795211580E1380798F0E889F9891E
:100A0000108260E874E88EE190E0A70196010E94F0
:100A100009072150310941095109569547953795E4
:100A20002795EC85FD853083EE85FF852083188E24
:100A3000EC89FD89B082EA89FB89808180618083AD
:100A4000EA89FB89808188608083EA89FB898081CB
:100A500080688083EA89FB8980818F7D8083DF9134
:100A6000CF91FF90EF90DF90CF90BF9008951F92AD
:100A70000F920FB60F9211242F938F939F93EF93A2
:100A8000FF93E0912202F09123028081E0912802FD
:100A9000F091290282FD12C0908180912B028F5F1C
:100AA0008F7320912C02821751F0E0912B02F0E01D
:100AB000EE5EFD4F958F80932B0201C08081FF91E8
:100AC000EF919F918F912F910F900FBE0F901F90DC
:100AD00018951F920F920FB60F9211242F933F93E8
:100AE0004F935F936F937F938F939F93AF93BF9336
:100AF000EF93FF9382E192E00E942D04FF91EF912A
:100B0000BF91AF919F918F917F916F915F914F9125
:100B10003F912F910F900FBE0F901F90189582E17B
:100B200092E00E94F20321E0892B09F420E0822F59
:100B30000895109215021092140288EE93E0A0E03E
:100B4000B0E08093160290931702A0931802B0931E
:100B5000190280EB91E0909313028093120285ECCE
:100B600090E090931F0280931E0284EC90E090939B
:100B700021028093200280EC90E0909323028093E6
:100B8000220281EC90E0909325028093240282EC73
:100B900090E0909327028093260286EC90E0909359
:100BA00029028093280210922B0210922C0210929C
:100BB0002D0210922E02089508950E941F030E9494
:100BC000DC050E948700CFE1D4E00E942501209738
:100BD000E1F30E941F04F9CFCF92DF92EF92FF92D0
:100BE0000F931F93CF93DF937C016A01EB0100E029
:100BF00010E00C151D0571F06991D701ED91FC9184
:100C00000190F081E02DC7010995892B19F00F5F44
:100C10001F4FEFCFC801DF91CF911F910F91FF9030
:100C2000EF90DF90CF9008956115710581F0DB01A1
:100C30000D900020E9F7AD0141505109461B570BBB
:100C4000DC01ED91FC910280F381E02D099480E0BC
:100C500090E008950C941406DC01ED91FC91019054
:100C6000F081E02D099461E671E00C9414068F92F6
:100C70009F92AF92BF92CF92DF92EF92FF920F932B
:100C80001F93CF93DF93CDB7DEB7A1970FB6F8943C
:100C9000DEBF0FBECDBF7C01C42EE52FCB01D22E0F
:100CA00019A221E02D1510F02AE0D22E8E010F5D41
:100CB0001F4F8D2C912CA12CB12C6C2D7E2FA501BA
:100CC00094010E9409078C2DD29E80191124015095
:100CD00011098A3014F4805D01C0895CF8018083B9
:100CE000211531054105510521F0C22EE32FCA011E
:100CF000E4CFB801C7010E941406A1960FB6F8947C
:100D0000DEBF0FBECDBFDF91CF911F910F91FF903E
:100D1000EF90DF90CF90BF90AF909F908F9008950D
:100D2000CF92DF92EF92FF920F931F93CF93DF93B7
:100D3000EC016A017B012115310579F4E881F98123
:100D40000190F081E02D642FDF91CF911F910F91E1
:100D5000FF90EF90DF90CF9009942A303105E9F4AD
:100D600077FF1AC06DE20E942C068C01442755279C
:100D7000BA014C195D096E097F092AE0CE010E9473
:100D80003706800F911FDF91CF911F910F91FF9038
:100D9000EF90DF90CF9008952AE0B701A601CE0131
:100DA000DF91CF911F910F91FF90EF90DF90CF9047
:100DB0000C9437069A01AB01662757FD6095762F94
:100DC0000C9490060F931F93CF93DF93EC010E9436
:100DD00090068C01CE010E943306800F911FDF9197
:100DE000CF911F910F9108952115310541F4DC0138
:100DF000ED91FC910190F081E02D642F09940C9409
:100E000037069A01462F50E060E070E00C94F4063B
:100E10000895A1E21A2EAA1BBB1BFD010DC0AA1F3B
:100E2000BB1FEE1FFF1FA217B307E407F50720F053
:100E3000A21BB30BE40BF50B661F771F881F991FCE
:100E40001A9469F760957095809590959B01AC0117
:100E5000BD01CF0108950E944407A59F900DB49F46
:100E6000900DA49F800D911D11240895B7FF0C943F
:100E70002B070E942B07821B930B0895EE0FFF1F79
:100E80000590F491E02D0994A29FB001B39FC00199
:100E9000A39F700D811D1124911DB29F700D811DA6
:0A0EA0001124911D0895F894FFCF6E
:100EAA006400E803102700000C0010001000100076
:100EBA0008000800100020001000100010000800B0
:100ECA0008007807EC07F6097807EC07DE0B000044
:100EDA007807F60EF609E008780701000900564D72
:100EEA004450565F317C315F564D4450560D0A00CE
:100EFA003A002000564D4450435F005F564D44501F
:100F0A00430D0A004572726F723A20417474656D1E
:100F1A00707420746F207365742061207265616437
:100F2A002D6F6E6C79207661726961626C65206FD3
:100F3A007220646174612074797065206E6F742008
:100F4A00737570706F727465640D0A00000000009A
:100F5A007004EC05F2030B04FD034E046E616E008F
:0A0F6A00696E66006F7666002E00C7
:00000001FF
