:100000000C94BD000C9493130C94BA130C94E5005B
:100010000C94E5000C94E5000C94E5000C94720E31
:100020000C94E5000C94E5000C94E5000C94E500BC
:100030000C94E5000C94E5000C94E5000C94E500AC
:100040000C94E1130C94E5000C94CE160C9400175C
:100050000C94E5000C94E5000C94E5000C94E5008C
:100060000C94E5000C94E50009206D61783A00538A
:1000700070616365206D696E3A0009206D61783AA0
:10008000004D61726B20206D696E3A004578746591
:100090006E743D0009200009002073003A6D0020B5
:1000A0002073002020486561643A206D00293A20C1
:1000B0004761703A005261772073616D706C6573AF
:1000C000280020626974732900202800293A2056EC
:1000D000616C75653A0028004465636F646564204F
:1000E000004861736820436F6465004E45437800A3
:1000F0004A56430050616E61736F6E6963204F6CA6
:1001000064005243360052433500536F6E79004EFF
:10011000454300556E6B6E6F776E0000000008005F
:1001200002010000030407000000000000000001BD
:10013000020408102040800102040810200102047B
:10014000081020040404040404040402020202024D
:100150000203030303030300000000230026002919
:100160000000000000250028002B000000000024F3
:100170000027002A00001E04301711241FBECFEFF5
:10018000D8E0DEBFCDBF13E0A0E0B1E0EEE4F7E3DE
:1001900002C005900D92A43EB107D9F728E0A4EE65
:1001A000B3E001C01D92AC32B207E1F711E0CAE73B
:1001B000D1E004C02297FE010E94221BC637D1075E
:1001C000C9F70E9474170C94A51B0C940000CF93E0
:1001D000DF93EC0102960E943606EAEBF2E0A48976
:1001E000B58916970D90BC91A02DAC0FBD1F8689C7
:1001F00097898D939C93A08DB18D16970D90BC918E
:10020000A02DAC0FBD1F828D938D50969C938E9325
:100210001F97A2A1B3A116970D90BC91A02DAC0F72
:10022000BD1F84A195A154969C938E935397CE01A4
:100230004196248D358DD90116970D90BC91A02D36
:10024000A80FB91F468D578D4D935C93D901189710
:100250000D90BC91A02DA80FB91F80A191A18D93E5
:100260009C93CE014B9626A137A1D90116970D90EC
:10027000BC91A02DA80FB91F40A551A54D935C932B
:10028000D90118970D90BC91A02DA80FB91F82A578
:1002900093A58D939C93A4A5B5A516970D90BC919D
:1002A000A02DAC0FBD1F86A597A55E969C938E933F
:1002B0005D97A0A9B1A916970D90BC91A02DAC0F88
:1002C000BD1F82A993A990969C938E935F97A4A932
:1002D000B5A916970D90BC91A02DAC0FBD1F86A996
:1002E00097A992969C938E9391978AE093E0998335
:1002F000888386E193E09B838A8384E293E0988BF2
:100300008F8780E393E09A8B898B88E393E09C8BC3
:100310008B8B82E493E09C8F8B8F8CE493E09E8F99
:100320008D8F86E593E098A38F8F80E693E09AA364
:1003300089A3DF91CF9108950F931F9340ED57E06C
:1003400060E070E08FE497E00E94F61020E835E26C
:1003500040E050E06FE877E08FE497E00E940911F9
:100360008FE497E00E94F3106EE371E080918007C4
:10037000909181070E94E4176AE070E080E090E0CD
:100380000E945A1441E060E08FE497E00E947411EB
:1003900061E08DE00E94F11462E082E00E94F114BD
:1003A00061E088E00E94F11426E040E855E260E058
:1003B00070E08FE897E00E946C168CE094E00E9459
:1003C000520E66E274E08BEE93E00E94480661E014
:1003D00088E00E942A1505E010E02EE130E042E3BB
:1003E00050E068EE73E084E690E00E946B1260E0FB
:1003F0008DE01F910F910C942A158F929F92AF92CE
:10040000BF92CF92DF92EF92FF920F931F93CF9301
:10041000DF936BEE73E08CE094E00E94630E882320
:1004200009F48EC098EEA92E93E0B92E2CEDC22EC1
:1004300025E0D22E38EEE32E33E0F32E00E010E07C
:1004400028EE33E048E755E068E08BEE93E00E9449
:100450004C06C82F4091EE035091EF036091F003DA
:100460007091F10320E130E08FE897E00E94F618E8
:100470008BEE93E00E94B904CC2389F18091EE03C6
:100480009091EF03A091F003B091F1030397A105C0
:10049000B10509F051C081E08093E5031092E603B5
:1004A0008093E40361E088E00E942A150E942B14E7
:1004B000609308017093090180930A0190930B01E6
:1004C00004E110E021E030E04AE550E06CE271E048
:1004D00088EC90E00E94FB121092E5032DC0009181
:1004E00032011091330117FF02C00F5F1F4F1595A6
:1004F000079521E030E04CED55E068E775E08AEAC9
:1005000095E00E948F11C5E0D0E061E08DE00E948F
:100510002A1564E670E080E090E00E945A1460E0E2
:100520008DE00E942A156BE470E080E090E00E946C
:100530005A14219751F7A2CF8CE094E00E94520EFA
:100540008091E603882309F46CC00E942B1400916B
:100550001401109115012091160130911701601BB3
:10056000710B820B930B00912001109121012091BE
:100570002201309123010617170728073907A8F42D
:100580001092E6030E942B146093140170931501DE
:10059000809316019093170121E030E040E050E095
:1005A0006CE271E084EF91E02EC00E942B14009168
:1005B00018011091190120911A0130911B01601B43
:1005C000710B820B930B0091240110912501209156
:1005D000260130912701061717072807390708F069
:1005E00020C10E942B14609318017093190180930D
:1005F0001A0190931B0121E030E040E050E064E6F6
:1006000070E080E991E0DF91CF911F910F91FF9011
:10061000EF90DF90CF90BF90AF909F908F900C9411
:100620000D1282E00E9460159093E8038093E70327
:10063000892B09F0F6C00E942B1400911001109133
:1006400011012091120130911301601B710B820B7B
:10065000930B00911C0110911D0120911E013091FE
:100660001F01061717072807390708F0DAC00E948C
:100670002B146093100170931101809312019093D9
:100680001301809106019091070101979093070152
:100690008093060118161906ECF081E08093E603BA
:1006A00085E090E090930701809306010E942B144F
:1006B00060931401709315018093160190931701B4
:1006C0000E942B14609318017093190180931A01F2
:1006D00090931B010E942B14AB01BC012AE030E077
:1006E0008FE897E00E94F61840913601509137014B
:1006F00060913801709139011F921F921F921F92D1
:1007000081E08F9386E28F9383E08F9388EE8F93BF
:10071000ECED8E2EE5E09E2EF8EEAF2EF3E0BF2E30
:10072000A8EECA2EA3E0DA2EB8EEEB2EB3E0FB2E35
:1007300008E715E022E081E194E00E94CD0F0E94DD
:100740002B14AB01BC012AE030E08FE897E00E9457
:10075000F6188CE094E00E94520E2DB73EB7285F49
:100760003F4F0FB6F8943EBF0FBE2DBFC3E0D0E0A1
:1007700017E0F12E0E942B14609308017093090179
:1007800080930A0190930B010E942B1400910801A1
:100790001091090120910A0130910B01601B710B2E
:1007A000820B930B0091340110913501222717FD24
:1007B0002095322F601771078207930748F561E093
:1007C00088E00E942A15809104019091050197FD0F
:1007D000079633E0959587953A95E1F79C01F29E4F
:1007E000C001F39E900D11240E94821460E088E005
:1007F0000E942A15809104019091050197FD0796AA
:1008000023E0959587952A95E1F70E948214BCCF45
:1008100062E370E080E090E00E945A14219709F0B2
:10082000A9CFDF91CF911F910F91FF90EF90DF90B3
:10083000CF90BF90AF909F908F90089581E194E00A
:100840000E946A0F88EB91E09093100480930F044C
:100850008EEB91E0909319048093180484EC91E05E
:1008600090931B0480931A048AEC91E090931D04EA
:1008700080931C0480ED91E090931F0480931E04EC
:1008800086ED91E090932104809320048CED91E01B
:10089000909323048093220482EE91E090932504A8
:1008A000809324046BE08CE094E00E94E50D8CE6DC
:1008B00093E090930D0480930C0489EE93E00C94E4
:1008C000E70080E00895FC011282138214821582F1
:1008D000168217821286089510924E07089581E0BD
:1008E00090E09093B8058093B70510924E07089555
:1008F000CF93DF93CDB7DEB762970FB6F894DEBF24
:100900000FBECDBF89300CF080E023E131E03A83A7
:1009100029832FE031E03C832B832AE031E03E83C2
:100920002D8326E031E038872F8322E031E03A87BB
:10093000298724EF30E03C872B8720EF30E03E878B
:100940002D872BEE30E0388B2F8721EE30E03A8B6D
:10095000298BE82FEE0FFF0BEC0FFD1F8181928199
:1009600062960FB6F894DEBF0FBECDBFDF91CF9178
:1009700008952F923F924F925F926F927F928F9243
:100980009F92AF92BF92CF92DF92EF92FF920F931E
:100990001F93CF93DF93EC018A81893074F568ED62
:1009A00070E08FE897E00E94C1178A810E94780466
:1009B000BC018FE897E00E94C11766ED70E08FE8F8
:1009C00097E00E94C1176A81772767FD70954AE01A
:1009D00050E08FE897E00E94A6186CEC70E08FE87A
:1009E00097E00E94C1174B815C816D817E8120E17F
:1009F00030E08FE897E00E94C61869EC70E08FE85D
:100A000097E00E94C1174AE050E06F818FE897E0BD
:100A10000E94D31862EC70E08FE897E00E94F11713
:100A200065EB70E08FE897E00E94C1174AE050E064
:100A30006A858FE897E00E94D3186DEA70E08FE82E
:100A400097E00E94C117E885F985608171814AE0CD
:100A500050E08FE897E00E94E01863EA70E08FE8CA
:100A600097E00E94C117E885F985628173814AE0A9
:100A700050E08FE897E00E94DA186FE970E08FE8A5
:100A800097E00E94C117E885F985648175814AE085
:100A900050E08FE897E00E94E018E885F9858281B0
:100AA000938144805580480E591E612C712CC12CB5
:100AB000D12C212C312CAA24AA943FE7B32E8824D0
:100AC0008A944FE7942E53E0E52EF12C8A8590E02E
:100AD000E816F9060CF06EC0E885F985C701880FA5
:100AE000991FE80FF91F00811181C801AA2797FDFE
:100AF000A095BA2F480E591E6A1E7B1EE0FE16C036
:100B00000A151B050CF45801C016D1060CF4680137
:100B1000B70175956795615071094AE050E08FE81B
:100B200097E00E94A6186CE970E00DC0101611063F
:100B300024F4081519050CF44801201631060CF4AC
:100B4000180169E970E08FE897E00E94C1174AE058
:100B500050E0B8018FE897E00E94A6188701015085
:100B6000110900FF06C067E970E08FE897E00E9476
:100B7000C117C80183709927019731F464E970E0C7
:100B80008FE897E00E94C117C801877099270197E5
:100B900021F48FE897E00E94ED170F7111270130C3
:100BA000110521F48FE897E00E94ED178FEFE81A06
:100BB000F80A8CCF8FE897E00E94ED176CE870E0A0
:100BC0008FE897E00E94C1172AE030E0B301A2014C
:100BD0008FE897E00E94F61861E870E08FE897E0F0
:100BE0000E94C1174AE050E0B5018FE897E00E94EB
:100BF000A6186AE770E08FE897E00E94C1174AE004
:100C000050E0B6018FE897E00E94AE186FE670E002
:100C10008FE897E00E94C1174AE050E0B4018FE8E6
:100C200097E00E94A61868E670E08FE897E00E94BF
:100C3000C1174AE050E0B1018FE897E00E94AE187A
:100C40008FE897E0DF91CF911F910F91FF90EF9088
:100C5000DF90CF90BF90AF909F908F907F906F90DC
:100C60005F904F903F902F900C94ED17FC0186EE13
:100C700091E0918380838EEB95E091878087138646
:100C800012821382148215821682178212860895A8
:100C9000FC017187608708952F923F924F925F9277
:100CA0006F927F928F929F92AF92BF92CF92DF927C
:100CB000EF92FF920F931F93CF93DF93CDB7DEB7E1
:100CC0002E970FB6F894DEBF0FBECDBF1C013A873A
:100CD0002987BE82AD8281E0D1011C968C931C973E
:100CE000662321F01A968C91861388C1F1019384B2
:100CF00091103AC041155105B9F1A084B184D501D4
:100D000012960D90BC91A02DBA83A983BA0180E000
:100D100090E00E94DA192B013C0120E030E040E431
:100D20005FE30E94681A0E94AE19E981FA81E61712
:100D3000F70708F415C2D5011296AD90BC90139731
:100D400020E030E040EA5FE3C301B2010E94681A8C
:100D500020E030E040E85FE30E944A190E94AE19AB
:100D60006A157B0508F4FCC182E0F10184872985BE
:100D70003A852115310589F1A084B184D5011496F5
:100D80008D909C901597B90180E090E00E94DA194F
:100D90002B013C0120E030E040E45FE30E94681A50
:100DA0000E94AE198616970608F428C1F501A480A2
:100DB000B58020E030E040EA5FE3C301B2010E9469
:100DC000681A20E030E040E85FE30E944A190E9480
:100DD000AE196A157B0508F411C1D1011A966C9001
:100DE0000115110509F463C0812C912C5401C60131
:100DF000A0E0B0E089839A83AB83BC83C801A0E004
:100E0000B0E08D839E83AF83B887C701A0E0B0E0D8
:100E100089879A87AB87BC87D1011C967C90272D48
:100E200030E07614D8F5D10118964D905C90199762
:100E3000F901EE0FFF1FE40DF51DFE87ED87008120
:100E4000118169817A818B819C810E94DA196B0101
:100E50007C0120E030E040E45FE30E94681A0E94D9
:100E6000AE190617170708F4C9C0AD85BE850D91E8
:100E70001C9120E030E040EA5FE3C701B6010E9428
:100E8000681A20E030E040E85FE30E944A190E94BF
:100E9000AE196017710708F07BC0B0C0C901019797
:100EA00097FDC90195958795F101878369C06A947B
:100EB00083E0D1011C968C93812C912C5401C701A5
:100EC000A0E0B0E089839A83AB83BC83C601A0E035
:100ED000B0E089879A87AB87BC87AD81BE81CD01A1
:100EE000A0E0B0E08D839E83AF83B887F101748466
:100EF000272D30E07614D0F5F10140845184C901EA
:100F0000880F991F840D951D9E878D87DC010D919B
:100F10001C9169817A818B819C810E94DA196B0115
:100F20007C0120E030E040E45FE30E94681A0E9408
:100F3000AE190617170708F461C0ED85FE8500811C
:100F4000118120E030E040EA5FE3C701B6010E9472
:100F5000681A20E030E040E85FE30E944A190E94EE
:100F6000AE196017710708F087C048C0C901019722
:100F700097FDC901959587958150D10117968C935E
:100F8000F10183829482A582B68299249394E8C069
:100F900081E0870DD1011C968C938201080F111DF1
:100FA000080F111DF801408051806D817E818F8175
:100FB00098850E94DA196B017C0120E030E040E462
:100FC0005FE30E94681A0E94AE1946165706C0F4E5
:100FD000D8014D905C9069857A858B859C850E94AF
:100FE000DA196B017C0120E030E040E45FE30E940D
:100FF000681A0E94AE194616570618F5912CB0C013
:10100000F8014080518020E030E040EA5FE3C70112
:10101000B6010E94681A20E030E040E85FE30E94D9
:101020004A190E94AE196415750590F2880C991C36
:10103000AA1CBB1C689480F873947394F1017486A5
:10104000EBCED8010D911C9120E030E040EA5FE347
:10105000C701B6010E94681A20E030E040E85FE373
:101060000E944A190E94AE196017710738F2880C65
:10107000991CAA1CBB1CE0CF81E0870DF10184877D
:101080008201080F111D080F111DD8014D905C90B1
:1010900069857A858B859C850E94DA196B017C01B4
:1010A00020E030E040E45FE30E94681A0E94AE193D
:1010B0004616570610F1D8014D905C9020E030E0C4
:1010C00040EA5FE3C701B6010E94681A20E030E001
:1010D00040E85FE30E944A190E94AE196415750545
:1010E00060F0880C991CAA1CBB1C689480F873944F
:1010F0007394D1011C967C92F9CEF8014080518006
:101100006D817E818F8198850E94DA196B017C0147
:1011100020E030E040E45FE30E94681A0E94AE19CC
:101120004616570608F46ACFF8010081118120E0C5
:1011300030E040EA5FE3C701B6010E94681A20E090
:1011400030E040E85FE30E944A190E94AE19601740
:10115000710708F453CF880C991CAA1CBB1CC7CF7D
:10116000892D2E960FB6F894DEBF0FBECDBFDF914E
:10117000CF911F910F91FF90EF90DF90CF90BF9094
:10118000AF909F908F907F906F905F904F903F9027
:101190002F900895AF92BF92CF92DF92EF92FF927D
:1011A0000F931F93CF93DF93EC01E881F98136977A
:1011B0000190F081E02DE80FF91F8285843089F5D8
:1011C000A085B18514968D919C911597873996408D
:1011D00040F114968D919C9115978E3F9A4008F599
:1011E00016968D919C911797873A9140D0F016965C
:1011F0008D919C911797833C924098F41782E881D7
:10120000F98136970190F081E02DEC0FFD1F8FEFF3
:101210009FEFDC0183839483A583B68381E082837F
:1012200022C084E3A82E82E0B82E9CE9C92E96E065
:10123000D92E24E3E22E22E0F22E00E010E020EA94
:1012400031E140E453E264E4CF010E944C0688237C
:1012500051F0E881F98136970190F081E02DEC0F93
:10126000FD1F91E09283DF91CF911F910F91FF902D
:10127000EF90DF90CF90BF90AF900895AF92BF9264
:10128000CF92DF92EF92FF920F931F93CF93DF9352
:10129000EC01E881F9813697808191818C0F9D1F47
:1012A000FC012285322F377F323131F0203221F09C
:1012B0002A3211F080E01FC0A12CB12C38E5C32EDA
:1012C00032E0D32E48E5E42E42E0F42E00EB14E0A9
:1012D00028E532E040E659E060E00E944C068823B1
:1012E00049F3E881F98136970190F081E02DEC0F08
:1012F000FD1F92E09283DF91CF911F910F91FF909C
:10130000EF90DF90CF90BF90AF900895AF92BF92D3
:10131000CF92DF92EF92FF920F931F93CF93DF93C1
:10132000EC01E881F98136978081918151E4A52E05
:1013300053E0B52E63ECC62E69E0D62E71E4E72E9D
:1013400073E0F72E00E010E024E03DE044E05DE0D3
:1013500060E38C0F9D1F0E944C06882351F0E881AA
:10136000F98136970190F081E02DEC0FFD1F95E09B
:101370009283DF91CF911F910F91FF90EF90DF90BB
:10138000CF90BF90AF900895AF92BF92CF92DF926F
:10139000EF92FF920F931F93CF93DF93EC01E881BD
:1013A000F981369780819181E4E3AE2EE2E0BE2E92
:1013B000FCE9CF2EF6E0DF2EA4E3EA2EA2E0FA2E1F
:1013C00000E010E020EA31E140EA51E164E48C0FF2
:1013D0009D1F0E944C06882351F0E881F9813697C1
:1013E0000190F081E02DEC0FFD1F97E09283DF91DB
:1013F000CF911F910F91FF90EF90DF90CF90BF9012
:10140000AF9008959F92AF92BF92CF92DF92EF92EA
:10141000FF920F931F93CF93DF93EC01E881F98143
:10142000369780819181BDE0AB2EB2E0BB2E17E2F2
:10143000C12E16E0D12E0DE0E02E02E0F02E00E0ED
:1014400010E028E630E140ED50E264E28C0F9D1F91
:101450000E944C06982E81113BC0E881F981369795
:101460000190F081E02DEC0FFD1F8285823209F0A2
:101470004AC020E030E04DE052E060E0CF010E9441
:101480004C06882309F43FC0E881F9813697019022
:10149000F081E02DEC0FFD1FA085B18518968D9190
:1014A0009C9119978D39944000F118968D919C91DB
:1014B0001997823B9740C8F44381548165817681B6
:1014C0005068438354836583768387818F5F8783E6
:1014D000E881F98136970190F081E02DEC0FFD1F36
:1014E00086E08283992493940EC018968D919C91E6
:1014F00019978938914038F018968D919C911997D9
:101500008239924010F3892DDF91CF911F910F9175
:10151000FF90EF90DF90CF90BF90AF909F90089595
:101520002F923F924F925F926F927F928F929F92F3
:10153000AF92BF92CF92DF92EF92FF920F931F93E1
:10154000CF93DF9300D01F92CDB7DEB77C015B0154
:101550006A01DC01ED91FC91369700811181080F41
:10156000191FF80194848285981608F0BAC09085F6
:101570008185E92FF82FE90DF11DE90DF11D20817D
:1015800031813B832A83892D809581708983812CC9
:10159000BA0180E090E00E94DA192B013C0120E0C2
:1015A00030E040E45FE30E94681A0E94AE19AA810D
:1015B000BB81A617B707B0F020E030E040EA5FE358
:1015C000C301B2010E94681A20E030E040E85FE306
:1015D0000E944A190E94AE19EA81FB816E177F07AB
:1015E00008F064C01601220C331CB10180E090E0C9
:1015F0000E94DA192B013C0120E030E040E45FE377
:101600000E94681A0E94AE192A813B81261737076B
:10161000A8F020E030E040EA5FE3C301B2010E949D
:10162000681A20E030E040E85FE30E944A190E9417
:10163000AE19AA81BB816A177B07D0F5B1016C0D89
:101640007D1D80E090E00E94DA192B013C0120E032
:1016500030E040E45FE30E94681A0E94AE19EA811C
:10166000FB81E617F707A8F020E030E040EA5FE3EF
:10167000C301B2010E94681A20E030E040E85FE355
:101680000E944A190E94AE192A813B816217730792
:1016900088F4D8011B968C91882331F1B1E09B121C
:1016A00026C0EA81FB81EC15FD0520F591E003C021
:1016B00092E001C093E0D5018C918F5F891710F4FF
:1016C0008C931BC0F5011082D701ED91FC913697E8
:1016D0000190F081E02DEE0DFF1D84858F5F8487E2
:1016E0000CC0B1E0B98308C0E2E0E98305C0F2E0D4
:1016F000F98302C022E02983812C8981982D0F90E3
:101700000F900F90DF91CF911F910F91FF90EF906D
:10171000DF90CF90BF90AF909F908F907F906F9011
:101720005F904F903F902F9008950F931F93CF930A
:10173000DF93EC01E881F98138970190F081E02D89
:10174000E80FF91F82858D3008F4B1C081E08487ED
:10175000E881F98136970190F081E02DEC0FFD1FB3
:1017600014821582168217821382E881F9813697D6
:10177000808191818C0F9D1FBC016D5F7F4F49E778
:1017800053E00E94900A892B09F091C0E881F98109
:1017900036970190F081E02DEC0FFD1F12828881B9
:1017A0009981FC0138970190F081E02DEC0FFD1F2D
:1017B00034852285321708F05AC0FC0136978081A3
:1017C00091818C0F9D1FBC016D5F7F4F49E753E0F6
:1017D0000E94900A8C01E881F9813697808191817D
:1017E0008C0F9D1FBC016D5F7F4F49E753E00E9446
:1017F000900A01301105A9F4892B09F058C0E8813D
:10180000F98136970190F081E02DEC0FFD1F4481A6
:10181000558166817781440F551F661F771F416090
:1018200016C0012B09F043C0019709F040C0E881C0
:10183000F98136970190F081E02DEC0FFD1F448176
:10184000558166817781440F551F661F771F44833A
:10185000558366837783E881F98136970190F0811B
:10186000E02DEC0FFD1F82818F5F828398CF8DE08A
:10187000878388819981FC0138970190F081E02D60
:10188000EC0FFD1FDC0116970D90BC91A02DAC0F45
:10189000BD1F14968D919D910D90BC91A02D8383B9
:1018A0009483A583B68383E0828381E001C080E0D6
:1018B000DF91CF911F910F910895EF92FF920F93B7
:1018C0001F93CF93DF93EC01E881F9813897019062
:1018D000F081E02DE80FF91F8285811102C080E0C0
:1018E00019C18385A085B18581110EC012968D9195
:1018F0009C9113978F3C974090F312968D919C91F9
:10190000139786309D4058F714968D919C911597AA
:101910008A39924020F314968D919C9115978935C0
:101920009440E8F683E08487E881F9813697019056
:10193000F081E02DEC0FFD1F1482158216821782B4
:101940001382E881F9813697808191818C0F9D1FE8
:10195000BC016D5F7F4F4CEB51E00E94900A892BD8
:1019600009F0BDCFE881F9813697808191818C0F94
:101970009D1FBC016D5F7F4F4CEB51E00E94900AB0
:10198000019709F0ACCFE881F98136970190F08199
:10199000E02DEC0FFD1F1282A881B981FD0138975F
:1019A0000190F081E02DEC0FFD1F94858285169744
:1019B000981708F08AC08D919C918C0F9D1FBC01D7
:1019C0006D5F7F4F4CEB51E00E94900A8C01E881E3
:1019D000F98136970190F081E02DEC0FFD1F828197
:1019E0008330D9F0E881F9813697808191818C0F1D
:1019F0009D1FBC016D5F7F4F4CEB51E00E94900A30
:101A00007C01E881F98136970190F081E02DEC0F9F
:101A1000FD1F82818330C9F40CC0BF016D5F7F4F11
:101A20004CEB51E0CF010E94900A08171907D1F240
:101A300056CFBF016D5F7F4F4CEB51E0CF010E944D
:101A4000900AE816F90609F04ACF01151105B1F41C
:101A5000EA94EF2809F043CFE881F98136970190A5
:101A6000F081E02DEC0FFD1F448155816681778167
:101A7000440F551F661F771F416017C001301105C5
:101A800009F02DCFEF2809F02ACFE881F9813697A8
:101A90000190F081E02DEC0FFD1F4481558166819E
:101AA0007781440F551F661F771F448355836683D4
:101AB0007783E881F98136970190F081E02DEC0F72
:101AC000FD1F82818F5F828367CF0D90BC91A02D17
:101AD000AC0FBD1F12968C91878388819981FC0180
:101AE00038970190F081E02DEC0FFD1FDC01169777
:101AF0000D90BC91A02DAC0FBD1F14968D919D91A2
:101B00000D90BC91A02D83839483A583B68384E03C
:101B1000828381E0DF91CF911F910F91FF90EF9031
:101B20000895CF93DF93EC01E881F9813A978081A2
:101B300091818C0F9D1F0E94CA08811142C0E881CB
:101B4000F9813C97808191818C0F9D1F0E943E09F5
:101B5000811137C0E881F9813E97808191818C0F96
:101B60009D1F0E94950B81112CC0E881F98172970D
:101B7000808191818C0F9D1F0E945D0C811121C07D
:101B8000E881F9817497808191818C0F9D1F0E945B
:101B90008609811116C0E881F98178978081918149
:101BA0008C0F9D1F0E94C40981110BC0E881F9812F
:101BB0007697808191818C0F9D1FDF91CF910C943E
:101BC000020A81E0DF91CF91089526E633E0FC011F
:101BD000318320836093B6051092B90524E62283F1
:101BE0000895EF92FF920F931F93CF93DF938C0191
:101BF000EB017A01E881F9810190F081E02DCB01C0
:101C0000099580914E078A8740E080914E074817DA
:101C100020F5A42FB0E0CD01880F991FE885F98544
:101C2000E80FF91FDC01A254BA4F2D913C912E9D73
:101C3000C0012F9D900D3E9D900D1124D80112964C
:101C40002C9130E040FF03C0319521953109280FD8
:101C5000391F318320834F5FD8CF81E0DF91CF914F
:101C60001F910F91FF90EF900895CF93DF93EC01B8
:101C70008091B60560E00E94F114E881F98101903D
:101C8000F081E02DCE01DF91CF9109948091B905CB
:101C9000882339F080914E0780FF02C02D9A089565
:101CA0002D9808950E94350EF89482E08093B0003C
:101CB0008093B10094E69093B3001092B2008093A9
:101CC0007000789408952091B7053091B8052430BC
:101CD000310531F442E350E00E94F10D81E00895B6
:101CE00080E008951F920F920FB60F9211242F9348
:101CF0003F934F935F936F937F938F939F93AF9394
:101D0000BF93EF93FF938091B6050E9460154091B9
:101D1000BA055091BB056091BC057091BD054F5F40
:101D20005F4F6F4F7F4F4093BA055093BB05609351
:101D3000BC057093BD0520914E07283C30F024E08F
:101D400030E03093B8052093B7052091B705309166
:101D5000B8052230310509F124F42130310549F06C
:101D60007FC023303105E1F12430310509F46EC024
:101D700077C0892B09F074C08091BA059091BB059A
:101D8000A091BC05B091BD0584369105A105B105B2
:101D900008F45EC010924E0725C0019709F060C09C
:101DA000E0914E0781E08E0F80934E07F0E0809126
:101DB000BA059091BB05A091BC05B091BD05EE0F91
:101DC000FF1FE254FA4F918380831092BA0510925C
:101DD000BB051092BC051092BD0583E090E031C0B8
:101DE000892B01F5E0914E0781E08E0F80934E071D
:101DF000F0E08091BA059091BB05A091BC05B0912F
:101E0000BD05EE0FFF1FE254FA4F918380831092BD
:101E1000BA051092BB051092BC051092BD0582E078
:101E200090E00FC08091BA059091BB05A091BC05D0
:101E3000B091BD0585369105A105B10588F084E016
:101E400090E09093B8058093B7050AC0892B41F4C0
:101E50001092BA051092BB051092BC051092BD05F8
:101E60000E94460EFF91EF91BF91AF919F918F918C
:101E70007F916F915F914F913F912F910F900FBE86
:101E80000F901F901895CF93C62F1092700061E0AD
:101E900083E00E94F11460E083E00E942A152C2F59
:101EA00030E040E050E060E47FE180E090E00E94BC
:101EB000011B81E08093B00089E08093B100209302
:101EC000B3008BEA289F212D112426952093B4007E
:101ED000CF91089561E083E00E94F11460E083E017
:101EE0000C942A15CF93DF930097B1F081382EE33D
:101EF000920770F068EE73E00E94CB1AEB010E942B
:101F00008214BE0180E090E0DF91CF910C945A14CE
:101F1000DF91CF910C948214DF91CF9108950F93AC
:101F20001F93CF93DF93EC018B01E0EBF0E0808116
:101F300080628083CB010E94720F488159816A813F
:101F40007B81400F511F611D711D488359836A8336
:101F50007B83DF91CF911F910F9108950F931F9372
:101F6000CF93DF93EC018B01E0EBF0E080818F7D7C
:101F70008083CB010E94720F488159816A817B81E5
:101F8000400F511F611D711D488359836A837B83F4
:101F9000DF91CF911F910F9108952F923F924F9211
:101FA0005F926F927F928F929F92AF92BF92CF92E9
:101FB000DF92EF92FF920F931F93CF93DF93CDB7F2
:101FC000DEB729970FB6F894DEBF0FBECDBF3C0138
:101FD0001A012B018E8D9F8D98878F8368A139A15F
:101FE00039878AA19BA1ACA1BDA18B839C83AD83C2
:101FF000BE83D3011D921D921D921C921397E22F56
:10200000F0E0FA83E98380E290E08E1B9F0B04C02E
:10201000220C331C441C551C8A95D2F7C3010E9424
:10202000430F0115110521F0B801C3010E948F0F64
:10203000E114F10421F0B701C3010E94AE0F00E0EA
:1020400010E029813A8102171307C4F457FE06C035
:10205000B601C3010E948F0FB40106C0B501C301D0
:102060000E948F0F6F817885C3010E94AE0F220CF2
:10207000331C441C551C0F5F1F4FE3CF398533239E
:1020800021F0B601C3010E948F0F8B819C81AD812D
:10209000BE81892B8A2B8B2B41F0D3018D919C9192
:1020A0006B817C81681B790B01C0B401C301299647
:1020B0000FB6F894DEBF0FBECDBFDF91CF911F9159
:1020C0000F91FF90EF90DF90CF90BF90AF909F90D7
:1020D0008F907F906F905F904F903F902F900C94D7
:1020E000AE0FDC01ED91FC91389720813181820F98
:1020F000931F0C94CA08DC01ED91FC913897208164
:102100003181820F931F0C943E09DC01ED91FC910B
:10211000389720813181820F931F0C948609DC014E
:10212000ED91FC91389720813181820F931F0C949F
:10213000C409DC01ED91FC91389720813181820F37
:10214000931F0C94020ADC01ED91FC9138972081D9
:102150003181820F931F0C94950BDC01ED91FC9162
:10216000389720813181820F931F0C945D0CDC0124
:10217000ED91FC91389720813181820F931F0C944F
:10218000910DDC01ED91FC913A9720813181820F14
:10219000931F0C94910D0F931F93CF93DF93EC013A
:1021A000662359F00E942B1469837A838B839C8366
:1021B000DF91CF911F910F9108950E942B140981F7
:1021C0001A812B813C81601B710B820B930B64364F
:1021D00071058105910530F763E070E080E090E0E3
:1021E0000E945A14EACF60E00C94CB10FC0113AAB1
:1021F00014AA15AA16AA11821282138214824115FA
:1022000051056105710521F0CB01BA010C945A14F6
:102210000895FB01BA01A901DC01D296FC93EE936B
:10222000D19726E0CF010C946C161F93CF93DF93C8
:10223000EC01162F6EE673E089A99AA90E94E417B3
:102240004AE050E0612F89A99AA90E94D31865E756
:1022500073E089A99AA90E94E41762E370E080E024
:1022600090E0DF91CF911F910C945A141F93CF935C
:10227000DF93EC01162F8D81882389F189A99AA912
:10228000DC01ED91FC910480F581E02D0995892B0D
:10229000A9F307C02637310519F12835310509F4AE
:1022A0001D8289A99AA9DC01ED91FC910480F58138
:1022B000E02D09951816190694F489A99AA9DC014C
:1022C000ED91FC910680F781E02D09959C01332763
:1022D00023363105F9F6612FCE010E94151183E6F0
:1022E000DF91CF911F9108950F931F93CF93DF93A9
:1022F0001F92CDB7DEB78C01662349F081E0F8016B
:10230000858360E0C80149830E9436114981F80144
:1023100045830F90DF91CF911F910F9108952F92D8
:102320003F924F925F926F927F928F929F92AF9265
:10233000BF92CF92DF92EF92FF920F931F93CF93B2
:10234000DF9300D000D0CDB7DEB79C838B835B01D9
:102350005A83498319010E942B142B013C018824C4
:102360008394912C6801EE24D7FCE094FE2C0E940B
:102370002B1464197509860997096C157D058E055E
:102380009F05A0F561E088E00E942A150B811C8161
:1023900017FF02C00F5F1F4F15950795C8010E94D8
:1023A000821460E088E00E942A15C8010E9482140D
:1023B000829CC001839C900D929C900D11242B81D6
:1023C0003C81280F391F3C832B8389819A81821796
:1023D00093071CF4919481949108EB81FC81EA1598
:1023E000FB052CF6919481949108C1CF0F900F902A
:1023F0000F900F90DF91CF911F910F91FF90EF9071
:10240000DF90CF90BF90AF909F908F907F906F9014
:102410005F904F903F902F9008952F923F924F9250
:102420005F926F927F928F929F92AF92BF92CF9264
:10243000DF92EF92FF920F931F93CF93DF931901D7
:1024400097FD01968C0115950795C0E0D0E06B01D2
:10245000EE24D7FCE094FE2C4A01AA2497FCA09419
:10246000BA2CC215D30524F50E942B142B013C0174
:102470000E942B1464197509860997096C157D054E
:102480008E059F0578F461E088E00E942A15C80156
:102490000E94821460E088E00E942A15C8010E9410
:1024A0008214E6CFC501B4010E945A142196D9CFF7
:1024B000DF91CF911F910F91FF90EF90DF90CF9020
:1024C000BF90AF909F908F907F906F905F904F9054
:1024D0003F902F9008952F923F924F925F926F926C
:1024E0007F928F929F92AF92BF92CF92DF92EF92A4
:1024F000FF920F931F93CF93DF93CDB7DEB72A9749
:102500000FB6F894DEBF0FBECDBF180100E010E09B
:102510006B01EE24D7FCE094FE2CC982DA82EB82B8
:10252000FC826C01EE24D7FCE094FE2CCD82DE828E
:10253000EF82F8866A01EE24D7FCE094FE2C490174
:10254000AA2497FCA094BA2C02151305DCF50E946E
:102550002B142B013C0129813A814B815C816D81D7
:102560007E818F8198850E942C199B0177FF02C084
:102570002F5F3F4FC901959587959A8789870E945C
:102580002B1464197509860997096C157D058E054C
:102590009F0588F461E088E00E942A1589859A8564
:1025A0000E94821460E088E00E942A1589859A853D
:1025B0000E948214E4CFC501B4010E945A140F5F37
:1025C0001F4FC2CF2A960FB6F894DEBF0FBECDBF05
:1025D000DF91CF911F910F91FF90EF90DF90CF90FF
:1025E000BF90AF909F908F907F906F905F904F9033
:1025F0003F902F9008952F923F924F925F926F924B
:102600007F928F929F92AF92BF92CF92DF92EF9282
:10261000FF920F931F93CF93DF93CDB7DEB72E9723
:102620000FB6F894DEBF0FBECDBF1E861D866A01B1
:10263000EE24D7FCE094FE2CCD82DE82EF82F88679
:102640006B01EE24D7FCE094FE2CC986DA86EB867B
:10265000FC866C01EE24D7FCE094FE2C4901AA24F0
:1026600097FCA094BA2C8D859E85801791070CF05D
:1026700040C00E942B142B013C010E942B146419B2
:102680007509860997092D813E814F81588562170A
:1026900073078407950710F529853A854B855C8576
:1026A000C701B6010E942C1969837A838B839C83AE
:1026B00061E088E00E942A1589819A8197FD019640
:1026C0001C0135942794C1010E94821460E088E0C7
:1026D0000E942A15C1010E948214CFCFC501B40106
:1026E0000E945A144D855E854F5F5F4F5E874D8710
:1026F000BACF2E960FB6F894DEBF0FBECDBFDF91D6
:10270000CF911F910F91FF90EF90DF90CF90BF90EE
:10271000AF909F908F907F906F905F904F903F9081
:102720002F90089508951F920F920FB60F921124C3
:102730002F933F934F935F936F937F938F939F93C9
:10274000AF93BF93EF93FF93E0913A01F0913B0178
:102750000995FF91EF91BF91AF919F918F917F91DB
:102760006F915F914F913F912F910F900FBE0F90FE
:102770001F9018951F920F920FB60F9211242F934E
:102780003F934F935F936F937F938F939F93AF93F9
:10279000BF93EF93FF93E0913C01F0913D010995C8
:1027A000FF91EF91BF91AF919F918F917F916F9129
:1027B0005F914F913F912F910F900FBE0F901F90FF
:1027C00018951F920F920FB60F9211242F933F93DB
:1027D0008F939F93AF93BF938091870790918807C2
:1027E000A0918907B0918A073091860723E0230FD3
:1027F0002D3720F40196A11DB11D05C026E8230F39
:102800000296A11DB11D20938607809387079093A0
:102810008807A0938907B0938A0780918B079091CE
:102820008C07A0918D07B0918E070196A11DB11D57
:1028300080938B0790938C07A0938D07B0938E079E
:10284000BF91AF919F918F913F912F910F900FBEAC
:102850000F901F9018952FB7F8946091870770918B
:1028600088078091890790918A072FBF08953FB705
:10287000F89480918B0790918C07A0918D07B0916F
:102880008E0726B5A89B05C02F3F19F00196A11D04
:10289000B11D3FBF6627782F892F9A2F620F711DB8
:1028A000811D911D42E0660F771F881F991F4A9571
:1028B000D1F70895CF92DF92EF92FF92CF93DF93FB
:1028C0006B017C010E943714EB01C114D104E104B7
:1028D000F10489F00E9448190E9437146C1B7D0B8B
:1028E000683E734090F381E0C81AD108E108F1080E
:1028F000C851DC4FEACFDF91CF91FF90EF90DF908E
:10290000CF9008958230910538F0880F991F880F75
:10291000991F05970197F1F70895789484B582601F
:1029200084BD84B5816084BD85B5826085BD85B573
:10293000816085BDEEE6F0E0808181608083E1E822
:10294000F0E010828081826080838081816080835A
:10295000E0E8F0E0808181608083E1EBF0E080815D
:1029600084608083E0EBF0E0808181608083EAE72F
:10297000F0E08081846080838081826080838081B8
:10298000816080838081806880831092C100089577
:10299000833081F028F4813099F08230A1F00895DD
:1029A0008730A9F08830B9F08430D1F4809180006C
:1029B0008F7D03C0809180008F7780938000089581
:1029C00084B58F7702C084B58F7D84BD08958091D2
:1029D000B0008F7703C08091B0008F7D8093B000EE
:1029E0000895CF93DF9390E0FC01E15DFE4F2491C9
:1029F000FC01ED5BFE4F8491882349F190E0880F44
:102A0000991FFC01E559FE4FA591B4918F599E4F36
:102A1000FC01C591D4919FB7611108C0F8948C91C5
:102A2000209582238C93888182230AC0623051F4DE
:102A3000F8948C91322F309583238C938881822B4C
:102A4000888304C0F8948C91822B8C939FBFDF9174
:102A5000CF9108950F931F93CF93DF931F92CDB71C
:102A6000DEB7282F30E0F901E55EFE4F8491F901D1
:102A7000E15DFE4F1491F901ED5BFE4F04910023DF
:102A8000C9F0882321F069830E94C8146981E02F6E
:102A9000F0E0EE0FFF1FEF59FE4FA591B4919FB7E5
:102AA000F8948C91611103C01095812301C0812B92
:102AB0008C939FBF0F90DF91CF911F910F9108953D
:102AC000CF93DF93282F30E0F901E55EFE4F84912C
:102AD000F901E15DFE4FD491F901ED5BFE4FC49128
:102AE000CC2391F081110E94C814EC2FF0E0EE0F7E
:102AF000FF1FE95AFE4FA591B4912C912D2381E03F
:102B000090E021F480E002C080E090E0DF91CF917E
:102B10000895FC01818D228D90E0805C9F4F821B87
:102B200091098F7399270895FC01918D828D9817D3
:102B300031F0828DE80FF11D858D90E008958FEFC3
:102B40009FEF0895FC01918D828D981761F0828D21
:102B5000DF01A80FB11D5D968C91928D9F5F9F73D1
:102B6000928F90E008958FEF9FEF089586E297E1AE
:102B7000892B49F080E090E0892B29F00E942617EC
:102B800081110C9400000895FC01848DDF01A80FD1
:102B9000B11DA35ABF4F2C91848D90E001968F7385
:102BA0009927848FA689B7892C93A089B1898C91A4
:102BB00080648C93938D848D981306C00288F3896A
:102BC000E02D80818F7D80830895CF93DF93EC018A
:102BD000888D8823C9F0EA89FB89808185FD05C03D
:102BE000A889B9898C9186FD0FC00FB607FCF5CF77
:102BF000808185FFF2CFA889B9898C9185FFEDCFBF
:102C0000CE010E94C415E7CFDF91CF910895CF92F6
:102C1000DF92FF920F931F93CF93DF931F92CDB755
:102C2000DEB76C0181E0D60158968C9358975B967D
:102C30009C915B975C968C915C97981307C050961B
:102C4000ED91FC915197808185FD2EC0F601038D99
:102C500010E00F5F1F4F0F731127F02EF601848DC8
:102C6000F81211C00FB607FCF9CFD6015096ED91BE
:102C7000FC915197808185FFF1CFC60169830E9445
:102C8000C4156981EBCF838DE80FF11DE35AFF4F27
:102C90006083D6015B960C935B975296ED91FC9105
:102CA0005397808180620CC0D6015696ED91FC91BD
:102CB000579760835096ED91FC9151978081806485
:102CC000808381E090E00F90DF91CF911F910F9171
:102CD000FF90DF90CF900895BF92CF92DF92EF9256
:102CE000FF92CF93DF93EC016A017B01B22EE8895A
:102CF000F98982E08083411581EE580761057105ED
:102D0000A1F060E079E08DE390E0A70196010E94D8
:102D1000DF1A2150310941095109569547953795D8
:102D20002795211580E1380798F0E889F989108204
:102D300060E874E88EE190E0A70196010E94DF1A36
:102D400021503109410951095695479537952795E5
:102D5000EC85FD853083EE85FF852083188EEC8918
:102D6000FD89B082EA89FB89808180618083EA895C
:102D7000FB89808188608083EA89FB898081806803
:102D80008083EA89FB8980818F7D8083DF91CF9169
:102D9000FF90EF90DF90CF90BF9008951F920F9219
:102DA0000FB60F9211242F938F939F93EF93FF935E
:102DB000E0919F07F091A0078081E091A507F09135
:102DC000A60782FD12C090818091A8078F5F8F7344
:102DD0002091A907821751F0E091A807F0E0E15790
:102DE000F84F958F8093A80701C08081FF91EF91E4
:102DF0009F918F912F910F900FBE0F901F9018955C
:102E00001F920F920FB60F9211242F933F934F935F
:102E10005F936F937F938F939F93AF93BF93EF9342
:102E2000FF938FE897E00E94C415FF91EF91BF9147
:102E3000AF919F918F917F916F915F914F913F9152
:102E40002F910F900FBE0F901F9018958FE897E06D
:102E50000E94891521E0892B09F420E0822F089532
:102E6000109292071092910788EE93E0A0E0B0E0F4
:102E70008093930790939407A0939507B093960738
:102E80008AEC93E09093900780938F0785EC90E015
:102E900090939C0780939B0784EC90E090939E070F
:102EA00080939D0780EC90E09093A00780939F070C
:102EB00081EC90E09093A2078093A10782EC90E0D0
:102EC0009093A4078093A30786EC90E09093A607C5
:102ED0008093A5071092A8071092A9071092AA073D
:102EE0001092AB07089508950E948D140E947317E5
:102EF0000E949C01C6EBD5E10E94FD012097E1F301
:102F00000E94B615F9CFCF92DF92EF92FF920F9306
:102F10001F93CF93DF937C016A01EB0100E010E087
:102F20000C151D0571F06991D701ED91FC9101908F
:102F3000F081E02DC7010995892B19F00F5F1F4F14
:102F4000EFCFC801DF91CF911F910F91FF90EF90CC
:102F5000DF90CF9008956115710581F0DB010D9030
:102F60000020E9F7AD0141505109461B570BDC0128
:102F7000ED91FC910280F381E02D099480E090E0D6
:102F80000895EF92FF920F931F93CF93DF938C01DD
:102F90007B01C0E0D0E0F701EC0FFD1F64916623D8
:102FA00059F0F801A081B181ED91FC91C80109951A
:102FB000892B11F02196EFCFCE01DF91CF911F9198
:102FC0000F91FF90EF9008950C94AB17DC01ED91F9
:102FD000FC910190F081E02D09946BE773E00C9473
:102FE000AB170F931F93CF93DF93EC010E94C11790
:102FF0008C01CE010E94ED17800F911FDF91CF91C0
:103000001F910F9108958F929F92AF92BF92CF928E
:10301000DF92EF92FF920F931F93CF93DF93CDB781
:10302000DEB7A1970FB6F894DEBF0FBECDBF7C010F
:10303000C42EE52FCB01D22E19A221E02D1510F0C0
:103040002AE0D22E8E010F5D1F4F8D2C912CA12CCA
:10305000B12C6C2D7E2FA50194010E94DF1A8C2DBE
:10306000D29E80191124015011098A3014F4805D18
:1030700001C0895CF80180832115310541055105A6
:1030800021F0C22EE32FCA01E4CFB801C7010E948C
:10309000AB17A1960FB6F894DEBF0FBECDBFDF9180
:1030A000CF911F910F91FF90EF90DF90CF90BF9045
:1030B000AF909F908F900895CF92DF92EF92FF9202
:1030C0000F931F93CF93DF93EC016A017B012115CE
:1030D000310579F4E881F9810190F081E02D642FC8
:1030E000DF91CF911F910F91FF90EF90DF90CF90E4
:1030F00009942A303105E9F477FF1AC06DE20E9485
:10310000E6178C0144275527BA014C195D096E0951
:103110007F092AE0CE010E940318800F911FDF91E2
:10312000CF911F910F91FF90EF90DF90CF90089576
:103130002AE0B701A601CE01DF91CF911F910F9137
:10314000FF90EF90DF90CF900C9403189A01AB01A1
:10315000662757FD6095762F0C945C180F931F938C
:10316000CF93DF93EC019A01AB01662757FD609581
:10317000762F0E945C188C01CE010E94ED17800F03
:10318000911FDF91CF911F910F9108952115310566
:1031900041F4DC01ED91FC910190F081E02D642F70
:1031A00009940C9403189A01462F50E060E070E0F7
:1031B0000C94C6189A01AB0160E070E00C94C6183C
:1031C0000F931F93CF93DF93EC019A01AB0160E063
:1031D00070E00E94C6188C01CE010E94ED17800F8E
:1031E000911FDF91CF911F910F9108950F931F931E
:1031F000CF93DF93EC010E94C6188C01CE010E9490
:10320000ED17800F911FDF91CF911F910F910895BE
:10321000CF93DF9300D000D0CDB7DEB79B01AC01D8
:10322000611571058105910569F069833A834B83C6
:103230005C830E948F1B29813A814B815C810E94B3
:10324000011B03C060E070E0CB010F900F900F9066
:103250000F90DF91CF910895CF92DF92EF92FF927E
:103260006B017C01621773078407950764F4CA0138
:10327000B9016C197D098E099F090E9408196C0D0E
:103280007D1D8E1D9F1DFF90EF90DF90CF900895C4
:1032900008955058BB27AA270ED0E0C0D1D030F0F7
:1032A000D6D020F031F49F3F11F41EF4C6C00EF4C6
:1032B000E095E7FBBCC0E92FE2D080F3BA176207C4
:1032C00073078407950718F071F49EF5FAC00EF4A1
:1032D000E0950B2EBA2FA02D0B01B90190010C0126
:1032E000CA01A0011124FF27591B99F0593F50F43E
:1032F000503E68F11A16F040A22F232F342F442796
:10330000585FF3CF469537952795A795F04053958D
:10331000C9F77EF41F16BA0B620B730B840BBAF05D
:103320009150A1F0FF0FBB1F661F771F881FC2F7C8
:103330000EC0BA0F621F731F841F48F487957795DC
:103340006795B795F7959E3F08F0B3CF9395880F93
:1033500008F09927EE0F97958795089598D088F0F3
:103360009F5790F0B92F9927B751A0F0D1F0660F71
:10337000771F881F991F1AF0BA95C9F712C0B1308C
:1033800081F09FD0B1E008959CC0672F782F8827E7
:10339000B85F39F0B93FCCF3869577956795B395CB
:1033A000D9F73EF490958095709561957F4F8F4F3A
:1033B0009F4F0895E89409C097FB3EF4909580953F
:1033C000709561957F4F8F4F9F4F9923A9F0F92FEB
:1033D00096E9BB279395F695879577956795B79569
:1033E000F111F8CFFAF4BB0F11F460FF1BC06F5F4F
:1033F0007F4F8F4F9F4F16C0882311F096E911C061
:10340000772321F09EE8872F762F05C0662371F081
:1034100096E8862F70E060E02AF09A95660F771F95
:10342000881FDAF7880F9695879597F9089597F989
:103430009F6780E870E060E008959FEF80EC08955A
:1034400000240A9416161706180609060895002483
:103450000A9412161306140605060895092E0394FD
:10346000000C11F4882352F0BB0F40F4BF2B11F471
:1034700060FF04C06F5F7F4F8F4F9F4F089557FDD0
:103480009058440F551F59F05F3F71F04795880FD2
:1034900097FB991F61F09F3F79F087950895121669
:1034A00013061406551FF2CF4695F1DF08C0161615
:1034B00017061806991FF1CF8695710561050894C6
:1034C0000895E894BB2766277727CB0197F90895DD
:1034D0000BD0C4CFB5DF28F0BADF18F0952309F080
:1034E000A6CFABCF1124EECFCADFA0F3959FD1F3C7
:1034F000950F50E0551F629FF001729FBB27F00DA2
:10350000B11D639FAA27F00DB11DAA1F649F6627F6
:10351000B00DA11D661F829F2227B00DA11D621F45
:10352000739FB00DA11D621F839FA00D611D221FFF
:10353000749F3327A00D611D231F849F600D211DE3
:10354000822F762F6A2F11249F5750408AF0E1F086
:1035500088234AF0EE0FFF1FBB1F661F771F881FCF
:1035600091505040A9F79E3F510570F060CFAACF0F
:103570005F3FECF3983EDCF3869577956795B795BA
:10358000F795E7959F5FC1F7FE2B880F911D9695E4
:10359000879597F90895AA1BBB1B51E107C0AA1F85
:1035A000BB1FA617B70710F0A61BB70B881F991FE4
:1035B0005A95A9F780959095BC01CD010895A1E297
:1035C0001A2EAA1BBB1BFD010DC0AA1FBB1FEE1F9D
:1035D000FF1FA217B307E407F50720F0A21BB30BE8
:1035E000E40BF50B661F771F881F991F1A9469F764
:1035F00060957095809590959B01AC01BD01CF01C0
:103600000895052E97FB1EF400940E94181B57FD89
:1036100007D00E94DF1A07FC03D04EF40C94181B4D
:1036200050954095309521953F4F4F4F5F4F0895EE
:1036300090958095709561957F4F8F4F9F4F08951E
:10364000EE0FFF1F0590F491E02D09940E94311BAD
:10365000A59F900DB49F900DA49F800D911D1124E6
:103660000895A29FB001B39FC001A39F700D811D5B
:103670001124911DB29F700D811D1124911D08957B
:103680008F929F92AF92BF92CF92DF92EF92FF9272
:10369000CF93DF93EC01688179818A819B816115E9
:1036A00071058105910521F464E279ED8BE597E0E0
:1036B0002DE133EF41E050E00E94011B49015A0126
:1036C0009B01AC01A7EAB1E40E94261B6B017C01BF
:1036D000ACEEB4EFA50194010E94A01BC60ED71E4C
:1036E000E81EF91EF7FE06C081E0C81AD108E108FD
:1036F00080E8F80AC882D982EA82FB82C701B60153
:103700009F77DF91CF91FF90EF90DF90CF90BF90A8
:10371000AF909F908F9008950E94401B089580E085
:1037200091E00E94401B0895609300017093010195
:1037300080930201909303010895B7FF0C94261B18
:0E3740000E94261B821B930B0895F894FFCF66
:10374E0001000000F4010500000000000000000070
:10375E0000000000000000000000000090010000CA
:10376E00B80B0000E8030000A00F0000F4010000F9
:10377E006400E80328000300000092139213564DD4
:10378E004450565F317C315F564D4450560D0A0001
:10379E00EDFF00000000EFFF00000000F1FF000051
:1037AE000000F3FF00000000F5FF00000000F7FF2F
:1037BE0000000000F9FF0000000002000000000001
:1037CE00B801B801BE01C401CA01D001D601DC01A5
:1037DE00E20180017A0174016E01680162015C01EF
:1037EE0056011500130011000F000D000B0009000B
:1037FE000000020000000000F9FFF7FF0000F7FFD5
:10380E00F5FF0000F5FFF3FF0000F3FFF1FF0000EE
:10381E00F1FFEFFF0000EFFFEDFF0000EDFFEBFF0C
:10382E0000000000000063046104B904E1FF000021
:10383E000000C40900001F0000001F000000630408
:10384E008F10B904E3FF00000000020A00001D0003
:10385E0000001D00000063049910B904E5FF00008C
:10386E000000860900001B0000001B00000063041E
:10387E008510B904E7FFF8FF000000005D0CEFFFB4
:10388E000800000000001900000019000000630489
:10389E00AD10B904EFFF00000000000000000000B2
:1038AE001100000063046104B904F1FF020000007E
:1038BE000000950BEFFFFEFF000000000F00000060
:1038CE000F0000006304A310B904F3FF0000000012
:1038DE003E0900000D0000000D00000063047B1087
:1038EE00B904020000000000CA080000FEFF00003C
:1038FE00FEFF000063047110B9040A030A031603E5
:10390E0024033003380342034C0356036003A8021A
:10391E00B40290029C0272027A0284025A0264027B
:10392E003C0244024E0222022E020A021602F2014A
:10393E00FE0121001F001D001B00130011000F00CF
:10394E0000000000020000000000910D0000FEFFCC
:10395E000000FEFF00006304B710B904F1FFF3FF8F
:10396E00F1FF0000B710EFFFF1FF0200EFFF0000C4
:10397E00C110EFFFEDFF0000E5FFE7FFF8FFE5FFE9
:10398E000000C110E3FFE5FFE3FF0000B710E1FF09
:10399E00E3FFE1FF0000B710DFFFE1FFDFFF0000F4
:1039AE00B710000000006C04000000006F04564DBC
:1039BE004450435F005F564D4450430D0A0045721C
:1039CE00726F723A20417474656D707420746F203A
:1039DE00736574206120726561642D6F6E6C792041
:1039EE007661726961626C65206F722064617461C8
:1039FE002074797065206E6F7420737570706F729D
:103A0E007465640D0A0000000000071683178915FF
:103A1E00A2159415E5156E616E00696E66006F76DF
:043A2E0066002E0000
:00000001FF
