:100000000C94BD000C94AD130C94D4130C94E50027
:100010000C94E5000C94E5000C94E5000C948F1012
:100020000C94E5000C94E5000C94E5000C94E500BC
:100030000C94E5000C94E5000C94E5000C94E500AC
:100040000C94FB130C94E5000C94E8160C941A170E
:100050000C94E5000C94E5000C94E5000C94E5008C
:100060000C94E5000C94E50009206D61783A00538A
:1000700070616365206D696E3A0009206D61783AA0
:10008000004D61726B20206D696E3A004578746591
:100090006E743D0009200009002073003A6D0020B5
:1000A0002073002020486561643A206D00293A20C1
:1000B0004761703A005261772073616D706C6573AF
:1000C000280020626974732900202800293A2056EC
:1000D000616C75653A0028004465636F646564204F
:1000E000004861736820436F6465004E45437800A3
:1000F0004A56430050616E61736F6E6963204F6CA6
:1001000064005243360052433500536F6E79004EFF
:10011000454300556E6B6E6F776E0000000008005F
:1001200002010000030407000000000000000001BD
:10013000020408102040800102040810200102047B
:10014000081020040404040404040402020202024D
:100150000203030303030300000000230026002919
:100160000000000000250028002B000000000024F3
:100170000027002A00003B064A1711241FBECFEFBC
:10018000D8E0DEBFCDBF13E0A0E0B1E0E2E8F7E3E6
:1001900002C005900D92A63CB107D9F726E0A6EC67
:1001A000B3E001C01D92AE38B207E1F711E0CAE733
:1001B000D1E004C02297FE010E943C1BC637D10744
:1001C000C9F70E948E170C94BF1B0C940000CF93AC
:1001D000DF93EC0102960E945308ECE9F2E0A48957
:1001E000B58916970D90BC91A02DAC0FBD1F8689C7
:1001F00097898D939C93A08DB18D16970D90BC918E
:10020000A02DAC0FBD1F828D938D50969C938E9325
:100210001F97A2A1B3A116970D90BC91A02DAC0F72
:10022000BD1F84A195A154969C938E935397CE01A4
:100230004196248D358DD90116970D90BC91A02D36
:10024000A80FB91F468D578D4D935C93D901189710
:100250000D90BC91A02DA80FB91F80A191A18D93E5
:100260009C93CE014B9626A137A1D90116970D90EC
:10027000BC91A02DA80FB91F40A551A54D935C932B
:10028000D90118970D90BC91A02DA80FB91F82A578
:1002900093A58D939C93A4A5B5A516970D90BC919D
:1002A000A02DAC0FBD1F86A597A55E969C938E933F
:1002B0005D97A0A9B1A916970D90BC91A02DAC0F88
:1002C000BD1F82A993A990969C938E935F97A4A932
:1002D000B5A916970D90BC91A02DAC0FBD1F86A996
:1002E00097A992969C938E9391978CEE92E0998326
:1002F000888388EF92E09B838A8386E093E0988BE3
:100300008F8782E193E09A8B898B8AE193E09C8BC3
:100310008B8B84E293E09C8F8B8F8EE293E09E8F99
:100320008D8F88E393E098A38F8F82E493E09AA364
:1003300089A3DF91CF9108952F923F924F925F92C0
:100340006F927F928F929F92AF92BF92CF92DF92E5
:10035000EF92FF920F931F93CF93DF9300D000D0C3
:10036000CDB7DEB79C838B835B015A834983190128
:100370000E9445142B013C0188248394912C680130
:10038000EE24D7FCE094FE2C0E94451464197509F4
:10039000860997096C157D058E059F05A0F561E01E
:1003A00088E00E9444150B811C8117FF02C00F5F7B
:1003B0001F4F15950795C8010E949C1460E088E0C6
:1003C0000E944415C8010E949C14829CC001839C19
:1003D000900D929C900D11242B813C81280F391F88
:1003E0003C832B8389819A81821793071CF4919413
:1003F00081949108EB81FC81EA15FB052CF6919420
:1004000081949108C1CF0F900F900F900F90DF91C2
:10041000CF911F910F91FF90EF90DF90CF90BF9001
:10042000AF909F908F907F906F905F904F903F9094
:100430002F9008954F925F926F927F92AF92BF92EA
:10044000CF92DF92EF92FF920F931F93CF93DF93A0
:10045000590197FD01968C0115950795C0E0D0E0F4
:100460006B01EE24D7FCE094FE2C2A01662457FC95
:100470006094762CCA15DB0594F50E9445146093B0
:10048000D5037093D6038093D7039093D8030E942B
:1004900045142091D5033091D6034091D703509154
:1004A000D803621B730B840B950B6C157D058E05B1
:1004B0009F0578F461E088E00E944415C8010E941D
:1004C0009C1460E088E00E944415C8010E949C14BE
:1004D000DECFC301B2010E9474142196CBCFDF910D
:1004E000CF911F910F91FF90EF90DF90CF90BF9031
:1004F000AF907F906F905F904F9008952F923F92B2
:100500004F925F926F927F928F929F92AF92BF9223
:10051000CF92DF92EF92FF920F931F93CF93DF93CF
:10052000CDB7DEB728970FB6F894DEBF0FBECDBFAC
:100530001A830983212C312C7B010027F7FC0095BD
:10054000102FEB82FC820D831E836C01EE24D7FCFE
:10055000E094FE2C4A01AA2497FCA094BA2C29010D
:10056000662457FC6094762C09811A812016310686
:100570000CF048C00E9445146093D5037093D603D5
:100580008093D7039093D8032B813C814D815E816A
:10059000C701B6010E9446199B0177FF02C02F5F79
:1005A0003F4F89011595079518870F830E944514C1
:1005B0000091D5031091D6032091D7033091D80331
:1005C000601B710B820B930B681579058A059B05DF
:1005D00088F461E088E00E9444158F8198850E942C
:1005E0009C1460E088E00E9444158F8198850E94E9
:1005F0009C14DCCFC301B2010E9474141FEF211AB6
:10060000310AB2CF28960FB6F894DEBF0FBECDBF29
:10061000DF91CF911F910F91FF90EF90DF90CF90DE
:10062000BF90AF909F908F907F906F905F904F9012
:100630003F902F9008950F931F9340ED57E060E097
:1006400070E081EB95E00E94131320E835E240E072
:1006500050E061EF75E081EB95E00E94261381EB9D
:1006600095E00E94101360E271E08091E2059091A4
:10067000E3050E94FE176AE070E080E090E00E94CF
:10068000741441E060E081EB95E00E94911361E019
:100690008DE00E940B1562E082E00E940B1561E084
:1006A00088E00E940B1526E040E855E260E070E02B
:1006B00081EF95E00E9486168EEF93E00E946F1006
:1006C00068E174E08DED93E00E94650861E088E0E8
:1006D0000E94441505E010E02EE130E042E350E0D6
:1006E00068EE73E084E690E00E947E0260E08DE0B8
:1006F0001F910F910C9444152F923F924F925F924D
:100700006F927F928F929F92AF92BF92CF92DF9221
:10071000EF92FF920F931F93CF93DF93CDB7DEB786
:100720002A970FB6F894DEBF0FBECDBF180100E0C8
:1007300010E06A01EE24D7FCE094FE2CCD82DE822C
:10074000EF82F8866B01EE24D7FCE094FE2C4C017E
:10075000AA2497FCA094BA2C2901662457FC609423
:10076000762C021513050CF04CC00E9445146093C2
:10077000D5037093D6038093D7039093D8030E9438
:1007800045142091D5033091D6034091D703509161
:10079000D803621B730B840B950B2D813E814F8117
:1007A0005885621773078407950720F5A7019601FE
:1007B000C501B4010E94461969837A838B839C83A7
:1007C00061E088E00E94441589819A8197FD019635
:1007D0009C0135952795C90129873A870E949C1469
:1007E00060E088E00E94441529853A85C9010E948D
:1007F0009C14C5CFC301B2010E9474140F5F1F4F38
:10080000B0CF2A960FB6F894DEBF0FBECDBFDF91F2
:10081000CF911F910F91FF90EF90DF90CF90BF90FD
:10082000AF909F908F907F906F905F904F903F9090
:100830002F9008958F929F92AF92BF92CF92DF92A6
:10084000EF92FF920F931F93CF93DF936DED73E0C1
:100850008EEF93E00E948010882309F48EC098EEFA
:10086000A92E93E0B92E20EDC22E27E0D22E38EE2D
:10087000E32E33E0F32E00E010E028EE33E048E012
:1008800057E06AE08DED93E00E946908C82F40911F
:10089000E0035091E1036091E2037091E30320E1F2
:1008A00030E081EF95E00E9410198DED93E00E94F9
:1008B000D606CC2389F18091E0039091E103A091C9
:1008C000E203B091E3030397A105B10509F051C01C
:1008D00081E08093C7031092C8038093C60361E050
:1008E00088E00E9444150E9445146093D5037093DC
:1008F000D6038093D7039093D80304E110E021E05E
:1009000030E04AE550E06CE271E088EC90E00E9453
:100910007C031092C7032DC00091060110910701BE
:1009200017FF02C00F5F1F4F1595079521E030E0BC
:100930004CED55E068E775E08AEA95E00E949C017D
:10094000C5E0D0E061E08DE00E94441564E670E00F
:1009500080E090E00E94741460E08DE00E944415F5
:1009600064E670E080E090E00E947414219751F7F3
:10097000A2CF8EEF93E00E946F108091C80388236E
:1009800009F46CC00E9445140091CD031091CE0370
:100990002091CF033091D003601B710B820B930B1E
:1009A0000091100110911101209112013091130159
:1009B0000617170728073907A8F41092C8030E94E2
:1009C00045146093CD037093CE038093CF0390932F
:1009D000D00321E030E040E050E06CE271E084EFD1
:1009E00091E02EC00E9445140091C9031091CA03E2
:1009F0002091CB033091CC03601B710B820B930BC6
:100A000000910C0110910D0120910E0130910F0108
:100A1000061717072807390708F020C10E94451458
:100A20006093C9037093CA038093CB039093CC0364
:100A300021E030E040E050E064E670E080E991E0E1
:100A4000DF91CF911F910F91FF90EF90DF90CF90AA
:100A5000BF90AF909F908F900C941A0282E00E94FA
:100A60007A159093DA038093D903892B09F0F6C0A5
:100A70000E9445140091D1031091D2032091D30319
:100A80003091D403601B710B820B930B0091140106
:100A900010911501209116013091170106171707C3
:100AA0002807390708F0DAC00E9445146093D10383
:100AB0007093D2038093D3039093D40380910A015F
:100AC00090910B01019790930B0180930A011816E6
:100AD0001906ECF081E08093C80385E090E09093E4
:100AE0000B0180930A010E9445146093CD0370931B
:100AF000CE038093CF039093D0030E94451460935C
:100B0000C9037093CA038093CB039093CC030E94D4
:100B10004514AB01BC012AE030E081EF95E00E9472
:100B20001019409118015091190160911A017091AA
:100B30001B011F921F921F921F9281E08F9386E2EA
:100B40008F9383E08F9388EE8F93E0ED8E2EE7E016
:100B50009E2EF8EEAF2EF3E0BF2EA8EECA2EA3E035
:100B6000DA2EB8EEEB2EB3E0FB2E08E017E023E020
:100B700083E094E00E94EA110E944514AB01BC019D
:100B80002AE030E081EF95E00E9410198EEF93E0AB
:100B90000E946F102DB73EB7285F3F4F0FB6F894F5
:100BA0003EBF0FBE2DBFC3E0D0E017E0F12E0E9484
:100BB00045146093D5037093D6038093D703909325
:100BC000D8030E9445140091D5031091D6032091BB
:100BD000D7033091D803601B710B820B930B0091EC
:100BE000040110910501222717FD2095322F60176F
:100BF00071078207930748F561E088E00E94441579
:100C0000809108019091090197FD079663E0959501
:100C100087956A95E1F79C01F29EC001F39E900DC5
:100C200011240E949C1460E088E00E944415809189
:100C300008019091090197FD079653E095958795D6
:100C40005A95E1F70E949C14BCCF62E370E080E00B
:100C500090E00E947414219709F0A9CFDF91CF9101
:100C60001F910F91FF90EF90DF90CF90BF90AF90CA
:100C70009F908F90089583E094E00E9487118AE905
:100C800091E0909302048093010480EA91E09093B4
:100C90000B0480930A0486EA91E090930D048093FC
:100CA0000C048CEA91E090930F0480930E0482EB85
:100CB00091E0909311048093100488EB91E090935D
:100CC0001304809312048EEB91E0909315048093AB
:100CD000140484EC91E090931704809316046BE065
:100CE0008EEF93E00E9402108EE493E09093FF0356
:100CF0008093FE038BED93E00C94E70080E0089571
:100D0000FC011282138214821582168217821286C7
:100D100008951092B005089581E090E09093E20468
:100D20008093E1041092B0050895CF93DF93CDB77F
:100D3000DEB762970FB6F894DEBF0FBECDBF893025
:100D40000CF080E023E131E03A8329832FE031E0A9
:100D50003C832B832AE031E03E832D8326E031E083
:100D600038872F8322E031E03A87298724EF30E06B
:100D70003C872B8720EF30E03E872D872BEE30E03D
:100D8000388B2F8721EE30E03A8B298BE82FEE0F3E
:100D9000FF0BEC0FFD1F8181928162960FB6F894D4
:100DA000DEBF0FBECDBFDF91CF9108952F923F924E
:100DB0004F925F926F927F928F929F92AF92BF926B
:100DC000CF92DF92EF92FF920F931F93CF93DF9317
:100DD000EC018A81893074F568ED70E081EF95E06F
:100DE0000E94DB178A810E949506BC0181EF95E085
:100DF0000E94DB1766ED70E081EF95E00E94DB1743
:100E00006A81772767FD70954AE050E081EF95E0B1
:100E10000E94C0186CEC70E081EF95E00E94DB1737
:100E20004B815C816D817E8120E130E081EF95E036
:100E30000E94E01869EC70E081EF95E00E94DB17FA
:100E40004AE050E06F8181EF95E00E94ED1862EC7E
:100E500070E081EF95E00E940B1865EB70E081EF88
:100E600095E00E94DB174AE050E06A8581EF95E04B
:100E70000E94ED186DEA70E081EF95E00E94DB17AB
:100E8000E885F985608171814AE050E081EF95E065
:100E90000E94FA1863EA70E081EF95E00E94DB1788
:100EA000E885F985628173814AE050E081EF95E041
:100EB0000E94F4186FE970E081EF95E00E94DB1763
:100EC000E885F985648175814AE050E081EF95E01D
:100ED0000E94FA18E885F9858281938144805580C3
:100EE000480E591E612C712CC12CD12C212C312C77
:100EF000AA24AA943FE7B32E88248A944FE7942E1D
:100F000053E0E52EF12C8A8590E0E816F9060CF006
:100F10006EC0E885F985C701880F991FE80FF91F92
:100F200000811181C801AA2797FDA095BA2F480E0C
:100F3000591E6A1E7B1EE0FE16C00A151B050CF426
:100F40005801C016D1060CF46801B7017595679574
:100F5000615071094AE050E081EF95E00E94C018AD
:100F60006CE970E00DC01016110624F4081519057F
:100F70000CF44801201631060CF4180169E970E000
:100F800081EF95E00E94DB174AE050E0B80181EF65
:100F900095E00E94C01887010150110900FF06C0AA
:100FA00067E970E081EF95E00E94DB17C80183706C
:100FB0009927019731F464E970E081EF95E00E9490
:100FC000DB17C80187709927019721F481EF95E01D
:100FD0000E9407180F7111270130110521F481EFCC
:100FE00095E00E9407188FEFE81AF80A8CCF81EF7E
:100FF00095E00E9407186CE870E081EF95E00E9490
:10100000DB172AE030E0B301A20181EF95E00E94F6
:10101000101961E870E081EF95E00E94DB174AE06B
:1010200050E0B50181EF95E00E94C0186AE770E0DA
:1010300081EF95E00E94DB174AE050E0B60181EFB6
:1010400095E00E94C8186FE670E081EF95E00E947D
:10105000DB174AE050E0B40181EF95E00E94C01830
:1010600068E670E081EF95E00E94DB174AE050E00F
:10107000B10181EF95E00E94C81881EF95E0DF9102
:10108000CF911F910F91FF90EF90DF90CF90BF9085
:10109000AF909F908F907F906F905F904F903F9018
:1010A0002F900C940718FC0188EC91E091838083C9
:1010B00088EE94E0918780871386128213821482CF
:1010C00015821682178212860895FC017187608747
:1010D00008952F923F924F925F926F927F928F92DC
:1010E0009F92AF92BF92CF92DF92EF92FF920F93B7
:1010F0001F93CF93DF93CDB7DEB72E970FB6F8943B
:10110000DEBF0FBECDBF1C013A872987BE82AD82EC
:1011100081E0D1011C968C931C97662321F01A96CE
:101120008C91861388C1F101938491103AC04115C6
:101130005105B9F1A084B184D50112960D90BC91EE
:10114000A02DBA83A983BA0180E090E00E94F4192F
:101150002B013C0120E030E040E45FE30E94821A72
:101160000E94C819E981FA81E617F70708F415C249
:10117000D5011296AD90BC90139720E030E040EA84
:101180005FE3C301B2010E94821A20E030E040E830
:101190005FE30E9464190E94C8196A157B0508F470
:1011A000FCC182E0F101848729853A85211531054A
:1011B00089F1A084B184D50114968D909C901597E7
:1011C000B90180E090E00E94F4192B013C0120E07D
:1011D00030E040E45FE30E94821A0E94C81986163C
:1011E000970608F428C1F501A480B58020E030E01E
:1011F00040EA5FE3C301B2010E94821A20E030E0BE
:1012000040E85FE30E9464190E94C8196A157B05D3
:1012100008F411C1D1011A966C900115110509F459
:1012200063C0812C912C5401C601A0E0B0E08983F9
:101230009A83AB83BC83C801A0E0B0E08D839E831A
:10124000AF83B887C701A0E0B0E089879A87AB87F2
:10125000BC87D1011C967C90272D30E07614D8F500
:10126000D10118964D905C901997F901EE0FFF1F70
:10127000E40DF51DFE87ED870081118169817A817A
:101280008B819C810E94F4196B017C0120E030E08D
:1012900040E45FE30E94821A0E94C81906171707EC
:1012A00008F4C9C0AD85BE850D911C9120E030E0E9
:1012B00040EA5FE3C701B6010E94821A20E030E0F5
:1012C00040E85FE30E9464190E94C8196017710723
:1012D00008F07BC0B0C0C901019797FDC901959581
:1012E0008795F101878369C06A9483E0D1011C96D8
:1012F0008C93812C912C5401C701A0E0B0E089832C
:101300009A83AB83BC83C601A0E0B0E089879A874B
:10131000AB87BC87AD81BE81CD01A0E0B0E08D83FD
:101320009E83AF83B887F1017484272D30E0761453
:10133000D0F5F10140845184C901880F991F840DB3
:10134000951D9E878D87DC010D911C9169817A81A5
:101350008B819C810E94F4196B017C0120E030E0BC
:1013600040E45FE30E94821A0E94C819061717071B
:1013700008F461C0ED85FE850081118120E030E038
:1013800040EA5FE3C701B6010E94821A20E030E024
:1013900040E85FE30E9464190E94C8196017710752
:1013A00008F087C048C0C901019797FDC90195950C
:1013B00087958150D10117968C93F1018382948295
:1013C000A582B68299249394E8C081E0870DD1016B
:1013D0001C968C938201080F111D080F111DF80136
:1013E000408051806D817E818F8198850E94F419A3
:1013F0006B017C0120E030E040E45FE30E94821A50
:101400000E94C81946165706C0F4D8014D905C904A
:1014100069857A858B859C850E94F4196B017C0116
:1014200020E030E040E45FE30E94821A0E94C81985
:101430004616570618F5912CB0C0F801408051802F
:1014400020E030E040EA5FE3C701B6010E94821A63
:1014500020E030E040E85FE30E9464190E94C81970
:101460006415750590F2880C991CAA1CBB1C689425
:1014700080F873947394F1017486EBCED8010D91CA
:101480001C9120E030E040EA5FE3C701B6010E9412
:10149000821A20E030E040E85FE30E9464190E9475
:1014A000C8196017710738F2880C991CAA1CBB1C5C
:1014B000E0CF81E0870DF10184878201080F111DC3
:1014C000080F111DD8014D905C9069857A858B8538
:1014D0009C850E94F4196B017C0120E030E040E41F
:1014E0005FE30E94821A0E94C8194616570610F13F
:1014F000D8014D905C9020E030E040EA5FE3C70106
:10150000B6010E94821A20E030E040E85FE30E94CA
:1015100064190E94C8196415750560F0880C991C3F
:10152000AA1CBB1C689480F873947394D1011C9618
:101530007C92F9CEF801408051806D817E818F814F
:1015400098850E94F4196B017C0120E030E040E4B2
:101550005FE30E94821A0E94C8194616570608F4D3
:101560006ACFF8010081118120E030E040EA5FE3BA
:10157000C701B6010E94821A20E030E040E85FE334
:101580000E9464190E94C8196017710708F453CFAC
:10159000880C991CAA1CBB1CC7CF892D2E960FB690
:1015A000F894DEBF0FBECDBFDF91CF911F910F9199
:1015B000FF90EF90DF90CF90BF90AF909F908F9073
:1015C0007F906F905F904F903F902F900895AF92D3
:1015D000BF92CF92DF92EF92FF920F931F93CF9320
:1015E000DF93EC01E881F98136970190F081E02DDD
:1015F000E80FF91F8285843089F5A085B18514969E
:101600008D919C9115978739964040F114968D9154
:101610009C9115978E3F9A4008F516968D919C9156
:101620001797873A9140D0F016968D919C91179715
:10163000833C924098F41782E881F98136970190B3
:10164000F081E02DEC0FFD1F8FEF9FEFDC01838316
:101650009483A583B68381E0828322C084E3A82E8D
:1016600082E0B82E9CE9C92E96E0D92E24E3E22E22
:1016700022E0F22E00E010E020EA31E140E453E203
:1016800064E4CF010E946908882351F0E881F98160
:1016900036970190F081E02DEC0FFD1F91E09283D1
:1016A000DF91CF911F910F91FF90EF90DF90CF903E
:1016B000BF90AF900895AF92BF92CF92DF92EF921A
:1016C000FF920F931F93CF93DF93EC01E881F98191
:1016D0003697808191818C0F9D1FFC012285322FCE
:1016E000377F323131F0203221F02A3211F080E0A0
:1016F0001FC0A12CB12C38E5C32E32E0D32E48E513
:10170000E42E42E0F42E00EB14E028E532E040E65F
:1017100059E060E00E946908882349F3E881F98173
:1017200036970190F081E02DEC0FFD1F92E092833F
:10173000DF91CF911F910F91FF90EF90DF90CF90AD
:10174000BF90AF900895AF92BF92CF92DF92EF9289
:10175000FF920F931F93CF93DF93EC01E881F98100
:1017600036978081918151E4A52E53E0B52E63EC2C
:10177000C62E69E0D62E71E4E72E73E0F72E00E066
:1017800010E024E03DE044E05DE060E38C0F9D1F4D
:101790000E946908882351F0E881F9813697019009
:1017A000F081E02DEC0FFD1F95E09283DF91CF914A
:1017B0001F910F91FF90EF90DF90CF90BF90AF906F
:1017C0000895AF92BF92CF92DF92EF92FF920F9364
:1017D0001F93CF93DF93EC01E881F98136978081E5
:1017E0009181E4E3AE2EE2E0BE2EFCE9CF2EF6E0DE
:1017F000DF2EA4E3EA2EA2E0FA2E00E010E020EAB9
:1018000031E140EA51E164E48C0F9D1F0E946908B8
:10181000882351F0E881F98136970190F081E02D1D
:10182000EC0FFD1F97E09283DF91CF911F910F91F5
:10183000FF90EF90DF90CF90BF90AF9008959F9270
:10184000AF92BF92CF92DF92EF92FF920F931F93CE
:10185000CF93DF93EC01E881F98136978081918104
:10186000BDE0AB2EB2E0BB2E17E2C12E16E0D12EAA
:101870000DE0E02E02E0F02E00E010E028E630E17E
:1018800040ED50E264E28C0F9D1F0E946908982E83
:1018900081113BC0E881F98136970190F081E02DFC
:1018A000EC0FFD1F8285823209F04AC020E030E053
:1018B0004DE052E060E0CF010E946908882309F4FE
:1018C0003FC0E881F98136970190F081E02DEC0F5F
:1018D000FD1FA085B18518968D919C9119978D3922
:1018E000944000F118968D919C911997823B9740F6
:1018F000C8F4438154816581768150684383548361
:101900006583768387818F5F8783E881F981369746
:101910000190F081E02DEC0FFD1F86E08283992479
:1019200093940EC018968D919C9119978938914087
:1019300038F018968D919C9119978239924010F346
:10194000892DDF91CF911F910F91FF90EF90DF9044
:10195000CF90BF90AF909F9008952F923F924F925B
:101960005F926F927F928F929F92AF92BF92CF922F
:10197000DF92EF92FF920F931F93CF93DF9300D0EC
:101980001F92CDB7DEB77C015B016A01DC01ED91EE
:10199000FC91369700811181080F191FF80194847A
:1019A0008285981608F0BAC090858185E92FF82FB6
:1019B000E90DF11DE90DF11D208131813B832A8361
:1019C000892D809581708983812CBA0180E090E017
:1019D0000E94F4192B013C0120E030E040E45FE379
:1019E0000E94821A0E94C819AA81BB81A617B70754
:1019F000B0F020E030E040EA5FE3C301B2010E94B2
:101A0000821A20E030E040E85FE30E9464190E94FF
:101A1000C819EA81FB816E177F0708F064C01601C0
:101A2000220C331CB10180E090E00E94F4192B01DC
:101A30003C0120E030E040E45FE30E94821A0E9413
:101A4000C8192A813B8126173707A8F020E030E02B
:101A500040EA5FE3C301B2010E94821A20E030E055
:101A600040E85FE30E9464190E94C819AA81BB8103
:101A70006A177B07D0F5B1016C0D7D1D80E090E009
:101A80000E94F4192B013C0120E030E040E45FE3C8
:101A90000E94821A0E94C819EA81FB81E617F707A3
:101AA000A8F020E030E040EA5FE3C301B2010E9409
:101AB000821A20E030E040E85FE30E9464190E944F
:101AC000C8192A813B816217730788F4D8011B96D5
:101AD0008C91882331F1B1E09B1226C0EA81FB8111
:101AE000EC15FD0520F591E003C092E001C093E004
:101AF000D5018C918F5F891710F48C931BC0F50171
:101B00001082D701ED91FC9136970190F081E02D84
:101B1000EE0DFF1D84858F5F84870CC0B1E0B98313
:101B200008C0E2E0E98305C0F2E0F98302C022E0E8
:101B30002983812C8981982D0F900F900F90DF9130
:101B4000CF911F910F91FF90EF90DF90CF90BF90BA
:101B5000AF909F908F907F906F905F904F903F904D
:101B60002F9008950F931F93CF93DF93EC01E8819B
:101B7000F98138970190F081E02DE80FF91F8285F7
:101B80008D3008F4B1C081E08487E881F98136970F
:101B90000190F081E02DEC0FFD1F1482158216825A
:101BA00017821382E881F9813697808191818C0FA9
:101BB0009D1FBC016D5F7F4F49E753E00E94AD0C54
:101BC000892B09F091C0E881F98136970190F08165
:101BD000E02DEC0FFD1F128288819981FC0138975E
:101BE0000190F081E02DEC0FFD1F34852285321726
:101BF00008F05AC0FC013697808191818C0F9D1F9F
:101C0000BC016D5F7F4F49E753E00E94AD0C8C0132
:101C1000E881F9813697808191818C0F9D1FBC01ED
:101C20006D5F7F4F49E753E00E94AD0C0130110515
:101C3000A9F4892B09F058C0E881F9813697019001
:101C4000F081E02DEC0FFD1F448155816681778185
:101C5000440F551F661F771F416016C0012B09F006
:101C600043C0019709F040C0E881F981369701909F
:101C7000F081E02DEC0FFD1F448155816681778155
:101C8000440F551F661F771F4483558366837783F0
:101C9000E881F98136970190F081E02DEC0FFD1F6E
:101CA00082818F5F828398CF8DE08783888199813D
:101CB000FC0138970190F081E02DEC0FFD1FDC0155
:101CC00016970D90BC91A02DAC0FBD1F14968D9151
:101CD0009D910D90BC91A02D83839483A583B683A1
:101CE00083E0828381E001C080E0DF91CF911F918A
:101CF0000F910895EF92FF920F931F93CF93DF936D
:101D0000EC01E881F98138970190F081E02DE80F2E
:101D1000F91F8285811102C080E019C18385A085E9
:101D2000B18581110EC012968D919C9113978F3CB5
:101D3000974090F312968D919C91139786309D4019
:101D400058F714968D919C9115978A39924020F3FB
:101D500014968D919C91159789359440E8F683E00F
:101D60008487E881F98136970190F081E02DEC0FAE
:101D7000FD1F14821582168217821382E881F98171
:101D80003697808191818C0F9D1FBC016D5F7F4FC5
:101D90004CEB51E00E94AD0C892B09F0BDCFE881DE
:101DA000F9813697808191818C0F9D1FBC016D5FF9
:101DB0007F4F4CEB51E00E94AD0C019709F0ACCF86
:101DC000E881F98136970190F081E02DEC0FFD1F3D
:101DD0001282A881B981FD0138970190F081E02D30
:101DE000EC0FFD1F948582851697981708F08AC01E
:101DF0008D919C918C0F9D1FBC016D5F7F4F4CEBB3
:101E000051E00E94AD0C8C01E881F9813697019078
:101E1000F081E02DEC0FFD1F82818330D9F0E88145
:101E2000F9813697808191818C0F9D1FBC016D5F78
:101E30007F4F4CEB51E00E94AD0C7C01E881F981B1
:101E400036970190F081E02DEC0FFD1F82818330E9
:101E5000C9F40CC0BF016D5F7F4F4CEB51E0CF0167
:101E60000E94AD0C08171907D1F256CFBF016D5F64
:101E70007F4F4CEB51E0CF010E94AD0CE816F90604
:101E800009F04ACF01151105B1F4EA94EF2809F0E1
:101E900043CFE881F98136970190F081E02DEC0F76
:101EA000FD1F4481558166817781440F551F661F50
:101EB000771F416017C00130110509F02DCFEF28C1
:101EC00009F02ACFE881F98136970190F081E02D61
:101ED000EC0FFD1F4481558166817781440F551FAA
:101EE000661F771F4483558366837783E881F98172
:101EF00036970190F081E02DEC0FFD1F82818F5FFE
:101F0000828367CF0D90BC91A02DAC0FBD1F1296A0
:101F10008C91878388819981FC0138970190F081A9
:101F2000E02DEC0FFD1FDC0116970D90BC91A02D4C
:101F3000AC0FBD1F14968D919D910D90BC91A02D5D
:101F400083839483A583B68384E0828381E0DF91D9
:101F5000CF911F910F91FF90EF900895CF93DF9352
:101F6000EC01E881F9813A97808191818C0F9D1F66
:101F70000E94E70A811142C0E881F9813C97808183
:101F800091818C0F9D1F0E945B0B811137C0E881EE
:101F9000F9813E97808191818C0F9D1F0E94B20D27
:101FA00081112CC0E881F9817297808191818C0F19
:101FB0009D1F0E947A0E811121C0E881F9817497DA
:101FC000808191818C0F9D1F0E94A30B811116C0EF
:101FD000E881F9817897808191818C0F9D1F0E9403
:101FE000E10B81110BC0E881F981769780819181A5
:101FF0008C0F9D1FDF91CF910C941F0C81E0DF911E
:10200000CF91089528E433E0FC013183208360936D
:10201000E0041092E30424E622830895EF92FF92F5
:102020000F931F93CF93DF938C01EB017A01E8812B
:10203000F9810190F081E02DCB0109958091B005E7
:102040008A8740E08091B005481720F5A42FB0E0C2
:10205000CD01880F991FE885F985E80FF91FDC018C
:10206000A851BB4F2D913C912E9DC0012F9D900DED
:102070003E9D900D1124D80112962C9130E040FF26
:1020800003C0319521953109280F391F31832083F1
:102090004F5FD8CF81E0DF91CF911F910F91FF90DB
:1020A000EF900895CF93DF93EC018091E00460E01E
:1020B0000E940B15E881F9810190F081E02DCE019D
:1020C000DF91CF9109948091E304882339F08091C6
:1020D000B00580FF02C02D9A08952D9808950E94A2
:1020E0005210F89482E08093B0008093B10094E69F
:1020F0009093B3001092B20080937000789408958A
:102100002091E1043091E2042430310531F442E3BE
:1021100050E00E940E1081E0089580E008951F9223
:102120000F920FB60F9211242F933F934F935F930B
:102130006F937F938F939F93AF93BF93EF93FF938F
:102140008091E0040E947A154091E4045091E504E6
:102150006091E6047091E7044F5F5F4F6F4F7F4FD0
:102160004093E4045093E5046093E6047093E7041D
:102170002091B005243630F024E030E03093E204C2
:102180002093E1042091E1043091E20422303105F2
:1021900009F124F42130310549F07FC023303105A5
:1021A000E1F12430310509F46EC077C0892B09F0C4
:1021B00074C08091E4049091E504A091E604B0918C
:1021C000E70484369105A105B10508F45EC01092BC
:1021D000B00525C0019709F060C0E091B00581E02D
:1021E0008E0F8093B005F0E08091E4049091E504B7
:1021F000A091E604B091E704EE0FFF1FE851FB4FFA
:10220000918380831092E4041092E5041092E60416
:102210001092E70483E090E031C0892B01F5E09152
:10222000B00581E08E0F8093B005F0E08091E4046A
:102230009091E504A091E604B091E704EE0FFF1F32
:10224000E851FB4F918380831092E4041092E504DF
:102250001092E6041092E70482E090E00FC08091B3
:10226000E4049091E504A091E604B091E70485367A
:102270009105A105B10588F084E090E09093E20417
:102280008093E1040AC0892B41F41092E404109277
:10229000E5041092E6041092E7040E946310FF9197
:1022A000EF91BF91AF919F918F917F916F915F91CE
:1022B0004F913F912F910F900FBE0F901F90189547
:1022C000CF93C62F1092700061E083E00E940B153F
:1022D00060E083E00E9444152C2F30E040E050E0A5
:1022E00060E47FE180E090E00E941B1B81E080932E
:1022F000B00089E08093B1002093B3008BEA289F5F
:10230000212D112426952093B400CF91089561E0EA
:1023100083E00E940B1560E083E00C944415CF939A
:10232000DF930097B1F081382EE3920770F068EEEA
:1023300073E00E94E51AEB010E949C14BE0180E04C
:1023400090E0DF91CF910C947414DF91CF910C94B5
:102350009C14DF91CF9108950F931F93CF93DF9338
:10236000EC018B01E0EBF0E0808180628083CB01A7
:102370000E948F11488159816A817B81400F511FD2
:10238000611D711D488359836A837B83DF91CF91DF
:102390001F910F9108950F931F93CF93DF93EC013B
:1023A0008B01E0EBF0E080818F7D8083CB010E9488
:1023B0008F11488159816A817B81400F511F611DB6
:1023C000711D488359836A837B83DF91CF911F916D
:1023D0000F9108952F923F924F925F926F927F924A
:1023E0008F929F92AF92BF92CF92DF92EF92FF9225
:1023F0000F931F93CF93DF93CDB7DEB729970FB617
:10240000F894DEBF0FBECDBF3C011A012B018E8DAB
:102410009F8D98878F8368A139A139878AA19BA155
:10242000ACA1BDA18B839C83AD83BE83D3011D92E0
:102430001D921D921C921397E22FF0E0FA83E9831C
:1024400080E290E08E1B9F0B04C0220C331C441CC6
:10245000551C8A95D2F7C3010E9460110115110520
:1024600021F0B801C3010E94AC11E114F10421F084
:10247000B701C3010E94CB1100E010E029813A812D
:1024800002171307C4F457FE06C0B601C3010E9429
:10249000AC11B40106C0B501C3010E94AC116F813B
:1024A0007885C3010E94CB11220C331C441C551C9F
:1024B0000F5F1F4FE3CF3985332321F0B601C301EE
:1024C0000E94AC118B819C81AD81BE81892B8A2BAE
:1024D0008B2B41F0D3018D919C916B817C81681B8A
:1024E000790B01C0B401C30129960FB6F894DEBF81
:1024F0000FBECDBFDF91CF911F910F91FF90EF9055
:10250000DF90CF90BF90AF909F908F907F906F9013
:102510005F904F903F902F900C94CB11DC01ED9188
:10252000FC91389720813181820F931F0C94E70A28
:10253000DC01ED91FC91389720813181820F931F4E
:102540000C945B0BDC01ED91FC913897208131817B
:10255000820F931F0C94A30BDC01ED91FC91389733
:1025600020813181820F931F0C94E10BDC01ED91EE
:10257000FC91389720813181820F931F0C941F0C9E
:10258000DC01ED91FC91389720813181820F931FFE
:102590000C94B20DDC01ED91FC91389720813181D2
:1025A000820F931F0C947A0EDC01ED91FC91389709
:1025B00020813181820F931F0C94AE0FDC01ED91CD
:1025C000FC913A9720813181820F931F0C94AE0FBA
:1025D0000F931F93CF93DF93EC01662359F00E9472
:1025E000451469837A838B839C83DF91CF911F91FC
:1025F0000F9108950E94451409811A812B813C8115
:10260000601B710B820B930B623371058105910581
:1026100030F763E070E080E090E00E947414EACF4D
:1026200060E00C94E812FC0113AA14AA15AA16AAD9
:1026300011821282138214824115510561057105C0
:1026400021F0CB01BA010C9474140895FB01BA0176
:10265000A901DC01D296FC93EE93D19726E0CF013D
:102660000C9486161F93CF93DF93EC01162F60E531
:1026700073E089A99AA90E94FE174AE050E0612FF1
:1026800089A99AA90E94ED1867E573E089A99AA91A
:102690000E94FE1762E370E080E090E0DF91CF914E
:1026A0001F910C9474141F93CF93DF93EC01162F9A
:1026B0008D81882389F189A99AA9DC01ED91FC918A
:1026C0000480F581E02D0995892BA9F307C02637F1
:1026D000310519F12835310509F41D8289A99AA916
:1026E000DC01ED91FC910480F581E02D099518162F
:1026F000190694F489A99AA9DC01ED91FC91068050
:10270000F781E02D09959C01332723363105F9F631
:10271000612FCE010E94321383E6DF91CF911F918A
:1027200008950F931F93CF93DF931F92CDB7DEB71A
:102730008C01662349F081E0F801858360E0C801DF
:1027400049830E9453134981F80145830F90DF911B
:10275000CF911F910F91089508951F920F920FB678
:102760000F9211242F933F934F935F936F937F9317
:102770008F939F93AF93BF93EF93FF93E0911C01CF
:10278000F0911D010995FF91EF91BF91AF919F913C
:102790008F917F916F915F914F913F912F910F900A
:1027A0000FBE0F901F9018951F920F920FB60F92A9
:1027B00011242F933F934F935F936F937F938F9346
:1027C0009F93AF93BF93EF93FF93E0911E01F0911E
:1027D0001F010995FF91EF91BF91AF919F918F914B
:1027E0007F916F915F914F913F912F910F900FBE0D
:1027F0000F901F9018951F920F920FB60F921124F1
:102800002F933F938F939F93AF93BF938091E9054D
:102810009091EA05A091EB05B091EC053091E805A7
:1028200023E0230F2D3720F40196A11DB11D05C013
:1028300026E8230F0296A11DB11D2093E805809381
:10284000E9059093EA05A093EB05B093EC05809120
:10285000ED059091EE05A091EF05B091F005019680
:10286000A11DB11D8093ED059093EE05A093EF059A
:10287000B093F005BF91AF919F918F913F912F91B0
:102880000F900FBE0F901F9018952FB7F89460917E
:10289000E9057091EA058091EB059091EC052FBF59
:1028A00008953FB7F8948091ED059091EE05A091C1
:1028B000EF05B091F00526B5A89B05C02F3F19F094
:1028C0000196A11DB11D3FBF6627782F892F9A2F32
:1028D000620F711D811D911D42E0660F771F881FD9
:1028E000991F4A95D1F70895CF92DF92EF92FF9208
:1028F000CF93DF936B017C010E945114EB01C11453
:10290000D104E104F10489F00E9462190E9451147B
:102910006C1B7D0B683E734090F381E0C81AD108B0
:10292000E108F108C851DC4FEACFDF91CF91FF9069
:10293000EF90DF90CF9008958230910538F0880FA6
:10294000991F880F991F05970197F1F708957894BB
:1029500084B5826084BD84B5816084BD85B58260A4
:1029600085BD85B5816085BDEEE6F0E08081816042
:102970008083E1E8F0E01082808182608083808142
:1029800081608083E0E8F0E0808181608083E1EB1A
:10299000F0E0808184608083E0EBF0E08081816002
:1029A0008083EAE7F0E080818460808380818260B8
:1029B00080838081816080838081806880831092A1
:1029C000C1000895833081F028F4813099F082307D
:1029D000A1F008958730A9F08830B9F08430D1F49F
:1029E000809180008F7D03C0809180008F778093DD
:1029F0008000089584B58F7702C084B58F7D84BD33
:102A000008958091B0008F7703C08091B0008F7DD2
:102A10008093B0000895CF93DF9390E0FC01E15DD7
:102A2000FE4F2491FC01ED5BFE4F8491882349F118
:102A300090E0880F991FFC01E559FE4FA591B491D4
:102A40008F599E4FFC01C591D4919FB7611108C069
:102A5000F8948C91209582238C93888182230AC0DC
:102A6000623051F4F8948C91322F309583238C93FB
:102A70008881822B888304C0F8948C91822B8C935C
:102A80009FBFDF91CF9108950F931F93CF93DF9353
:102A90001F92CDB7DEB7282F30E0F901E55EFE4F7B
:102AA0008491F901E15DFE4F1491F901ED5BFE4F58
:102AB00004910023C9F0882321F069830E94E21465
:102AC0006981E02FF0E0EE0FFF1FEF59FE4FA59157
:102AD000B4919FB7F8948C91611103C01095812334
:102AE00001C0812B8C939FBF0F90DF91CF911F91DD
:102AF0000F910895CF93DF93282F30E0F901E55E21
:102B0000FE4F8491F901E15DFE4FD491F901ED5B37
:102B1000FE4FC491CC2391F081110E94E214EC2F5E
:102B2000F0E0EE0FFF1FE95AFE4FA591B4912C91F2
:102B30002D2381E090E021F480E002C080E090E06D
:102B4000DF91CF910895FC01818D228D90E0805C12
:102B50009F4F821B91098F7399270895FC01918DD6
:102B6000828D981731F0828DE80FF11D858D90E0F0
:102B700008958FEF9FEF0895FC01918D828D981736
:102B800061F0828DDF01A80FB11D5D968C91928D51
:102B90009F5F9F73928F90E008958FEF9FEF08954E
:102BA00080E497E1892B49F080E090E0892B29F0BF
:102BB0000E94401781110C9400000895FC01848D3F
:102BC000DF01A80FB11DA35ABF4F2C91848D90E057
:102BD00001968F739927848FA689B7892C93A08932
:102BE000B1898C9180648C93938D848D981306C0E9
:102BF0000288F389E02D80818F7D80830895CF93B3
:102C0000DF93EC01888D8823C9F0EA89FB898081F4
:102C100085FD05C0A889B9898C9186FD0FC00FB6C6
:102C200007FCF5CF808185FFF2CFA889B9898C9107
:102C300085FFEDCFCE010E94DE15E7CFDF91CF916A
:102C40000895CF92DF92FF920F931F93CF93DF935C
:102C50001F92CDB7DEB76C0181E0D60158968C93F8
:102C600058975B969C915B975C968C915C979813B8
:102C700007C05096ED91FC915197808185FD2EC043
:102C8000F601038D10E00F5F1F4F0F731127F02E19
:102C9000F601848DF81211C00FB607FCF9CFD601EA
:102CA0005096ED91FC915197808185FFF1CFC6013F
:102CB00069830E94DE156981EBCF838DE80FF11DDA
:102CC000E35AFF4F6083D6015B960C935B97529655
:102CD000ED91FC915397808180620CC0D60156968D
:102CE000ED91FC91579760835096ED91FC9151972F
:102CF00080818064808381E090E00F90DF91CF91AC
:102D00001F910F91FF90DF90CF900895BF92CF92C7
:102D1000DF92EF92FF92CF93DF93EC016A017B0188
:102D2000B22EE889F98982E08083411581EE580747
:102D300061057105A1F060E079E08DE390E0A70105
:102D400096010E94F91A21503109410951095695FD
:102D5000479537952795211580E1380798F0E88940
:102D6000F989108260E874E88EE190E0A70196018D
:102D70000E94F91A21503109410951095695479588
:102D800037952795EC85FD853083EE85FF8520837B
:102D9000188EEC89FD89B082EA89FB898081806187
:102DA0008083EA89FB89808188608083EA89FB8946
:102DB000808180688083EA89FB8980818F7D808320
:102DC000DF91CF91FF90EF90DF90CF90BF9008956B
:102DD0001F920F920FB60F9211242F938F939F93F0
:102DE000EF93FF93E0910106F09102068081E0915C
:102DF0000706F091080682FD12C0908180910A06B4
:102E00008F5F8F7320910B06821751F0E0910A06B5
:102E1000F0E0EF50FA4F958F80930A0601C0808151
:102E2000FF91EF919F918F912F910F900FBE0F9077
:102E30001F9018951F920F920FB60F9211242F9387
:102E40003F934F935F936F937F938F939F93AF9332
:102E5000BF93EF93FF9381EF95E00E94DE15FF9102
:102E6000EF91BF91AF919F918F917F916F915F9102
:102E70004F913F912F910F900FBE0F901F9018957B
:102E800081EF95E00E94A31521E0892B09F420E051
:102E9000822F08951092F4051092F30588EE93E0C6
:102EA000A0E0B0E08093F5059093F605A093F705B8
:102EB000B093F8058CEA93E09093F2058093F105C6
:102EC00085EC90E09093FE058093FD0584EC90E006
:102ED000909300068093FF0580EC90E090930206AB
:102EE0008093010681EC90E09093040680930306A2
:102EF00082EC90E0909306068093050686EC90E0C5
:102F0000909308068093070610920A0610920B060B
:102F100010920C0610920D06089508950E94A714B1
:102F20000E948D170E941B03C0EDD5E10E941A0478
:102F30002097E1F30E94D015F9CFCF92DF92EF9264
:102F4000FF920F931F93CF93DF937C016A01EB01F4
:102F500000E010E00C151D0571F06991D701ED91AD
:102F6000FC910190F081E02DC7010995892B19F0A2
:102F70000F5F1F4FEFCFC801DF91CF911F910F91CE
:102F8000FF90EF90DF90CF9008956115710581F06B
:102F9000DB010D900020E9F7AD0141505109461BBE
:102FA000570BDC01ED91FC910280F381E02D099437
:102FB00080E090E00895EF92FF920F931F93CF93DC
:102FC000DF938C017B01C0E0D0E0F701EC0FFD1F27
:102FD0006491662359F0F801A081B181ED91FC91D3
:102FE000C8010995892B11F02196EFCFCE01DF9111
:102FF000CF911F910F91FF90EF9008950C94C517FA
:10300000DC01ED91FC910190F081E02D09946DE5DA
:1030100073E00C94C5170F931F93CF93DF93EC01CC
:103020000E94DB178C01CE010E940718800F911FB0
:10303000DF91CF911F910F9108958F929F92AF9240
:10304000BF92CF92DF92EF92FF920F931F93CF9395
:10305000DF93CDB7DEB7A1970FB6F894DEBF0FBEF2
:10306000CDBF7C01C42EE52FCB01D22E19A221E0C9
:103070002D1510F02AE0D22E8E010F5D1F4F8D2CE2
:10308000912CA12CB12C6C2D7E2FA50194010E94B6
:10309000F91A8C2DD29E80191124015011098A3001
:1030A00014F4805D01C0895CF8018083211531052D
:1030B0004105510521F0C22EE32FCA01E4CFB8012A
:1030C000C7010E94C517A1960FB6F894DEBF0FBEC8
:1030D000CDBFDF91CF911F910F91FF90EF90DF90C7
:1030E000CF90BF90AF909F908F900895CF92DF9236
:1030F000EF92FF920F931F93CF93DF93EC016A013E
:103100007B012115310579F4E881F9810190F08185
:10311000E02D642FDF91CF911F910F91FF90EF90E1
:10312000DF90CF9009942A303105E9F477FF1AC077
:103130006DE20E9400188C0144275527BA014C19F2
:103140005D096E097F092AE0CE010E941D18800FDB
:10315000911FDF91CF911F910F91FF90EF90DF9022
:10316000CF9008952AE0B701A601CE01DF91CF915B
:103170001F910F91FF90EF90DF90CF900C941D184E
:103180009A01AB01662757FD6095762F0C9476184F
:103190000F931F93CF93DF93EC019A01AB01662746
:1031A00057FD6095762F0E9476188C01CE010E9403
:1031B0000718800F911FDF91CF911F910F910895F4
:1031C0002115310541F4DC01ED91FC910190F08174
:1031D000E02D642F09940C941D189A01462F50E09D
:1031E00060E070E00C94E0189A01AB0160E070E0E0
:1031F0000C94E0180F931F93CF93DF93EC019A0187
:10320000AB0160E070E00E94E0188C01CE010E94EA
:103210000718800F911FDF91CF911F910F91089593
:103220000F931F93CF93DF93EC010E94E0188C0162
:10323000CE010E940718800F911FDF91CF911F913F
:103240000F910895CF93DF9300D000D0CDB7DEB7B4
:103250009B01AC01611571058105910569F06983D8
:103260003A834B835C830E94A91B29813A814B815D
:103270005C810E941B1B03C060E070E0CB010F90DB
:103280000F900F900F90DF91CF910895CF92DF9222
:10329000EF92FF926B017C01621773078407950719
:1032A00064F4CA01B9016C197D098E099F090E9455
:1032B00022196C0D7D1D8E1D9F1DFF90EF90DF90DC
:1032C000CF90089508955058BB27AA270ED0E0C08C
:1032D000D1D030F0D6D020F031F49F3F11F41EF45D
:1032E000C6C00EF4E095E7FBBCC0E92FE2D080F346
:1032F000BA17620773078407950718F071F49EF5F3
:10330000FAC00EF4E0950B2EBA2FA02D0B01B901D7
:1033100090010C01CA01A0011124FF27591B99F04B
:10332000593F50F4503E68F11A16F040A22F232F57
:10333000342F4427585FF3CF469537952795A795A7
:10334000F0405395C9F77EF41F16BA0B620B730B4E
:10335000840BBAF09150A1F0FF0FBB1F661F771FBF
:10336000881FC2F70EC0BA0F621F731F841F48F474
:10337000879577956795B795F7959E3F08F0B3CFFA
:103380009395880F08F09927EE0F979587950895E4
:1033900098D088F09F5790F0B92F9927B751A0F097
:1033A000D1F0660F771F881F991F1AF0BA95C9F7D9
:1033B00012C0B13081F09FD0B1E008959CC0672F5A
:1033C000782F8827B85F39F0B93FCCF38695779589
:1033D0006795B395D9F73EF4909580957095619572
:1033E0007F4F8F4F9F4F0895E89409C097FB3EF49D
:1033F00090958095709561957F4F8F4F9F4F992342
:10340000A9F0F92F96E9BB279395F69587957795BF
:103410006795B795F111F8CFFAF4BB0F11F460FF7F
:103420001BC06F5F7F4F8F4F9F4F16C0882311F0D7
:1034300096E911C0772321F09EE8872F762F05C0EB
:10344000662371F096E8862F70E060E02AF09A9586
:10345000660F771F881FDAF7880F9695879597F97B
:10346000089597F99F6780E870E060E008959FEF06
:1034700080EC089500240A9416161706180609060B
:10348000089500240A9412161306140605060895DA
:10349000092E0394000C11F4882352F0BB0F40F462
:1034A000BF2B11F460FF04C06F5F7F4F8F4F9F4FA2
:1034B000089557FD9058440F551F59F05F3F71F024
:1034C0004795880F97FB991F61F09F3F79F087958B
:1034D0000895121613061406551FF2CF4695F1DF14
:1034E00008C0161617061806991FF1CF86957105A4
:1034F000610508940895E894BB2766277727CB01D8
:1035000097F908950BD0C4CFB5DF28F0BADF18F0D3
:10351000952309F0A6CFABCF1124EECFCADFA0F3DD
:10352000959FD1F3950F50E0551F629FF001729F58
:10353000BB27F00DB11D639FAA27F00DB11DAA1F77
:10354000649F6627B00DA11D661F829F2227B00DC4
:10355000A11D621F739FB00DA11D621F839FA00D4F
:10356000611D221F749F3327A00D611D231F849F9F
:10357000600D211D822F762F6A2F11249F575040F6
:103580008AF0E1F088234AF0EE0FFF1FBB1F661F91
:10359000771F881F91505040A9F79E3F510570F04A
:1035A00060CFAACF5F3FECF3983EDCF3869577952A
:1035B0006795B795F795E7959F5FC1F7FE2B880F45
:1035C000911D9695879597F90895AA1BBB1B51E10C
:1035D00007C0AA1FBB1FA617B70710F0A61BB70B83
:1035E000881F991F5A95A9F780959095BC01CD0128
:1035F0000895A1E21A2EAA1BBB1BFD010DC0AA1F34
:10360000BB1FEE1FFF1FA217B307E407F50720F04B
:10361000A21BB30BE40BF50B661F771F881F991FC6
:103620001A9469F760957095809590959B01AC010F
:10363000BD01CF010895052E97FB1EF400940E9452
:10364000321B57FD07D00E94F91A07FC03D04EF435
:103650000C94321B50954095309521953F4F4F4F1C
:103660005F4F089590958095709561957F4F8F4F2E
:103670009F4F0895EE0FFF1F0590F491E02D0994E0
:103680000E944B1BA59F900DB49F900DA49F800D91
:10369000911D11240895A29FB001B39FC001A39F63
:1036A000700D811D1124911DB29F700D811D11247B
:1036B000911D08958F929F92AF92BF92CF92DF9209
:1036C000EF92FF92CF93DF93EC01688179818A8139
:1036D0009B81611571058105910521F464E279ED05
:1036E0008BE597E02DE133EF41E050E00E941B1B9A
:1036F00049015A019B01AC01A7EAB1E40E94401BB9
:103700006B017C01ACEEB4EFA50194010E94BA1BE1
:10371000C60ED71EE81EF91EF7FE06C081E0C81AC5
:10372000D108E10880E8F80AC882D982EA82FB82DF
:10373000C701B6019F77DF91CF91FF90EF90DF90A7
:10374000CF90BF90AF909F908F9008950E945A1B8A
:10375000089580E091E00E945A1B08956093000153
:103760007093010180930201909303010895B7FFC4
:103770000C94401B0E94401B821B930B0895F894ED
:02378000FFCF79
:10378200010000002800E803F4010500E80300003E
:10379200B80B00009001000003000000AC13AC1352
:1037A200564D4450565F317C315F564D4450560D54
:1037B2000A00EDFF00000000EFFF00000000F1FF33
:1037C20000000000F3FF00000000F5FF0000000011
:1037D200F7FF00000000F9FF0000000002000000F7
:1037E20000009A019A01A001A601AC01B201B80140
:1037F200BE01C40162015C01560150014A0144014B
:103802003E0138011500130011000F000D000B00DE
:1038120009000000020000000000F9FFF7FF0000AD
:10382200F7FFF5FF0000F5FFF3FF0000F3FFF1FFE4
:103832000000F1FFEFFF0000EFFFEDFF0000EDFFE2
:10384200EBFF00000000000080067E06D606E1FFC6
:1038520000000000E10B00001F0000001F0000003C
:103862008006AC12D606E3FF000000001F0C000029
:103872001D0000001D0000008006B612D606E5FFFE
:1038820000000000A30B00001B0000001B00000052
:103892008006A212D606E7FFF8FF000000007A0EAB
:1038A200EFFF0800000000001900000019000000EE
:1038B2008006CA12D606EFFF0000000000000000DA
:1038C20000001100000080067E06D606F1FF02000D
:1038D20000000000B20DEFFFFEFF000000000F002D
:1038E20000000F0000008006C012D606F3FF0000A1
:1038F20000005B0B00000D0000000D0000008006C0
:103902009812D606020000000000E70A0000FEFF3F
:103912000000FEFF000080068E12D606EC02EC02CA
:10392200F802060312031A0324032E033803420388
:103932008A02960272027E0254025C0266023C0213
:1039420046021E022602300204021002EC01F801B5
:10395200D401E00121001F001D001B001300110013
:103962000F0000000000020000000000AE0F000087
:10397200FEFF0000FEFF00008006D412D606F1FF13
:10398200F3FFF1FF0000D412EFFFF1FF0200EFFF9F
:103992000000DE12EFFFEDFF0000E5FFE7FFF8FF9A
:1039A200E5FF0000DE12E3FFE5FFE3FF0000D412B3
:1039B200E1FFE3FFE1FF0000D412DFFFE1FFDFFFE1
:1039C2000000D412000000008906000000008C06EE
:1039D200564D4450435F005F564D4450430D0A001C
:1039E2004572726F723A20417474656D70742074FE
:1039F2006F20736574206120726561642D6F6E6C37
:103A020079207661726961626C65206F72206461EF
:103A120074612074797065206E6F74207375707094
:103A22006F727465640D0A000000000021169D1774
:103A3200A315BC15AE15FF156E616E00696E6600AA
:063A42006F7666002E0005
:00000001FF
