:100000000C94BD000C94A4130C94CB130C94E50039
:100010000C94E5000C94E5000C94E5000C9486101B
:100020000C94E5000C94E5000C94E5000C94E500BC
:100030000C94E5000C94E5000C94E5000C94E500AC
:100040000C94F2130C94E5000C94DF160C94111729
:100050000C94E5000C94E5000C94E5000C94E5008C
:100060000C94E5000C94E50009206D61783A00538A
:1000700070616365206D696E3A0009206D61783AA0
:10008000004D61726B20206D696E3A004578746591
:100090006E743D0009200009002073003A6D0020B5
:1000A0002073002020486561643A206D00293A20C1
:1000B0004761703A005261772073616D706C6573AF
:1000C000280020626974732900202800293A2056EC
:1000D000616C75653A0028004465636F646564204F
:1000E000004861736820436F6465004E45437800A3
:1000F0004A56430050616E61736F6E6963204F6CA6
:1001000064005243360052433500536F6E79004EFF
:10011000454300556E6B6E6F776E0000000008005F
:1001200002010000030407000000000000000001BD
:10013000020408102040800102040810200102047B
:10014000081020040404040404040402020202024D
:100150000203030303030300000000230026002919
:100160000000000000250028002B000000000024F3
:100170000027002A00003206411711241FBECFEFCE
:10018000D8E0DEBFCDBF13E0A0E0B1E0E0E7F7E3E9
:1001900002C005900D92A63CB107D9F726E0A6EC67
:1001A000B3E001C01D92AE38B207E1F711E0CAE733
:1001B000D1E004C02297FE010E94331BC637D1074D
:1001C000C9F70E9485170C94B61B0C940000CF93BE
:1001D000DF93EC0102960E944A08ECE9F2E0A48960
:1001E000B58916970D90BC91A02DAC0FBD1F8689C7
:1001F00097898D939C93A08DB18D16970D90BC918E
:10020000A02DAC0FBD1F828D938D50969C938E9325
:100210001F97A2A1B3A116970D90BC91A02DAC0F72
:10022000BD1F84A195A154969C938E935397CE01A4
:100230004196248D358DD90116970D90BC91A02D36
:10024000A80FB91F468D578D4D935C93D901189710
:100250000D90BC91A02DA80FB91F80A191A18D93E5
:100260009C93CE014B9626A137A1D90116970D90EC
:10027000BC91A02DA80FB91F40A551A54D935C932B
:10028000D90118970D90BC91A02DA80FB91F82A578
:1002900093A58D939C93A4A5B5A516970D90BC919D
:1002A000A02DAC0FBD1F86A597A55E969C938E933F
:1002B0005D97A0A9B1A916970D90BC91A02DAC0F88
:1002C000BD1F82A993A990969C938E935F97A4A932
:1002D000B5A916970D90BC91A02DAC0FBD1F86A996
:1002E00097A992969C938E9391978CEE92E0998326
:1002F000888388EF92E09B838A8386E093E0988BE3
:100300008F8782E193E09A8B898B8AE193E09C8BC3
:100310008B8B84E293E09C8F8B8F8EE293E09E8F99
:100320008D8F88E393E098A38F8F82E493E09AA364
:1003300089A3DF91CF9108952F923F924F925F92C0
:100340006F927F928F929F92AF92BF92CF92DF92E5
:10035000EF92FF920F931F93CF93DF9300D000D0C3
:10036000CDB7DEB79C838B835B015A834983190128
:100370000E943C142B013C0188248394912C680139
:10038000EE24D7FCE094FE2C0E943C1464197509FD
:10039000860997096C157D058E059F05A0F561E01E
:1003A00088E00E943B150B811C8117FF02C00F5F84
:1003B0001F4F15950795C8010E94931460E088E0CF
:1003C0000E943B15C8010E949314829CC001839C2B
:1003D000900D929C900D11242B813C81280F391F88
:1003E0003C832B8389819A81821793071CF4919413
:1003F00081949108EB81FC81EA15FB052CF6919420
:1004000081949108C1CF0F900F900F900F90DF91C2
:10041000CF911F910F91FF90EF90DF90CF90BF9001
:10042000AF909F908F907F906F905F904F903F9094
:100430002F9008954F925F926F927F92AF92BF92EA
:10044000CF92DF92EF92FF920F931F93CF93DF93A0
:10045000590197FD01968C0115950795C0E0D0E0F4
:100460006B01EE24D7FCE094FE2C2A01662457FC95
:100470006094762CCA15DB0594F50E943C146093B9
:10048000D5037093D6038093D7039093D8030E942B
:100490003C142091D5033091D6034091D70350915D
:1004A000D803621B730B840B950B6C157D058E05B1
:1004B0009F0578F461E088E00E943B15C8010E9426
:1004C000931460E088E00E943B15C8010E949314D9
:1004D000DECFC301B2010E946B142196CBCFDF9116
:1004E000CF911F910F91FF90EF90DF90CF90BF9031
:1004F000AF907F906F905F904F9008952F923F92B2
:100500004F925F926F927F928F929F92AF92BF9223
:10051000CF92DF92EF92FF920F931F93CF93DF93CF
:10052000CDB7DEB728970FB6F894DEBF0FBECDBFAC
:100530001A830983212C312C7B010027F7FC0095BD
:10054000102FEB82FC820D831E836C01EE24D7FCFE
:10055000E094FE2C4A01AA2497FCA094BA2C29010D
:10056000662457FC6094762C09811A812016310686
:100570000CF048C00E943C146093D5037093D603DE
:100580008093D7039093D8032B813C814D815E816A
:10059000C701B6010E943D199B0177FF02C02F5F82
:1005A0003F4F89011595079518870F830E943C14CA
:1005B0000091D5031091D6032091D7033091D80331
:1005C000601B710B820B930B681579058A059B05DF
:1005D00088F461E088E00E943B158F8198850E9435
:1005E000931460E088E00E943B158F8198850E94FB
:1005F0009314DCCFC301B2010E946B141FEF211AC8
:10060000310AB2CF28960FB6F894DEBF0FBECDBF29
:10061000DF91CF911F910F91FF90EF90DF90CF90DE
:10062000BF90AF909F908F907F906F905F904F9012
:100630003F902F9008950F931F9340ED57E060E097
:1006400070E081EB95E00E940A1320E835E240E07B
:1006500050E061EF75E081EB95E00E941D1381EBA6
:1006600095E00E94071360E271E08091E2059091AD
:10067000E3050E94F5176AE070E080E090E00E94D8
:100680006B1441E060E081EB95E00E94881361E02B
:100690008DE00E94021562E082E00E94021561E096
:1006A00088E00E94021526E040E855E260E070E034
:1006B00081EF95E00E947D168EEF93E00E94661018
:1006C00068E174E08DED93E00E945C0861E088E0F1
:1006D0000E943B1504E110E02EE130E042E350E0DF
:1006E00068EE73E084E690E00E947E0261E08DE0B7
:1006F0001F910F910C943B152F923F924F925F9256
:100700006F927F928F929F92AF92BF92CF92DF9221
:10071000EF92FF920F931F93CF93DF93CDB7DEB786
:100720002A970FB6F894DEBF0FBECDBF180100E0C8
:1007300010E06A01EE24D7FCE094FE2CCD82DE822C
:10074000EF82F8866B01EE24D7FCE094FE2C4C017E
:10075000AA2497FCA094BA2C2901662457FC609423
:10076000762C021513050CF04CC00E943C146093CB
:10077000D5037093D6038093D7039093D8030E9438
:100780003C142091D5033091D6034091D70350916A
:10079000D803621B730B840B950B2D813E814F8117
:1007A0005885621773078407950720F5A7019601FE
:1007B000C501B4010E943D1969837A838B839C83B0
:1007C00061E088E00E943B1589819A8197FD01963E
:1007D0009C0135952795C90129873A870E94931472
:1007E00060E088E00E943B1529853A85C9010E9496
:1007F0009314C5CFC301B2010E946B140F5F1F4F4A
:10080000B0CF2A960FB6F894DEBF0FBECDBFDF91F2
:10081000CF911F910F91FF90EF90DF90CF90BF90FD
:10082000AF909F908F907F906F905F904F903F9090
:100830002F9008958F929F92AF92BF92CF92DF92A6
:10084000EF92FF920F931F93CF93DF936DED73E0C1
:100850008EEF93E00E947710882309F471C061E065
:100860008DE00E943B1508EEA02E03E0B02E80ED37
:10087000C82E87E0D82E98EEE92E93E0F92E00E0FE
:1008800010E028EE33E048E057E06AE08DED93E0B9
:100890000E946008C82F4091E0035091E1036091ED
:1008A000E2037091E30320E130E081EF95E00E94E4
:1008B00007198DED93E00E94CD06C1110EC0009185
:1008C00006011091070121E030E04CED55E068E7AA
:1008D00075E08AEA95E00E949C018091E003909186
:1008E000E103A091E203B091E3030397A105B105F1
:1008F00019F581E08093C7031092C8038093C60363
:1009000061E088E00E943B150E943C146093D5038F
:100910007093D6038093D7039093D80304E110E03B
:1009200021E030E04AE550E06CE271E088EC90E0D4
:100930000E947C031092C7038EEF93E00E94661022
:100940008091C803882309F46CC00E943C14009174
:10095000CD031091CE032091CF033091D003601BC3
:10096000710B820B930B00911001109111012091DA
:100970001201309113010617170728073907A8F449
:100980001092C8030E943C146093CD037093CE0371
:100990008093CF039093D00321E030E040E050E01B
:1009A0006CE271E084EF91E02EC00E943C14009153
:1009B000C9031091CA032091CB033091CC03601B73
:1009C000710B820B930B00910C0110910D01209182
:1009D0000E0130910F01061717072807390708F095
:1009E00034C10E943C146093C9037093CA0380937E
:1009F000CB039093CC0321E030E040E050E064E68C
:100A000070E080E991E0DF91CF911F910F91FF900D
:100A1000EF90DF90CF90BF90AF909F908F900C940D
:100A20001A0282E00E9471159093DA038093D90331
:100A3000892B09F00AC10E943C140091D103109146
:100A4000D2032091D3033091D403601B710B820B2E
:100A5000930B009114011091150120911601309112
:100A60001701061717072807390708F0EEC00E947C
:100A70003C146093D1037093D2038093D30390937B
:100A8000D40380910A0190910B01019790930B017F
:100A900080930A0118161906ECF081E08093C803D0
:100AA00085E090E090930B0180930A010E943C1432
:100AB0006093CD037093CE038093CF039093D003C4
:100AC0000E943C146093C9037093CA038093CB03C4
:100AD0009093CC0361E08DE00E943B150E943C1492
:100AE000AB01BC012AE030E081EF95E00E940719DC
:100AF000409118015091190160911A0170911B01E8
:100B00001F921F921F921F9281E08F9386E28F9314
:100B100083E08F9388EE8F93E0ED8E2EE7E09E2E9C
:100B2000F8EEAF2EF3E0BF2EA8EECA2EA3E0DA2E29
:100B3000B8EEEB2EB3E0FB2E08E017E023E083E0F5
:100B400094E00E94E1110E943C14AB01BC012AE038
:100B500030E081EF95E00E9407198EEF93E00E944C
:100B600066102DB73EB7285F3F4F0FB6F8943EBFD3
:100B70000FBE2DBFC3E0D0E017E0F12E0E943C1461
:100B80006093D5037093D6038093D7039093D803D3
:100B90000E943C140091D5031091D6032091D703F5
:100BA0003091D803601B710B820B930B00910401F1
:100BB00010910501222717FD2095322F601771072C
:100BC0008207930748F561E088E00E943B15809119
:100BD00008019091090197FD079663E09595879527
:100BE0006A95E1F79C01F29EC001F39E900D1124DD
:100BF0000E94931460E088E00E943B1580910801F8
:100C00009091090197FD079653E0959587955A9520
:100C1000E1F70E949314BCCF62E370E080E090E0C3
:100C20000E946B14219709F0A9CF60E08DE0DF915D
:100C3000CF911F910F91FF90EF90DF90CF90BF90D9
:100C4000AF909F908F900C943B15DF91CF911F91A7
:100C50000F91FF90EF90DF90CF90BF90AF909F905B
:100C60008F90089583E094E00E947E118AE991E0DC
:100C7000909302048093010480EA91E090930B0426
:100C800080930A0486EA91E090930D0480930C040B
:100C90008CEA91E090930F0480930E0482EB91E034
:100CA000909311048093100488EB91E090931304C7
:100CB000809312048EEB91E09093150480931404BA
:100CC00084EC91E090931704809316046BE08EEF10
:100CD00093E00E94F90F8EE493E09093FF038093DA
:100CE000FE038BED93E00C94E70080E00895FC0197
:100CF0001282138214821582168217821286089538
:100D00001092B005089581E090E09093E204809302
:100D1000E1041092B0050895CF93DF93CDB7DEB70D
:100D200062970FB6F894DEBF0FBECDBF89300CF0CE
:100D300080E023E131E03A8329832FE031E03C83F6
:100D40002B832AE031E03E832D8326E031E0388793
:100D50002F8322E031E03A87298724EF30E03C8777
:100D60002B8720EF30E03E872D872BEE30E0388B4D
:100D70002F8721EE30E03A8B298BE82FEE0FFF0B07
:100D8000EC0FFD1F8181928162960FB6F894DEBF51
:100D90000FBECDBFDF91CF9108952F923F924F921A
:100DA0005F926F927F928F929F92AF92BF92CF92FB
:100DB000DF92EF92FF920F931F93CF93DF93EC019B
:100DC0008A81893074F568ED70E081EF95E00E94CA
:100DD000D2178A810E948C06BC0181EF95E00E94A7
:100DE000D21766ED70E081EF95E00E94D2176A811C
:100DF000772767FD70954AE050E081EF95E00E940B
:100E0000B7186CEC70E081EF95E00E94D2174B812F
:100E10005C816D817E8120E130E081EF95E00E9470
:100E2000D71869EC70E081EF95E00E94D2174AE094
:100E300050E06F8181EF95E00E94E41862EC70E071
:100E400081EF95E00E94021865EB70E081EF95E07C
:100E50000E94D2174AE050E06A8581EF95E00E9437
:100E6000E4186DEA70E081EF95E00E94D217E88502
:100E7000F985608171814AE050E081EF95E00E9440
:100E8000F11863EA70E081EF95E00E94D217E885DF
:100E9000F985628173814AE050E081EF95E00E941C
:100EA000EB186FE970E081EF95E00E94D217E885BA
:100EB000F985648175814AE050E081EF95E00E94F8
:100EC000F118E885F9858281938144805580480E28
:100ED000591E612C712CC12CD12C212C312CAA240F
:100EE000AA943FE7B32E88248A944FE7942E53E0C8
:100EF000E52EF12C8A8590E0E816F9060CF06EC01C
:100F0000E885F985C701880F991FE80FF91F00814F
:100F10001181C801AA2797FDA095BA2F480E591E26
:100F20006A1E7B1EE0FE16C00A151B050CF4580154
:100F3000C016D1060CF46801B7017595679561502C
:100F400071094AE050E081EF95E00E94B7186CE922
:100F500070E00DC01016110624F4081519050CF4E4
:100F60004801201631060CF4180169E970E081EFA0
:100F700095E00E94D2174AE050E0B80181EF95E079
:100F80000E94B71887010150110900FF06C067E9E8
:100F900070E081EF95E00E94D217C8018370992715
:100FA000019731F464E970E081EF95E00E94D21777
:100FB000C80187709927019721F481EF95E00E947D
:100FC000FE170F7111270130110521F481EF95E013
:100FD0000E94FE178FEFE81AF80A8CCF81EF95E098
:100FE0000E94FE176CE870E081EF95E00E94D21736
:100FF0002AE030E0B301A20181EF95E00E940719D9
:1010000061E870E081EF95E00E94D2174AE050E07D
:10101000B50181EF95E00E94B7186AE770E081EFB3
:1010200095E00E94D2174AE050E0B60181EF95E0CA
:101030000E94BF186FE670E081EF95E00E94D21722
:101040004AE050E0B40181EF95E00E94B71868E6ED
:1010500070E081EF95E00E94D2174AE050E0B101C4
:1010600081EF95E00E94BF1881EF95E0DF91CF916D
:101070001F910F91FF90EF90DF90CF90BF90AF90B6
:101080009F908F907F906F905F904F903F902F90A8
:101090000C94FE17FC0188EC91E09183808388EE2C
:1010A00094E09187808713861282138214821582BE
:1010B0001682178212860895FC0171876087089551
:1010C0002F923F924F925F926F927F928F929F9258
:1010D000AF92BF92CF92DF92EF92FF920F931F9346
:1010E000CF93DF93CDB7DEB72E970FB6F894DEBF60
:1010F0000FBECDBF1C013A872987BE82AD8281E039
:10110000D1011C968C931C97662321F01A968C9122
:10111000861388C1F101938491103AC0411551059D
:10112000B9F1A084B184D50112960D90BC91A02D87
:10113000BA83A983BA0180E090E00E94EB192B01E9
:101140003C0120E030E040E45FE30E94791A0E9415
:10115000BF19E981FA81E617F70708F415C2D5012E
:101160001296AD90BC90139720E030E040EA5FE328
:10117000C301B2010E94791A20E030E040E85FE349
:101180000E945B190E94BF196A157B0508F4FCC117
:1011900082E0F101848729853A852115310589F19D
:1011A000A084B184D50114968D909C901597B901B7
:1011B00080E090E00E94EB192B013C0120E030E040
:1011C00040E45FE30E94791A0E94BF1986169706D1
:1011D00008F428C1F501A480B58020E030E040EAA1
:1011E0005FE3C301B2010E94791A20E030E040E8D9
:1011F0005FE30E945B190E94BF196A157B0508F422
:1012000011C1D1011A966C900115110509F463C042
:10121000812C912C5401C601A0E0B0E089839A830F
:10122000AB83BC83C801A0E0B0E08D839E83AF8315
:10123000B887C701A0E0B0E089879A87AB87BC87F1
:10124000D1011C967C90272D30E07614D8F5D10181
:1012500018964D905C901997F901EE0FFF1FE40D61
:10126000F51DFE87ED870081118169817A818B816F
:101270009C810E94EB196B017C0120E030E040E48E
:101280005FE30E94791A0E94BF190617170708F436
:10129000C9C0AD85BE850D911C9120E030E040EACB
:1012A0005FE3C701B6010E94791A20E030E040E810
:1012B0005FE30E945B190E94BF196017710708F075
:1012C0007BC0B0C0C901019797FDC901959587956D
:1012D000F101878369C06A9483E0D1011C968C93E5
:1012E000812C912C5401C701A0E0B0E089839A833E
:1012F000AB83BC83C601A0E0B0E089879A87AB8747
:10130000BC87AD81BE81CD01A0E0B0E08D839E831E
:10131000AF83B887F1017484272D30E07614D0F5BF
:10132000F10140845184C901880F991F840D951DD6
:101330009E878D87DC010D911C9169817A818B815B
:101340009C810E94EB196B017C0120E030E040E4BD
:101350005FE30E94791A0E94BF190617170708F465
:1013600061C0ED85FE850081118120E030E040EA1A
:101370005FE3C701B6010E94791A20E030E040E83F
:101380005FE30E945B190E94BF196017710708F0A4
:1013900087C048C0C901019797FDC90195958795F8
:1013A0008150D10117968C93F10183829482A5829A
:1013B000B68299249394E8C081E0870DD1011C96F0
:1013C0008C938201080F111D080F111DF801408038
:1013D00051806D817E818F8198850E94EB196B0110
:1013E0007C0120E030E040E45FE30E94791A0E9433
:1013F000BF1946165706C0F4D8014D905C90698518
:101400007A858B859C850E94EB196B017C0120E01D
:1014100030E040E45FE30E94791A0E94BF1946164B
:10142000570618F5912CB0C0F8014080518020E09B
:1014300030E040EA5FE3C701B6010E94791A20E07C
:1014400030E040E85FE30E945B190E94BF19641519
:10145000750590F2880C991CAA1CBB1C689480F836
:1014600073947394F1017486EBCED8010D911C91A5
:1014700020E030E040EA5FE3C701B6010E94791A3C
:1014800020E030E040E85FE30E945B190E94BF1952
:101490006017710738F2880C991CAA1CBB1CE0CF9E
:1014A00081E0870DF10184878201080F111D080F6B
:1014B000111DD8014D905C9069857A858B859C853E
:1014C0000E94EB196B017C0120E030E040E45FE317
:1014D0000E94791A0E94BF194616570610F1D801CA
:1014E0004D905C9020E030E040EA5FE3C701B60138
:1014F0000E94791A20E030E040E85FE30E945B1927
:101500000E94BF196415750560F0880C991CAA1C0F
:10151000BB1C689480F873947394D1011C967C92E0
:10152000F9CEF801408051806D817E818F81988550
:101530000E94EB196B017C0120E030E040E45FE3A6
:101540000E94791A0E94BF194616570608F46ACFFE
:10155000F8010081118120E030E040EA5FE3C7013B
:10156000B6010E94791A20E030E040E85FE30E9473
:101570005B190E94BF196017710708F453CF880CDC
:10158000991CAA1CBB1CC7CF892D2E960FB6F894A8
:10159000DEBF0FBECDBFDF91CF911F910F91FF90A6
:1015A000EF90DF90CF90BF90AF909F908F907F9003
:1015B0006F905F904F903F902F900895AF92BF92A1
:1015C000CF92DF92EF92FF920F931F93CF93DF930F
:1015D000EC01E881F98136970190F081E02DE80F68
:1015E000F91F8285843089F5A085B18514968D9187
:1015F0009C9115978739964040F114968D919C9156
:1016000015978E3F9A4008F516968D919C911797E5
:10161000873A9140D0F016968D919C911797833C14
:10162000924098F41782E881F98136970190F08111
:10163000E02DEC0FFD1F8FEF9FEFDC018383948380
:10164000A583B68381E0828322C084E3A82E82E052
:10165000B82E9CE9C92E96E0D92E24E3E22E22E092
:10166000F22E00E010E020EA31E140E453E264E4CD
:10167000CF010E946008882351F0E881F9813697F4
:101680000190F081E02DEC0FFD1F91E09283DF913E
:10169000CF911F910F91FF90EF90DF90CF90BF906F
:1016A000AF900895AF92BF92CF92DF92EF92FF92E8
:1016B0000F931F93CF93DF93EC01E881F981369765
:1016C000808191818C0F9D1FFC012285322F377FF5
:1016D000323131F0203221F02A3211F080E01FC087
:1016E000A12CB12C38E5C32E32E0D32E48E5E42EF0
:1016F00042E0F42E00EB14E028E532E040E659E049
:1017000060E00E946008882349F3E881F9813697F8
:101710000190F081E02DEC0FFD1F92E09283DF91AC
:10172000CF911F910F91FF90EF90DF90CF90BF90DE
:10173000AF900895AF92BF92CF92DF92EF92FF9257
:101740000F931F93CF93DF93EC01E881F9813697D4
:101750008081918151E4A52E53E0B52E63ECC62E15
:1017600069E0D62E71E4E72E73E0F72E00E010E07A
:1017700024E03DE044E05DE060E38C0F9D1F0E94AB
:101780006008882351F0E881F98136970190F08153
:10179000E02DEC0FFD1F95E09283DF91CF911F911B
:1017A0000F91FF90EF90DF90CF90BF90AF90089592
:1017B000AF92BF92CF92DF92EF92FF920F931F935F
:1017C000CF93DF93EC01E881F98136978081918195
:1017D000E4E3AE2EE2E0BE2EFCE9CF2EF6E0DF2EF3
:1017E000A4E3EA2EA2E0FA2E00E010E020EA31E1C4
:1017F00040EA51E164E48C0F9D1F0E946008882339
:1018000051F0E881F98136970190F081E02DEC0FDD
:10181000FD1F97E09283DF91CF911F910F91FF9071
:10182000EF90DF90CF90BF90AF9008959F92AF92CE
:10183000BF92CF92DF92EF92FF920F931F93CF93BD
:10184000DF93EC01E881F981369780819181BDE0D9
:10185000AB2EB2E0BB2E17E2C12E16E0D12E0DE06A
:10186000E02E02E0F02E00E010E028E630E140ED4E
:1018700050E264E28C0F9D1F0E946008982E811137
:101880003BC0E881F98136970190F081E02DEC0FA3
:10189000FD1F8285823209F04AC020E030E04DE031
:1018A00052E060E0CF010E946008882309F43FC045
:1018B000E881F98136970190F081E02DEC0FFD1F52
:1018C000A085B18518968D919C9119978D3994407A
:1018D00000F118968D919C911997823B9740C8F41E
:1018E0004381548165817681506843835483658345
:1018F000768387818F5F8783E881F98136970190AE
:10190000F081E02DEC0FFD1F86E0828399249394F3
:101910000EC018968D919C9119978938914038F096
:1019200018968D919C9119978239924010F3892DC8
:10193000DF91CF911F910F91FF90EF90DF90CF90AB
:10194000BF90AF909F9008952F923F924F925F92D9
:101950006F927F928F929F92AF92BF92CF92DF92BF
:10196000EF92FF920F931F93CF93DF9300D01F92BC
:10197000CDB7DEB77C015B016A01DC01ED91FC9122
:10198000369700811181080F191FF8019484828510
:10199000981608F0BAC090858185E92FF82FE90DD7
:1019A000F11DE90DF11D208131813B832A83892DB1
:1019B000809581708983812CBA0180E090E00E943B
:1019C000EB192B013C0120E030E040E45FE30E9492
:1019D000791A0E94BF19AA81BB81A617B707B0F078
:1019E00020E030E040EA5FE3C301B2010E94791ACF
:1019F00020E030E040E85FE30E945B190E94BF19DD
:101A0000EA81FB816E177F0708F064C01601220C83
:101A1000331CB10180E090E00E94EB192B013C01E6
:101A200020E030E040E45FE30E94791A0E94BF1991
:101A30002A813B8126173707A8F020E030E040EAF2
:101A40005FE3C301B2010E94791A20E030E040E870
:101A50005FE30E945B190E94BF19AA81BB816A17CC
:101A60007B07D0F5B1016C0D7D1D80E090E00E94F8
:101A7000EB192B013C0120E030E040E45FE30E94E1
:101A8000791A0E94BF19EA81FB81E617F707A8F0CF
:101A900020E030E040EA5FE3C301B2010E94791A1E
:101AA00020E030E040E85FE30E945B190E94BF192C
:101AB0002A813B816217730788F4D8011B968C91A9
:101AC000882331F1B1E09B1226C0EA81FB81EC153D
:101AD000FD0520F591E003C092E001C093E0D5013F
:101AE0008C918F5F891710F48C931BC0F5011082C5
:101AF000D701ED91FC9136970190F081E02DEE0D2C
:101B0000FF1D84858F5F84870CC0B1E0B98308C056
:101B1000E2E0E98305C0F2E0F98302C022E0298314
:101B2000812C8981982D0F900F900F90DF91CF918C
:101B30001F910F91FF90EF90DF90CF90BF90AF90EB
:101B40009F908F907F906F905F904F903F902F90DD
:101B500008950F931F93CF93DF93EC01E881F981F0
:101B600038970190F081E02DE80FF91F82858D30C4
:101B700008F4B1C081E08487E881F981369701904B
:101B8000F081E02DEC0FFD1F148215821682178262
:101B90001382E881F9813697808191818C0F9D1F96
:101BA000BC016D5F7F4F49E753E00E94A40C892B75
:101BB00009F091C0E881F98136970190F081E02D1C
:101BC000EC0FFD1F128288819981FC0138970190EA
:101BD000F081E02DEC0FFD1F34852285321708F0CF
:101BE0005AC0FC013697808191818C0F9D1FBC01EA
:101BF0006D5F7F4F49E753E00E94A40C8C01E881A0
:101C0000F9813697808191818C0F9D1FBC016D5F9A
:101C10007F4F49E753E00E94A40C01301105A9F45D
:101C2000892B09F058C0E881F98136970190F0813D
:101C3000E02DEC0FFD1F4481558166817781440FB3
:101C4000551F661F771F416016C0012B09F043C066
:101C5000019709F040C0E881F98136970190F08141
:101C6000E02DEC0FFD1F4481558166817781440F83
:101C7000551F661F771F4483558366837783E881EA
:101C8000F98136970190F081E02DEC0FFD1F8281E4
:101C90008F5F828398CF8DE0878388819981FC0153
:101CA00038970190F081E02DEC0FFD1FDC011697B5
:101CB0000D90BC91A02DAC0FBD1F14968D919D91E0
:101CC0000D90BC91A02D83839483A583B68383E07C
:101CD000828381E001C080E0DF91CF911F910F915D
:101CE0000895EF92FF920F931F93CF93DF93EC0130
:101CF000E881F98138970190F081E02DE80FF91F14
:101D00008285811102C080E019C18385A085B185DB
:101D100081110EC012968D919C9113978F3C974024
:101D200090F312968D919C91139786309D4058F7B1
:101D300014968D919C9115978A39924020F31496B0
:101D40008D919C91159789359440E8F683E08487BE
:101D5000E881F98136970190F081E02DEC0FFD1FAD
:101D600014821582168217821382E881F9813697D0
:101D7000808191818C0F9D1FBC016D5F7F4F4CEB6B
:101D800051E00E94A40C892B09F0BDCFE881F981B4
:101D90003697808191818C0F9D1FBC016D5F7F4FB5
:101DA0004CEB51E00E94A40C019709F0ACCFE88104
:101DB000F98136970190F081E02DEC0FFD1F128222
:101DC000A881B981FD0138970190F081E02DEC0FD9
:101DD000FD1F948582851697981708F08AC08D910B
:101DE0009C918C0F9D1FBC016D5F7F4F4CEB51E0B0
:101DF0000E94A40C8C01E881F98136970190F08152
:101E0000E02DEC0FFD1F82818330D9F0E881F9814C
:101E10003697808191818C0F9D1FBC016D5F7F4F34
:101E20004CEB51E00E94A40C7C01E881F9813697CB
:101E30000190F081E02DEC0FFD1F82818330C9F409
:101E40000CC0BF016D5F7F4F4CEB51E0CF010E9492
:101E5000A40C08171907D1F256CFBF016D5F7F4F51
:101E60004CEB51E0CF010E94A40CE816F90609F0F2
:101E70004ACF01151105B1F4EA94EF2809F043CFD8
:101E8000E881F98136970190F081E02DEC0FFD1F7C
:101E90004481558166817781440F551F661F771FE6
:101EA000416017C00130110509F02DCFEF2809F06E
:101EB0002ACFE881F98136970190F081E02DEC0F6F
:101EC000FD1F4481558166817781440F551F661F30
:101ED000771F4483558366837783E881F98136973A
:101EE0000190F081E02DEC0FFD1F82818F5F8283D6
:101EF00067CF0D90BC91A02DAC0FBD1F12968C9199
:101F0000878388819981FC0138970190F081E02DC9
:101F1000EC0FFD1FDC0116970D90BC91A02DAC0FAE
:101F2000BD1F14968D919D910D90BC91A02D838322
:101F30009483A583B68384E0828381E0DF91CF918F
:101F40001F910F91FF90EF900895CF93DF93EC01D5
:101F5000E881F9813A97808191818C0F9D1F0E94C1
:101F6000DE0A811142C0E881F9813C97808191812C
:101F70008C0F9D1F0E94520B811137C0E881F9819F
:101F80003E97808191818C0F9D1F0E94A90D811128
:101F90002CC0E881F9817297808191818C0F9D1FFF
:101FA0000E94710E811121C0E881F98174978081AE
:101FB00091818C0F9D1F0E949A0B811116C0E881A0
:101FC000F9817897808191818C0F9D1F0E94D80B99
:101FD00081110BC0E881F9817697808191818C0F06
:101FE0009D1FDF91CF910C94160C81E0DF91CF9172
:101FF000089528E433E0FC01318320836093E004FA
:102000001092E30424E622830895EF92FF920F9347
:102010001F93CF93DF938C01EB017A01E881F98163
:102020000190F081E02DCB0109958091B0058A8760
:1020300040E08091B005481720F5A42FB0E0CD0115
:10204000880F991FE885F985E80FF91FDC01A85171
:10205000BB4F2D913C912E9DC0012F9D900D3E9D1B
:10206000900D1124D80112962C9130E040FF03C04E
:10207000319521953109280F391F318320834F5F16
:10208000D8CF81E0DF91CF911F910F91FF90EF901A
:102090000895CF93DF93EC018091E00460E00E940B
:1020A0000215E881F9810190F081E02DCE01DF91E8
:1020B000CF9109948091E304882339F08091B00591
:1020C00080FF02C02D9A08952D9808950E9449100E
:1020D000F89482E08093B0008093B10094E69093EE
:1020E000B3001092B200809370007894089520910C
:1020F000E1043091E2042430310531F442E350E050
:102100000E94051081E0089580E008951F920F92CB
:102110000FB60F9211242F933F934F935F936F93BA
:102120007F938F939F93AF93BF93EF93FF93809190
:10213000E0040E9471154091E4045091E50460911F
:10214000E6047091E7044F5F5F4F6F4F7F4F4093FE
:10215000E4045093E5046093E6047093E70420914F
:10216000B005243630F024E030E03093E2042093D0
:10217000E1042091E1043091E2042230310509F1BB
:1021800024F42130310549F07FC023303105E1F1DD
:102190002430310509F46EC077C0892B09F074C072
:1021A0008091E4049091E504A091E604B091E704E5
:1021B00084369105A105B10508F45EC01092B00502
:1021C00025C0019709F060C0E091B00581E08E0F55
:1021D0008093B005F0E08091E4049091E504A09133
:1021E000E604B091E704EE0FFF1FE851FB4F918327
:1021F00080831092E4041092E5041092E604109299
:10220000E70483E090E031C0892B01F5E091B0054F
:1022100081E08E0F8093B005F0E08091E40490910E
:10222000E504A091E604B091E704EE0FFF1FE8512A
:10223000FB4F918380831092E4041092E504109286
:10224000E6041092E70482E090E00FC08091E4047D
:102250009091E504A091E604B091E70485369105DC
:10226000A105B10588F084E090E09093E2048093AA
:10227000E1040AC0892B41F41092E4041092E504B1
:102280001092E6041092E7040E945A10FF91EF9119
:10229000BF91AF919F918F917F916F915F914F917E
:1022A0003F912F910F900FBE0F901F901895CF93D5
:1022B000C62F1092700061E083E00E94021560E07A
:1022C00083E00E943B152C2F30E040E050E060E4BA
:1022D0007FE180E090E00E94121B81E08093B000DB
:1022E00089E08093B1002093B3008BEA289F212DD1
:1022F000112426952093B400CF91089561E083E0E6
:102300000E94021560E083E00C943B15CF93DF93AD
:102310000097B1F081382EE3920770F068EE73E019
:102320000E94DC1AEB010E949314BE0180E090E051
:10233000DF91CF910C946B14DF91CF910C94931497
:10234000DF91CF9108950F931F93CF93DF93EC010B
:102350008B01E0EBF0E0808180628083CB010E9402
:102360008611488159816A817B81400F511F611D0F
:10237000711D488359836A837B83DF91CF911F91BD
:102380000F9108950F931F93CF93DF93EC018B016F
:10239000E0EBF0E080818F7D8083CB010E9486118D
:1023A000488159816A817B81400F511F611D711DD8
:1023B000488359836A837B83DF91CF911F910F916B
:1023C00008952F923F924F925F926F927F928F92D9
:1023D0009F92AF92BF92CF92DF92EF92FF920F93B4
:1023E0001F93CF93DF93CDB7DEB729970FB6F8943D
:1023F000DEBF0FBECDBF3C011A012B018E8D9F8D1C
:1024000098878F8368A139A139878AA19BA1ACA144
:10241000BDA18B839C83AD83BE83D3011D921D928E
:102420001D921C921397E22FF0E0FA83E98380E279
:1024300090E08E1B9F0B04C0220C331C441C551CC7
:102440008A95D2F7C3010E9457110115110521F099
:10245000B801C3010E94A311E114F10421F0B701F6
:10246000C3010E94C21100E010E029813A810217E5
:102470001307C4F457FE06C0B601C3010E94A3119E
:10248000B40106C0B501C3010E94A3116F81788514
:10249000C3010E94C211220C331C441C551C0F5F47
:1024A0001F4FE3CF3985332321F0B601C3010E94CA
:1024B000A3118B819C81AD81BE81892B8A2B8B2BB3
:1024C00041F0D3018D919C916B817C81681B790BCC
:1024D00001C0B401C30129960FB6F894DEBF0FBE48
:1024E000CDBFDF91CF911F910F91FF90EF90DF90C3
:1024F000CF90BF90AF909F908F907F906F905F90A4
:102500004F903F902F900C94C211DC01ED91FC9103
:10251000389720813181820F931F0C94DE0ADC01F1
:10252000ED91FC91389720813181820F931F0C949B
:10253000520BDC01ED91FC91389720813181820FA3
:10254000931F0C949A0BDC01ED91FC91389720813C
:102550003181820F931F0C94D80BDC01ED91FC911B
:10256000389720813181820F931F0C94160CDC0167
:10257000ED91FC91389720813181820F931F0C944B
:10258000A90DDC01ED91FC91389720813181820FFA
:10259000931F0C94710EDC01ED91FC913897208112
:1025A0003181820F931F0C94A50FDC01ED91FC91FA
:1025B0003A9720813181820F931F0C94A50F0F93BE
:1025C0001F93CF93DF93EC01662359F00E943C14D4
:1025D00069837A838B839C83DF91CF911F910F91C5
:1025E00008950E943C1409811A812B813C81601B53
:1025F000710B820B930B623371058105910530F7E6
:1026000063E070E080E090E00E946B14EACF60E04D
:102610000C94DF12FC0113AA14AA15AA16AA11829F
:10262000128213821482411551056105710521F052
:10263000CB01BA010C946B140895FB01BA01A901F6
:10264000DC01D296FC93EE93D19726E0CF010C9457
:102650007D161F93CF93DF93EC01162F60E573E097
:1026600089A99AA90E94F5174AE050E0612F89A92B
:102670009AA90E94E41867E573E089A99AA90E94C3
:10268000F51762E370E080E090E0DF91CF911F9159
:102690000C946B141F93CF93DF93EC01162F8D8155
:1026A000882389F189A99AA9DC01ED91FC91048024
:1026B000F581E02D0995892BA9F307C0263731054F
:1026C00019F12835310509F41D8289A99AA9DC017F
:1026D000ED91FC910480F581E02D099518161906FD
:1026E00094F489A99AA9DC01ED91FC910680F78107
:1026F000E02D09959C01332723363105F9F6612F2A
:10270000CE010E94291383E6DF91CF911F91089596
:102710000F931F93CF93DF931F92CDB7DEB78C013A
:10272000662349F081E0F801858360E0C8014983B0
:102730000E944A134981F80145830F90DF91CF91A0
:102740001F910F91089508951F920F920FB60F9247
:1027500011242F933F934F935F936F937F938F93A6
:102760009F93AF93BF93EF93FF93E0911C01F09180
:102770001D010995FF91EF91BF91AF919F918F91AD
:102780007F916F915F914F913F912F910F900FBE6D
:102790000F901F9018951F920F920FB60F92112451
:1027A0002F933F934F935F936F937F938F939F9359
:1027B000AF93BF93EF93FF93E0911E01F0911F0140
:1027C0000995FF91EF91BF91AF919F918F917F916B
:1027D0006F915F914F913F912F910F900FBE0F908E
:1027E0001F9018951F920F920FB60F9211242F93DE
:1027F0003F938F939F93AF93BF938091E9059091FF
:10280000EA05A091EB05B091EC053091E80523E0D5
:10281000230F2D3720F40196A11DB11D05C026E818
:10282000230F0296A11DB11D2093E8058093E905B1
:102830009093EA05A093EB05B093EC058091ED052C
:102840009091EE05A091EF05B091F0050196A11DC4
:10285000B11D8093ED059093EE05A093EF05B09325
:10286000F005BF91AF919F918F913F912F910F9064
:102870000FBE0F901F9018952FB7F8946091E9053F
:102880007091EA058091EB059091EC052FBF0895BA
:102890003FB7F8948091ED059091EE05A091EF057A
:1028A000B091F00526B5A89B05C02F3F19F0019601
:1028B000A11DB11D3FBF6627782F892F9A2F620F68
:1028C000711D811D911D42E0660F771F881F991FA2
:1028D0004A95D1F70895CF92DF92EF92FF92CF936E
:1028E000DF936B017C010E944814EB01C114D104F9
:1028F000E104F10489F00E9459190E9448146C1BEC
:102900007D0B683E734090F381E0C81AD108E1085E
:10291000F108C851DC4FEACFDF91CF91FF90EF90E3
:10292000DF90CF9008958230910538F0880F991F7D
:10293000880F991F05970197F1F70895789484B54A
:10294000826084BD84B5816084BD85B5826085BDAB
:1029500085B5816085BDEEE6F0E080818160808391
:10296000E1E8F0E010828081826080838081816074
:102970008083E0E8F0E0808181608083E1EBF0E03B
:10298000808184608083E0EBF0E0808181608083DF
:10299000EAE7F0E0808184608083808182608083C8
:1029A0008081816080838081806880831092C100F3
:1029B0000895833081F028F4813099F08230A1F0BD
:1029C00008958730A9F08830B9F08430D1F480912F
:1029D00080008F7D03C0809180008F77809380007E
:1029E000089584B58F7702C084B58F7D84BD089526
:1029F0008091B0008F7703C08091B0008F7D80936D
:102A0000B0000895CF93DF9390E0FC01E15DFE4FAD
:102A10002491FC01ED5BFE4F8491882349F190E005
:102A2000880F991FFC01E559FE4FA591B4918F596C
:102A30009E4FFC01C591D4919FB7611108C0F894D5
:102A40008C91209582238C93888182230AC06230E6
:102A500051F4F8948C91322F309583238C93888194
:102A6000822B888304C0F8948C91822B8C939FBF17
:102A7000DF91CF9108950F931F93CF93DF931F9210
:102A8000CDB7DEB7282F30E0F901E55EFE4F849127
:102A9000F901E15DFE4F1491F901ED5BFE4F0491E8
:102AA0000023C9F0882321F069830E94D914698129
:102AB000E02FF0E0EE0FFF1FEF59FE4FA591B4910C
:102AC0009FB7F8948C91611103C01095812301C0C8
:102AD000812B8C939FBF0F90DF91CF911F910F910E
:102AE0000895CF93DF93282F30E0F901E55EFE4F84
:102AF0008491F901E15DFE4FD491F901ED5BFE4F48
:102B0000C491CC2391F081110E94D914EC2FF0E0F4
:102B1000EE0FFF1FE95AFE4FA591B4912C912D2382
:102B200081E090E021F480E002C080E090E0DF915D
:102B3000CF910895FC01818D228D90E0805C9F4FA4
:102B4000821B91098F7399270895FC01918D828DC5
:102B5000981731F0828DE80FF11D858D90E0089572
:102B60008FEF9FEF0895FC01918D828D981761F092
:102B7000828DDF01A80FB11D5D968C91928D9F5FB4
:102B80009F73928F90E008958FEF9FEF089587E3F2
:102B900097E1892B49F080E090E0892B29F00E9491
:102BA000371781110C9400000895FC01848DDF011A
:102BB000A80FB11DA35ABF4F2C91848D90E00196B0
:102BC0008F739927848FA689B7892C93A089B1899F
:102BD0008C9180648C93938D848D981306C00288A9
:102BE000F389E02D80818F7D80830895CF93DF93DB
:102BF000EC01888D8823C9F0EA89FB89808185FDF5
:102C000005C0A889B9898C9186FD0FC00FB607FC55
:102C1000F5CF808185FFF2CFA889B9898C9185FF96
:102C2000EDCFCE010E94D515E7CFDF91CF9108956A
:102C3000CF92DF92FF920F931F93CF93DF931F9258
:102C4000CDB7DEB76C0181E0D60158968C935897CA
:102C50005B969C915B975C968C915C97981307C0F0
:102C60005096ED91FC915197808185FD2EC0F60123
:102C7000038D10E00F5F1F4F0F731127F02EF60129
:102C8000848DF81211C00FB607FCF9CFD60150960B
:102C9000ED91FC915197808185FFF1CFC601698349
:102CA0000E94D5156981EBCF838DE80FF11DE35AA2
:102CB000FF4F6083D6015B960C935B975296ED9124
:102CC000FC915397808180620CC0D6015696ED919D
:102CD000FC91579760835096ED91FC9151978081BC
:102CE0008064808381E090E00F90DF91CF911F910D
:102CF0000F91FF90DF90CF900895BF92CF92DF9217
:102D0000EF92FF92CF93DF93EC016A017B01B22E29
:102D1000E889F98982E08083411581EE58076105D1
:102D20007105A1F060E079E08DE390E0A7019601E4
:102D30000E94F01A215031094109510956954795D1
:102D400037952795211580E1380798F0E889F989AA
:102D5000108260E874E88EE190E0A70196010E947D
:102D6000F01A215031094109510956954795379577
:102D70002795EC85FD853083EE85FF852083188EB1
:102D8000EC89FD89B082EA89FB898081806180833A
:102D9000EA89FB89808188608083EA89FB89808158
:102DA00080688083EA89FB8980818F7D8083DF91C1
:102DB000CF91FF90EF90DF90CF90BF9008951F923A
:102DC0000F920FB60F9211242F938F939F93EF932F
:102DD000FF93E0910106F09102068081E0910706E1
:102DE000F091080682FD12C0908180910A068F5FE3
:102DF0008F7320910B06821751F0E0910A06F0E0E4
:102E0000EF50FA4F958F80930A0601C08081FF91A1
:102E1000EF919F918F912F910F900FBE0F901F9068
:102E200018951F920F920FB60F9211242F933F9374
:102E30004F935F936F937F938F939F93AF93BF93C2
:102E4000EF93FF9381EF95E00E94D515FF91EF91ED
:102E5000BF91AF919F918F917F916F915F914F91B2
:102E60003F912F910F900FBE0F901F90189581EFFB
:102E700095E00E949A1521E0892B09F420E0822F29
:102E800008951092F4051092F30588EE93E0A0E007
:102E9000B0E08093F5059093F605A093F705B09305
:102EA000F8058CEA93E09093F2058093F10585ECA8
:102EB00090E09093FE058093FD0584EC90E0909364
:102EC00000068093FF0580EC90E0909302068093CB
:102ED000010681EC90E0909304068093030682EC57
:102EE00090E0909306068093050686EC90E0909320
:102EF00008068093070610920A0610920B0610929D
:102F00000C0610920D06089508950E949E140E94CA
:102F100084170E941B03C7ECD5E10E941A04209776
:102F2000E1F30E94C715F9CFCF92DF92EF92FF92A3
:102F30000F931F93CF93DF937C016A01EB0100E0B5
:102F400010E00C151D0571F06991D701ED91FC9110
:102F50000190F081E02DC7010995892B19F00F5FD1
:102F60001F4FEFCFC801DF91CF911F910F91FF90BD
:102F7000EF90DF90CF9008956115710581F0DB012E
:102F80000D900020E9F7AD0141505109461B570B48
:102F9000DC01ED91FC910280F381E02D099480E049
:102FA00090E00895EF92FF920F931F93CF93DF93DA
:102FB0008C017B01C0E0D0E0F701EC0FFD1F6491B4
:102FC000662359F0F801A081B181ED91FC91C8010F
:102FD0000995892B11F02196EFCFCE01DF91CF918A
:102FE0001F910F91FF90EF9008950C94BC17DC0196
:102FF000ED91FC910190F081E02D09946DE573E075
:103000000C94BC170F931F93CF93DF93EC010E9496
:10301000D2178C01CE010E94FE17800F911FDF9105
:10302000CF911F910F9108958F929F92AF92BF926F
:10303000CF92DF92EF92FF920F931F93CF93DF9384
:10304000CDB7DEB7A1970FB6F894DEBF0FBECDBFE8
:103050007C01C42EE52FCB01D22E19A221E02D1523
:1030600010F02AE0D22E8E010F5D1F4F8D2C912C77
:10307000A12CB12C6C2D7E2FA50194010E94F01A79
:103080008C2DD29E80191124015011098A3014F41C
:10309000805D01C0895CF8018083211531054105FF
:1030A000510521F0C22EE32FCA01E4CFB801C701B8
:1030B0000E94BC17A1960FB6F894DEBF0FBECDBF1D
:1030C000DF91CF911F910F91FF90EF90DF90CF9004
:1030D000BF90AF909F908F900895CF92DF92EF9224
:1030E000FF920F931F93CF93DF93EC016A017B0153
:1030F0002115310579F4E881F9810190F081E02D05
:10310000642FDF91CF911F910F91FF90EF90DF908F
:10311000CF9009942A303105E9F477FF1AC06DE2A7
:103120000E94F7178C0144275527BA014C195D09F5
:103130006E097F092AE0CE010E941418800F911FAA
:10314000DF91CF911F910F91FF90EF90DF90CF9083
:1031500008952AE0B701A601CE01DF91CF911F911A
:103160000F91FF90EF90DF90CF900C9414189A017C
:10317000AB01662757FD6095762F0C946D180F9361
:103180001F93CF93DF93EC019A01AB01662757FDA4
:103190006095762F0E946D188C01CE010E94FE175B
:1031A000800F911FDF91CF911F910F9108952115ED
:1031B000310541F4DC01ED91FC910190F081E02DAD
:1031C000642F09940C9414189A01462F50E060E083
:1031D00070E00C94D7189A01AB0160E070E00C9499
:1031E000D7180F931F93CF93DF93EC019A01AB0194
:1031F00060E070E00E94D7188C01CE010E94FE179B
:10320000800F911FDF91CF911F910F9108950F9320
:103210001F93CF93DF93EC010E94D7188C01CE014E
:103220000E94FE17800F911FDF91CF911F910F9188
:103230000895CF93DF9300D000D0CDB7DEB79B01C8
:10324000AC01611571058105910569F069833A83C7
:103250004B835C830E94A01B29813A814B815C8156
:103260000E94121B03C060E070E0CB010F900F9032
:103270000F900F90DF91CF910895CF92DF92EF9250
:10328000FF926B017C01621773078407950764F452
:10329000CA01B9016C197D098E099F090E9419198B
:1032A0006C0D7D1D8E1D9F1DFF90EF90DF90CF90C8
:1032B000089508955058BB27AA270ED0E0C0D1D05A
:1032C00030F0D6D020F031F49F3F11F41EF4C6C088
:1032D0000EF4E095E7FBBCC0E92FE2D080F3BA170B
:1032E000620773078407950718F071F49EF5FAC01A
:1032F0000EF4E0950B2EBA2FA02D0B01B901900111
:103300000C01CA01A0011124FF27591B99F0593F54
:1033100050F4503E68F11A16F040A22F232F342F9C
:103320004427585FF3CF469537952795A795F040EA
:103330005395C9F77EF41F16BA0B620B730B840BFF
:10334000BAF09150A1F0FF0FBB1F661F771F881FB7
:10335000C2F70EC0BA0F621F731F841F48F487950F
:1033600077956795B795F7959E3F08F0B3CF9395FE
:10337000880F08F09927EE0F97958795089598D0B4
:1033800088F09F5790F0B92F9927B751A0F0D1F04E
:10339000660F771F881F991F1AF0BA95C9F712C0D8
:1033A000B13081F09FD0B1E008959CC0672F782F95
:1033B0008827B85F39F0B93FCCF386957795679544
:1033C000B395D9F73EF490958095709561957F4FB0
:1033D0008F4F9F4F0895E89409C097FB3EF4909556
:1033E0008095709561957F4F8F4F9F4F9923A9F0DE
:1033F000F92F96E9BB279395F6958795779567956D
:10340000B795F111F8CFFAF4BB0F11F460FF1BC0B0
:103410006F5F7F4F8F4F9F4F16C0882311F096E943
:1034200011C0772321F09EE8872F762F05C06623F1
:1034300071F096E8862F70E060E02AF09A95660FAA
:10344000771F881FDAF7880F9695879597F9089563
:1034500097F99F6780E870E060E008959FEF80EC47
:10346000089500240A9416161706180609060895EA
:1034700000240A9412161306140605060895092E50
:103480000394000C11F4882352F0BB0F40F4BF2BBF
:1034900011F460FF04C06F5F7F4F8F4F9F4F0895FF
:1034A00057FD9058440F551F59F05F3F71F04795F5
:1034B000880F97FB991F61F09F3F79F087950895DA
:1034C000121613061406551FF2CF4695F1DF08C0F9
:1034D000161617061806991FF1CF86957105610516
:1034E00008940895E894BB2766277727CB0197F9BE
:1034F00008950BD0C4CFB5DF28F0BADF18F09523BC
:1035000009F0A6CFABCF1124EECFCADFA0F3959F71
:10351000D1F3950F50E0551F629FF001729FBB27BA
:10352000F00DB11D639FAA27F00DB11DAA1F649F66
:103530006627B00DA11D661F829F2227B00DA11D19
:10354000621F739FB00DA11D621F839FA00D611D9F
:10355000221F749F3327A00D611D231F849F600DC0
:10356000211D822F762F6A2F11249F5750408AF0F9
:10357000E1F088234AF0EE0FFF1FBB1F661F771F85
:10358000881F91505040A9F79E3F510570F060CFC1
:10359000AACF5F3FECF3983EDCF38695779567956D
:1035A000B795F795E7959F5FC1F7FE2B880F911DA3
:1035B0009695879597F90895AA1BBB1B51E107C003
:1035C000AA1FBB1FA617B70710F0A61BB70B881FB3
:1035D000991F5A95A9F780959095BC01CD01089542
:1035E000A1E21A2EAA1BBB1BFD010DC0AA1FBB1F07
:1035F000EE1FFF1FA217B307E407F50720F0A21B79
:10360000B30BE40BF50B661F771F881F991F1A94E5
:1036100069F760957095809590959B01AC01BD010F
:10362000CF010895052E97FB1EF400940E94291BDC
:1036300057FD07D00E94F01A07FC03D04EF40C94FB
:10364000291B50954095309521953F4F4F4F5F4F27
:10365000089590958095709561957F4F8F4F9F4FFE
:103660000895EE0FFF1F0590F491E02D09940E943C
:10367000421BA59F900DB49F900DA49F800D911D9E
:1036800011240895A29FB001B39FC001A39F700DA4
:10369000811D1124911DB29F700D811D1124911D5A
:1036A00008958F929F92AF92BF92CF92DF92EF9246
:1036B000FF92CF93DF93EC01688179818A819B81AE
:1036C000611571058105910521F464E279ED8BE5C1
:1036D00097E02DE133EF41E050E00E94121B4901D9
:1036E0005A019B01AC01A7EAB1E40E94371B6B01B0
:1036F0007C01ACEEB4EFA50194010E94B11BC60E93
:10370000D71EE81EF91EF7FE06C081E0C81AD108D0
:10371000E10880E8F80AC882D982EA82FB82C70100
:10372000B6019F77DF91CF91FF90EF90DF90CF9020
:10373000BF90AF909F908F9008950E94511B089565
:1037400080E091E00E94511B089560930001709306
:10375000010180930201909303010895B7FF0C9437
:10376000371B0E94371B821B930B0895F894FFCFE1
:10377000010000002800E803F4010500E803000050
:10378000B80B00009001000003000000A313A31376
:10379000564D4450565F317C315F564D4450560D66
:1037A0000A00EDFF00000000EFFF00000000F1FF45
:1037B00000000000F3FF00000000F5FF0000000023
:1037C000F7FF00000000F9FF000000000200000009
:1037D00000009A019A01A001A601AC01B201B80152
:1037E000BE01C40162015C01560150014A0144015D
:1037F0003E0138011500130011000F000D000B00F1
:1038000009000000020000000000F9FFF7FF0000BF
:10381000F7FFF5FF0000F5FFF3FF0000F3FFF1FFF6
:103820000000F1FFEFFF0000EFFFEDFF0000EDFFF4
:10383000EBFF00000000000077067506CD06E1FFF3
:1038400000000000D80B00001F0000001F00000057
:103850007706A312CD06E3FF00000000160C00005F
:103860001D0000001D0000007706AD12CD06E5FF2B
:10387000000000009A0B00001B0000001B0000006D
:1038800077069912CD06E7FFF8FF00000000710EE1
:10389000EFFF080000000000190000001900000000
:1038A0007706C112CD06EFFF000000000000000007
:1038B00000001100000077067506CD06F1FF02003A
:1038C00000000000A90DEFFFFEFF000000000F0048
:1038D00000000F0000007706B712CD06F3FF0000CE
:1038E0000000520B00000D0000000D0000007706E4
:1038F0008F12CD06020000000000DE0A0000FEFF6D
:103900000000FEFF000077068512CD06EC02EC02F7
:10391000F802060312031A0324032E03380342039A
:103920008A02960272027E0254025C0266023C0225
:1039300046021E022602300204021002EC01F801C7
:10394000D401E00121001F001D001B001300110025
:103950000F0000000000020000000000A50F0000A2
:10396000FEFF0000FEFF00007706CB12CD06F1FF40
:10397000F3FFF1FF0000CB12EFFFF1FF0200EFFFBA
:103980000000D512EFFFEDFF0000E5FFE7FFF8FFB5
:10399000E5FF0000D512E3FFE5FFE3FF0000CB12D7
:1039A000E1FFE3FFE1FF0000CB12DFFFE1FFDFFFFC
:1039B0000000CB120000000080060000000083061B
:1039C000564D4450435F005F564D4450430D0A002E
:1039D0004572726F723A20417474656D7074207410
:1039E0006F20736574206120726561642D6F6E6C49
:1039F00079207661726961626C65206F7220646102
:103A000074612074797065206E6F742073757070A6
:103A10006F727465640D0A00000000001816941798
:103A20009A15B315A515F6156E616E00696E6600E0
:063A30006F7666002E0017
:00000001FF
