:100000000C94BD000C9416130C943D130C94E50055
:100010000C94E5000C94E5000C94E5000C94F80FAA
:100020000C94E5000C94E5000C94E5000C94E500BC
:100030000C94E5000C94E5000C94E5000C94E500AC
:100040000C9464130C94E5000C9451160C948316D4
:100050000C94E5000C94E5000C94E5000C94E5008C
:100060000C94E5000C94E50009206D61783A00538A
:1000700070616365206D696E3A0009206D61783AA0
:10008000004D61726B20206D696E3A004578746591
:100090006E743D0009200009002073003A6D0020B5
:1000A0002073002020486561643A206D00293A20C1
:1000B0004761703A005261772073616D706C6573AF
:1000C000280020626974732900202800293A2056EC
:1000D000616C75653A0028004465636F646564204F
:1000E000004861736820436F6465004E45437800A3
:1000F0004A56430050616E61736F6E6963204F6CA6
:1001000064005243360052433500536F6E79004EFF
:10011000454300556E6B6E6F776E0000000008005F
:1001200002010000030407000000000000000001BD
:10013000020408102040800102040810200102047B
:10014000081020040404040404040402020202024D
:100150000203030303030300000000230026002919
:100160000000000000250028002B000000000024F3
:100170000027002A0000A405B31611241FBECFEFEC
:10018000D8E0DEBFCDBF13E0A0E0B1E0E4E5F6E3E8
:1001900002C005900D92A63CB107D9F726E0A6EC67
:1001A000B3E001C01D92A638B207E1F711E0CAE73B
:1001B000D1E004C02297FE010E94A51AC637D107DC
:1001C000C9F70E94F7160C94281B0C940000CF93DB
:1001D000DF93EC0102960E94BC07ECE9F2E0A489EF
:1001E000B58916970D90BC91A02DAC0FBD1F8689C7
:1001F00097898D939C93A08DB18D16970D90BC918E
:10020000A02DAC0FBD1F828D938D50969C938E9325
:100210001F97A2A1B3A116970D90BC91A02DAC0F72
:10022000BD1F84A195A154969C938E935397CE01A4
:100230004196248D358DD90116970D90BC91A02D36
:10024000A80FB91F468D578D4D935C93D901189710
:100250000D90BC91A02DA80FB91F80A191A18D93E5
:100260009C93CE014B9626A137A1D90116970D90EC
:10027000BC91A02DA80FB91F40A551A54D935C932B
:10028000D90118970D90BC91A02DA80FB91F82A578
:1002900093A58D939C93A4A5B5A516970D90BC919D
:1002A000A02DAC0FBD1F86A597A55E969C938E933F
:1002B0005D97A0A9B1A916970D90BC91A02DAC0F88
:1002C000BD1F82A993A990969C938E935F97A4A932
:1002D000B5A916970D90BC91A02DAC0FBD1F86A996
:1002E00097A992969C938E9391978CEE92E0998326
:1002F000888388EF92E09B838A8386E093E0988BE3
:100300008F8782E193E09A8B898B8AE193E09C8BC3
:100310008B8B84E293E09C8F8B8F8EE293E09E8F99
:100320008D8F88E393E098A38F8F82E493E09AA364
:1003300089A3DF91CF9108952F923F924F925F92C0
:100340006F927F928F929F92AF92BF92CF92DF92E5
:10035000EF92FF920F931F93CF93DF9300D000D0C3
:10036000CDB7DEB79C838B835B015A834983190128
:100370000E94AE132B013C0188248394912C6801C8
:10038000EE24D7FCE094FE2C0E94AE13641975098C
:10039000860997096C157D058E059F05A0F561E01E
:1003A00088E00E94AD140B811C8117FF02C00F5F13
:1003B0001F4F15950795C8010E94051460E088E05D
:1003C0000E94AD14C8010E940514829CC001839C48
:1003D000900D929C900D11242B813C81280F391F88
:1003E0003C832B8389819A81821793071CF4919413
:1003F00081949108EB81FC81EA15FB052CF6919420
:1004000081949108C1CF0F900F900F900F90DF91C2
:10041000CF911F910F91FF90EF90DF90CF90BF9001
:10042000AF909F908F907F906F905F904F903F9094
:100430002F9008952F923F924F925F926F927F92EA
:100440008F929F92AF92BF92CF92DF92EF92FF92E4
:100450000F931F93CF93DF93CDB7DEB728970FB6D7
:10046000F894DEBF0FBECDBF1A830983212C312C37
:100470007B010027F7FC0095102FEB82FC820D8397
:100480001E836C01EE24D7FCE094FE2C4A01AA24C2
:1004900097FCA094BA2C2901662457FC6094762C12
:1004A00009811A81201631060CF048C00E94AE1353
:1004B0006093CD037093CE038093CF039093D003CA
:1004C0002B813C814D815E81C701B6010E94AF182E
:1004D0009B0177FF02C02F5F3F4F8901159507955C
:1004E00018870F830E94AE130091CD031091CE03A5
:1004F0002091CF033091D003601B710B820B930BC3
:10050000681579058A059B0588F461E088E00E94FA
:10051000AD148F8198850E94051460E088E00E94E8
:10052000AD148F8198850E940514DCCFC301B20100
:100530000E94DD131FEF211A310AB2CF28960FB6A1
:10054000F894DEBF0FBECDBFDF91CF911F910F9109
:10055000FF90EF90DF90CF90BF90AF909F908F90E3
:100560007F906F905F904F903F902F9008950F93E2
:100570001F9340ED57E060E070E089EA95E00E944B
:100580007C1220E835E240E050E069EE75E089EA4F
:1005900095E00E948F1289EA95E00E94791260E24C
:1005A00071E08091DA059091DB050E9467176AE09F
:1005B00070E080E090E00E94DD1341E060E089EAB5
:1005C00095E00E94FA1261E08DE00E94741460E0F0
:1005D00082E00E94741461E088E00E94741426E0B6
:1005E00040E855E260E070E089EE95E00E94EF158A
:1005F00086EF93E00E94D80F60E174E085ED93E010
:100600000E94CE0761E088E00E94AD1408EC10E083
:1006100022E030E04AE050E06CE271E088EC90E0EB
:100620000E941A021F910F9108952F923F924F92AC
:100630005F926F927F928F929F92AF92BF92CF9272
:10064000DF92EF92FF920F931F93CF93DF93CDB77B
:10065000DEB72A970FB6F894DEBF0FBECDBF1801E4
:1006600000E010E06A01EE24D7FCE094FE2CCD827D
:10067000DE82EF82F8866B01EE24D7FCE094FE2C3C
:100680004C01AA2497FCA094BA2C2901662457FC9B
:100690006094762C021513050CF04CC00E94AE132A
:1006A0006093CD037093CE038093CF039093D003D8
:1006B0000E94AE132091CD033091CE034091CF0321
:1006C0005091D003621B730B840B950B2D813E81DF
:1006D0004F815885621773078407950720F5A70196
:1006E0009601C501B4010E94AF1869837A838B8398
:1006F0009C8361E088E00E94AD1489819A8197FD16
:1007000001969C0135952795C90129873A870E9452
:10071000051460E088E00E94AD1429853A85C9017E
:100720000E940514C5CFC301B2010E94DD130F5F03
:100730001F4FB0CF2A960FB6F894DEBF0FBECDBFC5
:10074000DF91CF911F910F91FF90EF90DF90CF90AD
:10075000BF90AF909F908F907F906F905F904F90E1
:100760003F902F9008958F929F92AF92BF92CF9219
:10077000DF92EF92FF920F931F93CF93DF9365ED7C
:1007800073E086EF93E00E94E90F882309F471C0BB
:1007900061E08DE00E94AD1438E5A32E32E0B32E67
:1007A00040EBC42E44E0D42E58E5E52E52E0F52E61
:1007B00000E010E028E532E040EB54E06AE085ED2F
:1007C00093E00E94D207C82F4091D8035091D903DB
:1007D0006091DA037091DB0320E130E089EE95E06F
:1007E0000E94791885ED93E00E943F06C1110EC06A
:1007F00008EE13E028E030E040E951E064E670E004
:1008000080910801909109010E949C018091D80378
:100810009091D903A091DA03B091DB030397A1056E
:10082000B10519F581E08093C7031092C803809346
:10083000C60361E088E00E94AD140E94AE1360938D
:10084000CD037093CE038093CF039093D00304E144
:1008500010E021E030E04AE550E06CE271E088EC25
:1008600090E00E9415031092C70386EF93E00E9468
:10087000D80F8091C803882309F46DC00E94AE137D
:100880000091CD031091CE032091CF033091D0037E
:10089000601B710B820B930B0091100110911101E1
:1008A0002091120130911301061717072807390705
:1008B00008F03DC10E94AE136093CD037093CE0348
:1008C0008093CF039093D0030E94AE130091CD0389
:1008D0001091CE032091CF033091D003601B710B98
:1008E000820B930B0091060110910701222717FD3F
:1008F0002095322F6017710782079307E8F461E0B3
:1009000088E00E94AD1480910C0190910D0197FD3B
:100910000196959587950E94051460E088E00E94F5
:10092000AD1480910C0190910D0197FD0196959564
:1009300087950E940514C8CF1092C80361E088E033
:100940000E94AD1464E670E080E090E00E94DD1348
:1009500060E088E0DEC082E00E94E3149093D2035E
:100960008093D103892B09F0E2C00E94AE1300915D
:10097000C9031091CA032091CB033091CC03601BB3
:10098000710B820B930B00911401109115012091B2
:10099000160130911701061717072807390708F0C5
:1009A000C6C00E94AE136093C9037093CA038093BC
:1009B000CB039093CC0380910E0190910F0101978E
:1009C00090930F0180930E01181619064CF081E0E8
:1009D0008093C80384E690E090930F0180930E010A
:1009E00061E08DE00E94AD14409118015091190111
:1009F00060911A0170911B011F921F921F921F920A
:100A000081E08F9386E28F9382E08F9388E58F93C6
:100A1000E0EB8E2EE4E09E2EF8E5AF2EF2E0BF2E46
:100A2000A8E5CA2EA2E0DA2EB8E5EB2EB2E0FB2E46
:100A300000EB14E023E08BEF93E00E94531186EF6C
:100A400093E00E94D80F2DB73EB7285F3F4F0FB6F7
:100A5000F8943EBF0FBE2DBFC3E0D0E017E0F12EEB
:100A60000E94AE136093CD037093CE038093CF03A7
:100A70009093D0030E94AE130091CD031091CE034A
:100A80002091CF033091D003601B710B820B930B2D
:100A90000091040110910501222717FD2095322FA6
:100AA000601771078207930748F561E088E00E94AC
:100AB000AD1480910A0190910B0197FD079663E0B8
:100AC000959587956A95E1F79C01F29EC001F39E8A
:100AD000900D11240E94051460E088E00E94AD147E
:100AE00080910A0190910B0197FD079653E095952F
:100AF00087955A95E1F70E940514BCCF62E370E038
:100B000080E090E00E94DD13219709F0A9CF60E01A
:100B10008DE0DF91CF911F910F91FF90EF90DF90CB
:100B2000CF90BF90AF909F908F900C94AD14DF91B9
:100B3000CF911F910F91FF90EF90DF90CF90BF90DA
:100B4000AF909F908F9008958BEF93E00E94F010EC
:100B50008AE991E09093FA038093F90380EA91E0A7
:100B6000909303048093020486EA91E09093050435
:100B7000809304048CEA91E0909307048093060428
:100B800082EB91E0909309048093080488EB91E054
:100B900090930B0480930A048EEB91E090930D04E4
:100BA00080930C0484EC91E090930F0480930E04E6
:100BB0006BE086EF93E00E946B0F8EE493E09093DE
:100BC000F7038093F60383ED93E00C94E70080E055
:100BD0000895FC01128213821482158216821782F4
:100BE000128608951092A805089581E090E09093F0
:100BF000DA048093D9041092A8050895CF93DF9367
:100C0000CDB7DEB762970FB6F894DEBF0FBECDBF8B
:100C100089300CF080E023E131E03A8329832FE032
:100C200031E03C832B832AE031E03E832D8326E0B4
:100C300031E038872F8322E031E03A87298724EF9B
:100C400030E03C872B8720EF30E03E872D872BEE6E
:100C500030E0388B2F8721EE30E03A8B298BE82F5C
:100C6000EE0FFF0BEC0FFD1F8181928162960FB694
:100C7000F894DEBF0FBECDBFDF91CF9108952F92C4
:100C80003F924F925F926F927F928F929F92AF921C
:100C9000BF92CF92DF92EF92FF920F931F93CF9369
:100CA000DF93EC018A81893074F568ED70E089EE9C
:100CB00095E00E9444178A810E94FE05BC0189EEDE
:100CC00095E00E94441766ED70E089EE95E00E9481
:100CD00044176A81772767FD70954AE050E089EEF6
:100CE00095E00E9429186CEC70E089EE95E00E9476
:100CF00044174B815C816D817E8120E130E089EE7B
:100D000095E00E94491869EC70E089EE95E00E9438
:100D100044174AE050E06F8189EE95E00E94561832
:100D200062EC70E089EE95E00E94741765EB70E06C
:100D300089EE95E00E9444174AE050E06A8589EE0A
:100D400095E00E9456186DEA70E089EE95E00E94E9
:100D50004417E885F985608171814AE050E089EEA9
:100D600095E00E94631863EA70E089EE95E00E94C6
:100D70004417E885F985628173814AE050E089EE85
:100D800095E00E945D186FE970E089EE95E00E94A1
:100D90004417E885F985648175814AE050E089EE61
:100DA00095E00E946318E885F985828193814480EB
:100DB0005580480E591E612C712CC12CD12C212C30
:100DC000312CAA24AA943FE7B32E88248A944FE7B3
:100DD000942E53E0E52EF12C8A8590E0E816F90672
:100DE0000CF06EC0E885F985C701880F991FE80FE0
:100DF000F91F00811181C801AA2797FDA095BA2F7C
:100E0000480E591E6A1E7B1EE0FE16C00A151B0501
:100E10000CF45801C016D1060CF46801B7017595A1
:100E20006795615071094AE050E089EE95E00E94B3
:100E300029186CE970E00DC01016110624F408158D
:100E400019050CF44801201631060CF4180169E963
:100E500070E089EE95E00E9444174AE050E0B80146
:100E600089EE95E00E94291887010150110900FFC1
:100E700006C067E970E089EE95E00E944417C8015A
:100E800083709927019731F464E970E089EE95E069
:100E90000E944417C80187709927019721F489EEB1
:100EA00095E00E9470170F7111270130110521F490
:100EB00089EE95E00E9470178FEFE81AF80A8CCF40
:100EC00089EE95E00E9470176CE870E089EE95E07D
:100ED0000E9444172AE030E0B301A20189EE95E0B8
:100EE0000E94791861E870E089EE95E00E9444174D
:100EF0004AE050E0B50189EE95E00E9429186AE7C2
:100F000070E089EE95E00E9444174AE050E0B60197
:100F100089EE95E00E9431186FE670E089EE95E069
:100F20000E9444174AE050E0B40189EE95E00E9427
:100F3000291868E670E089EE95E00E9444174AE0BF
:100F400050E0B10189EE95E00E94311889EE95E0FC
:100F5000DF91CF911F910F91FF90EF90DF90CF9095
:100F6000BF90AF909F908F907F906F905F904F90C9
:100F70003F902F900C947017FC0188EC91E09183C6
:100F8000808380EE94E0918780871386128213829B
:100F9000148215821682178212860895FC017187C9
:100FA000608708952F923F924F925F926F927F9247
:100FB0008F929F92AF92BF92CF92DF92EF92FF9269
:100FC0000F931F93CF93DF93CDB7DEB72E970FB656
:100FD000F894DEBF0FBECDBF1C013A872987BE82C1
:100FE000AD8281E0D1011C968C931C97662321F081
:100FF0001A968C91861388C1F101938491103AC09E
:1010000041155105B9F1A084B184D50112960D9016
:10101000BC91A02DBA83A983BA0180E090E00E9420
:101020005D192B013C0120E030E040E45FE30E94C9
:10103000EB190E943119E981FA81E617F70708F4E4
:1010400015C2D5011296AD90BC90139720E030E008
:1010500040EA5FE3C301B2010E94EB1920E030E0F7
:1010600040E85FE30E94CD180E9431196A157B05A4
:1010700008F4FCC182E0F101848729853A852115B5
:10108000310589F1A084B184D50114968D909C908E
:101090001597B90180E090E00E945D192B013C0199
:1010A00020E030E040E45FE30E94EB190E94311938
:1010B0008616970608F428C1F501A480B58020E0C3
:1010C00030E040EA5FE3C301B2010E94EB1920E087
:1010D00030E040E85FE30E94CD180E9431196A15A4
:1010E0007B0508F411C1D1011A966C900115110508
:1010F00009F463C0812C912C5401C601A0E0B0E03A
:1011000089839A83AB83BC83C801A0E0B0E08D8360
:101110009E83AF83B887C701A0E0B0E089879A8734
:10112000AB87BC87D1011C967C90272D30E07614CC
:10113000D8F5D10118964D905C901997F901EE0FF2
:10114000FF1FE40DF51DFE87ED8700811181698188
:101150007A818B819C810E945D196B017C0120E06A
:1011600030E040E45FE30E94EB190E94311906175A
:10117000170708F4C9C0AD85BE850D911C9120E00C
:1011800030E040EA5FE3C701B6010E94EB1920E0BE
:1011900030E040E85FE30E94CD180E9431196017EB
:1011A000710708F07BC0B0C0C901019797FDC90164
:1011B00095958795F101878369C06A9483E0D10191
:1011C0001C968C93812C912C5401C701A0E0B0E0B7
:1011D00089839A83AB83BC83C601A0E0B0E0898792
:1011E0009A87AB87BC87AD81BE81CD01A0E0B0E01E
:1011F0008D839E83AF83B887F1017484272D30E0FF
:101200007614D0F5F10140845184C901880F991FEB
:10121000840D951D9E878D87DC010D911C91698140
:101220007A818B819C810E945D196B017C0120E099
:1012300030E040E45FE30E94EB190E943119061789
:10124000170708F461C0ED85FE850081118120E05B
:1012500030E040EA5FE3C701B6010E94EB1920E0ED
:1012600030E040E85FE30E94CD180E94311960171A
:10127000710708F087C048C0C901019797FDC901EF
:10128000959587958150D10117968C93F1018382B2
:101290009482A582B68299249394E8C081E0870D58
:1012A000D1011C968C938201080F111D080F111D8E
:1012B000F801408051806D817E818F8198850E94E8
:1012C0005D196B017C0120E030E040E45FE30E94A7
:1012D000EB190E94311946165706C0F4D8014D90FB
:1012E0005C9069857A858B859C850E945D196B0170
:1012F0007C0120E030E040E45FE30E94EB190E94B3
:1013000031194616570618F5912CB0C0F8014080E7
:10131000518020E030E040EA5FE3C701B6010E945F
:10132000EB1920E030E040E85FE30E94CD180E9416
:1013300031196415750590F2880C991CAA1CBB1C08
:10134000689480F873947394F1017486EBCED8019D
:101350000D911C9120E030E040EA5FE3C701B60147
:101360000E94EB1920E030E040E85FE30E94CD18D6
:101370000E9431196017710738F2880C991CAA1C59
:10138000BB1CE0CF81E0870DF10184878201080F4B
:10139000111D080F111DD8014D905C9069857A854B
:1013A0008B859C850E945D196B017C0120E030E0FB
:1013B00040E45FE30E94EB190E943119461657067C
:1013C00010F1D8014D905C9020E030E040EA5FE3FE
:1013D000C701B6010E94EB1920E030E040E85FE36E
:1013E0000E94CD180E9431196415750560F0880CB3
:1013F000991CAA1CBB1C689480F873947394D10147
:101400001C967C92F9CEF801408051806D817E81DE
:101410008F8198850E945D196B017C0120E030E08E
:1014200040E45FE30E94EB190E943119461657060B
:1014300008F46ACFF8010081118120E030E040EA31
:101440005FE3C701B6010E94EB1920E030E040E8FD
:101450005FE30E94CD180E9431196017710708F4EC
:1014600053CF880C991CAA1CBB1CC7CF892D2E9664
:101470000FB6F894DEBF0FBECDBFDF91CF911F91A5
:101480000F91FF90EF90DF90CF90BF90AF909F9023
:101490008F907F906F905F904F903F902F90089526
:1014A000AF92BF92CF92DF92EF92FF920F931F9372
:1014B000CF93DF93EC01E881F98136970190F081B9
:1014C000E02DE80FF91F8285843089F5A085B1856C
:1014D00014968D919C9115978739964040F11496FA
:1014E0008D919C9115978E3F9A4008F516968D9197
:1014F0009C911797873A9140D0F016968D919C91C8
:101500001797833C924098F41782E881F9813697C7
:101510000190F081E02DEC0FFD1F8FEF9FEFDC01BC
:1015200083839483A583B68381E0828322C084E38E
:10153000A82E82E0B82E9CE9C92E96E0D92E24E38D
:10154000E22E22E0F22E00E010E020EA31E140E459
:1015500053E264E4CF010E94D207882351F0E8816E
:10156000F98136970190F081E02DEC0FFD1F91E09D
:101570009283DF91CF911F910F91FF90EF90DF90B9
:10158000CF90BF90AF900895AF92BF92CF92DF926D
:10159000EF92FF920F931F93CF93DF93EC01E881BB
:1015A000F9813697808191818C0F9D1FFC012285E6
:1015B000322F377F323131F0203221F02A3211F0D0
:1015C00080E01FC0A12CB12C38E5C32E32E0D32E11
:1015D00048E5E42E42E0F42E00EB14E028E532E08A
:1015E00040E659E060E00E94D207882349F3E88191
:1015F000F98136970190F081E02DEC0FFD1F92E00C
:101600009283DF91CF911F910F91FF90EF90DF9028
:10161000CF90BF90AF900895AF92BF92CF92DF92DC
:10162000EF92FF920F931F93CF93DF93EC01E8812A
:10163000F98136978081918151E4A52E53E0B52E32
:1016400063ECC62E69E0D62E71E4E72E73E0F72E28
:1016500000E010E024E03DE044E05DE060E38C0F5A
:101660009D1F0E94D207882351F0E881F9813697A7
:101670000190F081E02DEC0FFD1F95E09283DF914A
:10168000CF911F910F91FF90EF90DF90CF90BF907F
:10169000AF900895AF92BF92CF92DF92EF92FF92F8
:1016A0000F931F93CF93DF93EC01E881F981369775
:1016B00080819181E4E3AE2EE2E0BE2EFCE9CF2EE4
:1016C000F6E0DF2EA4E3EA2EA2E0FA2E00E010E01E
:1016D00020EA31E140EA51E164E48C0F9D1F0E9451
:1016E000D207882351F0E881F98136970190F08183
:1016F000E02DEC0FFD1F97E09283DF91CF911F91BA
:101700000F91FF90EF90DF90CF90BF90AF90089532
:101710009F92AF92BF92CF92DF92EF92FF920F9380
:101720001F93CF93DF93EC01E881F9813697808195
:101730009181BDE0AB2EB2E0BB2E17E2C12E16E0C8
:10174000D12E0DE0E02E02E0F02E00E010E028E6C1
:1017500030E140ED50E264E28C0F9D1F0E94D20701
:10176000982E81113BC0E881F98136970190F08174
:10177000E02DEC0FFD1F8285823209F04AC020E087
:1017800030E04DE052E060E0CF010E94D2078823B4
:1017900009F43FC0E881F98136970190F081E02D8E
:1017A000EC0FFD1FA085B18518968D919C9119971E
:1017B0008D39944000F118968D919C911997823B38
:1017C0009740C8F443815481658176815068438392
:1017D00054836583768387818F5F8783E881F9816E
:1017E00036970190F081E02DEC0FFD1F86E082839B
:1017F000992493940EC018968D919C9119978938CD
:10180000914038F018968D919C91199782399240A9
:1018100010F3892DDF91CF911F910F91FF90EF90E1
:10182000DF90CF90BF90AF909F9008952F923F92FE
:101830004F925F926F927F928F929F92AF92BF92E0
:10184000CF92DF92EF92FF920F931F93CF93DF938C
:1018500000D01F92CDB7DEB77C015B016A01DC01CD
:10186000ED91FC91369700811181080F191FF80145
:1018700094848285981608F0BAC090858185E92FF6
:10188000F82FE90DF11DE90DF11D208131813B8318
:101890002A83892D809581708983812CBA0180E00B
:1018A00090E00E945D192B013C0120E030E040E413
:1018B0005FE30E94EB190E943119AA81BB81A61730
:1018C000B707B0F020E030E040EA5FE3C301B201C7
:1018D0000E94EB1920E030E040E85FE30E94CD1861
:1018E0000E943119EA81FB816E177F0708F064C0FE
:1018F0001601220C331CB10180E090E00E945D19BA
:101900002B013C0120E030E040E45FE30E94EB1952
:101910000E9431192A813B8126173707A8F020E061
:1019200030E040EA5FE3C301B2010E94EB1920E01E
:1019300030E040E85FE30E94CD180E943119AA818F
:10194000BB816A177B07D0F5B1016C0D7D1D80E06E
:1019500090E00E945D192B013C0120E030E040E462
:101960005FE30E94EB190E943119EA81FB81E617BF
:10197000F707A8F020E030E040EA5FE3C301B201DE
:101980000E94EB1920E030E040E85FE30E94CD18B0
:101990000E9431192A813B816217730788F4D801AC
:1019A0001B968C91882331F1B1E09B1226C0EA810D
:1019B000FB81EC15FD0520F591E003C092E001C02C
:1019C00093E0D5018C918F5F891710F48C931BC025
:1019D000F5011082D701ED91FC9136970190F081CD
:1019E000E02DEE0DFF1D84858F5F84870CC0B1E074
:1019F000B98308C0E2E0E98305C0F2E0F98302C0E0
:101A000022E02983812C8981982D0F900F900F90CF
:101A1000DF91CF911F910F91FF90EF90DF90CF90CA
:101A2000BF90AF909F908F907F906F905F904F90FE
:101A30003F902F9008950F931F93CF93DF93EC0166
:101A4000E881F98138970190F081E02DE80FF91FC6
:101A500082858D3008F4B1C081E08487E881F98106
:101A600036970190F081E02DEC0FFD1F1482158256
:101A7000168217821382E881F981369780819181DD
:101A80008C0F9D1FBC016D5F7F4F49E753E00E94A3
:101A9000160C892B09F091C0E881F98136970190E5
:101AA000F081E02DEC0FFD1F128288819981FC01ED
:101AB00038970190F081E02DEC0FFD1F34852285D1
:101AC000321708F05AC0FC013697808191818C0F43
:101AD0009D1FBC016D5F7F4F49E753E00E94160CCC
:101AE0008C01E881F9813697808191818C0F9D1F4F
:101AF000BC016D5F7F4F49E753E00E94160C013037
:101B00001105A9F4892B09F058C0E881F9813697AD
:101B10000190F081E02DEC0FFD1F4481558166811D
:101B20007781440F551F661F771F416016C0012B38
:101B300009F043C0019709F040C0E881F981369768
:101B40000190F081E02DEC0FFD1F448155816681ED
:101B50007781440F551F661F771F44835583668323
:101B60007783E881F98136970190F081E02DEC0FC1
:101B7000FD1F82818F5F828398CF8DE0878388816C
:101B80009981FC0138970190F081E02DEC0FFD1F49
:101B9000DC0116970D90BC91A02DAC0FBD1F1496C3
:101BA0008D919D910D90BC91A02D83839483A583ED
:101BB000B68383E0828381E001C080E0DF91CF9132
:101BC0001F910F910895EF92FF920F931F93CF9360
:101BD000DF93EC01E881F98138970190F081E02DE5
:101BE000E80FF91F8285811102C080E019C1838549
:101BF000A085B18581110EC012968D919C9113978D
:101C00008F3C974090F312968D919C91139786305C
:101C10009D4058F714968D919C9115978A39924062
:101C200020F314968D919C91159789359440E8F690
:101C300083E08487E881F98136970190F081E02D77
:101C4000EC0FFD1F14821582168217821382E88121
:101C5000F9813697808191818C0F9D1FBC016D5F4A
:101C60007F4F4CEB51E00E94160C892B09F0BDCF41
:101C7000E881F9813697808191818C0F9D1FBC018D
:101C80006D5F7F4F4CEB51E00E94160C019709F0FD
:101C9000ACCFE881F98136970190F081E02DEC0F0F
:101CA000FD1F1282A881B981FD0138970190F08152
:101CB000E02DEC0FFD1F948582851697981708F08C
:101CC0008AC08D919C918C0F9D1FBC016D5F7F4FD1
:101CD0004CEB51E00E94160C8C01E881F98136979B
:101CE0000190F081E02DEC0FFD1F82818330D9F04F
:101CF000E881F9813697808191818C0F9D1FBC010D
:101D00006D5F7F4F4CEB51E00E94160C7C01E88127
:101D1000F98136970190F081E02DEC0FFD1F828153
:101D20008330C9F40CC0BF016D5F7F4F4CEB51E0B5
:101D3000CF010E94160C08171907D1F256CFBF0128
:101D40006D5F7F4F4CEB51E0CF010E94160CE816FF
:101D5000F90609F04ACF01151105B1F4EA94EF280C
:101D600009F043CFE881F98136970190F081E02DA9
:101D7000EC0FFD1F4481558166817781440F551F0B
:101D8000661F771F416017C00130110509F02DCF84
:101D9000EF2809F02ACFE881F98136970190F08188
:101DA000E02DEC0FFD1F4481558166817781440F42
:101DB000551F661F771F4483558366837783E881A9
:101DC000F98136970190F081E02DEC0FFD1F8281A3
:101DD0008F5F828367CF0D90BC91A02DAC0FBD1F8C
:101DE00012968C91878388819981FC0138970190A4
:101DF000F081E02DEC0FFD1FDC0116970D90BC91DA
:101E0000A02DAC0FBD1F14968D919D910D90BC918E
:101E1000A02D83839483A583B68384E0828381E0AD
:101E2000DF91CF911F910F91FF90EF900895CF9385
:101E3000DF93EC01E881F9813A97808191818C0FE1
:101E40009D1F0E94500A811142C0E881F9813C9790
:101E5000808191818C0F9D1F0E94C40A811137C01F
:101E6000E881F9813E97808191818C0F9D1F0E94AE
:101E70001B0D81112CC0E881F981729780819181BD
:101E80008C0F9D1F0E94E30D811121C0E881F98113
:101E90007497808191818C0F9D1F0E940C0B811182
:101EA00016C0E881F9817897808191818C0F9D1F00
:101EB0000E944A0B81110BC0E881F98176978081DD
:101EC00091818C0F9D1FDF91CF910C94880B81E045
:101ED000DF91CF91089528E433E0FC013183208322
:101EE0006093D8041092DB0424E622830895EF92D5
:101EF000FF920F931F93CF93DF938C01EB017A0135
:101F0000E881F9810190F081E02DCB010995809164
:101F1000A8058A8740E08091A805481720F5A42FDE
:101F2000B0E0CD01880F991FE885F985E80FF91F0A
:101F3000DC01A052BB4F2D913C912E9DC0012F9DE5
:101F4000900D3E9D900D1124D80112962C9130E0F9
:101F500040FF03C0319521953109280F391F318386
:101F600020834F5FD8CF81E0DF91CF911F910F91F8
:101F7000FF90EF900895CF93DF93EC018091D80408
:101F800060E00E947414E881F9810190F081E02DF5
:101F9000CE01DF91CF9109948091DB04882339F041
:101FA0008091A80580FF02C02D9A08952D9808956C
:101FB0000E94BB0FF89482E08093B0008093B10040
:101FC00094E69093B3001092B200809370007894DE
:101FD00008952091D9043091DA042430310531F488
:101FE00042E350E00E94770F81E0089580E0089579
:101FF0001F920F920FB60F9211242F933F934F937E
:102000005F936F937F938F939F93AF93BF93EF9360
:10201000FF938091D8040E94E3144091DC04509116
:10202000DD046091DE047091DF044F5F5F4F6F4FFE
:102030007F4F4093DC045093DD046093DE04709383
:10204000DF042091A805243630F024E030E03093FE
:10205000DA042093D9042091D9043091DA04223093
:10206000310509F124F42130310549F07FC02330D6
:102070003105E1F12430310509F46EC077C0892BB8
:1020800009F074C08091DC049091DD04A091DE041D
:10209000B091DF0484369105A105B10508F45EC056
:1020A0001092A80525C0019709F060C0E091A8052D
:1020B00081E08E0F8093A805F0E08091DC04909180
:1020C000DD04A091DE04B091DF04EE0FFF1FE052AB
:1020D000FB4F918380831092DC041092DD041092F8
:1020E000DE041092DF0483E090E031C0892B01F51B
:1020F000E091A80581E08E0F8093A805F0E0809123
:10210000DC049091DD04A091DE04B091DF04EE0FB9
:10211000FF1FE052FB4F918380831092DC041092EA
:10212000DD041092DE041092DF0482E090E00FC024
:102130008091DC049091DD04A091DE04B091DF0475
:1021400085369105A105B10588F084E090E0909373
:10215000DA048093D9040AC0892B41F41092DC047C
:102160001092DD041092DE041092DF040E94CC0F66
:10217000FF91EF91BF91AF919F918F917F916F915F
:102180005F914F913F912F910F900FBE0F901F9035
:102190001895CF93C62F1092700061E083E00E94E3
:1021A000741460E083E00E94AD142C2F30E040E016
:1021B00050E060E47FE180E090E00E94841A81E0DA
:1021C0008093B00089E08093B1002093B3008BEA44
:1021D000289F212D112426952093B400CF91089596
:1021E00061E083E00E94741460E083E00C94AD141D
:1021F000CF93DF930097B1F081382EE3920770F010
:1022000068EE73E00E944E1AEB010E940514BE01B5
:1022100080E090E0DF91CF910C94DD13DF91CF91BE
:102220000C940514DF91CF9108950F931F93CF93D2
:10223000DF93EC018B01E0EBF0E080818062808332
:10224000CB010E94F810488159816A817B81400F3F
:10225000511F611D711D488359836A837B83DF9100
:10226000CF911F910F9108950F931F93CF93DF93F9
:10227000EC018B01E0EBF0E080818F7D8083CB016E
:102280000E94F810488159816A817B81400F511F5B
:10229000611D711D488359836A837B83DF91CF91D0
:1022A0001F910F9108952F923F924F925F926F92DC
:1022B0007F928F929F92AF92BF92CF92DF92EF92D6
:1022C000FF920F931F93CF93DF93CDB7DEB729977C
:1022D0000FB6F894DEBF0FBECDBF3C011A012B0133
:1022E0008E8D9F8D98878F8368A139A139878AA1A8
:1022F0009BA1ACA1BDA18B839C83AD83BE83D30185
:102300001D921D921D921C921397E22FF0E0FA830A
:10231000E98380E290E08E1B9F0B04C0220C331CEB
:10232000441C551C8A95D2F7C3010E94C91001159F
:10233000110521F0B801C3010E941511E114F10447
:1023400021F0B701C3010E94341100E010E029819F
:102350003A8102171307C4F457FE06C0B601C30141
:102360000E941511B40106C0B501C3010E941511E8
:102370006F817885C3010E943411220C331C441CE8
:10238000551C0F5F1F4FE3CF3985332321F0B60172
:10239000C3010E9415118B819C81AD81BE81892B67
:1023A0008A2B8B2B41F0D3018D919C916B817C8189
:1023B000681B790B01C0B401C30129960FB6F894CC
:1023C000DEBF0FBECDBFDF91CF911F910F91FF9068
:1023D000EF90DF90CF90BF90AF909F908F907F90C5
:1023E0006F905F904F903F902F900C943411DC01D0
:1023F000ED91FC91389720813181820F931F0C94CD
:10240000500ADC01ED91FC91389720813181820FD7
:10241000931F0C94C40ADC01ED91FC913897208144
:102420003181820F931F0C940C0BDC01ED91FC9118
:10243000389720813181820F931F0C944A0BDC0165
:10244000ED91FC91389720813181820F931F0C947C
:10245000880BDC01ED91FC91389720813181820F4E
:10246000931F0C941B0DDC01ED91FC91389720819A
:102470003181820F931F0C94E30DDC01ED91FC91EF
:10248000389720813181820F931F0C94170FDC0144
:10249000ED91FC913A9720813181820F931F0C942A
:1024A000170F0F931F93CF93DF93EC01662359F01F
:1024B0000E94AE1369837A838B839C83DF91CF91D3
:1024C0001F910F9108950E94AE1309811A812B81EB
:1024D0003C81601B710B820B930B6233710581058C
:1024E000910530F763E070E080E090E00E94DD133A
:1024F000EACF60E00C945112FC0113AA14AA15AAA9
:1025000016AA1182128213821482411551056105A7
:10251000710521F0CB01BA010C94DD130895FB0184
:10252000BA01A901DC01D296FC93EE93D19726E083
:10253000CF010C94EF151F93CF93DF93EC01162F6F
:1025400060E573E089A99AA90E9467174AE050E004
:10255000612F89A99AA90E94561867E573E089A995
:102560009AA90E94671762E370E080E090E0DF9133
:10257000CF911F910C94DD131F93CF93DF93EC0148
:10258000162F8D81882389F189A99AA9DC01ED9103
:10259000FC910480F581E02D0995892BA9F307C0F2
:1025A0002637310519F12835310509F41D8289A92D
:1025B0009AA9DC01ED91FC910480F581E02D09954B
:1025C0001816190694F489A99AA9DC01ED91FC91D9
:1025D0000680F781E02D09959C01332723363105CC
:1025E000F9F6612FCE010E949B1283E6DF91CF9115
:1025F0001F9108950F931F93CF93DF931F92CDB731
:10260000DEB78C01662349F081E0F801858360E044
:10261000C80149830E94BC124981F80145830F908B
:10262000DF91CF911F910F91089508951F920F92FE
:102630000FB60F9211242F933F934F935F936F9395
:102640007F938F939F93AF93BF93EF93FF93E0910B
:102650001C01F0911D010995FF91EF91BF91AF9180
:102660009F918F917F916F915F914F913F912F91AA
:102670000F900FBE0F901F9018951F920F920FB6DC
:102680000F9211242F933F934F935F936F937F93F8
:102690008F939F93AF93BF93EF93FF93E0911E01AE
:1026A000F0911F010995FF91EF91BF91AF919F911B
:1026B0008F917F916F915F914F913F912F910F90EB
:1026C0000FBE0F901F9018951F920F920FB60F928A
:1026D00011242F933F938F939F93AF93BF93809138
:1026E000E1059091E205A091E305B091E4053091F8
:1026F000E00523E0230F2D3720F40196A11DB11D25
:1027000005C026E8230F0296A11DB11D2093E00508
:102710008093E1059093E205A093E305B093E4056F
:102720008091E5059091E605A091E705B091E80557
:102730000196A11DB11D8093E5059093E605A09338
:10274000E705B093E805BF91AF919F918F913F91BD
:102750002F910F900FBE0F901F9018952FB7F894E0
:102760006091E1057091E2058091E3059091E405A7
:102770002FBF08953FB7F8948091E5059091E60545
:10278000A091E705B091E80526B5A89B05C02F3FAD
:1027900019F00196A11DB11D3FBF6627782F892F23
:1027A0009A2F620F711D811D911D42E0660F771FE8
:1027B000881F991F4A95D1F70895CF92DF92EF9223
:1027C000FF92CF93DF936B017C010E94BA13EB0160
:1027D000C114D104E104F10489F00E94CB180E94D5
:1027E000BA136C1B7D0B683E734090F381E0C81AEE
:1027F000D108E108F108C851DC4FEACFDF91CF9151
:10280000FF90EF90DF90CF9008958230910538F0DF
:10281000880F991F880F991F05970197F1F7089561
:10282000789484B5826084BD84B5816084BD85B5AB
:10283000826085BD85B5816085BDEEE6F0E0808172
:1028400081608083E1E8F0E0108280818260808393
:10285000808181608083E0E8F0E080818160808316
:10286000E1EBF0E0808184608083E0EBF0E0808148
:1028700081608083EAE7F0E08081846080838081EA
:102880008260808380818160808380818068808392
:102890001092C1000895833081F028F4813099F0BE
:1028A0008230A1F008958730A9F08830B9F08430E3
:1028B000D1F4809180008F7D03C0809180008F775C
:1028C00080938000089584B58F7702C084B58F7D92
:1028D00084BD08958091B0008F7703C08091B000CF
:1028E0008F7D8093B0000895CF93DF9390E0FC013B
:1028F000E15DFE4F2491FC01ED5BFE4F8491882346
:1029000049F190E0880F991FFC01E559FE4FA59110
:10291000B4918F599E4FFC01C591D4919FB761111D
:1029200008C0F8948C91209582238C93888182230F
:102930000AC0623051F4F8948C91322F3095832381
:102940008C938881822B888304C0F8948C91822B8D
:102950008C939FBFDF91CF9108950F931F93CF93D7
:10296000DF931F92CDB7DEB7282F30E0F901E55E87
:10297000FE4F8491F901E15DFE4F1491F901ED5B89
:10298000FE4F04910023C9F0882321F069830E943F
:102990004B146981E02FF0E0EE0FFF1FEF59FE4F5F
:1029A000A591B4919FB7F8948C91611103C01095D3
:1029B000812301C0812B8C939FBF0F90DF91CF911A
:1029C0001F910F910895CF93DF93282F30E0F901E5
:1029D000E55EFE4F8491F901E15DFE4FD491F9016E
:1029E000ED5BFE4FC491CC2391F081110E944B14FA
:1029F000EC2FF0E0EE0FFF1FE95AFE4FA591B491C6
:102A00002C912D2381E090E021F480E002C080E051
:102A100090E0DF91CF910895FC01818D228D90E0AF
:102A2000805C9F4F821B91098F7399270895FC0149
:102A3000918D828D981731F0828DE80FF11D858D73
:102A400090E008958FEF9FEF0895FC01918D828DA6
:102A5000981761F0828DDF01A80FB11D5D968C91F2
:102A6000928D9F5F9F73928F90E008958FEF9FEFFD
:102A7000089589EA96E1892B49F080E090E0892B5E
:102A800029F00E94A91681110C9400000895FC0100
:102A9000848DDF01A80FB11DA35ABF4F2C91848DE7
:102AA00090E001968F739927848FA689B7892C931C
:102AB000A089B1898C9180648C93938D848D9813B7
:102AC00006C00288F389E02D80818F7D8083089580
:102AD000CF93DF93EC01888D8823C9F0EA89FB89C5
:102AE000808185FD05C0A889B9898C9186FD0FC0BC
:102AF0000FB607FCF5CF808185FFF2CFA889B98991
:102B00008C9185FFEDCFCE010E944715E7CFDF9175
:102B1000CF910895CF92DF92FF920F931F93CF939F
:102B2000DF931F92CDB7DEB76C0181E0D6015896D6
:102B30008C9358975B969C915B975C968C915C9775
:102B4000981307C05096ED91FC915197808185FDB7
:102B50002EC0F601038D10E00F5F1F4F0F7311277A
:102B6000F02EF601848DF81211C00FB607FCF9CFD4
:102B7000D6015096ED91FC915197808185FFF1CF60
:102B8000C60169830E9447156981EBCF838DE80FE9
:102B9000F11DE35AFF4F6083D6015B960C935B9760
:102BA0005296ED91FC915397808180620CC0D601C2
:102BB0005696ED91FC91579760835096ED91FC915C
:102BC000519780818064808381E090E00F90DF9155
:102BD000CF911F910F91FF90DF90CF900895BF92FA
:102BE000CF92DF92EF92FF92CF93DF93EC016A01D5
:102BF0007B01B22EE889F98982E08083411581EE5C
:102C0000580761057105A1F060E079E08DE390E07F
:102C1000A70196010E94621A215031094109510908
:102C20005695479537952795211580E1380798F0F7
:102C3000E889F989108260E874E88EE190E0A701E4
:102C400096010E94621A2150310941095109569595
:102C5000479537952795EC85FD853083EE85FF8573
:102C60002083188EEC89FD89B082EA89FB898081F6
:102C700080618083EA89FB89808188608083EA891A
:102C8000FB89808180688083EA89FB8980818F7DD0
:102C90008083DF91CF91FF90EF90DF90CF90BF9036
:102CA00008951F920F920FB60F9211242F938F93B6
:102CB0009F93EF93FF93E091F905F091FA058081DE
:102CC000E091FF05F091000682FD12C09081809195
:102CD00002068F5F8F7320910306821751F0E091F7
:102CE0000206F0E0E751FA4F958F8093020601C08B
:102CF0008081FF91EF919F918F912F910F900FBE47
:102D00000F901F9018951F920F920FB60F921124DB
:102D10002F933F934F935F936F937F938F939F93E3
:102D2000AF93BF93EF93FF9389EE95E00E94471511
:102D3000FF91EF91BF91AF919F918F917F916F9193
:102D40005F914F913F912F910F900FBE0F901F9069
:102D5000189589EE95E00E940C1521E0892B09F465
:102D600020E0822F08951092EC051092EB0588EE7A
:102D700093E0A0E0B0E08093ED059093EE05A09382
:102D8000EF05B093F0058CEA93E09093EA05809309
:102D9000E90585EC90E09093F6058093F50584ECC9
:102DA00090E09093F8058093F70580EC90E0909385
:102DB000FA058093F90581EC90E09093FC058093EF
:102DC000FB0582EC90E09093FE058093FD0586EC78
:102DD00090E0909300068093FF05109202061092F7
:102DE00003061092040610920506089508950E94A5
:102DF00010140E94F6160E94B702C9E3D5E10E94A2
:102E0000B3032097E1F30E943915F9CFCF92DF92F7
:102E1000EF92FF920F931F93CF93DF937C016A0190
:102E2000EB0100E010E00C151D0571F06991D70170
:102E3000ED91FC910190F081E02DC7010995892B5E
:102E400019F00F5F1F4FEFCFC801DF91CF911F9196
:102E50000F91FF90EF90DF90CF900895611571056D
:102E600081F0DB010D900020E9F7AD0141505109DF
:102E7000461B570BDC01ED91FC910280F381E02DA4
:102E8000099480E090E00895EF92FF920F931F93D2
:102E9000CF93DF938C017B01C0E0D0E0F701EC0F12
:102EA000FD1F6491662359F0F801A081B181ED9175
:102EB000FC91C8010995892B11F02196EFCFCE0125
:102EC000DF91CF911F910F91FF90EF9008950C9497
:102ED0002E17DC01ED91FC910190F081E02D099419
:102EE0006DE573E00C942E170F931F93CF93DF9330
:102EF000EC010E9444178C01CE010E947017800FD4
:102F0000911FDF91CF911F910F9108958F929F9202
:102F1000AF92BF92CF92DF92EF92FF920F931F93E7
:102F2000CF93DF93CDB7DEB7A1970FB6F894DEBF8E
:102F30000FBECDBF7C01C42EE52FCB01D22E19A22E
:102F400021E02D1510F02AE0D22E8E010F5D1F4FCB
:102F50008D2C912CA12CB12C6C2D7E2FA5019401D0
:102F60000E94621A8C2DD29E8019112401501109E1
:102F70008A3014F4805D01C0895CF80180832115DA
:102F800031054105510521F0C22EE32FCA01E4CFDE
:102F9000B801C7010E942E17A1960FB6F894DEBFA4
:102FA0000FBECDBFDF91CF911F910F91FF90EF909A
:102FB000DF90CF90BF90AF909F908F900895CF9269
:102FC000DF92EF92FF920F931F93CF93DF93EC0169
:102FD0006A017B012115310579F4E881F9810190BD
:102FE000F081E02D642FDF91CF911F910F91FF9021
:102FF000EF90DF90CF9009942A303105E9F477FF04
:103000001AC06DE20E9469178C0144275527BA0146
:103010004C195D096E097F092AE0CE010E948617CE
:10302000800F911FDF91CF911F910F91FF90EF9033
:10303000DF90CF9008952AE0B701A601CE01DF917D
:10304000CF911F910F91FF90EF90DF90CF900C9454
:1030500086179A01AB01662757FD6095762F0C9471
:10306000DF170F931F93CF93DF93EC019A01AB010E
:10307000662757FD6095762F0E94DF178C01CE01E1
:103080000E947017800F911FDF91CF911F910F91B8
:1030900008952115310541F4DC01ED91FC91019079
:1030A000F081E02D642F09940C9486179A01462F25
:1030B00050E060E070E00C9449189A01AB0160E0C8
:1030C00070E00C9449180F931F93CF93DF93EC019A
:1030D0009A01AB0160E070E00E9449188C01CE01BA
:1030E0000E947017800F911FDF91CF911F910F9158
:1030F00008950F931F93CF93DF93EC010E9449181B
:103100008C01CE010E947017800F911FDF91CF912B
:103110001F910F910895CF93DF9300D000D0CDB7CA
:10312000DEB79B01AC01611571058105910569F060
:1031300069833A834B835C830E94121B29813A8105
:103140004B815C810E94841A03C060E070E0CB0177
:103150000F900F900F900F90DF91CF910895CF9225
:10316000DF92EF92FF926B017C0162177307840775
:10317000950764F4CA01B9016C197D098E099F098C
:103180000E948B186C0D7D1D8E1D9F1DFF90EF9072
:10319000DF90CF90089508955058BB27AA270ED0EE
:1031A000E0C0D1D030F0D6D020F031F49F3F11F400
:1031B0001EF4C6C00EF4E095E7FBBCC0E92FE2D0D8
:1031C00080F3BA17620773078407950718F071F444
:1031D0009EF5FAC00EF4E0950B2EBA2FA02D0B0130
:1031E000B90190010C01CA01A0011124FF27591B4C
:1031F00099F0593F50F4503E68F11A16F040A22F52
:10320000232F342F4427585FF3CF469537952795C2
:10321000A795F0405395C9F77EF41F16BA0B620BC1
:10322000730B840BBAF09150A1F0FF0FBB1F661F08
:10323000771F881FC2F70EC0BA0F621F731F841F4B
:1032400048F4879577956795B795F7959E3F08F071
:10325000B3CF9395880F08F09927EE0F9795879530
:10326000089598D088F09F5790F0B92F9927B751BB
:10327000A0F0D1F0660F771F881F991F1AF0BA953A
:10328000C9F712C0B13081F09FD0B1E008959CC061
:10329000672F782F8827B85F39F0B93FCCF3869530
:1032A00077956795B395D9F73EF49095809570958D
:1032B00061957F4F8F4F9F4F0895E89409C097FB0A
:1032C0003EF490958095709561957F4F8F4F9F4FFD
:1032D0009923A9F0F92F96E9BB279395F695879541
:1032E00077956795B795F111F8CFFAF4BB0F11F404
:1032F00060FF1BC06F5F7F4F8F4F9F4F16C08823AB
:1033000011F096E911C0772321F09EE8872F762FE0
:1033100005C0662371F096E8862F70E060E02AF021
:103320009A95660F771F881FDAF7880F969587950D
:1033300097F9089597F99F6780E870E060E0089535
:103340009FEF80EC089500240A94161617061806BD
:103350000906089500240A94121613061406050699
:103360000895092E0394000C11F4882352F0BB0F2A
:1033700040F4BF2B11F460FF04C06F5F7F4F8F4F8D
:103380009F4F089557FD9058440F551F59F05F3FC8
:1033900071F04795880F97FB991F61F09F3F79F077
:1033A00087950895121613061406551FF2CF4695F9
:1033B000F1DF08C0161617061806991FF1CF86957B
:1033C0007105610508940895E894BB27662777275F
:1033D000CB0197F908950BD0C4CFB5DF28F0BADF41
:1033E00018F0952309F0A6CFABCF1124EECFCADF9A
:1033F000A0F3959FD1F3950F50E0551F629FF00108
:10340000729FBB27F00DB11D639FAA27F00DB11D60
:10341000AA1F649F6627B00DA11D661F829F2227E9
:10342000B00DA11D621F739FB00DA11D621F839F70
:10343000A00D611D221F749F3327A00D611D231F46
:10344000849F600D211D822F762F6A2F11249F5794
:1034500050408AF0E1F088234AF0EE0FFF1FBB1FB7
:10346000661F771F881F91505040A9F79E3F510556
:1034700070F060CFAACF5F3FECF3983EDCF3869507
:1034800077956795B795F795E7959F5FC1F7FE2B01
:10349000880F911D9695879597F90895AA1BBB1BD8
:1034A00051E107C0AA1FBB1FA617B70710F0A61B44
:1034B000B70B881F991F5A95A9F780959095BC0165
:1034C000CD010895A1E21A2EAA1BBB1BFD010DC060
:1034D000AA1FBB1FEE1FFF1FA217B307E407F507C4
:1034E00020F0A21BB30BE40BF50B661F771F881FA0
:1034F000991F1A9469F760957095809590959B0136
:10350000AC01BD01CF010895052E97FB1EF4009478
:103510000E949B1A57FD07D00E94621A07FC03D035
:103520004EF40C949B1A50954095309521953F4F41
:103530004F4F5F4F089590958095709561957F4F9F
:103540008F4F9F4F0895EE0FFF1F0590F491E02DD0
:1035500009940E94B41AA59F900DB49F900DA49F4A
:10356000800D911D11240895A29FB001B39FC00149
:10357000A39F700D811D1124911DB29F700D811D9F
:103580001124911D08958F929F92AF92BF92CF9276
:10359000DF92EF92FF92CF93DF93EC016881798104
:1035A0008A819B81611571058105910521F464E291
:1035B00079ED8BE597E02DE133EF41E050E00E949B
:1035C000841A49015A019B01AC01A7EAB1E40E94A7
:1035D000A91A6B017C01ACEEB4EFA50194010E9425
:1035E000231BC60ED71EE81EF91EF7FE06C081E09B
:1035F000C81AD108E10880E8F80AC882D982EA82AC
:10360000FB82C701B6019F77DF91CF91FF90EF90CA
:10361000DF90CF90BF90AF909F908F9008950E94C1
:10362000C31A089580E091E00E94C31A0895609340
:1036300000017093010180930201909303010895AA
:10364000B7FF0C94A91A0E94A91A821B930B089524
:04365000F894FFCF1C
:103654000100000028006400C800F401D0076400E1
:10366400E803000090010000030000001513151387
:10367400564D4450565F317C315F564D4450560D83
:103684000A00EDFF00000000EFFF00000000F1FF62
:1036940000000000F3FF00000000F5FF0000000040
:1036A400F7FF00000000F9FF000000000200000026
:1036B40000009A019A01A001A601AC01B201B8016F
:1036C400BE01C40162015C01560150014A0144017A
:1036D4003E0138011500130011000F000D000B000E
:1036E40009000000020000000000F9FFF7FF0000DD
:1036F400F7FFF5FF0000F5FFF3FF0000F3FFF1FF14
:103704000000F1FFEFFF0000EFFFEDFF0000EDFF11
:10371400EBFF000000000000E905E7053F06E1FFBC
:10372400000000004A0B00001F0000001F00000002
:10373400E90515123F06E3FF00000000880B0000B6
:103744001D0000001D000000E9051F123F06E5FFF3
:10375400000000000C0B00001B0000001B00000018
:10376400E9050B123F06E7FFF8FF00000000E30D38
:10377400EFFF08000000000019000000190000001D
:10378400E90533123F06EFFF0000000000000000CF
:10379400000011000000E905E7053F06F1FF020003
:1037A400000000001B0DEFFFFEFF000000000F00F3
:1037B40000000F000000E90529123F06F3FF000096
:1037C4000000C40A00000D0000000D000000E9051F
:1037D40001123F06020000000000500A0000FEFF34
:1037E4000000FEFF0000E905F7113F06EC02EC02C1
:1037F400F802060312031A0324032E0338034203B8
:103804008A02960272027E0254025C0266023C0242
:1038140046021E022602300204021002EC01F801E4
:10382400D401E00121001F001D001B001300110042
:103834000F0000000000020000000000170F00004D
:10384400FEFF0000FEFF0000E9053D123F06F1FF08
:10385400F3FFF1FF00003D12EFFFF1FF0200EFFF65
:1038640000004712EFFFEDFF0000E5FFE7FFF8FF60
:10387400E5FF00004712E3FFE5FFE3FF00003D1210
:10388400E1FFE3FFE1FF00003D12DFFFE1FFDFFFA7
:1038940000003D1200000000F20500000000F505E4
:1038A400564D4450435F005F564D4450430D0A004B
:1038B4004572726F723A20417474656D707420742D
:1038C4006F20736574206120726561642D6F6E6C66
:1038D40079207661726961626C65206F722064611F
:1038E40074612074797065206E6F742073757070C4
:1038F4006F727465640D0A00000000008A150617D3
:103904000C152515171568156E616E00696E660035
:063914006F7666002E0034
:00000001FF
