:100000000C94BD000C9410100C9437100C94E50067
:100010000C94E5000C94E5000C94E5000C94F20CB3
:100020000C94E5000C94E5000C94E5000C94E500BC
:100030000C94E5000C94E5000C94E5000C94E500AC
:100040000C945E100C94E5000C944B130C947D13EF
:100050000C94E5000C94E5000C94E5000C94E5008C
:100060000C94E5000C94E50009206D61783A00538A
:1000700070616365206D696E3A0009206D61783AA0
:10008000004D61726B20206D696E3A004578746591
:100090006E743D0009200009002073003A6D0020B5
:1000A0002073002020486561643A206D00293A20C1
:1000B0004761703A005261772073616D706C6573AF
:1000C000280020626974732900202800293A2056EC
:1000D000616C75653A0028004465636F646564204F
:1000E000004861736820436F6465004E45437800A3
:1000F0004A56430050616E61736F6E6963204F6CA6
:1001000064005243360052433500536F6E79004EFF
:10011000454300556E6B6E6F776E0000000008005F
:1001200002010000030407000000000000000001BD
:10013000020408102040800102040810200102047B
:10014000081020040404040404040402020202024D
:100150000203030303030300000000230026002919
:100160000000000000250028002B000000000024F3
:100170000027002A00009E02AD1311241FBECFEFFE
:10018000D8E0DEBFCDBF13E0A0E0B1E0EAECFEE2D4
:1001900002C005900D92A03BB107D9F726E0A0EB75
:1001A000B3E001C01D92A536B207E1F711E0CAE73E
:1001B000D1E004C02297FE010E945F17C637D10725
:1001C000C9F70E94F1130C9463170C940000CF93AD
:1001D000DF93EC0102960E94B604E5E8F2E0A48900
:1001E000B58916970D90BC91A02DAC0FBD1F8689C7
:1001F00097898D939C93A08DB18D16970D90BC918E
:10020000A02DAC0FBD1F828D938D50969C938E9325
:100210001F97A2A1B3A116970D90BC91A02DAC0F72
:10022000BD1F84A195A154969C938E935397CE01A4
:100230004196248D358DD90116970D90BC91A02D36
:10024000A80FB91F468D578D4D935C93D901189710
:100250000D90BC91A02DA80FB91F80A191A18D93E5
:100260009C93CE014B9626A137A1D90116970D90EC
:10027000BC91A02DA80FB91F40A551A54D935C932B
:10028000D90118970D90BC91A02DA80FB91F82A578
:1002900093A58D939C93A4A5B5A516970D90BC919D
:1002A000A02DAC0FBD1F86A597A55E969C938E933F
:1002B0005D97A0A9B1A916970D90BC91A02DAC0F88
:1002C000BD1F82A993A990969C938E935F97A4A932
:1002D000B5A916970D90BC91A02DAC0FBD1F86A996
:1002E00097A992969C938E93919785ED92E099832E
:1002F000888381EE92E09B838A838FEE92E0988BD5
:100300008F878BEF92E09A8B898B83E093E09C8BB5
:100310008B8B8DE093E09C8F8B8F87E193E09E8F9A
:100320008D8F81E293E098A38F8F8BE293E09AA365
:1003300089A3DF91CF91089540ED57E060E070E030
:1003400088E895E00E94760F20E835E240E050E032
:1003500068EC75E088E895E00E94890F88E895E0F0
:100360000E94730F69E071E08091B9059091BA0520
:100370000E9461146AE070E080E090E00E94D71073
:1003800041E060E088E895E00E94F40F61E08DE0D4
:100390000E946E1160E082E00E946E1126E040E84B
:1003A00055E260E070E088EC95E00E94E91285ED8E
:1003B00093E00E94D20C6FEE73E084EB93E00C9418
:1003C000C8048F929F92AF92BF92CF92DF92EF922A
:1003D000FF920F931F9364EB73E085ED93E00E940F
:1003E000E30C8823C9F161E08DE00E94A71185ED3F
:1003F00093E00E94EF0244E8A42E43E0B42E54E7B9
:10040000C52E5EE0D52E64E8E62E63E0F62E00E011
:1004100010E024E833E040E757E16CE084EB93E040
:100420000E94CC04682F70E04AE050E088EC95E030
:100430000E942B154091B7035091B8036091B90306
:100440007091BA0320E130E088EC95E00E947315CA
:1004500084EB93E00E94390382E00E94DD119093C7
:10046000B1038093B003019709F04CC08091000163
:10047000882309F458C01092000161E08DE00E94C9
:10048000A711409101015091020160910301709107
:1004900004011F921F921F921F9281E08F9388E3A5
:1004A0008F9383E08F9384E88F9384E7882E8EE088
:1004B000982E94E8A92E93E0B92E24E8C22E23E0CA
:1004C000D22E34E8E32E33E0F32E00E717E124E0E8
:1004D0008AED93E00E944D0E8DB79EB708960FB639
:1004E000F8949EBF0FBE8DBF85ED93E01F910F91D5
:1004F000FF90EF90DF90CF90BF90AF909F908F9044
:100500000C94D20C81E08093000160E08DE01F919B
:100510000F91FF90EF90DF90CF90BF90AF909F90A2
:100520008F900C94A7111F910F91FF90EF90DF9087
:10053000CF90BF90AF909F908F9008958AED93E0F9
:100540000E94EA0D83E891E09093D9038093D80349
:1005500089E891E09093E2038093E1038FE891E0D2
:100560009093E4038093E30385E991E09093E6039D
:100570008093E5038BE991E09093E8038093E70390
:1005800081EA91E09093EA038093E90387EA91E09E
:100590009093EC038093EB038DEA91E09093EE034C
:1005A0008093ED036BE085ED93E00E94650C87E39B
:1005B00093E09093D6038093D50382EB93E00C9461
:1005C000E70080E00895FC011282138214821582F4
:1005D000168217821286089510928705089581E089
:1005E00090E09093B9048093B80410928705089521
:1005F000CF93DF93CDB7DEB762970FB6F894DEBF27
:100600000FBECDBF89300CF080E023E131E03A83AA
:1006100029832FE031E03C832B832AE031E03E83C5
:100620002D8326E031E038872F8322E031E03A87BE
:10063000298724EF30E03C872B8720EF30E03E878E
:100640002D872BEE30E0388B2F8721EE30E03A8B70
:10065000298BE82FEE0FFF0BEC0FFD1F818192819C
:1006600062960FB6F894DEBF0FBECDBFDF91CF917B
:1006700008952F923F924F925F926F927F928F9246
:100680009F92AF92BF92CF92DF92EF92FF920F9321
:100690001F93CF93DF93EC018A81893074F568ED65
:1006A00070E088EC95E00E943E148A810E94F80276
:1006B000BC0188EC95E00E943E1466ED70E088EC89
:1006C00095E00E943E146A81772767FD70954AE0A5
:1006D00050E088EC95E00E9423156CEC70E088EC0B
:1006E00095E00E943E144B815C816D817E8120E10A
:1006F00030E088EC95E00E94431569EC70E088ECEE
:1007000095E00E943E144AE050E06F8188EC95E04D
:100710000E94501562EC70E088EC95E00E946E1427
:1007200065EB70E088EC95E00E943E144AE050E0F2
:100730006A8588EC95E00E9450156DEA70E088ECBF
:1007400095E00E943E14E885F985608171814AE058
:1007500050E088EC95E00E945D1563EA70E088EC5B
:1007600095E00E943E14E885F985628173814AE034
:1007700050E088EC95E00E9457156FE970E088EC36
:1007800095E00E943E14E885F985648175814AE010
:1007900050E088EC95E00E945D15E885F98582813E
:1007A000938144805580480E591E612C712CC12CB8
:1007B000D12C212C312CAA24AA943FE7B32E8824D3
:1007C0008A944FE7942E53E0E52EF12C8A8590E031
:1007D000E816F9060CF06EC0E885F985C701880FA8
:1007E000991FE80FF91F00811181C801AA2797FD01
:1007F000A095BA2F480E591E6A1E7B1EE0FE16C039
:100800000A151B050CF45801C016D1060CF468013A
:10081000B70175956795615071094AE050E088EC21
:1008200095E00E9423156CE970E00DC010161106CA
:1008300024F4081519050CF44801201631060CF4AF
:10084000180169E970E088EC95E00E943E144AE0E6
:1008500050E0B80188EC95E00E9423158701015013
:10086000110900FF06C067E970E088EC95E00E947E
:100870003E14C80183709927019731F464E970E050
:1008800088EC95E00E943E14C80187709927019773
:1008900021F488EC95E00E946A140F711127013051
:1008A000110521F488EC95E00E946A148FEFE81A94
:1008B000F80A8CCF88EC95E00E946A146CE870E02E
:1008C00088EC95E00E943E142AE030E0B301A201DA
:1008D00088EC95E00E94731561E870E088EC95E083
:1008E0000E943E144AE050E0B50188EC95E00E9479
:1008F00023156AE770E088EC95E00E943E144AE018
:1009000050E0B60188EC95E00E942B156FE670E090
:1009100088EC95E00E943E144AE050E0B40188EC77
:1009200095E00E94231568E670E088EC95E00E944F
:100930003E144AE050E0B10188EC95E00E942B158E
:1009400088EC95E0DF91CF911F910F91FF90EF9090
:10095000DF90CF90BF90AF909F908F907F906F90DF
:100960005F904F903F902F900C946A14FC0181EBA4
:1009700091E0918380838FEB94E091878087138649
:1009800012821382148215821682178212860895AB
:10099000FC017187608708952F923F924F925F927A
:1009A0006F927F928F929F92AF92BF92CF92DF927F
:1009B000EF92FF920F931F93CF93DF93CDB7DEB7E4
:1009C0002E970FB6F894DEBF0FBECDBF1C013A873D
:1009D0002987BE82AD8281E0D1011C968C931C9741
:1009E000662321F01A968C91861388C1F1019384B5
:1009F00091103AC041155105B9F1A084B184D501D7
:100A000012960D90BC91A02DBA83A983BA0180E003
:100A100090E00E9417162B013C0120E030E040E4FA
:100A20005FE30E94A5160E94EB15E981FA81E617A3
:100A3000F70708F415C2D5011296AD90BC90139734
:100A400020E030E040EA5FE3C301B2010E94A51656
:100A500020E030E040E85FE30E9487150E94EB153C
:100A60006A157B0508F4FCC182E0F10184872985C1
:100A70003A852115310589F1A084B184D5011496F8
:100A80008D909C901597B90180E090E00E94171618
:100A90002B013C0120E030E040E45FE30E94A5161A
:100AA0000E94EB158616970608F428C1F501A4806C
:100AB000B58020E030E040EA5FE3C301B2010E946C
:100AC000A51620E030E040E85FE30E9487150E9411
:100AD000EB156A157B0508F411C1D1011A966C90CB
:100AE0000115110509F463C0812C912C5401C60134
:100AF000A0E0B0E089839A83AB83BC83C801A0E007
:100B0000B0E08D839E83AF83B887C701A0E0B0E0DB
:100B100089879A87AB87BC87D1011C967C90272D4B
:100B200030E07614D8F5D10118964D905C90199765
:100B3000F901EE0FFF1FE40DF51DFE87ED87008123
:100B4000118169817A818B819C810E9417166B01CA
:100B50007C0120E030E040E45FE30E94A5160E94A3
:100B6000EB150617170708F4C9C0AD85BE850D91B2
:100B70001C9120E030E040EA5FE3C701B6010E942B
:100B8000A51620E030E040E85FE30E9487150E9450
:100B9000EB156017710708F07BC0B0C0C901019761
:100BA00097FDC90195958795F101878369C06A947E
:100BB00083E0D1011C968C93812C912C5401C701A8
:100BC000A0E0B0E089839A83AB83BC83C601A0E038
:100BD000B0E089879A87AB87BC87AD81BE81CD01A4
:100BE000A0E0B0E08D839E83AF83B887F101748469
:100BF000272D30E07614D0F5F10140845184C901ED
:100C0000880F991F840D951D9E878D87DC010D919E
:100C10001C9169817A818B819C810E9417166B01DE
:100C20007C0120E030E040E45FE30E94A5160E94D2
:100C3000EB150617170708F461C0ED85FE850081E6
:100C4000118120E030E040EA5FE3C701B6010E9475
:100C5000A51620E030E040E85FE30E9487150E947F
:100C6000EB156017710708F087C048C0C9010197EC
:100C700097FDC901959587958150D10117968C9361
:100C8000F10183829482A582B68299249394E8C06C
:100C900081E0870DD1011C968C938201080F111DF4
:100CA000080F111DF801408051806D817E818F8178
:100CB00098850E9417166B017C0120E030E040E42B
:100CC0005FE30E94A5160E94EB1546165706C0F476
:100CD000D8014D905C9069857A858B859C850E94B2
:100CE00017166B017C0120E030E040E45FE30E94D6
:100CF000A5160E94EB154616570618F5912CB0C0A4
:100D0000F8014080518020E030E040EA5FE3C70115
:100D1000B6010E94A51620E030E040E85FE30E94A3
:100D200087150E94EB156415750590F2880C991CC7
:100D3000AA1CBB1C689480F873947394F1017486A8
:100D4000EBCED8010D911C9120E030E040EA5FE34A
:100D5000C701B6010E94A51620E030E040E85FE33D
:100D60000E9487150E94EB156017710738F2880CF6
:100D7000991CAA1CBB1CE0CF81E0870DF101848780
:100D80008201080F111D080F111DD8014D905C90B4
:100D900069857A858B859C850E9417166B017C017D
:100DA00020E030E040E45FE30E94A5160E94EB15CE
:100DB0004616570610F1D8014D905C9020E030E0C7
:100DC00040EA5FE3C701B6010E94A51620E030E0CB
:100DD00040E85FE30E9487150E94EB1564157505D6
:100DE00060F0880C991CAA1CBB1C689480F8739452
:100DF0007394D1011C967C92F9CEF8014080518009
:100E00006D817E818F8198850E9417166B017C0110
:100E100020E030E040E45FE30E94A5160E94EB155D
:100E20004616570608F46ACFF8010081118120E0C8
:100E300030E040EA5FE3C701B6010E94A51620E05A
:100E400030E040E85FE30E9487150E94EB156017D1
:100E5000710708F453CF880C991CAA1CBB1CC7CF80
:100E6000892D2E960FB6F894DEBF0FBECDBFDF9151
:100E7000CF911F910F91FF90EF90DF90CF90BF9097
:100E8000AF909F908F907F906F905F904F903F902A
:100E90002F900895AF92BF92CF92DF92EF92FF9280
:100EA0000F931F93CF93DF93EC01E881F98136977D
:100EB0000190F081E02DE80FF91F8285843089F5DB
:100EC000A085B18514968D919C9115978739964090
:100ED00040F114968D919C9115978E3F9A4008F59C
:100EE00016968D919C911797873A9140D0F016965F
:100EF0008D919C911797833C924098F41782E881DA
:100F0000F98136970190F081E02DEC0FFD1F8FEFF6
:100F10009FEFDC0183839483A583B68381E0828382
:100F200022C084E3A82E82E0B82E9CE9C92E96E068
:100F3000D92E24E3E22E22E0F22E00E010E020EA97
:100F400031E140E453E264E4CF010E94CC04882301
:100F500051F0E881F98136970190F081E02DEC0F96
:100F6000FD1F91E09283DF91CF911F910F91FF9030
:100F7000EF90DF90CF90BF90AF900895AF92BF9267
:100F8000CF92DF92EF92FF920F931F93CF93DF9355
:100F9000EC01E881F9813697808191818C0F9D1F4A
:100FA000FC012285322F377F323131F0203221F09F
:100FB0002A3211F080E01FC0A12CB12C38E5C32EDD
:100FC00032E0D32E48E5E42E42E0F42E00EB14E0AC
:100FD00028E532E040E659E060E00E94CC04882336
:100FE00049F3E881F98136970190F081E02DEC0F0B
:100FF000FD1F92E09283DF91CF911F910F91FF909F
:10100000EF90DF90CF90BF90AF900895AF92BF92D6
:10101000CF92DF92EF92FF920F931F93CF93DF93C4
:10102000EC01E881F98136978081918151E4A52E08
:1010300053E0B52E63ECC62E69E0D62E71E4E72EA0
:1010400073E0F72E00E010E024E03DE044E05DE0D6
:1010500060E38C0F9D1F0E94CC04882351F0E8812F
:10106000F98136970190F081E02DEC0FFD1F95E09E
:101070009283DF91CF911F910F91FF90EF90DF90BE
:10108000CF90BF90AF900895AF92BF92CF92DF9272
:10109000EF92FF920F931F93CF93DF93EC01E881C0
:1010A000F981369780819181E4E3AE2EE2E0BE2E95
:1010B000FCE9CF2EF6E0DF2EA4E3EA2EA2E0FA2E22
:1010C00000E010E020EA31E140EA51E164E48C0FF5
:1010D0009D1F0E94CC04882351F0E881F981369746
:1010E0000190F081E02DEC0FFD1F97E09283DF91DE
:1010F000CF911F910F91FF90EF90DF90CF90BF9015
:10110000AF9008959F92AF92BF92CF92DF92EF92ED
:10111000FF920F931F93CF93DF93EC01E881F98146
:10112000369780819181BDE0AB2EB2E0BB2E17E2F5
:10113000C12E16E0D12E0DE0E02E02E0F02E00E0F0
:1011400010E028E630E140ED50E264E28C0F9D1F94
:101150000E94CC04982E81113BC0E881F98136971A
:101160000190F081E02DEC0FFD1F8285823209F0A5
:101170004AC020E030E04DE052E060E0CF010E9444
:10118000CC04882309F43FC0E881F98136970190A7
:10119000F081E02DEC0FFD1FA085B18518968D9193
:1011A0009C9119978D39944000F118968D919C91DE
:1011B0001997823B9740C8F44381548165817681B9
:1011C0005068438354836583768387818F5F8783E9
:1011D000E881F98136970190F081E02DEC0FFD1F39
:1011E00086E08283992493940EC018968D919C91E9
:1011F00019978938914038F018968D919C911997DC
:101200008239924010F3892DDF91CF911F910F9178
:10121000FF90EF90DF90CF90BF90AF909F90089598
:101220002F923F924F925F926F927F928F929F92F6
:10123000AF92BF92CF92DF92EF92FF920F931F93E4
:10124000CF93DF9300D01F92CDB7DEB77C015B0157
:101250006A01DC01ED91FC91369700811181080F44
:10126000191FF80194848285981608F0BAC09085F9
:101270008185E92FF82FE90DF11DE90DF11D208180
:1012800031813B832A83892D809581708983812CCC
:10129000BA0180E090E00E9417162B013C0120E08B
:1012A00030E040E45FE30E94A5160E94EB15AA819E
:1012B000BB81A617B707B0F020E030E040EA5FE35B
:1012C000C301B2010E94A51620E030E040E85FE3D0
:1012D0000E9487150E94EB15EA81FB816E177F073C
:1012E00008F064C01601220C331CB10180E090E0CC
:1012F0000E9417162B013C0120E030E040E45FE340
:101300000E94A5160E94EB152A813B8126173707FC
:10131000A8F020E030E040EA5FE3C301B2010E94A0
:10132000A51620E030E040E85FE30E9487150E94A8
:10133000EB15AA81BB816A177B07D0F5B1016C0D53
:101340007D1D80E090E00E9417162B013C0120E0FB
:1013500030E040E45FE30E94A5160E94EB15EA81AD
:10136000FB81E617F707A8F020E030E040EA5FE3F2
:10137000C301B2010E94A51620E030E040E85FE31F
:101380000E9487150E94EB152A813B816217730723
:1013900088F4D8011B968C91882331F1B1E09B121F
:1013A00026C0EA81FB81EC15FD0520F591E003C024
:1013B00092E001C093E0D5018C918F5F891710F402
:1013C0008C931BC0F5011082D701ED91FC913697EB
:1013D0000190F081E02DEE0DFF1D84858F5F8487E5
:1013E0000CC0B1E0B98308C0E2E0E98305C0F2E0D7
:1013F000F98302C022E02983812C8981982D0F90E6
:101400000F900F90DF91CF911F910F91FF90EF9070
:10141000DF90CF90BF90AF909F908F907F906F9014
:101420005F904F903F902F9008950F931F93CF930D
:10143000DF93EC01E881F98138970190F081E02D8C
:10144000E80FF91F82858D3008F4B1C081E08487F0
:10145000E881F98136970190F081E02DEC0FFD1FB6
:1014600014821582168217821382E881F9813697D9
:10147000808191818C0F9D1FBC016D5F7F4F49E77B
:1014800053E00E941009892B09F091C0E881F9818D
:1014900036970190F081E02DEC0FFD1F12828881BC
:1014A0009981FC0138970190F081E02DEC0FFD1F30
:1014B00034852285321708F05AC0FC0136978081A6
:1014C00091818C0F9D1FBC016D5F7F4F49E753E0F9
:1014D0000E9410098C01E881F98136978081918101
:1014E0008C0F9D1FBC016D5F7F4F49E753E00E9449
:1014F000100901301105A9F4892B09F058C0E881C1
:10150000F98136970190F081E02DEC0FFD1F4481A9
:10151000558166817781440F551F661F771F416093
:1015200016C0012B09F043C0019709F040C0E881C3
:10153000F98136970190F081E02DEC0FFD1F448179
:10154000558166817781440F551F661F771F44833D
:10155000558366837783E881F98136970190F0811E
:10156000E02DEC0FFD1F82818F5F828398CF8DE08D
:10157000878388819981FC0138970190F081E02D63
:10158000EC0FFD1FDC0116970D90BC91A02DAC0F48
:10159000BD1F14968D919D910D90BC91A02D8383BC
:1015A0009483A583B68383E0828381E001C080E0D9
:1015B000DF91CF911F910F910895EF92FF920F93BA
:1015C0001F93CF93DF93EC01E881F9813897019065
:1015D000F081E02DE80FF91F8285811102C080E0C3
:1015E00019C18385A085B18581110EC012968D9198
:1015F0009C9113978F3C974090F312968D919C91FC
:10160000139786309D4058F714968D919C911597AD
:101610008A39924020F314968D919C9115978935C3
:101620009440E8F683E08487E881F9813697019059
:10163000F081E02DEC0FFD1F1482158216821782B7
:101640001382E881F9813697808191818C0F9D1FEB
:10165000BC016D5F7F4F4CEB51E00E941009892B5C
:1016600009F0BDCFE881F9813697808191818C0F97
:101670009D1FBC016D5F7F4F4CEB51E00E94100934
:10168000019709F0ACCFE881F98136970190F0819C
:10169000E02DEC0FFD1F1282A881B981FD01389762
:1016A0000190F081E02DEC0FFD1F94858285169747
:1016B000981708F08AC08D919C918C0F9D1FBC01DA
:1016C0006D5F7F4F4CEB51E00E9410098C01E88167
:1016D000F98136970190F081E02DEC0FFD1F82819A
:1016E0008330D9F0E881F9813697808191818C0F20
:1016F0009D1FBC016D5F7F4F4CEB51E00E941009B4
:101700007C01E881F98136970190F081E02DEC0FA2
:10171000FD1F82818330C9F40CC0BF016D5F7F4F14
:101720004CEB51E0CF010E94100908171907D1F2C4
:1017300056CFBF016D5F7F4F4CEB51E0CF010E9450
:101740001009E816F90609F04ACF01151105B1F4A0
:10175000EA94EF2809F043CFE881F98136970190A8
:10176000F081E02DEC0FFD1F44815581668177816A
:10177000440F551F661F771F416017C001301105C8
:1017800009F02DCFEF2809F02ACFE881F9813697AB
:101790000190F081E02DEC0FFD1F448155816681A1
:1017A0007781440F551F661F771F448355836683D7
:1017B0007783E881F98136970190F081E02DEC0F75
:1017C000FD1F82818F5F828367CF0D90BC91A02D1A
:1017D000AC0FBD1F12968C91878388819981FC0183
:1017E00038970190F081E02DEC0FFD1FDC0116977A
:1017F0000D90BC91A02DAC0FBD1F14968D919D91A5
:101800000D90BC91A02D83839483A583B68384E03F
:10181000828381E0DF91CF911F910F91FF90EF9034
:101820000895CF93DF93EC01E881F9813A978081A5
:1018300091818C0F9D1F0E944A07811142C0E8814F
:10184000F9813C97808191818C0F9D1F0E94BE077A
:10185000811137C0E881F9813E97808191818C0F99
:101860009D1F0E94150A81112CC0E881F981729791
:10187000808191818C0F9D1F0E94DD0A811121C002
:10188000E881F9817497808191818C0F9D1F0E945E
:101890000608811116C0E881F981789780819181CD
:1018A0008C0F9D1F0E94440881110BC0E881F981B3
:1018B0007697808191818C0F9D1FDF91CF910C9441
:1018C000820881E0DF91CF91089521E333E0FC01AC
:1018D000318320836093B7041092BA0424E62283F4
:1018E0000895EF92FF920F931F93CF93DF938C0194
:1018F000EB017A01E881F9810190F081E02DCB01C3
:101900000995809187058A8740E08091870548176F
:1019100020F5A42FB0E0CD01880F991FE885F98547
:10192000E80FF91FDC01A154BB4F2D913C912E9D76
:10193000C0012F9D900D3E9D900D1124D80112964F
:101940002C9130E040FF03C0319521953109280FDB
:10195000391F318320834F5FD8CF81E0DF91CF9152
:101960001F910F91FF90EF900895CF93DF93EC01BB
:101970008091B70460E00E946E11E881F9810190C6
:10198000F081E02DCE01DF91CF9109948091BA04CE
:10199000882339F08091870580FF02C02D9A089531
:1019A0002D9808950E94B50CF89482E08093B000C1
:1019B0008093B10094E69093B3001092B2008093AC
:1019C0007000789408952091B8043091B9042430BF
:1019D000310531F442E350E00E94710C81E008953A
:1019E00080E008951F920F920FB60F9211242F934B
:1019F0003F934F935F936F937F938F939F93AF9397
:101A0000BF93EF93FF938091B7040E94DD11409143
:101A1000BB045091BC046091BD047091BE044F5F43
:101A20005F4F6F4F7F4F4093BB045093BC04609354
:101A3000BD047093BE0420918705243630F024E065
:101A400030E03093B9042093B8042091B804309169
:101A5000B9042230310509F124F42130310549F06F
:101A60007FC023303105E1F12430310509F46EC027
:101A700077C0892B09F074C08091BB049091BC049D
:101A8000A091BD04B091BE0484369105A105B105B5
:101A900008F45EC01092870525C0019709F060C068
:101AA000E091870581E08E0F80938705F0E08091BB
:101AB000BB049091BC04A091BD04B091BE04EE0F94
:101AC000FF1FE154FB4F918380831092BB0410925F
:101AD000BC041092BD041092BE0483E090E031C0BB
:101AE000892B01F5E091870581E08E0F80938705B2
:101AF000F0E08091BB049091BC04A091BD04B09132
:101B0000BE04EE0FFF1FE154FB4F918380831092C0
:101B1000BB041092BC041092BD041092BE0482E07B
:101B200090E00FC08091BB049091BC04A091BD04D3
:101B3000B091BE0485369105A105B10588F084E019
:101B400090E09093B9048093B8040AC0892B41F4C3
:101B50001092BB041092BC041092BD041092BE04FB
:101B60000E94C60CFF91EF91BF91AF919F918F9111
:101B70007F916F915F914F913F912F910F900FBE89
:101B80000F901F901895CF93C62F1092700061E0B0
:101B900083E00E946E1160E083E00E94A7112C2F69
:101BA00030E040E050E060E47FE180E090E00E94BF
:101BB0003E1781E08093B00089E08093B1002093CC
:101BC000B3008BEA289F212D112426952093B40081
:101BD000CF91089561E083E00E946E1160E083E0A0
:101BE0000C94A711CF93DF930097B1F081382EE3C7
:101BF000920770F068EE73E00E940817EB010E94F4
:101C0000FF10BE0180E090E0DF91CF910C94D710DF
:101C1000DF91CF910C94FF10DF91CF9108950F9336
:101C20001F93CF93DF93EC018B01E0EBF0E0808119
:101C300080628083CB010E94F20D488159816A81C4
:101C40007B81400F511F611D711D488359836A8339
:101C50007B83DF91CF911F910F9108950F931F9375
:101C6000CF93DF93EC018B01E0EBF0E080818F7D7F
:101C70008083CB010E94F20D488159816A817B816A
:101C8000400F511F611D711D488359836A837B83F7
:101C9000DF91CF911F910F9108952F923F924F9214
:101CA0005F926F927F928F929F92AF92BF92CF92EC
:101CB000DF92EF92FF920F931F93CF93DF93CDB7F5
:101CC000DEB729970FB6F894DEBF0FBECDBF3C013B
:101CD0001A012B018E8D9F8D98878F8368A139A162
:101CE00039878AA19BA1ACA1BDA18B839C83AD83C5
:101CF000BE83D3011D921D921D921C921397E22F59
:101D0000F0E0FA83E98380E290E08E1B9F0B04C031
:101D1000220C331C441C551C8A95D2F7C3010E9427
:101D2000C30D0115110521F0B801C3010E940F0E6A
:101D3000E114F10421F0B701C3010E942E0E00E06E
:101D400010E029813A8102171307C4F457FE06C038
:101D5000B601C3010E940F0EB40106C0B501C30154
:101D60000E940F0E6F817885C3010E942E0E220CF7
:101D7000331C441C551C0F5F1F4FE3CF39853323A1
:101D800021F0B601C3010E940F0E8B819C81AD81B1
:101D9000BE81892B8A2B8B2B41F0D3018D919C9195
:101DA0006B817C81681B790B01C0B401C30129964A
:101DB0000FB6F894DEBF0FBECDBFDF91CF911F915C
:101DC0000F91FF90EF90DF90CF90BF90AF909F90DA
:101DD0008F907F906F905F904F903F902F900C94DA
:101DE0002E0EDC01ED91FC91389720813181820F1C
:101DF000931F0C944A07DC01ED91FC9138972081E8
:101E00003181820F931F0C94BE07DC01ED91FC9190
:101E1000389720813181820F931F0C940608DC01D2
:101E2000ED91FC91389720813181820F931F0C94A2
:101E30004408DC01ED91FC91389720813181820FBB
:101E4000931F0C948208DC01ED91FC91389720815E
:101E50003181820F931F0C94150ADC01ED91FC91E6
:101E6000389720813181820F931F0C94DD0ADC01A9
:101E7000ED91FC91389720813181820F931F0C9452
:101E8000110CDC01ED91FC913A9720813181820F98
:101E9000931F0C94110C0F931F93CF93DF93EC01BE
:101EA000662359F00E94A81069837A838B839C83F0
:101EB000DF91CF911F910F9108950E94A810098181
:101EC0001A812B813C81601B710B820B930B623357
:101ED00071058105910530F763E070E080E090E0E6
:101EE0000E94D710EACF60E00C944B0FFC0113AABC
:101EF00014AA15AA16AA11821282138214824115FD
:101F000051056105710521F0CB01BA010C94D71080
:101F10000895FB01BA01A901DC01D296FC93EE936E
:101F2000D19726E0CF010C94E9121F93CF93DF9352
:101F3000EC01162F69E373E089A99AA90E94611444
:101F40004AE050E0612F89A99AA90E94501560E4E7
:101F500073E089A99AA90E94611462E370E080E0AD
:101F600090E0DF91CF911F910C94D7101F93CF93E6
:101F7000DF93EC01162F8D81882389F189A99AA915
:101F8000DC01ED91FC910480F581E02D0995892B10
:101F9000A9F307C02637310519F12835310509F4B1
:101FA0001D8289A99AA9DC01ED91FC910480F5813B
:101FB000E02D09951816190694F489A99AA9DC014F
:101FC000ED91FC910680F781E02D09959C01332766
:101FD00023363105F9F6612FCE010E94950F83E675
:101FE000DF91CF911F9108950F931F93CF93DF93AC
:101FF0001F92CDB7DEB78C01662349F081E0F8016E
:10200000858360E0C80149830E94B60F4981F801C9
:1020100045830F90DF91CF911F910F9108950895FF
:102020001F920F920FB60F9211242F933F934F934D
:102030005F936F937F938F939F93AF93BF93EF9330
:10204000FF93E0910501F09106010995FF91EF9151
:10205000BF91AF919F918F917F916F915F914F91C0
:102060003F912F910F900FBE0F901F9018951F92C8
:102070000F920FB60F9211242F933F934F935F93BC
:102080006F937F938F939F93AF93BF93EF93FF9340
:10209000E0910701F09108010995FF91EF91BF913F
:1020A000AF919F918F917F916F915F914F913F91F0
:1020B0002F910F900FBE0F901F9018951F920F92A7
:1020C0000FB60F9211242F933F938F939F93AF934B
:1020D000BF938091C0059091C105A091C205B091B8
:1020E000C3053091BF0523E0230F2D3720F401965F
:1020F000A11DB11D05C026E8230F0296A11DB11D2B
:102100002093BF058093C0059093C105A093C2059D
:10211000B093C3058091C4059091C505A091C605F3
:10212000B091C7050196A11DB11D8093C405909380
:10213000C505A093C605B093C705BF91AF919F9108
:102140008F913F912F910F900FBE0F901F90189578
:102150002FB7F8946091C0057091C1058091C205B8
:102160009091C3052FBF08953FB7F8948091C4059F
:102170009091C505A091C605B091C70526B5A89B4D
:1021800005C02F3F19F00196A11DB11D3FBF662765
:10219000782F892F9A2F620F711D811D911D42E0AA
:1021A000660F771F881F991F4A95D1F70895CF9220
:1021B000DF92EF92FF92CF93DF936B017C010E943D
:1021C000B410EB01C114D104E104F10489F00E94C0
:1021D00085150E94B4106C1B7D0B683E734090F314
:1021E00081E0C81AD108E108F108C851DC4FEACFF4
:1021F000DF91CF91FF90EF90DF90CF9008958230E4
:10220000910538F0880F991F880F991F059701973E
:10221000F1F70895789484B5826084BD84B58160B7
:1022200084BD85B5826085BD85B5816085BDEEE6DE
:10223000F0E0808181608083E1E8F0E010828081BD
:1022400082608083808181608083E0E8F0E080812B
:1022500081608083E1EBF0E0808184608083E0EB4B
:10226000F0E0808181608083EAE7F0E08081846033
:10227000808380818260808380818160808380818F
:10228000806880831092C1000895833081F028F423
:10229000813099F08230A1F008958730A9F088301C
:1022A000B9F08430D1F4809180008F7D03C080919B
:1022B00080008F7780938000089584B58F7702C067
:1022C00084B58F7D84BD08958091B0008F7703C061
:1022D0008091B0008F7D8093B0000895CF93DF93FD
:1022E00090E0FC01E15DFE4F2491FC01ED5BFE4FAF
:1022F0008491882349F190E0880F991FFC01E559EA
:10230000FE4FA591B4918F599E4FFC01C591D49178
:102310009FB7611108C0F8948C91209582238C930B
:10232000888182230AC0623051F4F8948C91322F54
:10233000309583238C938881822B888304C0F89402
:102340008C91822B8C939FBFDF91CF9108950F9337
:102350001F93CF93DF931F92CDB7DEB7282F30E0C6
:10236000F901E55EFE4F8491F901E15DFE4F1491A4
:10237000F901ED5BFE4F04910023C9F0882321F0A1
:1023800069830E9445116981E02FF0E0EE0FFF1F85
:10239000EF59FE4FA591B4919FB7F8948C916111BC
:1023A00003C01095812301C0812B8C939FBF0F9098
:1023B000DF91CF911F910F910895CF93DF93282F35
:1023C00030E0F901E55EFE4F8491F901E15DFE4FD9
:1023D000D491F901ED5BFE4FC491CC2391F08111B2
:1023E0000E944511EC2FF0E0EE0FFF1FE95AFE4F5F
:1023F000A591B4912C912D2381E090E021F480E00F
:1024000002C080E090E0DF91CF910895FC01818DC2
:10241000228D90E0805C9F4F821B91098F739927DA
:102420000895FC01918D828D981731F0828DE80F0F
:10243000F11D858D90E008958FEF9FEF0895FC01C9
:10244000918D828D981761F0828DDF01A80FB11DEB
:102450005D968C91928D9F5F9F73928F90E008950F
:102460008FEF9FEF089583EA93E1892B49F080E095
:1024700090E0892B29F00E94A31381110C94000095
:102480000895FC01848DDF01A80FB11DA35ABF4F31
:102490002C91848D90E001968F739927848FA68963
:1024A000B7892C93A089B1898C9180648C93938D8A
:1024B000848D981306C00288F389E02D80818F7D7A
:1024C00080830895CF93DF93EC01888D8823C9F032
:1024D000EA89FB89808185FD05C0A889B9898C912D
:1024E00086FD0FC00FB607FCF5CF808185FFF2CFC8
:1024F000A889B9898C9185FFEDCFCE010E94411248
:10250000E7CFDF91CF910895CF92DF92FF920F93A3
:102510001F93CF93DF931F92CDB7DEB76C0181E09D
:10252000D60158968C9358975B969C915B975C96D6
:102530008C915C97981307C05096ED91FC91519740
:10254000808185FD2EC0F601038D10E00F5F1F4FC7
:102550000F731127F02EF601848DF81211C00FB6FB
:1025600007FCF9CFD6015096ED91FC9151978081EF
:1025700085FFF1CFC60169830E9441126981EBCFCB
:10258000838DE80FF11DE35AFF4F6083D6015B9600
:102590000C935B975296ED91FC91539780818062EA
:1025A0000CC0D6015696ED91FC91579760835096DA
:1025B000ED91FC91519780818064808381E090E06F
:1025C0000F90DF91CF911F910F91FF90DF90CF90EF
:1025D0000895BF92CF92DF92EF92FF92CF93DF9355
:1025E000EC016A017B01B22EE889F98982E08083DF
:1025F000411581EE580761057105A1F060E079E0B1
:102600008DE390E0A70196010E941C17215031092B
:10261000410951095695479537952795211580E130
:10262000380798F0E889F989108260E874E88EE14B
:1026300090E0A70196010E941C1721503109410921
:1026400051095695479537952795EC85FD8530833B
:10265000EE85FF852083188EEC89FD89B082EA899A
:10266000FB89808180618083EA89FB898081886021
:102670008083EA89FB89808180688083EA89FB897D
:1026800080818F7D8083DF91CF91FF90EF90DF90ED
:10269000CF90BF9008951F920F920FB60F92112402
:1026A0002F938F939F93EF93FF93E091D805F09131
:1026B000D9058081E091DE05F091DF0582FD12C031
:1026C00090818091E1058F5F8F732091E2058217E1
:1026D00051F0E091E105F0E0E853FA4F958F8093D7
:1026E000E10501C08081FF91EF919F918F912F9122
:1026F0000F900FBE0F901F9018951F920F920FB65C
:102700000F9211242F933F934F935F936F937F9377
:102710008F939F93AF93BF93EF93FF9388EC95E0D4
:102720000E944112FF91EF91BF91AF919F918F91C4
:102730007F916F915F914F913F912F910F900FBEBD
:102740000F901F90189588EC95E00E94061221E0EA
:10275000892B09F420E0822F08951092CB05109266
:10276000CA0588EE93E0A0E0B0E08093CC0590939A
:10277000CD05A093CE05B093CF0585E993E0909366
:10278000C9058093C80585EC90E09093D5058093AA
:10279000D40584EC90E09093D7058093D60580EC27
:1027A00090E09093D9058093D80581EC90E09093C8
:1027B000DB058093DA0582EC90E09093DD05809351
:1027C000DC0586EC90E09093DF058093DE051092A7
:1027D000E1051092E2051092E3051092E4050895D8
:1027E00008950E940A110E94F0130E949C01C3E305
:1027F000D2E10E94E1012097E1F30E943312F9CF68
:10280000CF92DF92EF92FF920F931F93CF93DF93BC
:102810007C016A01EB0100E010E00C151D0571F070
:102820006991D701ED91FC910190F081E02DC701F4
:102830000995892B19F00F5F1F4FEFCFC801DF916A
:10284000CF911F910F91FF90EF90DF90CF9008955F
:102850006115710581F0DB010D900020E9F7AD01F4
:1028600041505109461B570BDC01ED91FC91028050
:10287000F381E02D099480E090E00895EF92FF92BB
:102880000F931F93CF93DF938C017B01C0E0D0E0C7
:10289000F701EC0FFD1F6491662359F0F801A08148
:1028A000B181ED91FC91C8010995892B11F0219618
:1028B000EFCFCE01DF91CF911F910F91FF90EF905D
:1028C00008950C942814DC01ED91FC910190F081A5
:1028D000E02D099466E473E00C9428140F931F9381
:1028E000CF93DF93EC010E943E148C01CE010E9435
:1028F0006A14800F911FDF91CF911F910F9108955E
:102900008F929F92AF92BF92CF92DF92EF92FF92FF
:102910000F931F93CF93DF93CDB7DEB7A1970FB679
:10292000F894DEBF0FBECDBF7C01C42EE52FCB01D6
:10293000D22E19A221E02D1510F02AE0D22E8E0100
:102940000F5D1F4F8D2C912CA12CB12C6C2D7E2F47
:10295000A50194010E941C178C2DD29E8019112470
:10296000015011098A3014F4805D01C0895CF801BE
:102970008083211531054105510521F0C22EE32F39
:10298000CA01E4CFB801C7010E942814A1960FB66E
:10299000F894DEBF0FBECDBFDF91CF911F910F9195
:1029A000FF90EF90DF90CF90BF90AF909F908F906F
:1029B0000895CF92DF92EF92FF920F931F93CF93E0
:1029C000DF93EC016A017B012115310579F4E8817F
:1029D000F9810190F081E02D642FDF91CF911F915B
:1029E0000F91FF90EF90DF90CF9009942A3031053E
:1029F000E9F477FF1AC06DE20E9463148C0144274A
:102A00005527BA014C195D096E097F092AE0CE01EC
:102A10000E948014800F911FDF91CF911F910F9121
:102A2000FF90EF90DF90CF9008952AE0B701A601C4
:102A3000CE01DF91CF911F910F91FF90EF90DF902A
:102A4000CF900C9480149A01AB01662757FD6095D6
:102A5000762F0C94D9140F931F93CF93DF93EC012F
:102A60009A01AB01662757FD6095762F0E94D91415
:102A70008C01CE010E946A14800F911FDF91CF91CB
:102A80001F910F9108952115310541F4DC01ED915D
:102A9000FC910190F081E02D642F09940C94801436
:102AA0009A01462F50E060E070E00C9443159A01C3
:102AB000AB0160E070E00C9443150F931F93CF932C
:102AC000DF93EC019A01AB0160E070E00E944315D6
:102AD0008C01CE010E946A14800F911FDF91CF916B
:102AE0001F910F9108950F931F93CF93DF93EC01E4
:102AF0000E9443158C01CE010E946A14800F911F21
:102B0000DF91CF911F910F91089508955058BB27E1
:102B1000AA270ED0E0C0D1D030F0D6D020F031F4CA
:102B20009F3F11F41EF4C6C00EF4E095E7FBBCC055
:102B3000E92FE2D080F3BA1762077307840795077D
:102B400018F071F49EF5FAC00EF4E0950B2EBA2F32
:102B5000A02D0B01B90190010C01CA01A0011124A3
:102B6000FF27591B99F0593F50F4503E68F11A164F
:102B7000F040A22F232F342F4427585FF3CF4695E0
:102B800037952795A795F0405395C9F77EF41F1602
:102B9000BA0B620B730B840BBAF09150A1F0FF0FCC
:102BA000BB1F661F771F881FC2F70EC0BA0F621FB8
:102BB000731F841F48F4879577956795B795F795A8
:102BC0009E3F08F0B3CF9395880F08F09927EE0F3A
:102BD00097958795089598D088F09F5790F0B92FD2
:102BE0009927B751A0F0D1F0660F771F881F991F62
:102BF0001AF0BA95C9F712C0B13081F09FD0B1E098
:102C000008959CC0672F782F8827B85F39F0B93FA7
:102C1000CCF3869577956795B395D9F73EF4909563
:102C20008095709561957F4F8F4F9F4F0895E894E1
:102C300009C097FB3EF490958095709561957F4F04
:102C40008F4F9F4F9923A9F0F92F96E9BB279395B2
:102C5000F695879577956795B795F111F8CFFAF4C2
:102C6000BB0F11F460FF1BC06F5F7F4F8F4F9F4FF3
:102C700016C0882311F096E911C0772321F09EE851
:102C8000872F762F05C0662371F096E8862F70E0B7
:102C900060E02AF09A95660F771F881FDAF7880F91
:102CA0009695879597F9089597F99F6780E870E062
:102CB00060E008959FEF80EC089500240A941616B2
:102CC000170618060906089500240A94121613061A
:102CD000140605060895092E0394000C11F48823A8
:102CE00052F0BB0F40F4BF2B11F460FF04C06F5FC4
:102CF0007F4F8F4F9F4F089557FD9058440F551F9A
:102D000059F05F3F71F04795880F97FB991F61F06D
:102D10009F3F79F087950895121613061406551FE4
:102D2000F2CF4695F1DF08C0161617061806991F50
:102D3000F1CF86957105610508940895E894BB2745
:102D400066277727CB0197F908950BD0C4CFB5DF5D
:102D500028F0BADF18F0952309F0A6CFABCF1124E5
:102D6000EECFCADFA0F3959FD1F3950F50E0551F2A
:102D7000629FF001729FBB27F00DB11D639FAA27D0
:102D8000F00DB11DAA1F649F6627B00DA11D661F1F
:102D9000829F2227B00DA11D621F739FB00DA11D40
:102DA000621F839FA00D611D221F749F3327A00DFA
:102DB000611D231F849F600D211D822F762F6A2F96
:102DC00011249F5750408AF0E1F088234AF0EE0F1B
:102DD000FF1FBB1F661F771F881F91505040A9F728
:102DE0009E3F510570F060CFAACF5F3FECF3983E55
:102DF000DCF3869577956795B795F795E7959F5F8F
:102E0000C1F7FE2B880F911D9695879597F9089528
:102E1000AA1BBB1B51E107C0AA1FBB1FA617B70700
:102E200010F0A61BB70B881F991F5A95A9F780951C
:102E30009095BC01CD010895A1E21A2EAA1BBB1BDF
:102E4000FD010DC0AA1FBB1FEE1FFF1FA217B30776
:102E5000E407F50720F0A21BB30BE40BF50B661F8C
:102E6000771F881F991F1A9469F760957095809550
:102E700090959B01AC01BD01CF010895052E97FBF4
:102E80001EF400940E94551757FD07D00E941C178E
:102E900007FC03D04EF40C9455175095409530958F
:102EA00021953F4F4F4F5F4F0895909580957095B6
:102EB00061957F4F8F4F9F4F0895EE0FFF1F059035
:0A2EC000F491E02D0994F894FFCF7F
:102ECA0001030000000F100F10564D4450565F3199
:102EDA007C315F564D4450560D0A00EDFF0000004C
:102EEA0000EFFF00000000F1FF00000000F3FF0008
:102EFA00000000F5FF00000000F7FF00000000F9E5
:102F0A00FF00000000020000000000830183018925
:102F1A00018F0195019B01A101A701AD014B01455B
:102F2A00013F01390133012D012701210115001348
:102F3A000011000F000D000B000900000002000044
:102F4A00000000F9FFF7FF0000F7FFF5FF0000F5AA
:102F5A00FFF3FF0000F3FFF1FF0000F1FFEFFF00B6
:102F6A0000EFFFEDFF0000EDFFEBFF0000000000A7
:102F7A0000E302E1023903E1FF0000000044080017
:102F8A00001F0000001F000000E3020F0F3903E3D7
:102F9A00FF00000000820800001D0000001D000064
:102FAA0000E302190F3903E5FF00000000060800DC
:102FBA00001B0000001B000000E302050F3903E7B5
:102FCA00FFF8FF00000000DD0AEFFF080000000024
:102FDA00001900000019000000E3022D0F3903EF69
:102FEA00FF0000000000000000000011000000E3E4
:102FFA0002E1023903F1FF020000000000150AEFA6
:10300A00FFFEFF000000000F0000000F000000E3B9
:10301A0002230F3903F3FF00000000BE0700000D72
:10302A000000000D000000E302FB0E39030200005D
:10303A000000004A070000FEFF0000FEFF0000E358
:10304A0002F10E3903D502D502E102EF02FB0203B7
:10305A00030D03170321032B0373027F025B02672D
:10306A00023D0245024F0225022F0207020F0219F2
:10307A0002ED01F901D501E101BD01C90121001FDC
:10308A00001D001B00130011000F000000000002C9
:10309A000000000000110C0000FEFF0000FEFF000F
:1030AA0000E302370F3903F1FFF3FFF1FF000037A6
:1030BA000FEFFFF1FF0200EFFF0000410FEFFFEDFE
:1030CA00FF0000E5FFE7FFF8FFE5FF0000410FE31F
:1030DA00FFE5FFE3FF0000370FE1FFE3FFE1FF0039
:1030EA0000370FDFFFE1FFDFFF0000370F000000AE
:1030FA0000EC0200000000EF02564D4450435F000E
:10310A005F564D4450430D0A004572726F723A2061
:10311A00417474656D707420746F207365742061D6
:10312A0020726561642D6F6E6C79207661726961B7
:10313A00626C65206F7220646174612074797065B5
:10314A00206E6F7420737570706F727465640D0AE7
:10315A0000000000008412001406121F12111262ED
:10316A00126E616E00696E66006F7666002E000050
:00000001FF
