:100000000C94BD000C9492110C94B9110C94E50061
:100010000C94E5000C94E5000C94E5000C94740E2F
:100020000C94E5000C94E5000C94E5000C94E500BC
:100030000C94E5000C94E5000C94E5000C94E500AC
:100040000C94E0110C94E5000C94CD140C94FF1466
:100050000C94E5000C94E5000C94E5000C94E5008C
:100060000C94E5000C94E50009206D61783A00538A
:1000700070616365206D696E3A0009206D61783AA0
:10008000004D61726B20206D696E3A004578746591
:100090006E743D0009200009002073003A6D0020B5
:1000A0002073002020486561643A206D00293A20C1
:1000B0004761703A005261772073616D706C6573AF
:1000C000280020626974732900202800293A2056EC
:1000D000616C75653A0028004465636F646564204F
:1000E000004861736820436F6465004E45437800A3
:1000F0004A56430050616E61736F6E6963204F6CA6
:1001000064005243360052433500536F6E79004EFF
:10011000454300556E6B6E6F776E0000000008005F
:1001200002010000030407000000000000000001BD
:10013000020408102040800102040810200102047B
:10014000081020040404040404040402020202024D
:100150000203030303030300000000230026002919
:100160000000000000250028002B000000000024F3
:100170000027002A000020042F1511241FBECFEFF6
:10018000D8E0DEBFCDBF13E0A0E0B1E0EEECF1E3DC
:1001900002C005900D92A83CB107D9F726E0A8EC63
:1001A000B3E001C01D92AA38B207E1F711E0CAE737
:1001B000D1E004C02297FE010E94E118C637D107A2
:1001C000C9F70E9473150C94E5180C940000CF93A6
:1001D000DF93EC0102960E943806EEE9F2E0A48972
:1001E000B58916970D90BC91A02DAC0FBD1F8689C7
:1001F00097898D939C93A08DB18D16970D90BC918E
:10020000A02DAC0FBD1F828D938D50969C938E9325
:100210001F97A2A1B3A116970D90BC91A02DAC0F72
:10022000BD1F84A195A154969C938E935397CE01A4
:100230004196248D358DD90116970D90BC91A02D36
:10024000A80FB91F468D578D4D935C93D901189710
:100250000D90BC91A02DA80FB91F80A191A18D93E5
:100260009C93CE014B9626A137A1D90116970D90EC
:10027000BC91A02DA80FB91F40A551A54D935C932B
:10028000D90118970D90BC91A02DA80FB91F82A578
:1002900093A58D939C93A4A5B5A516970D90BC919D
:1002A000A02DAC0FBD1F86A597A55E969C938E933F
:1002B0005D97A0A9B1A916970D90BC91A02DAC0F88
:1002C000BD1F82A993A990969C938E935F97A4A932
:1002D000B5A916970D90BC91A02DAC0FBD1F86A996
:1002E00097A992969C938E9391978EEE92E0998324
:1002F00088838AEF92E09B838A8388E093E0988BDF
:100300008F8784E193E09A8B898B8CE193E09C8BBF
:100310008B8B86E293E09C8F8B8F80E393E09E8FA4
:100320008D8F8AE393E098A38F8F84E493E09AA360
:1003300089A3DF91CF91089540ED57E060E070E030
:100340008DEA95E00E94F81020E835E240E050E0A8
:100350006DEE75E08DEA95E00E940B118DEA95E057
:100360000E94F51062E271E08091DE059091DF0558
:100370000E94E3156AE070E080E090E00E9459126C
:1003800041E060E08DEA95E00E94761161E08DE049
:100390000E94F01260E082E00E94F01261E088E0CA
:1003A0000E94F01226E040E855E260E070E08DEE39
:1003B00095E00E946B148AEF93E00E94540E64E172
:1003C00074E089ED93E00E944A0661E088E00C94B5
:1003D00029138F929F92AF92BF92CF92DF92EF92AA
:1003E000FF920F931F93CF93DF9369ED73E08AEF32
:1003F00093E00E94650E882309F4B8C061E08DE0A7
:100400000E94291358E5A52E52E0B52E60EBC62EAA
:1004100064E0D62E78E5E72E72E0F72E00E010E0DB
:1004200028E532E040EB54E06AE089ED93E00E9479
:100430004E064091DC035091DD036091DE03709124
:10044000DF0320E130E08DEE95E00E94F51689EDA6
:1004500093E00E94BB048091DC039091DD03A091A6
:10046000DE03B091DF030397A105B10509F07AC05F
:1004700081E08093CB031092CC038093CA0361E0A8
:1004800088E00E9429130E942A126093D10370937E
:10049000D2038093D3039093D40380910A01909167
:1004A0000B019093C9038093C803C1E0D0E00E9480
:1004B0002A120091D1031091D2032091D3033091DD
:1004C000D403601B710B820B930B00910E011091F2
:1004D0000F012091100130911101601771078207FF
:1004E000930708F03DC061E088E00E9429138091E5
:1004F000C8039091C90397FD0196959587950E9431
:10050000811260E088E00E9429138091C8039091D5
:10051000C90397FD0196959587950E9481122091B8
:10052000080130910901C29FC001C39F900DD29F65
:10053000900D11242091C8033091C903820F931F9D
:100540009093C9038093C803853C29E0920724F463
:10055000883E93400CF0ABCFD195C195D109A7CF80
:100560001092CB038AEF93E00E94540E8091CC034B
:10057000882309F46DC00E942A120091D1031091C2
:10058000D2032091D3033091D403601B710B820BF3
:10059000930B0091120110911301209114013091DD
:1005A0001501061717072807390708F03CC10E94F4
:1005B0002A126093D1037093D2038093D303909354
:1005C000D4030E942A120091D1031091D2032091EA
:1005D000D3033091D403601B710B820B930B0091FA
:1005E000020110910301222717FD2095322F601779
:1005F000710782079307E8F461E088E00E942913FD
:10060000809106019091070197FD01969595879538
:100610000E94811260E088E00E9429138091060107
:100620009091070197FD0196959587950E948112FB
:10063000C8CF1092CC0361E088E00E94291364E6E1
:1006400070E080E090E00E94591260E088E0DDC038
:1006500082E00E945F139093D6038093D503892B89
:1006600009F0E1C00E942A120091CD031091CE033F
:100670002091CF033091D003601B710B820B930B41
:100680000091160110911701209118013091190164
:10069000061717072807390708F0C5C00E942A1255
:1006A0006093CD037093CE038093CF039093D003D8
:1006B00080910C0190910D01019790930D01809311
:1006C0000C01181619064CF081E08093CC0384E6E7
:1006D00090E090930D0180930C0161E08DE00E9409
:1006E000291340911A0150911B0160911C017091D6
:1006F0001D011F921F921F921F9281E08F9386E22D
:100700008F9382E08F9388E58F93E0EB8E2EE4E069
:100710009E2EF8E5AF2EF2E0BF2EA8E5CA2EA2E08D
:10072000DA2EB8E5EB2EB2E0FB2E00EB14E023E06E
:100730008FEF93E00E94CF0F8AEF93E00E94540E58
:100740008DB79EB708960FB6F8949EBF0FBE8DBFAB
:10075000C3E0D0E017E0F12E0E942A126093D1038B
:100760007093D2038093D3039093D4030E942A12F0
:100770000091D1031091D2032091D3033091D4037F
:10078000601B710B820B930B009100011091010112
:10079000222717FD2095322F6017710782079307D4
:1007A00048F561E088E00E9429138091040190914E
:1007B000050197FD079633E0959587953A95E1F702
:1007C0009C01F29EC001F39E900D11240E948112A3
:1007D00060E088E00E942913809104019091050156
:1007E00097FD079623E0959587952A95E1F70E9456
:1007F0008112BCCF62E370E080E090E00E94591269
:10080000219709F0A9CF60E08DE0DF91CF911F9192
:100810000F91FF90EF90DF90CF90BF90AF909F909F
:100820008F900C942913DF91CF911F910F91FF901E
:10083000EF90DF90CF90BF90AF909F908F900895F2
:100840008FEF93E00E946C0F8CE991E09093FE0390
:100850008093FD0382EA91E090930704809306045D
:1008600088EA91E090930904809308048EEA91E06D
:1008700090930B0480930A0484EB91E090930D0411
:1008800080930C048AEB91E090930F0480930E0404
:1008900080EC91E0909311048093100486EC91E039
:1008A00090931304809312046BE08AEF93E00E940C
:1008B000E70D80E593E09093FB038093FA0387EDC7
:1008C00093E00C94E70080E00895FC01128213820B
:1008D0001482158216821782128608951092AC0532
:1008E000089581E090E09093DE048093DD041092FF
:1008F000AC050895CF93DF93CDB7DEB762970FB6FF
:10090000F894DEBF0FBECDBF89300CF080E023E14C
:1009100031E03A8329832FE031E03C832B832AE0C6
:1009200031E03E832D8326E031E038872F8322E0BB
:1009300031E03A87298724EF30E03C872B8720EF8E
:1009400030E03E872D872BEE30E0388B2F8721EE6D
:1009500030E03A8B298BE82FEE0FFF0BEC0FFD1FD9
:100960008181928162960FB6F894DEBF0FBECDBF33
:10097000DF91CF9108952F923F924F925F926F92A5
:100980007F928F929F92AF92BF92CF92DF92EF921F
:10099000FF920F931F93CF93DF93EC018A818930ED
:1009A00074F568ED70E08DEE95E00E94C0158A81C7
:1009B0000E947A04BC018DEE95E00E94C01566EDA0
:1009C00070E08DEE95E00E94C0156A81772767FD83
:1009D00070954AE050E08DEE95E00E94A5166CEC13
:1009E00070E08DEE95E00E94C0154B815C816D81B9
:1009F0007E8120E130E08DEE95E00E94C51669EC25
:100A000070E08DEE95E00E94C0154AE050E06F81E5
:100A10008DEE95E00E94D21662EC70E08DEE95E0CE
:100A20000E94F01565EB70E08DEE95E00E94C01518
:100A30004AE050E06A858DEE95E00E94D2166DEA9C
:100A400070E08DEE95E00E94C015E885F985608123
:100A500071814AE050E08DEE95E00E94DF1663EA76
:100A600070E08DEE95E00E94C015E885F985628101
:100A700073814AE050E08DEE95E00E94D9166FE94F
:100A800070E08DEE95E00E94C015E885F9856481DF
:100A900075814AE050E08DEE95E00E94DF16E88512
:100AA000F9858281938144805580480E591E612CBE
:100AB000712CC12CD12C212C312CAA24AA943FE7D3
:100AC000B32E88248A944FE7942E53E0E52EF12C20
:100AD0008A8590E0E816F9060CF06EC0E885F98585
:100AE000C701880F991FE80FF91F00811181C80104
:100AF000AA2797FDA095BA2F480E591E6A1E7B1E85
:100B0000E0FE16C00A151B050CF45801C016D106EC
:100B10000CF46801B70175956795615071094AE059
:100B200050E08DEE95E00E94A5166CE970E00DC0D6
:100B30001016110624F4081519050CF448012016A6
:100B400031060CF4180169E970E08DEE95E00E9421
:100B5000C0154AE050E0B8018DEE95E00E94A51660
:100B600087010150110900FF06C067E970E08DEEB2
:100B700095E00E94C015C80183709927019731F450
:100B800064E970E08DEE95E00E94C015C8018770A1
:100B90009927019721F48DEE95E00E94EC150F71D5
:100BA00011270130110521F48DEE95E00E94EC151E
:100BB0008FEFE81AF80A8CCF8DEE95E00E94EC15C5
:100BC0006CE870E08DEE95E00E94C0152AE030E000
:100BD000B301A2018DEE95E00E94F51661E870E088
:100BE0008DEE95E00E94C0154AE050E0B5018DEE13
:100BF00095E00E94A5166AE770E08DEE95E00E94F0
:100C0000C0154AE050E0B6018DEE95E00E94AD16A9
:100C10006FE670E08DEE95E00E94C0154AE050E06E
:100C2000B4018DEE95E00E94A51668E670E08DEEA9
:100C300095E00E94C0154AE050E0B1018DEE95E0CC
:100C40000E94AD168DEE95E0DF91CF911F910F912F
:100C5000FF90EF90DF90CF90BF90AF909F908F90DC
:100C60007F906F905F904F903F902F900C94EC1579
:100C7000FC018AEC91E09183808384EE94E091877B
:100C8000808713861282138214821582168217823D
:100C900012860895FC017187608708952F923F9214
:100CA0004F925F926F927F928F929F92AF92BF927C
:100CB000CF92DF92EF92FF920F931F93CF93DF9328
:100CC000CDB7DEB72E970FB6F894DEBF0FBECDBFFF
:100CD0001C013A872987BE82AD8281E0D1011C9632
:100CE0008C931C97662321F01A968C91861388C1E9
:100CF000F101938491103AC041155105B9F1A084D6
:100D0000B184D50112960D90BC91A02DBA83A98310
:100D1000BA0180E090E00E9499172B013C0120E08D
:100D200030E040E45FE30E9427180E946D17E981DC
:100D3000FA81E617F70708F415C2D5011296AD90AF
:100D4000BC90139720E030E040EA5FE3C301B201BA
:100D50000E94271820E030E040E85FE30E94091776
:100D60000E946D176A157B0508F4FCC182E0F10151
:100D7000848729853A852115310589F1A084B184BC
:100D8000D50114968D909C901597B90180E090E064
:100D90000E9499172B013C0120E030E040E45FE322
:100DA0000E9427180E946D178616970608F428C11E
:100DB000F501A480B58020E030E040EA5FE3C301A4
:100DC000B2010E94271820E030E040E85FE30E9473
:100DD00009170E946D176A157B0508F411C1D1012E
:100DE0001A966C900115110509F463C0812C912CA1
:100DF0005401C601A0E0B0E089839A83AB83BC8331
:100E0000C801A0E0B0E08D839E83AF83B887C7019F
:100E1000A0E0B0E089879A87AB87BC87D1011C9698
:100E20007C90272D30E07614D8F5D10118964D909E
:100E30005C901997F901EE0FFF1FE40DF51DFE8779
:100E4000ED870081118169817A818B819C810E946B
:100E500099176B017C0120E030E040E45FE30E94E1
:100E600027180E946D170617170708F4C9C0AD852B
:100E7000BE850D911C9120E030E040EA5FE3C701A0
:100E8000B6010E94271820E030E040E85FE30E94AE
:100E900009170E946D176017710708F07BC0B0C07A
:100EA000C901019797FDC90195958795F101878340
:100EB00069C06A9483E0D1011C968C93812C912C9B
:100EC0005401C701A0E0B0E089839A83AB83BC835F
:100ED000C601A0E0B0E089879A87AB87BC87AD8167
:100EE000BE81CD01A0E0B0E08D839E83AF83B88743
:100EF000F1017484272D30E07614D0F5F10140849F
:100F00005184C901880F991F840D951D9E878D8777
:100F1000DC010D911C9169817A818B819C810E94F9
:100F200099176B017C0120E030E040E45FE30E9410
:100F300027180E946D170617170708F461C0ED8582
:100F4000FE850081118120E030E040EA5FE3C701C7
:100F5000B6010E94271820E030E040E85FE30E94DD
:100F600009170E946D176017710708F087C048C005
:100F7000C901019797FDC901959587958150D101C8
:100F800017968C93F10183829482A582B68299246C
:100F90009394E8C081E0870DD1011C968C93820167
:100FA000080F111D080F111DF801408051806D813F
:100FB0007E818F8198850E9499176B017C0120E0CA
:100FC00030E040E45FE30E9427180E946D17461648
:100FD0005706C0F4D8014D905C9069857A858B8561
:100FE0009C850E9499176B017C0120E030E040E471
:100FF0005FE30E9427180E946D174616570618F5E2
:10100000912CB0C0F8014080518020E030E040EAEF
:101010005FE3C701B6010E94271820E030E040E8F6
:101020005FE30E9409170E946D176415750590F221
:10103000880C991CAA1CBB1C689480F87394739448
:10104000F1017486EBCED8010D911C9120E030E0C7
:1010500040EA5FE3C701B6010E94271820E030E0B4
:1010600040E85FE30E9409170E946D17601771073F
:1010700038F2880C991CAA1CBB1CE0CF81E0870DBC
:10108000F10184878201080F111D080F111DD8017D
:101090004D905C9069857A858B859C850E94991717
:1010A0006B017C0120E030E040E45FE30E94271800
:1010B0000E946D174616570610F1D8014D905C90AE
:1010C00020E030E040EA5FE3C701B6010E94271844
:1010D00020E030E040E85FE30E9409170E946D17AE
:1010E0006415750560F0880C991CAA1CBB1C6894DB
:1010F00080F873947394D1011C967C92F9CEF80118
:10110000408051806D817E818F8198850E949917E2
:101110006B017C0120E030E040E45FE30E9427188F
:101120000E946D174616570608F46ACFF801008131
:10113000118120E030E040EA5FE3C701B6010E9480
:10114000271820E030E040E85FE30E9409170E9482
:101150006D176017710708F453CF880C991CAA1CEF
:10116000BB1CC7CF892D2E960FB6F894DEBF0FBEDD
:10117000CDBFDF91CF911F910F91FF90EF90DF9046
:10118000CF90BF90AF909F908F907F906F905F9027
:101190004F903F902F900895AF92BF92CF92DF92E1
:1011A000EF92FF920F931F93CF93DF93EC01E881AF
:1011B000F98136970190F081E02DE80FF91F8285C3
:1011C000843089F5A085B18514968D919C911597F1
:1011D0008739964040F114968D919C9115978E3FDA
:1011E0009A4008F516968D919C911797873A9140F1
:1011F000D0F016968D919C911797833C924098F46D
:101200001782E881F98136970190F081E02DEC0F8B
:10121000FD1F8FEF9FEFDC0183839483A583B6834B
:1012200081E0828322C084E3A82E82E0B82E9CE96C
:10123000C92E96E0D92E24E3E22E22E0F22E00E021
:1012400010E020EA31E140E453E264E4CF010E947F
:101250004E06882351F0E881F98136970190F0819C
:10126000E02DEC0FFD1F91E09283DF91CF911F9154
:101270000F91FF90EF90DF90CF90BF90AF900895C7
:10128000AF92BF92CF92DF92EF92FF920F931F9394
:10129000CF93DF93EC01E881F981369780819181CA
:1012A0008C0F9D1FFC012285322F377F323131F0A8
:1012B000203221F02A3211F080E01FC0A12CB12C85
:1012C00038E5C32E32E0D32E48E5E42E42E0F42E7A
:1012D00000EB14E028E532E040E659E060E00E94CF
:1012E0004E06882349F3E881F98136970190F08111
:1012F000E02DEC0FFD1F92E09283DF91CF911F91C3
:101300000F91FF90EF90DF90CF90BF90AF90089536
:10131000AF92BF92CF92DF92EF92FF920F931F9303
:10132000CF93DF93EC01E881F98136978081918139
:1013300051E4A52E53E0B52E63ECC62E69E0D62EFF
:1013400071E4E72E73E0F72E00E010E024E03DE0CA
:1013500044E05DE060E38C0F9D1F0E944E068823F1
:1013600051F0E881F98136970190F081E02DEC0F82
:10137000FD1F95E09283DF91CF911F910F91FF9018
:10138000EF90DF90CF90BF90AF900895AF92BF9253
:10139000CF92DF92EF92FF920F931F93CF93DF9341
:1013A000EC01E881F981369780819181E4E3AE2EEA
:1013B000E2E0BE2EFCE9CF2EF6E0DF2EA4E3EA2E1B
:1013C000A2E0FA2E00E010E020EA31E140EA51E12B
:1013D00064E48C0F9D1F0E944E06882351F0E88123
:1013E000F98136970190F081E02DEC0FFD1F97E019
:1013F0009283DF91CF911F910F91FF90EF90DF903B
:10140000CF90BF90AF9008959F92AF92BF92CF922E
:10141000DF92EF92FF920F931F93CF93DF93EC0134
:10142000E881F981369780819181BDE0AB2EB2E0F1
:10143000BB2E17E2C12E16E0D12E0DE0E02E02E009
:10144000F02E00E010E028E630E140ED50E264E2EA
:101450008C0F9D1F0E944E06982E81113BC0E88183
:10146000F98136970190F081E02DEC0FFD1F828508
:10147000823209F04AC020E030E04DE052E060E006
:10148000CF010E944E06882309F43FC0E881F9810C
:1014900036970190F081E02DEC0FFD1FA085B185FE
:1014A00018968D919C9119978D39944000F118965A
:1014B0008D919C911997823B9740C8F44381548148
:1014C0006581768150684383548365837683878101
:1014D0008F5F8783E881F98136970190F081E02D55
:1014E000EC0FFD1F86E08283992493940EC018961A
:1014F0008D919C9119978938914038F018968D916B
:101500009C9119978239924010F3892DDF91CF91E8
:101510001F910F91FF90EF90DF90CF90BF90AF9011
:101520009F9008952F923F924F925F926F927F9279
:101530008F929F92AF92BF92CF92DF92EF92FF92E3
:101540000F931F93CF93DF9300D01F92CDB7DEB7D9
:101550007C015B016A01DC01ED91FC913697008111
:101560001181080F191FF80194848285981608F0DC
:10157000BAC090858185E92FF82FE90DF11DE90D9D
:10158000F11D208131813B832A83892D80958170D3
:101590008983812CBA0180E090E00E9499172B0189
:1015A0003C0120E030E040E45FE30E9427180E9405
:1015B0006D17AA81BB81A617B707B0F020E030E015
:1015C00040EA5FE3C301B2010E94271820E030E047
:1015D00040E85FE30E9409170E946D17EA81FB81D2
:1015E0006E177F0708F064C01601220C331CB1018E
:1015F00080E090E00E9499172B013C0120E030E050
:1016000040E45FE30E9427180E946D172A813B8106
:1016100026173707A8F020E030E040EA5FE3C30177
:10162000B2010E94271820E030E040E85FE30E940A
:1016300009170E946D17AA81BB816A177B07D0F535
:10164000B1016C0D7D1D80E090E00E9499172B0187
:101650003C0120E030E040E45FE30E9427180E9454
:101660006D17EA81FB81E617F707A8F020E030E06C
:1016700040EA5FE3C301B2010E94271820E030E096
:1016800040E85FE30E9409170E946D172A813B81A1
:101690006217730788F4D8011B968C91882331F167
:1016A000B1E09B1226C0EA81FB81EC15FD0520F517
:1016B00091E003C092E001C093E0D5018C918F5F6F
:1016C000891710F48C931BC0F5011082D701ED919E
:1016D000FC9136970190F081E02DEE0DFF1D848581
:1016E0008F5F84870CC0B1E0B98308C0E2E0E98372
:1016F00005C0F2E0F98302C022E02983812C8981B0
:10170000982D0F900F900F90DF91CF911F910F9117
:10171000FF90EF90DF90CF90BF90AF909F908F9011
:101720007F906F905F904F903F902F9008950F9310
:101730001F93CF93DF93EC01E881F98138970190F3
:10174000F081E02DE80FF91F82858D3008F4B1C0DB
:1017500081E08487E881F98136970190F081E02D5E
:10176000EC0FFD1F14821582168217821382E88106
:10177000F9813697808191818C0F9D1FBC016D5F2F
:101780007F4F49E753E00E94920A892B09F091C0EC
:10179000E881F98136970190F081E02DEC0FFD1F73
:1017A000128288819981FC0138970190F081E02DA7
:1017B000EC0FFD1F34852285321708F05AC0FC015A
:1017C0003697808191818C0F9D1FBC016D5F7F4F8B
:1017D00049E753E00E94920A8C01E881F98136972B
:1017E000808191818C0F9D1FBC016D5F7F4F49E708
:1017F00053E00E94920A01301105A9F4892B09F0E7
:1018000058C0E881F98136970190F081E02DEC0F06
:10181000FD1F4481558166817781440F551F661FE6
:10182000771F416016C0012B09F043C0019709F0F2
:1018300040C0E881F98136970190F081E02DEC0FEE
:10184000FD1F4481558166817781440F551F661FB6
:10185000771F4483558366837783E881F9813697C0
:101860000190F081E02DEC0FFD1F82818F5F82835C
:1018700098CF8DE0878388819981FC01389701900A
:10188000F081E02DEC0FFD1FDC0116970D90BC914F
:10189000A02DAC0FBD1F14968D919D910D90BC9104
:1018A000A02D83839483A583B68383E0828381E024
:1018B00001C080E0DF91CF911F910F910895EF92C9
:1018C000FF920F931F93CF93DF93EC01E881F9818F
:1018D00038970190F081E02DE80FF91F8285811182
:1018E00002C080E019C18385A085B18581110EC039
:1018F00012968D919C9113978F3C974090F312967E
:101900008D919C91139786309D4058F714968D9138
:101910009C9115978A39924020F314968D919C9151
:10192000159789359440E8F683E08487E881F9814A
:1019300036970190F081E02DEC0FFD1F1482158287
:10194000168217821382E881F9813697808191810E
:101950008C0F9D1FBC016D5F7F4F4CEB51E00E94CF
:10196000920A892B09F0BDCFE881F98136978081F1
:1019700091818C0F9D1FBC016D5F7F4F4CEB51E03F
:101980000E94920A019709F0ACCFE881F98136975D
:101990000190F081E02DEC0FFD1F1282A881B9812A
:1019A000FD0138970190F081E02DEC0FFD1F94852B
:1019B00082851697981708F08AC08D919C918C0F9C
:1019C0009D1FBC016D5F7F4F4CEB51E00E94920A5E
:1019D0008C01E881F98136970190F081E02DEC0FC0
:1019E000FD1F82818330D9F0E881F98136978081AB
:1019F00091818C0F9D1FBC016D5F7F4F4CEB51E0BF
:101A00000E94920A7C01E881F98136970190F08169
:101A1000E02DEC0FFD1F82818330C9F40CC0BF01A3
:101A20006D5F7F4F4CEB51E0CF010E94920A081787
:101A30001907D1F256CFBF016D5F7F4F4CEB51E0DC
:101A4000CF010E94920AE816F90609F04ACF011563
:101A50001105B1F4EA94EF2809F043CFE881F98148
:101A600036970190F081E02DEC0FFD1F44815581E8
:101A700066817781440F551F661F771F416017C02D
:101A80000130110509F02DCFEF2809F02ACFE881A8
:101A9000F98136970190F081E02DEC0FFD1F448114
:101AA000558166817781440F551F661F771F4483D8
:101AB000558366837783E881F98136970190F081B9
:101AC000E02DEC0FFD1F82818F5F828367CF0D9029
:101AD000BC91A02DAC0FBD1F12968C91878388817D
:101AE0009981FC0138970190F081E02DEC0FFD1FEA
:101AF000DC0116970D90BC91A02DAC0FBD1F149664
:101B00008D919D910D90BC91A02D83839483A5838D
:101B1000B68384E0828381E0DF91CF911F910F91A2
:101B2000FF90EF900895CF93DF93EC01E881F98166
:101B30003A97808191818C0F9D1F0E94CC08811162
:101B400042C0E881F9813C97808191818C0F9D1F73
:101B50000E944009811137C0E881F9813E97808158
:101B600091818C0F9D1F0E94970B81112CC0E881E1
:101B7000F9817297808191818C0F9D1F0E945F0C6B
:101B8000811121C0E881F9817497808191818C0F46
:101B90009D1F0E948809811116C0E881F9817897FC
:101BA000808191818C0F9D1F0E94C60981110BC0FD
:101BB000E881F9817697808191818C0F9D1FDF915B
:101BC000CF910C94040A81E0DF91CF9108952AE42B
:101BD00033E0FC01318320836093DC041092DF0446
:101BE00024E622830895EF92FF920F931F93CF93E1
:101BF000DF938C01EB017A01E881F9810190F0819A
:101C0000E02DCB0109958091AC058A8740E0809159
:101C1000AC05481720F5A42FB0E0CD01880F991F1F
:101C2000E885F985E80FF91FDC01AC51BB4F2D9118
:101C30003C912E9DC0012F9D900D3E9D900D112435
:101C4000D80112962C9130E040FF03C031952195C8
:101C50003109280F391F318320834F5FD8CF81E0AE
:101C6000DF91CF911F910F91FF90EF900895CF9347
:101C7000DF93EC018091DC0460E00E94F012E881C7
:101C8000F9810190F081E02DCE01DF91CF9109948F
:101C90008091DF04882339F08091AC0580FF02C079
:101CA0002D9A08952D9808950E94370EF89482E099
:101CB0008093B0008093B10094E69093B3001092AB
:101CC000B20080937000789408952091DD043091E3
:101CD000DE042430310531F442E350E00E94F30D7C
:101CE00081E0089580E008951F920F920FB60F9241
:101CF00011242F933F934F935F936F937F938F9311
:101D00009F93AF93BF93EF93FF938091DC040E9466
:101D10005F134091E0045091E1046091E2047091FE
:101D2000E3044F5F5F4F6F4F7F4F4093E00450934A
:101D3000E1046093E2047093E3042091AC0524363F
:101D400030F024E030E03093DE042093DD04209175
:101D5000DD043091DE042230310509F124F4213014
:101D6000310549F07FC023303105E1F124303105E0
:101D700009F46EC077C0892B09F074C08091E0042B
:101D80009091E104A091E204B091E30484369105BE
:101D9000A105B10508F45EC01092AC0525C00197FD
:101DA00009F060C0E091AC0581E08E0F8093AC0536
:101DB000F0E08091E0049091E104A091E204B09100
:101DC000E304EE0FFF1FEC51FB4F918380831092D1
:101DD000E0041092E1041092E2041092E30483E024
:101DE00090E031C0892B01F5E091AC0581E08E0FC8
:101DF0008093AC05F0E08091E0049091E104A09123
:101E0000E204B091E304EE0FFF1FEC51FB4F91830E
:101E100080831092E0041092E1041092E204109288
:101E2000E30482E090E00FC08091E0049091E1042F
:101E3000A091E204B091E30485369105A105B105B6
:101E400088F084E090E09093DE048093DD040AC083
:101E5000892B41F41092E0041092E1041092E20404
:101E60001092E3040E94480EFF91EF91BF91AF9151
:101E70009F918F917F916F915F914F913F912F91A2
:101E80000F900FBE0F901F901895CF93C62F1092F2
:101E9000700061E083E00E94F01260E083E00E9445
:101EA00029132C2F30E040E050E060E47FE180E037
:101EB00090E00E94C01881E08093B00089E0809398
:101EC000B1002093B3008BEA289F212D1124269581
:101ED0002093B400CF91089561E083E00E94F01256
:101EE00060E083E00C942913CF93DF930097B1F067
:101EF00081382EE3920770F068EE73E00E948A1832
:101F0000EB010E948112BE0180E090E0DF91CF9151
:101F10000C945912DF91CF910C948112DF91CF91E3
:101F200008950F931F93CF93DF93EC018B01E0EBA8
:101F3000F0E0808180628083CB010E94740F488131
:101F400059816A817B81400F511F611D711D48833A
:101F500059836A837B83DF91CF911F910F910895FD
:101F60000F931F93CF93DF93EC018B01E0EBF0E035
:101F700080818F7D8083CB010E94740F48815981BD
:101F80006A817B81400F511F611D711D48835983F8
:101F90006A837B83DF91CF911F910F9108952F92D8
:101FA0003F924F925F926F927F928F929F92AF92E9
:101FB000BF92CF92DF92EF92FF920F931F93CF9336
:101FC000DF93CDB7DEB729970FB6F894DEBF0FBE0B
:101FD000CDBF3C011A012B018E8D9F8D98878F8379
:101FE00068A139A139878AA19BA1ACA1BDA18B832E
:101FF0009C83AD83BE83D3011D921D921D921C92C2
:102000001397E22FF0E0FA83E98380E290E08E1BE1
:102010009F0B04C0220C331C441C551C8A95D2F71C
:10202000C3010E94450F0115110521F0B801C3013C
:102030000E94910FE114F10421F0B701C3010E9445
:10204000B00F00E010E029813A8102171307C4F4B1
:1020500057FE06C0B601C3010E94910FB40106C02D
:10206000B501C3010E94910F6F817885C3010E9461
:10207000B00F220C331C441C551C0F5F1F4FE3CFC5
:102080003985332321F0B601C3010E94910F8B8162
:102090009C81AD81BE81892B8A2B8B2B41F0D30192
:1020A0008D919C916B817C81681B790B01C0B4017F
:1020B000C30129960FB6F894DEBF0FBECDBFDF91E6
:1020C000CF911F910F91FF90EF90DF90CF90BF9035
:1020D000AF909F908F907F906F905F904F903F90C8
:1020E0002F900C94B00FDC01ED91FC91389720817A
:1020F0003181820F931F0C94CC08DC01ED91FC918F
:10210000389720813181820F931F0C944009DC01A4
:10211000ED91FC91389720813181820F931F0C94AF
:102120008809DC01ED91FC91389720813181820F83
:10213000931F0C94C609DC01ED91FC913897208126
:102140003181820F931F0C94040ADC01ED91FC9104
:10215000389720813181820F931F0C94970BDC01FB
:10216000ED91FC91389720813181820F931F0C945F
:102170005F0CDC01ED91FC91389720813181820F59
:10218000931F0C94930DDC01ED91FC913A97208103
:102190003181820F931F0C94930D0F931F93CF9354
:1021A000DF93EC01662359F00E942A1269837A8337
:1021B0008B839C83DF91CF911F910F9108950E9493
:1021C0002A1209811A812B813C81601B710B820BC1
:1021D000930B623371058105910530F763E070E080
:1021E00080E090E00E945912EACF60E00C94CD109C
:1021F000FC0113AA14AA15AA16AA1182128213822C
:102200001482411551056105710521F0CB01BA0118
:102210000C9459120895FB01BA01A901DC01D29670
:10222000FC93EE93D19726E0CF010C946B141F938F
:10223000CF93DF93EC01162F62E573E089A99AA989
:102240000E94E3154AE050E0612F89A99AA90E94F3
:10225000D21669E573E089A99AA90E94E31562E3A1
:1022600070E080E090E0DF91CF911F910C945912C3
:102270001F93CF93DF93EC01162F8D81882389F173
:1022800089A99AA9DC01ED91FC910480F581E02DEA
:102290000995892BA9F307C02637310519F128358F
:1022A000310509F41D8289A99AA9DC01ED91FC91FF
:1022B0000480F581E02D09951816190694F489A972
:1022C0009AA9DC01ED91FC910680F781E02D09953A
:1022D0009C01332723363105F9F6612FCE010E9488
:1022E000171183E6DF91CF911F9108950F931F93EC
:1022F000CF93DF931F92CDB7DEB78C01662349F0F1
:1023000081E0F801858360E0C80149830E943811AB
:102310004981F80145830F90DF91CF911F910F9173
:10232000089508951F920F920FB60F9211242F93C4
:102330003F934F935F936F937F938F939F93AF934D
:10234000BF93EF93FF93E0911E01F0911F01099558
:10235000FF91EF91BF91AF919F918F917F916F917D
:102360005F914F913F912F910F900FBE0F901F9053
:1023700018951F920F920FB60F9211242F933F932F
:102380004F935F936F937F938F939F93AF93BF937D
:10239000EF93FF93E0912001F09121010995FF91C6
:1023A000EF91BF91AF919F918F917F916F915F91CD
:1023B0004F913F912F910F900FBE0F901F90189546
:1023C0001F920F920FB60F9211242F933F938F936A
:1023D0009F93AF93BF938091E5059091E605A091FF
:1023E000E705B091E8053091E40523E0230F2D3790
:1023F00020F40196A11DB11D05C026E8230F029609
:10240000A11DB11D2093E4058093E5059093E60599
:10241000A093E705B093E8058091E9059091EA055E
:10242000A091EB05B091EC050196A11DB11D809323
:10243000E9059093EA05A093EB05B093EC05BF91F5
:10244000AF919F918F913F912F910F900FBE0F9061
:102450001F9018952FB7F8946091E5057091E605E7
:102460008091E7059091E8052FBF08953FB7F89454
:102470008091E9059091EA05A091EB05B091EC05FA
:1024800026B5A89B05C02F3F19F00196A11DB11DCF
:102490003FBF6627782F892F9A2F620F711D811DEC
:1024A000911D42E0660F771F881F991F4A95D1F74B
:1024B0000895CF92DF92EF92FF92CF93DF936B015B
:1024C0007C010E943612EB01C114D104E104F10435
:1024D00089F00E9407170E9436126C1B7D0B683E24
:1024E000734090F381E0C81AD108E108F108C8519F
:1024F000DC4FEACFDF91CF91FF90EF90DF90CF904C
:1025000008958230910538F0880F991F880F991F20
:1025100005970197F1F70895789484B5826084BD9A
:1025200084B5816084BD85B5826085BD85B58160D7
:1025300085BDEEE6F0E0808181608083E1E8F0E037
:102540001082808182608083808181608083E0E866
:10255000F0E0808181608083E1EBF0E08081846045
:102560008083E0EBF0E0808181608083EAE7F0E047
:1025700080818460808380818260808380818160AB
:1025800080838081806880831092C10008958330A9
:1025900081F028F4813099F08230A1F008958730DD
:1025A000A9F08830B9F08430D1F4809180008F7D1B
:1025B00003C0809180008F7780938000089584B558
:1025C0008F7702C084B58F7D84BD08958091B0005F
:1025D0008F7703C08091B0008F7D8093B000089505
:1025E000CF93DF9390E0FC01E15DFE4F2491FC016D
:1025F000ED5BFE4F8491882349F190E0880F991F8D
:10260000FC01E559FE4FA591B4918F599E4FFC01F5
:10261000C591D4919FB7611108C0F8948C91209511
:1026200082238C93888182230AC0623051F4F8940B
:102630008C91322F309583238C938881822B8883D1
:1026400004C0F8948C91822B8C939FBFDF91CF9123
:1026500008950F931F93CF93DF931F92CDB7DEB7EB
:10266000282F30E0F901E55EFE4F8491F901E15D2C
:10267000FE4F1491F901ED5BFE4F04910023C9F068
:10268000882321F069830E94C7126981E02FF0E05E
:10269000EE0FFF1FEF59FE4FA591B4919FB7F8942D
:1026A0008C91611103C01095812301C0812B8C9303
:1026B0009FBF0F90DF91CF911F910F910895CF93FE
:1026C000DF93282F30E0F901E55EFE4F8491F90198
:1026D000E15DFE4FD491F901ED5BFE4FC491CC2337
:1026E00091F081110E94C712EC2FF0E0EE0FFF1F56
:1026F000E95AFE4FA591B4912C912D2381E090E0F1
:1027000021F480E002C080E090E0DF91CF91089555
:10271000FC01818D228D90E0805C9F4F821B91098E
:102720008F7399270895FC01918D828D981731F050
:10273000828DE80FF11D858D90E008958FEF9FEF5A
:102740000895FC01918D828D981761F0828DDF01D3
:10275000A80FB11D5D968C91928D9F5F9F73928F94
:1027600090E008958FEF9FEF089585E295E1892B22
:1027700049F080E090E0892B29F00E942515811115
:102780000C9400000895FC01848DDF01A80FB11D99
:10279000A35ABF4F2C91848D90E001968F73992797
:1027A000848FA689B7892C93A089B1898C91806484
:1027B0008C93938D848D981306C00288F389E02D45
:1027C00080818F7D80830895CF93DF93EC01888D86
:1027D0008823C9F0EA89FB89808185FD05C0A88925
:1027E000B9898C9186FD0FC00FB607FCF5CF8081AB
:1027F00085FFF2CFA889B9898C9185FFEDCFCE01F5
:102800000E94C313E7CFDF91CF910895CF92DF925B
:10281000FF920F931F93CF93DF931F92CDB7DEB735
:102820006C0181E0D60158968C9358975B969C91E9
:102830005B975C968C915C97981307C05096ED91CE
:10284000FC915197808185FD2EC0F601038D10E02B
:102850000F5F1F4F0F731127F02EF601848DF812B2
:1028600011C00FB607FCF9CFD6015096ED91FC913F
:102870005197808185FFF1CFC60169830E94C31300
:102880006981EBCF838DE80FF11DE35AFF4F608321
:10289000D6015B960C935B975296ED91FC91539702
:1028A000808180620CC0D6015696ED91FC915797BD
:1028B00060835096ED91FC91519780818064808374
:1028C00081E090E00F90DF91CF911F910F91FF90E9
:1028D000DF90CF900895BF92CF92DF92EF92FF9258
:1028E000CF93DF93EC016A017B01B22EE889F9896D
:1028F00082E08083411581EE580761057105A1F0E2
:1029000060E079E08DE390E0A70196010E949E18B7
:102910002150310941095109569547953795279519
:10292000211580E1380798F0E889F989108260E87C
:1029300074E88EE190E0A70196010E949E18215054
:102940003109410951095695479537952795EC85E9
:10295000FD853083EE85FF852083188EEC89FD8907
:10296000B082EA89FB89808180618083EA89FB8962
:10297000808188608083EA89FB8980818068808388
:10298000EA89FB8980818F7D8083DF91CF91FF90E1
:10299000EF90DF90CF90BF9008951F920F920FB6E7
:1029A0000F9211242F938F939F93EF93FF93E091B6
:1029B000FD05F091FE058081E0910306F09104068B
:1029C00082FD12C09081809106068F5F8F732091E7
:1029D0000706821751F0E0910606F0E0E351FA4F46
:1029E000958F8093060601C08081FF91EF919F91A2
:1029F0008F912F910F900FBE0F901F9018951F92DF
:102A00000F920FB60F9211242F933F934F935F9322
:102A10006F937F938F939F93AF93BF93EF93FF93A6
:102A20008DEE95E00E94C313FF91EF91BF91AF919E
:102A30009F918F917F916F915F914F913F912F91D6
:102A40000F900FBE0F901F9018958DEE95E00E948D
:102A5000881321E0892B09F420E0822F0895109239
:102A6000F0051092EF0588EE93E0A0E0B0E08093CF
:102A7000F1059093F205A093F305B093F4058EEA67
:102A800093E09093EE058093ED0585EC90E09093B4
:102A9000FA058093F90584EC90E09093FC0580930F
:102AA000FB0580EC90E09093FE058093FD0581ECA2
:102AB00090E0909300068093FF0582EC90E0909365
:102AC00002068093010686EC90E0909304068093C2
:102AD000030610920606109207061092080610923E
:102AE0000906089508950E948C120E9472150E9492
:102AF0009C01C5EBD3E10E94E9012097E1F30E941C
:102B0000B513F9CFCF92DF92EF92FF920F931F93FD
:102B1000CF93DF937C016A01EB0100E010E00C151C
:102B20001D0571F06991D701ED91FC910190F08143
:102B3000E02DC7010995892B19F00F5F1F4FEFCFCB
:102B4000C801DF91CF911F910F91FF90EF90DF901F
:102B5000CF9008956115710581F0DB010D90002083
:102B6000E9F7AD0141505109461B570BDC01ED91CE
:102B7000FC910280F381E02D099480E090E00895BB
:102B8000EF92FF920F931F93CF93DF938C017B0102
:102B9000C0E0D0E0F701EC0FFD1F6491662359F00F
:102BA000F801A081B181ED91FC91C8010995892BB3
:102BB00011F02196EFCFCE01DF91CF911F910F91B0
:102BC000FF90EF9008950C94AA15DC01ED91FC9113
:102BD0000190F081E02D09946FE573E00C94AA1543
:102BE0000F931F93CF93DF93EC010E94C0158C01CC
:102BF000CE010E94EC15800F911FDF91CF911F91A4
:102C00000F9108958F929F92AF92BF92CF92DF92D1
:102C1000EF92FF920F931F93CF93DF93CDB7DEB761
:102C2000A1970FB6F894DEBF0FBECDBF7C01C42EB6
:102C3000E52FCB01D22E19A221E02D1510F02AE0AC
:102C4000D22E8E010F5D1F4F8D2C912CA12CB12CFB
:102C50006C2D7E2FA50194010E949E188C2DD29E72
:102C600080191124015011098A3014F4805D01C0CB
:102C7000895CF8018083211531054105510521F05A
:102C8000C22EE32FCA01E4CFB801C7010E94AA15E2
:102C9000A1960FB6F894DEBF0FBECDBFDF91CF91E6
:102CA0001F910F91FF90EF90DF90CF90BF90AF906A
:102CB0009F908F900895CF92DF92EF92FF920F93A3
:102CC0001F93CF93DF93EC016A017B01211531053E
:102CD00079F4E881F9810190F081E02D642FDF9192
:102CE000CF911F910F91FF90EF90DF90CF900994BB
:102CF0002A303105E9F477FF1AC06DE20E94E5152C
:102D00008C0144275527BA014C195D096E097F09CA
:102D10002AE0CE010E940216800F911FDF91CF9111
:102D20001F910F91FF90EF90DF90CF9008952AE0D0
:102D3000B701A601CE01DF91CF911F910F91FF90B6
:102D4000EF90DF90CF900C9402169A01AB016627AA
:102D500057FD6095762F0C945B160F931F93CF93BE
:102D6000DF93EC019A01AB01662757FD6095762F42
:102D70000E945B168C01CE010E94EC15800F911F02
:102D8000DF91CF911F910F9108952115310541F4E5
:102D9000DC01ED91FC910190F081E02D642F09940C
:102DA0000C9402169A01462F50E060E070E00C94FB
:102DB000C5169A01AB0160E070E00C94C5160F9344
:102DC0001F93CF93DF93EC019A01AB0160E070E0B9
:102DD0000E94C5168C01CE010E94EC15800F911F38
:102DE000DF91CF911F910F9108950F931F93CF9370
:102DF000DF93EC010E94C5168C01CE010E94EC15F8
:102E0000800F911FDF91CF911F910F910895089529
:102E10005058BB27AA270ED0E0C0D1D030F0D6D072
:102E200020F031F49F3F11F41EF4C6C00EF4E0957B
:102E3000E7FBBCC0E92FE2D080F3BA176207730743
:102E40008407950718F071F49EF5FAC00EF4E0952A
:102E50000B2EBA2FA02D0B01B90190010C01CA0154
:102E6000A0011124FF27591B99F0593F50F4503EFF
:102E700068F11A16F040A22F232F342F4427585FF1
:102E8000F3CF469537952795A795F0405395C9F709
:102E90007EF41F16BA0B620B730B840BBAF09150C1
:102EA000A1F0FF0FBB1F661F771F881FC2F70EC060
:102EB000BA0F621F731F841F48F487957795679533
:102EC000B795F7959E3F08F0B3CF9395880F08F01C
:102ED0009927EE0F97958795089598D088F09F577A
:102EE00090F0B92F9927B751A0F0D1F0660F771F56
:102EF000881F991F1AF0BA95C9F712C0B13081F036
:102F00009FD0B1E008959CC0672F782F8827B85FC5
:102F100039F0B93FCCF3869577956795B395D9F796
:102F20003EF490958095709561957F4F8F4F9F4FA0
:102F30000895E89409C097FB3EF4909580957095AC
:102F400061957F4F8F4F9F4F9923A9F0F92F96E9F5
:102F5000BB279395F695879577956795B795F1116A
:102F6000F8CFFAF4BB0F11F460FF1BC06F5F7F4F07
:102F70008F4F9F4F16C0882311F096E911C0772319
:102F800021F09EE8872F762F05C0662371F096E822
:102F9000862F70E060E02AF09A95660F771F881FF1
:102FA000DAF7880F9695879597F9089597F99F67AF
:102FB00080E870E060E008959FEF80EC08950024C1
:102FC0000A941616170618060906089500240A948E
:102FD00012161306140605060895092E0394000C14
:102FE00011F4882352F0BB0F40F4BF2B11F460FFA3
:102FF00004C06F5F7F4F8F4F9F4F089557FD9058CC
:10300000440F551F59F05F3F71F04795880F97FBAC
:10301000991F61F09F3F79F0879508951216130666
:103020001406551FF2CF4695F1DF08C01616170695
:103030001806991FF1CF86957105610508940895CA
:10304000E894BB2766277727CB0197F908950BD023
:10305000C4CFB5DF28F0BADF18F0952309F0A6CF6A
:10306000ABCF1124EECFCADFA0F3959FD1F3950F1C
:1030700050E0551F629FF001729FBB27F00DB11DFC
:10308000639FAA27F00DB11DAA1F649F6627B00D8C
:10309000A11D661F829F2227B00DA11D621F739F75
:1030A000B00DA11D621F839FA00D611D221F749F83
:1030B0003327A00D611D231F849F600D211D822FCA
:1030C000762F6A2F11249F5750408AF0E1F0882311
:1030D0004AF0EE0FFF1FBB1F661F771F881F91501E
:1030E0005040A9F79E3F510570F060CFAACF5F3FD7
:1030F000ECF3983EDCF3869577956795B795F79551
:10310000E7959F5FC1F7FE2B880F911D96958795D8
:1031100097F90895AA1BBB1B51E107C0AA1FBB1F4B
:10312000A617B70710F0A61BB70B881F991F5A9553
:10313000A9F780959095BC01CD010895A1E21A2EC2
:10314000AA1BBB1BFD010DC0AA1FBB1FEE1FFF1F4B
:10315000A217B307E407F50720F0A21BB30BE40B9B
:10316000F50B661F771F881F991F1A9469F76095E2
:103170007095809590959B01AC01BD01CF0108959C
:10318000052E97FB1EF400940E94D71857FD07D018
:103190000E949E1807FC03D04EF40C94D71850954B
:1031A0004095309521953F4F4F4F5F4F0895909533
:1031B0008095709561957F4F8F4F9F4F0895EE0FCB
:0E31C000FF1F0590F491E02D0994F894FFCFC5
:1031CE0028006400F401D007030078076400A00F04
:1031DE000000E803000090010000030000009111C0
:1031EE009111564D4450565F317C315F564D4450CF
:1031FE00560D0A00EDFF00000000EFFF000000007A
:10320E00F1FF00000000F3FF00000000F5FF0000DA
:10321E000000F7FF00000000F9FF000000000200B0
:10322E00000000009C019C01A201A801AE01B401A6
:10323E00BA01C001C60164015E01580152014C0180
:10324E00460140013A011500130011000F000D0058
:10325E000B0009000000020000000000F9FFF7FF5C
:10326E000000F7FFF5FF0000F5FFF3FF0000F3FF8E
:10327E00F1FF0000F1FFEFFF0000EFFFEDFF000098
:10328E00EDFFEBFF00000000000065046304BB04CB
:10329E00E1FF00000000C60900001F0000001F0033
:1032AE00000065049110BB04E3FF00000000040A57
:1032BE0000001D0000001D00000065049B10BB04F3
:1032CE00E5FF00000000880900001B0000001B0045
:1032DE00000065048710BB04E7FFF8FF0000000044
:1032EE005F0CEFFF0800000000001900000019003D
:1032FE0000006504AF10BB04EFFF000000000000EB
:10330E00000000001100000065046304BB04F1FF1F
:10331E00020000000000970BEFFFFEFF0000000010
:10332E000F0000000F0000006504A510BB04F3FFA2
:10333E0000000000400900000D0000000D0000001C
:10334E0065047D10BB04020000000000CC080000E4
:10335E00FEFF0000FEFF000065047310BB04EE02CA
:10336E00EE02FA02080314031C03260330033A0389
:10337E0044038C0298027402800256025E026802B6
:10338E003E02480220022802320206021202EE011A
:10339E00FA01D601E20121001F001D001B001300DF
:1033AE0011000F0000000000020000000000930D4D
:1033BE000000FEFF0000FEFF00006504B910BB0414
:1033CE00F1FFF3FFF1FF0000B910EFFFF1FF020074
:1033DE00EFFF0000C310EFFFEDFF0000E5FFE7FF7A
:1033EE00F8FFE5FF0000C310E3FFE5FFE3FF000079
:1033FE00B910E1FFE3FFE1FF0000B910DFFFE1FFCD
:10340E00DFFF0000B910000000006E040000000095
:10341E007104564D4450435F005F564D4450430D6A
:10342E000A004572726F723A20417474656D707441
:10343E0020746F20736574206120726561642D6F36
:10344E006E6C79207661726961626C65206F722094
:10345E00646174612074797065206E6F7420737569
:10346E0070706F727465640D0A000000000006141F
:10347E0082158813A1139313E4136E616E00696EA7
:08348E0066006F7666002E0057
:00000001FF
