:100000000C94BD000C945D0E0C94840E0C94E500D1
:100010000C94E5000C94E5000C94E5000C946D0C38
:100020000C94E5000C94E5000C94E5000C94E500BC
:100030000C94E5000C94E5000C94E5000C94E500AC
:100040000C94AB0E0C94E5000C948D110C94BF1124
:100050000C94E5000C94E5000C94E5000C94E5008C
:100060000C94E5000C94E50009206D61783A00538A
:1000700070616365206D696E3A0009206D61783AA0
:10008000004D61726B20206D696E3A004578746591
:100090006E743D0009200009002073003A6D0020B5
:1000A0002073002020486561643A206D00293A20C1
:1000B0004761703A005261772073616D706C6573AF
:1000C000280020626974732900202800293A2056EC
:1000D000616C75653A0028004465636F646564204F
:1000E000004861736820436F6465004E45437800A3
:1000F0004A56430050616E61736F6E6963204F6CA6
:1001000064005243360052433500536F6E79004EFF
:10011000454300556E6B6E6F776E0000000008005F
:1001200002010000030407000000000000000001BD
:10013000020408102040800102040810200102047B
:10014000081020040404040404040402020202024D
:100150000203030303030300000000230026002919
:100160000000000000250028002B000000000024F3
:100170000027002A00003802EF1111241FBECFEF24
:10018000D8E0DEBFCDBF13E0A0E0B1E0E8EEFAE2D8
:1001900002C005900D92A433B107D9F725E0A4E37E
:1001A000B3E001C01D92AC3EB207E1F711E0CAE72F
:1001B000D1E004C02297FE010E946E15C637D10718
:1001C000C9F70E9433120C9472150C940000CF935F
:1001D000DF93EC0102960E943104EEEEF1E0A48977
:1001E000B58916970D90BC91A02DAC0FBD1F8689C7
:1001F00097898D939C93A08DB18D16970D90BC918E
:10020000A02DAC0FBD1F828D938D50969C938E9325
:100210001F97A2A1B3A116970D90BC91A02DAC0F72
:10022000BD1F84A195A154969C938E935397CE01A4
:100230004196248D358DD90116970D90BC91A02D36
:10024000A80FB91F468D578D4D935C93D901189710
:100250000D90BC91A02DA80FB91F80A191A18D93E5
:100260009C93CE014B9626A137A1D90116970D90EC
:10027000BC91A02DA80FB91F40A551A54D935C932B
:10028000D90118970D90BC91A02DA80FB91F82A578
:1002900093A58D939C93A4A5B5A516970D90BC919D
:1002A000A02DAC0FBD1F86A597A55E969C938E933F
:1002B0005D97A0A9B1A916970D90BC91A02DAC0F88
:1002C000BD1F82A993A990969C938E935F97A4A932
:1002D000B5A916970D90BC91A02DAC0FBD1F86A996
:1002E00097A992969C938E9391978EE392E099832F
:1002F00088838AE492E09B838A8388E592E0988BE6
:100300008F8784E692E09A8B898B8CE692E09C8BB7
:100310008B8B86E792E09C8F8B8F80E892E09E8F9C
:100320008D8F8AE892E098A38F8F84E992E09AA358
:1003300089A3DF91CF91089540ED57E060E070E030
:100340008FE095E00E94C30D20E835E240E050E0E8
:100350006FE475E08FE095E00E94D60D8FE095E0A8
:100360000E94C00D64E071E08091400590914105CC
:100370000E94A3126AE070E080E090E00E94240FE7
:1003800041E060E08FE095E00E94410E26E040E809
:1003900055E260E070E08FE495E00E942B118BE362
:1003A00094E00E944D0C64E373E08EE294E00E94BE
:1003B000430460E08DE00C94E90FAF92BF92CF92BE
:1003C000DF92EF92FF920F931F936EE274E08BE344
:1003D00094E00E945E0C882309F441C061E08DE046
:1003E0000E94E90F8BE394E00E946A0284E8A82E41
:1003F00083E0B82E94E7C92E9EE0D92E24E8E22EA1
:1004000023E0F22E00E010E024E833E040E757E17B
:100410006CE08EE294E00E944704682F70E04AE0AE
:1004200050E08FE495E00E946D13409131045091AB
:100430003204609133047091340420E130E08FE4A1
:1004400095E00E94B5138EE294E01F910F91FF900A
:10045000EF90DF90CF90BF90AF900C94B4021F91BB
:100460000F91FF90EF90DF90CF90BF90AF900895E5
:100470006BE08BE394E00E94E00B8CEB92E09093B6
:100480003C0480933B048EE294E00E9431048BE0B4
:1004900094E00E94E7008EEF93E00E94310480EA2E
:1004A00092E09093FD038093FC038CEA92E090939A
:1004B000FF038093FE03089580E00895FC011282FB
:1004C0001382148215821682178212860895109262
:1004D0000E05089581E090E09093400480933F04DE
:1004E00010920E050895CF93DF93CDB7DEB76297D4
:1004F0000FB6F894DEBF0FBECDBF89300CF080E0A0
:1005000023E131E03A8329832FE031E03C832B83E0
:100510002AE031E03E832D8326E031E038872F83C7
:1005200022E031E03A87298724EF30E03C872B87AF
:1005300020EF30E03E872D872BEE30E0388B2F8781
:1005400021EE30E03A8B298BE82FEE0FFF0BEC0FFA
:10055000FD1F8181928162960FB6F894DEBF0FBEB7
:10056000CDBFDF91CF9108952F923F924F925F922E
:100570006F927F928F929F92AF92BF92CF92DF92B3
:10058000EF92FF920F931F93CF93DF93EC018A8139
:10059000893074F568ED70E08FE495E00E94801278
:1005A0008A810E947302BC018FE495E00E94801250
:1005B00066ED70E08FE495E00E9480126A817727F3
:1005C00067FD70954AE050E08FE495E00E94651366
:1005D0006CEC70E08FE495E00E9480124B815C81AE
:1005E0006D817E8120E130E08FE495E00E948513EB
:1005F00069EC70E08FE495E00E9480124AE050E0E0
:100600006F818FE495E00E94921362EC70E08FE4BA
:1006100095E00E94B01265EB70E08FE495E00E94D7
:1006200080124AE050E06A858FE495E00E949213C0
:100630006DEA70E08FE495E00E948012E885F9850C
:10064000608171814AE050E08FE495E00E949F1341
:1006500063EA70E08FE495E00E948012E885F985F6
:10066000628173814AE050E08FE495E00E94991323
:100670006FE970E08FE495E00E948012E885F985CB
:10068000648175814AE050E08FE495E00E949F13F9
:10069000E885F9858281938144805580480E591EF2
:1006A000612C712CC12CD12C212C312CAA24AA9480
:1006B0003FE7B32E88248A944FE7942E53E0E52E2B
:1006C000F12C8A8590E0E816F9060CF06EC0E885FA
:1006D000F985C701880F991FE80FF91F0081118163
:1006E000C801AA2797FDA095BA2F480E591E6A1E69
:1006F0007B1EE0FE16C00A151B050CF45801C0163F
:10070000D1060CF46801B7017595679561507109C0
:100710004AE050E08FE495E00E9465136CE970E0D8
:100720000DC01016110624F4081519050CF4480123
:10073000201631060CF4180169E970E08FE495E0A9
:100740000E9480124AE050E0B8018FE495E00E94D8
:10075000651387010150110900FF06C067E970E0C9
:100760008FE495E00E948012C80183709927019759
:1007700031F464E970E08FE495E00E948012C801D2
:1007800087709927019721F48FE495E00E94AC12BD
:100790000F7111270130110521F48FE495E00E94BB
:1007A000AC128FEFE81AF80A8CCF8FE495E00E9424
:1007B000AC126CE870E08FE495E00E9480122AE0B1
:1007C00030E0B301A2018FE495E00E94B51361E827
:1007D00070E08FE495E00E9480124AE050E0B5019D
:1007E0008FE495E00E9465136AE770E08FE495E07E
:1007F0000E9480124AE050E0B6018FE495E00E942A
:100800006D136FE670E08FE495E00E9480124AE07D
:1008100050E0B4018FE495E00E94651368E670E053
:100820008FE495E00E9480124AE050E0B1018FE42D
:1008300095E00E946D138FE495E0DF91CF911F91B9
:100840000F91FF90EF90DF90CF90BF90AF909F906F
:100850008F907F906F905F904F903F902F900C946F
:10086000AC12FC018AE191E09183808386E494E0FC
:1008700091878087138612821382148215821682D2
:10088000178212860895FC017187608708952F9260
:100890003F924F925F926F927F928F929F92AF9210
:1008A000BF92CF92DF92EF92FF920F931F93CF935D
:1008B000DF93CDB7DEB72E970FB6F894DEBF0FBE2D
:1008C000CDBF1C013A872987BE82AD8281E0D1016C
:1008D0001C968C931C97662321F01A968C91861394
:1008E00088C1F101938491103AC041155105B9F1C5
:1008F000A084B184D50112960D90BC91A02DBA832D
:10090000A983BA0180E090E00E9459142B013C01B8
:1009100020E030E040E45FE30E94E7140E942D14E1
:10092000E981FA81E617F70708F415C2D501129696
:10093000AD90BC90139720E030E040EA5FE3C30144
:10094000B2010E94E71420E030E040E85FE30E943B
:10095000C9130E942D146A157B0508F4FCC182E0BE
:10096000F101848729853A852115310589F1A08413
:10097000B184D50114968D909C901597B90180E0B3
:1009800090E00E9459142B013C0120E030E040E44B
:100990005FE30E94E7140E942D148616970608F460
:1009A00028C1F501A480B58020E030E040EA5FE393
:1009B000C301B2010E94E71420E030E040E85FE3A9
:1009C0000E94C9130E942D146A157B0508F411C1F9
:1009D000D1011A966C900115110509F463C0812CA0
:1009E000912C5401C601A0E0B0E089839A83AB83C7
:1009F000BC83C801A0E0B0E08D839E83AF83B8873D
:100A0000C701A0E0B0E089879A87AB87BC87D10196
:100A10001C967C90272D30E07614D8F5D1011896DD
:100A20004D905C901997F901EE0FFF1FE40DF51D35
:100A3000FE87ED870081118169817A818B819C819C
:100A40000E9459146B017C0120E030E040E45FE338
:100A50000E94E7140E942D140617170708F4C9C056
:100A6000AD85BE850D911C9120E030E040EA5FE34A
:100A7000C701B6010E94E71420E030E040E85FE3E0
:100A80000E94C9130E942D146017710708F07BC0E3
:100A9000B0C0C901019797FDC90195958795F101EE
:100AA000878369C06A9483E0D1011C968C93812C62
:100AB000912C5401C701A0E0B0E089839A83AB83F5
:100AC000BC83C601A0E0B0E089879A87AB87BC876A
:100AD000AD81BE81CD01A0E0B0E08D839E83AF8368
:100AE000B887F1017484272D30E07614D0F5F10138
:100AF00040845184C901880F991F840D951D9E87DC
:100B00008D87DC010D911C9169817A818B819C819B
:100B10000E9459146B017C0120E030E040E45FE367
:100B20000E94E7140E942D140617170708F461C0ED
:100B3000ED85FE850081118120E030E040EA5FE331
:100B4000C701B6010E94E71420E030E040E85FE30F
:100B50000E94C9130E942D146017710708F087C006
:100B600048C0C901019797FDC901959587958150A6
:100B7000D10117968C93F10183829482A582B6826B
:100B800099249394E8C081E0870DD1011C968C9341
:100B90008201080F111D080F111DF80140805180BE
:100BA0006D817E818F8198850E9459146B017C0133
:100BB00020E030E040E45FE30E94E7140E942D143F
:100BC00046165706C0F4D8014D905C9069857A8529
:100BD0008B859C850E9459146B017C0120E030E0DC
:100BE00040E45FE30E94E7140E942D144616570666
:100BF00018F5912CB0C0F8014080518020E030E021
:100C000040EA5FE3C701B6010E94E71420E030E04C
:100C100040E85FE30E94C9130E942D146415750516
:100C200090F2880C991CAA1CBB1C689480F87394E1
:100C30007394F1017486EBCED8010D911C9120E0E4
:100C400030E040EA5FE3C701B6010E94E71420E00C
:100C500030E040E85FE30E94C9130E942D14601742
:100C6000710738F2880C991CAA1CBB1CE0CF81E0EC
:100C7000870DF10184878201080F111D080F111DD6
:100C8000D8014D905C9069857A858B859C850E9402
:100C900059146B017C0120E030E040E45FE30E94E6
:100CA000E7140E942D144616570610F1D8014D90F6
:100CB0005C9020E030E040EA5FE3C701B6010E94AB
:100CC000E71420E030E040E85FE30E94C9130E948F
:100CD0002D146415750560F0880C991CAA1CBB1CAA
:100CE000689480F873947394D1011C967C92F9CE29
:100CF000F801408051806D817E818F8198850E94AE
:100D000059146B017C0120E030E040E45FE30E9475
:100D1000E7140E942D144616570608F46ACFF8010E
:100D20000081118120E030E040EA5FE3C701B601B5
:100D30000E94E71420E030E040E85FE30E94C9131E
:100D40000E942D146017710708F453CF880C991C6A
:100D5000AA1CBB1CC7CF892D2E960FB6F894DEBFF8
:100D60000FBECDBFDF91CF911F910F91FF90EF90FC
:100D7000DF90CF90BF90AF909F908F907F906F90BB
:100D80005F904F903F902F900895AF92BF92CF9277
:100D9000DF92EF92FF920F931F93CF93DF93EC01BB
:100DA000E881F98136970190F081E02DE80FF91F75
:100DB0008285843089F5A085B18514968D919C91AA
:100DC00015978739964040F114968D919C9115970F
:100DD0008E3F9A4008F516968D919C911797873A09
:100DE0009140D0F016968D919C911797833C92403C
:100DF00098F41782E881F98136970190F081E02D0F
:100E0000EC0FFD1F8FEF9FEFDC0183839483A5839D
:100E1000B68381E0828322C084E3A82E82E0B82ECC
:100E20009CE9C92E96E0D92E24E3E22E22E0F22E90
:100E300000E010E020EA31E140E453E264E4CF0155
:100E40000E944704882351F0E881F9813697019088
:100E5000F081E02DEC0FFD1F91E09283DF91CF91A7
:100E60001F910F91FF90EF90DF90CF90BF90AF90C8
:100E70000895AF92BF92CF92DF92EF92FF920F93BD
:100E80001F93CF93DF93EC01E881F981369780813E
:100E900091818C0F9D1FFC012285322F377F3231CB
:100EA00031F0203221F02A3211F080E01FC0A12C55
:100EB000B12C38E5C32E32E0D32E48E5E42E42E0D3
:100EC000F42E00EB14E028E532E040E659E060E063
:100ED0000E944704882349F3E881F98136970190FD
:100EE000F081E02DEC0FFD1F92E09283DF91CF9116
:100EF0001F910F91FF90EF90DF90CF90BF90AF9038
:100F00000895AF92BF92CF92DF92EF92FF920F932C
:100F10001F93CF93DF93EC01E881F98136978081AD
:100F2000918151E4A52E53E0B52E63ECC62E69E005
:100F3000D62E71E4E72E73E0F72E00E010E024E0F7
:100F40003DE044E05DE060E38C0F9D1F0E9447049C
:100F5000882351F0E881F98136970190F081E02DE6
:100F6000EC0FFD1F95E09283DF91CF911F910F91C0
:100F7000FF90EF90DF90CF90BF90AF900895AF9229
:100F8000BF92CF92DF92EF92FF920F931F93CF9376
:100F9000DF93EC01E881F981369780819181E4E368
:100FA000AE2EE2E0BE2EFCE9CF2EF6E0DF2EA4E36B
:100FB000EA2EA2E0FA2E00E010E020EA31E140EA59
:100FC00051E164E48C0F9D1F0E944704882351F077
:100FD000E881F98136970190F081E02DEC0FFD1F3B
:100FE00097E09283DF91CF911F910F91FF90EF9047
:100FF000DF90CF90BF90AF9008959F92AF92BF9235
:10100000CF92DF92EF92FF920F931F93CF93DF93D4
:10101000EC01E881F981369780819181BDE0AB2EAA
:10102000B2E0BB2E17E2C12E16E0D12E0DE0E02E6D
:1010300002E0F02E00E010E028E630E140ED50E262
:1010400064E28C0F9D1F0E944704982E81113BC0C3
:10105000E881F98136970190F081E02DEC0FFD1FBA
:101060008285823209F04AC020E030E04DE052E053
:1010700060E0CF010E944704882309F43FC0E88163
:10108000F98136970190F081E02DEC0FFD1FA085CE
:10109000B18518968D919C9119978D39944000F1E6
:1010A00018968D919C911997823B9740C8F4438183
:1010B0005481658176815068438354836583768348
:1010C00087818F5F8783E881F98136970190F0816E
:1010D000E02DEC0FFD1F86E08283992493940EC0CF
:1010E00018968D919C9119978938914038F01896EF
:1010F0008D919C9119978239924010F3892DDF913F
:10110000CF911F910F91FF90EF90DF90CF90BF9004
:10111000AF909F9008952F923F924F925F926F925F
:101120007F928F929F92AF92BF92CF92DF92EF9277
:10113000FF920F931F93CF93DF9300D01F92CDB7F1
:10114000DEB77C015B016A01DC01ED91FC91369711
:1011500000811181080F191FF80194848285981667
:1011600008F0BAC090858185E92FF82FE90DF11DAF
:10117000E90DF11D208131813B832A83892D8095E2
:1011800081708983812CBA0180E090E00E9459141B
:101190002B013C0120E030E040E45FE30E94E714D3
:1011A0000E942D14AA81BB81A617B707B0F020E0DA
:1011B00030E040EA5FE3C301B2010E94E71420E09F
:1011C00030E040E85FE30E94C9130E942D14EA81D9
:1011D000FB816E177F0708F064C01601220C331CD8
:1011E000B10180E090E00E9459142B013C0120E005
:1011F00030E040E45FE30E94E7140E942D142A814E
:101200003B8126173707A8F020E030E040EA5FE393
:10121000C301B2010E94E71420E030E040E85FE340
:101220000E94C9130E942D14AA81BB816A177B07F3
:10123000D0F5B1016C0D7D1D80E090E00E94591445
:101240002B013C0120E030E040E45FE30E94E71422
:101250000E942D14EA81FB81E617F707A8F020E031
:1012600030E040EA5FE3C301B2010E94E71420E0EE
:1012700030E040E85FE30E94C9130E942D142A81E8
:101280003B816217730788F4D8011B968C918823E1
:1012900031F1B1E09B1226C0EA81FB81EC15FD051E
:1012A00020F591E003C092E001C093E0D5018C915C
:1012B0008F5F891710F48C931BC0F5011082D70142
:1012C000ED91FC9136970190F081E02DEE0DFF1D20
:1012D00084858F5F84870CC0B1E0B98308C0E2E0E9
:1012E000E98305C0F2E0F98302C022E02983812C62
:1012F0008981982D0F900F900F90DF91CF911F91C2
:101300000F91FF90EF90DF90CF90BF90AF909F90A4
:101310008F907F906F905F904F903F902F900895A7
:101320000F931F93CF93DF93EC01E881F9813897F6
:101330000190F081E02DE80FF91F82858D3008F4CF
:10134000B1C081E08487E881F98136970190F0810E
:10135000E02DEC0FFD1F1482158216821782138276
:10136000E881F9813697808191818C0F9D1FBC01A6
:101370006D5F7F4F49E753E00E948B08892B09F08E
:1013800091C0E881F98136970190F081E02DEC0F52
:10139000FD1F128288819981FC0138970190F081AC
:1013A000E02DEC0FFD1F34852285321708F05AC05E
:1013B000FC013697808191818C0F9D1FBC016D5F70
:1013C0007F4F49E753E00E948B088C01E881F98147
:1013D0003697808191818C0F9D1FBC016D5F7F4F7F
:1013E00049E753E00E948B0801301105A9F4892BCD
:1013F00009F058C0E881F98136970190F081E02D1D
:10140000EC0FFD1F4481558166817781440F551F84
:10141000661F771F416016C0012B09F043C001977A
:1014200009F040C0E881F98136970190F081E02D04
:10143000EC0FFD1F4481558166817781440F551F54
:10144000661F771F4483558366837783E881F9811C
:1014500036970190F081E02DEC0FFD1F82818F5FA8
:10146000828398CF8DE0878388819981FC013897AA
:101470000190F081E02DEC0FFD1FDC0116970D901F
:10148000BC91A02DAC0FBD1F14968D919D910D9018
:10149000BC91A02D83839483A583B68383E082834C
:1014A00081E001C080E0DF91CF911F910F910895FD
:1014B000EF92FF920F931F93CF93DF93EC01E8819C
:1014C000F98138970190F081E02DE80FF91F8285AE
:1014D000811102C080E019C18385A085B185811189
:1014E0000EC012968D919C9113978F3C974090F36C
:1014F00012968D919C91139786309D4058F71496C3
:101500008D919C9115978A39924020F314968D9174
:101510009C91159789359440E8F683E08487E881AB
:10152000F98136970190F081E02DEC0FFD1F1482B8
:101530001582168217821382E881F981369780819D
:1015400091818C0F9D1FBC016D5F7F4F4CEB51E073
:101550000E948B08892B09F0BDCFE881F98136976D
:10156000808191818C0F9D1FBC016D5F7F4F4CEB83
:1015700051E00E948B08019709F0ACCFE881F98116
:1015800036970190F081E02DEC0FFD1F1282A881AB
:10159000B981FD0138970190F081E02DEC0FFD1F1E
:1015A000948582851697981708F08AC08D919C9132
:1015B0008C0F9D1FBC016D5F7F4F4CEB51E00E9473
:1015C0008B088C01E881F98136970190F081E02D3C
:1015D000EC0FFD1F82818330D9F0E881F9813697C5
:1015E000808191818C0F9D1FBC016D5F7F4F4CEB03
:1015F00051E00E948B087C01E881F98136970190C7
:10160000F081E02DEC0FFD1F82818330C9F40CC006
:10161000BF016D5F7F4F4CEB51E0CF010E948B0803
:1016200008171907D1F256CFBF016D5F7F4F4CEB02
:1016300051E0CF010E948B08E816F90609F04ACF65
:1016400001151105B1F4EA94EF2809F043CFE881C0
:10165000F98136970190F081E02DEC0FFD1F448158
:10166000558166817781440F551F661F771F416042
:1016700017C00130110509F02DCFEF2809F02ACF4E
:10168000E881F98136970190F081E02DEC0FFD1F84
:101690004481558166817781440F551F661F771FEE
:1016A0004483558366837783E881F9813697019077
:1016B000F081E02DEC0FFD1F82818F5F828367CF69
:1016C0000D90BC91A02DAC0FBD1F12968C918783FD
:1016D00088819981FC0138970190F081E02DEC0F11
:1016E000FD1FDC0116970D90BC91A02DAC0FBD1F06
:1016F00014968D919D910D90BC91A02D8383948320
:10170000A583B68384E0828381E0DF91CF911F912E
:101710000F91FF90EF900895CF93DF93EC01E88154
:10172000F9813A97808191818C0F9D1F0E94C50697
:10173000811142C0E881F9813C97808191818C0FB1
:101740009D1F0E943907811137C0E881F9813E97BA
:10175000808191818C0F9D1F0E94900981112CC066
:10176000E881F9817297808191818C0F9D1F0E9481
:10177000580A811121C0E881F98174978081918193
:101780008C0F9D1F0E948107811116C0E881F9818D
:101790007897808191818C0F9D1F0E94BF078111D6
:1017A0000BC0E881F9817697808191818C0F9D1F14
:1017B000DF91CF910C94FD0781E0DF91CF910895E7
:1017C00026EB32E0FC013183208360933E041092CB
:1017D000410424E622830895EF92FF920F931F9312
:1017E000CF93DF938C01EB017A01E881F9810190BD
:1017F000F081E02DCB01099580910E058A8740E0AC
:1018000080910E05481720F5A42FB0E0CD01880F78
:10181000991FE885F985E80FF91FDC01AA5BBB4F2A
:101820002D913C912E9DC0012F9D900D3E9D900DC0
:101830001124D80112962C9130E040FF03C031955D
:1018400021953109280F391F318320834F5FD8CF6D
:1018500081E0DF91CF911F910F91FF90EF9008955C
:10186000CF93DF93EC0180913E0460E00E94B00FC3
:10187000E881F9810190F081E02DCE01DF91CF91D7
:10188000099480914104882339F080910E0580FFEE
:1018900002C02D9A08952D9808950E94300CF89456
:1018A00082E08093B0008093B10094E69093B300FF
:1018B0001092B200809370007894089520913F04B4
:1018C000309140042430310531F442E350E00E946D
:1018D000EC0B81E0089580E008951F920F920FB6FF
:1018E0000F9211242F933F934F935F936F937F93A6
:1018F0008F939F93AF93BF93EF93FF9380913E0499
:101900000E941F104091420450914304609144048E
:10191000709145044F5F5F4F6F4F7F4F409342047C
:1019200050934304609344047093450420910E0542
:10193000243630F024E030E03093400420933F041C
:1019400020913F04309140042230310509F124F404
:101950002130310549F07FC023303105E1F12430D9
:10196000310509F46EC077C0892B09F074C08091ED
:10197000420490914304A0914404B09145048436FC
:101980009105A105B10508F45EC010920E0525C0B1
:10199000019709F060C0E0910E0581E08E0F809301
:1019A0000E05F0E08091420490914304A09144041C
:1019B000B0914504EE0FFF1FEA5BFB4F91838083DC
:1019C0001092420410924304109244041092450471
:1019D00083E090E031C0892B01F5E0910E0581E0B4
:1019E0008E0F80930E05F0E08091420490914304A5
:1019F000A0914404B0914504EE0FFF1FEA5BFB4F3A
:101A00009183808310924204109243041092440404
:101A10001092450482E090E00FC0809142049091C2
:101A20004304A0914404B091450485369105A10575
:101A3000B10588F084E090E09093400480933F04E7
:101A40000AC0892B41F41092420410924304109270
:101A50004404109245040E94410CFF91EF91BF9104
:101A6000AF919F918F917F916F915F914F913F9136
:101A70002F910F900FBE0F901F901895DC01ED91E4
:101A8000FC91389720813181820F931F0C94C506F9
:101A9000DC01ED91FC91389720813181820F931FF9
:101AA0000C943907DC01ED91FC913897208131814C
:101AB000820F931F0C948107DC01ED91FC91389704
:101AC00020813181820F931F0C94BF07DC01ED91BF
:101AD000FC91389720813181820F931F0C94FD0770
:101AE000DC01ED91FC91389720813181820F931FA9
:101AF0000C949009DC01ED91FC91389720813181A3
:101B0000820F931F0C94580ADC01ED91FC913897D9
:101B100020813181820F931F0C948C0BDC01ED919D
:101B2000FC913A9720813181820F931F0C948C0B8A
:101B30000F931F93CF93DF93EC01662359F00E941C
:101B4000F50E69837A838B839C83DF91CF911F91FC
:101B50000F9108950E94F50E09811A812B813C8115
:101B6000601B710B820B930B62337105810591052C
:101B700030F763E070E080E090E00E94240FEACF4D
:101B800060E00C94980DFC0113AA14AA15AA16AAD9
:101B9000118212821382148241155105610571056B
:101BA00021F0CB01BA010C94240F0895FB01BA0176
:101BB000A901DC01D296FC93EE93D19726E0CF01E8
:101BC0000C942B111F93CF93DF93EC01162F6EEB28
:101BD00072E089A99AA90E94A3124AE050E0612FFD
:101BE00089A99AA90E94921365EC72E089A99AA921
:101BF0000E94A31262E370E080E090E0DF91CF9159
:101C00001F910C94240F1F93CF93DF93EC01162F99
:101C10008D81882389F189A99AA9DC01ED91FC9134
:101C20000480F581E02D0995892BA9F307C026379B
:101C3000310519F12835310509F41D8289A99AA9C0
:101C4000DC01ED91FC910480F581E02D09951816D9
:101C5000190694F489A99AA9DC01ED91FC910680FA
:101C6000F781E02D09959C01332723363105F9F6DC
:101C7000612FCE010E94E20D83E6DF91CF911F918B
:101C800008950F931F93CF93DF931F92CDB7DEB7C5
:101C90008C01662349F081E0F801858360E0C8018A
:101CA00049830E94030E4981F80145830F90DF911B
:101CB000CF911F910F91089508951F920F920FB623
:101CC0000F9211242F933F934F935F936F937F93C2
:101CD0008F939F93AF93BF93EF93FF93E091000196
:101CE000F09101010995FF91EF91BF91AF919F9103
:101CF0008F917F916F915F914F913F912F910F90B5
:101D00000FBE0F901F9018951F920F920FB60F9253
:101D100011242F933F934F935F936F937F938F93F0
:101D20009F93AF93BF93EF93FF93E0910201F091E4
:101D300003010995FF91EF91BF91AF919F918F9111
:101D40007F916F915F914F913F912F910F900FBEB7
:101D50000F901F9018951F920F920FB60F9211249B
:101D60002F933F938F939F93AF93BF93809147059A
:101D700090914805A0914905B0914A0530914605DA
:101D800023E0230F2D3720F40196A11DB11D05C0BE
:101D900026E8230F0296A11DB11D209346058093CE
:101DA000470590934805A0934905B0934A05809153
:101DB0004B0590914C05A0914D05B0914E050196B3
:101DC000A11DB11D80934B0590934C05A0934D052B
:101DD000B0934E05BF91AF919F918F913F912F91FD
:101DE0000F900FBE0F901F9018952FB7F894609129
:101DF0004705709148058091490590914A052FBF8C
:101E000008953FB7F89480914B0590914C05A091AF
:101E10004D05B0914E0526B5A89B05C02F3F19F082
:101E20000196A11DB11D3FBF6627782F892F9A2FDC
:101E3000620F711D811D911D42E0660F771F881F83
:101E4000991F4A95D1F70895CF92DF92EF92FF92B2
:101E5000CF93DF936B017C010E94010FEB01C11452
:101E6000D104E104F10489F00E94C7130E94010F1C
:101E70006C1B7D0B683E734090F381E0C81AD1085B
:101E8000E108F108C851DC4FEACFDF91CF91FF9014
:101E9000EF90DF90CF900895789484B5826084BDF0
:101EA00084B5816084BD85B5826085BD85B581605E
:101EB00085BDEEE6F0E0808181608083E1E8F0E0BE
:101EC0001082808182608083808181608083E0E8ED
:101ED000F0E0808181608083E1EBF0E080818460CC
:101EE0008083E0EBF0E0808181608083EAE7F0E0CE
:101EF0008081846080838081826080838081816032
:101F000080838081806880831092C100089583302F
:101F100081F028F4813099F08230A1F00895873063
:101F2000A9F08830B9F08430D1F4809180008F7DA1
:101F300003C0809180008F7780938000089584B5DE
:101F40008F7702C084B58F7D84BD08958091B000E5
:101F50008F7703C08091B0008F7D8093B00008958B
:101F6000CF93DF9390E0FC01E15DFE4F2491FC01F3
:101F7000ED5BFE4F8491882349F190E0880F991F13
:101F8000FC01E559FE4FA591B4918F599E4FFC017C
:101F9000C591D4919FB7611108C0F8948C91209598
:101FA00082238C93888182230AC0623051F4F89492
:101FB0008C91322F309583238C938881822B888358
:101FC00004C0F8948C91822B8C939FBFDF91CF91AA
:101FD00008950F931F93CF93DF931F92CDB7DEB772
:101FE000282F30E0F901E55EFE4F8491F901E15DB3
:101FF000FE4F1491F901ED5BFE4F04910023C9F0EF
:10200000882321F069830E94870F6981E02FF0E027
:10201000EE0FFF1FEF59FE4FA591B4919FB7F894B3
:102020008C91611103C01095812301C0812B8C9389
:102030009FBF0F90DF91CF911F910F910895CF9384
:10204000DF93282F30E0F901E55EFE4F8491F9011E
:10205000E15DFE4FD491F901ED5BFE4FC491CC23BD
:1020600091F081110E94870FEC2FF0E0EE0FFF1F1F
:10207000E95AFE4FA591B4912C912D2381E090E077
:1020800021F480E002C080E090E0DF91CF910895DC
:10209000FC01818D228D90E0805C9F4F821B910915
:1020A0008F7399270895FC01918D828D981731F0D7
:1020B000828DE80FF11D858D90E008958FEF9FEFE1
:1020C0000895FC01918D828D981761F0828DDF015A
:1020D000A80FB11D5D968C91928D9F5F9F73928F1B
:1020E00090E008958FEF9FEF089585EE91E1892BA1
:1020F00049F080E090E0892B29F00E94E5118111E0
:102100000C9400000895FC01848DDF01A80FB11D1F
:10211000A35ABF4F2C91848D90E001968F7399271D
:10212000848FA689B7892C93A089B1898C9180640A
:102130008C93938D848D981306C00288F389E02DCB
:1021400080818F7D80830895CF93DF93EC01888D0C
:102150008823C9F0EA89FB89808185FD05C0A889AB
:10216000B9898C9186FD0FC00FB607FCF5CF808131
:1021700085FFF2CFA889B9898C9185FFEDCFCE017B
:102180000E948310E7CFDF91CF910895CF92DF9225
:10219000FF920F931F93CF93DF931F92CDB7DEB7BC
:1021A0006C0181E0D60158968C9358975B969C9170
:1021B0005B975C968C915C97981307C05096ED9155
:1021C000FC915197808185FD2EC0F601038D10E0B2
:1021D0000F5F1F4F0F731127F02EF601848DF81239
:1021E00011C00FB607FCF9CFD6015096ED91FC91C6
:1021F0005197808185FFF1CFC60169830E948310CA
:102200006981EBCF838DE80FF11DE35AFF4F6083A7
:10221000D6015B960C935B975296ED91FC91539788
:10222000808180620CC0D6015696ED91FC91579743
:1022300060835096ED91FC915197808180648083FA
:1022400081E090E00F90DF91CF911F910F91FF906F
:10225000DF90CF900895BF92CF92DF92EF92FF92DE
:10226000CF93DF93EC016A017B01B22EE889F989F3
:1022700082E08083411581EE580761057105A1F068
:1022800060E079E08DE390E0A70196010E944A1595
:1022900021503109410951095695479537952795A0
:1022A000211580E1380798F0E889F989108260E803
:1022B00074E88EE190E0A70196010E944A15215032
:1022C0003109410951095695479537952795EC8570
:1022D000FD853083EE85FF852083188EEC89FD898E
:1022E000B082EA89FB89808180618083EA89FB89E9
:1022F000808188608083EA89FB898081806880830F
:10230000EA89FB8980818F7D8083DF91CF91FF9067
:10231000EF90DF90CF90BF9008951F920F920FB66D
:102320000F9211242F938F939F93EF93FF93E0913C
:102330005F05F09160058081E0916505F09166058B
:1023400082FD12C09081809168058F5F8F7320910C
:102350006905821751F0E0916805F0E0E15BFA4F02
:10236000958F8093680501C08081FF91EF919F91C7
:102370008F912F910F900FBE0F901F9018951F9265
:102380000F920FB60F9211242F933F934F935F93A9
:102390006F937F938F939F93AF93BF93EF93FF932D
:1023A0008FE495E00E948310FF91EF91BF91AF9170
:1023B0009F918F917F916F915F914F913F912F915D
:1023C0000F900FBE0F901F9018958FE495E00E941C
:1023D000481021E0892B09F420E0822F0895109203
:1023E00052051092510588EE93E0A0E0B0E0809392
:1023F000530590935405A0935505B09356058AE173
:1024000093E09093500580934F0585EC90E0909376
:102410005C0580935B0584EC90E090935E0580936F
:102420005D0580EC90E09093600580935F0581EC02
:1024300090E0909362058093610582EC90E0909328
:1024400064058093630586EC90E090936605809325
:102450006505109268051092690510926A05109240
:102460006B05089508950E944C0F0E9432120E943D
:102470009C01C5E7D0E10E94DD012097E1F30E94B5
:102480007510F9CFCF92DF92EF92FF920F931F93C7
:10249000CF93DF937C016A01EB0100E010E00C15A3
:1024A0001D0571F06991D701ED91FC910190F081CA
:1024B000E02DC7010995892B19F00F5F1F4FEFCF52
:1024C000C801DF91CF911F910F91FF90EF90DF90A6
:1024D000CF9008956115710581F0DB010D9000200A
:1024E000E9F7AD0141505109461B570BDC01ED9155
:1024F000FC910280F381E02D099480E090E0089542
:10250000EF92FF920F931F93CF93DF938C017B0188
:10251000C0E0D0E0F701EC0FFD1F6491662359F095
:10252000F801A081B181ED91FC91C8010995892B39
:1025300011F02196EFCFCE01DF91CF911F910F9136
:10254000FF90EF9008950C946A12DC01ED91FC91DC
:102550000190F081E02D09946BEC72E00C946A120A
:102560000F931F93CF93DF93EC010E9480128C0195
:10257000CE010E94AC12800F911FDF91CF911F916D
:102580000F9108958F929F92AF92BF92CF92DF9258
:10259000EF92FF920F931F93CF93DF93CDB7DEB7E8
:1025A000A1970FB6F894DEBF0FBECDBF7C01C42E3D
:1025B000E52FCB01D22E19A221E02D1510F02AE033
:1025C000D22E8E010F5D1F4F8D2C912CA12CB12C82
:1025D0006C2D7E2FA50194010E944A158C2DD29E50
:1025E00080191124015011098A3014F4805D01C052
:1025F000895CF8018083211531054105510521F0E1
:10260000C22EE32FCA01E4CFB801C7010E946A12AB
:10261000A1960FB6F894DEBF0FBECDBFDF91CF916C
:102620001F910F91FF90EF90DF90CF90BF90AF90F0
:102630009F908F900895CF92DF92EF92FF920F9329
:102640001F93CF93DF93EC016A017B0121153105C4
:1026500079F4E881F9810190F081E02D642FDF9118
:10266000CF911F910F91FF90EF90DF90CF90099441
:102670002A303105E9F477FF1AC06DE20E94A512F5
:102680008C0144275527BA014C195D096E097F0951
:102690002AE0CE010E94C212800F911FDF91CF91DC
:1026A0001F910F91FF90EF90DF90CF9008952AE057
:1026B000B701A601CE01DF91CF911F910F91FF903D
:1026C000EF90DF90CF900C94C2129A01AB01662775
:1026D00057FD6095762F0C941B130F931F93CF9388
:1026E000DF93EC019A01AB01662757FD6095762FC9
:1026F0000E941B138C01CE010E94AC12800F911F0F
:10270000DF91CF911F910F9108952115310541F46B
:10271000DC01ED91FC910190F081E02D642F099492
:102720000C94C2129A01462F50E060E070E00C94C5
:1027300085139A01AB0160E070E00C9485130F9350
:102740001F93CF93DF93EC019A01AB0160E070E03F
:102750000E9485138C01CE010E94AC12800F911F44
:10276000DF91CF911F910F9108950F931F93CF93F6
:10277000DF93EC010E9485138C01CE010E94AC1204
:10278000800F911FDF91CF911F910F9108950895B0
:102790005058BB27AA270ED0E0C0D1D030F0D6D0F9
:1027A00020F031F49F3F11F41EF4C6C00EF4E09502
:1027B000E7FBBCC0E92FE2D080F3BA1762077307CA
:1027C0008407950718F071F49EF5FAC00EF4E095B1
:1027D0000B2EBA2FA02D0B01B90190010C01CA01DB
:1027E000A0011124FF27591B99F0593F50F4503E86
:1027F00068F11A16F040A22F232F342F4427585F78
:10280000F3CF469537952795A795F0405395C9F78F
:102810007EF41F16BA0B620B730B840BBAF0915047
:10282000A1F0FF0FBB1F661F771F881FC2F70EC0E6
:10283000BA0F621F731F841F48F4879577956795B9
:10284000B795F7959E3F08F0B3CF9395880F08F0A2
:102850009927EE0F97958795089598D088F09F5700
:1028600090F0B92F9927B751A0F0D1F0660F771FDC
:10287000881F991F1AF0BA95C9F712C0B13081F0BC
:102880009FD0B1E008959CC0672F782F8827B85F4C
:1028900039F0B93FCCF3869577956795B395D9F71D
:1028A0003EF490958095709561957F4F8F4F9F4F27
:1028B0000895E89409C097FB3EF490958095709533
:1028C00061957F4F8F4F9F4F9923A9F0F92F96E97C
:1028D000BB279395F695879577956795B795F111F1
:1028E000F8CFFAF4BB0F11F460FF1BC06F5F7F4F8E
:1028F0008F4F9F4F16C0882311F096E911C07723A0
:1029000021F09EE8872F762F05C0662371F096E8A8
:10291000862F70E060E02AF09A95660F771F881F77
:10292000DAF7880F9695879597F9089597F99F6735
:1029300080E870E060E008959FEF80EC0895002447
:102940000A941616170618060906089500240A9414
:1029500012161306140605060895092E0394000C9A
:1029600011F4882352F0BB0F40F4BF2B11F460FF29
:1029700004C06F5F7F4F8F4F9F4F089557FD905852
:10298000440F551F59F05F3F71F04795880F97FB33
:10299000991F61F09F3F79F08795089512161306ED
:1029A0001406551FF2CF4695F1DF08C0161617061C
:1029B0001806991FF1CF8695710561050894089551
:1029C000E894BB2766277727CB0197F908950BD0AA
:1029D000C4CFB5DF28F0BADF18F0952309F0A6CFF1
:1029E000ABCF1124EECFCADFA0F3959FD1F3950FA3
:1029F00050E0551F629FF001729FBB27F00DB11D83
:102A0000639FAA27F00DB11DAA1F649F6627B00D12
:102A1000A11D661F829F2227B00DA11D621F739FFB
:102A2000B00DA11D621F839FA00D611D221F749F09
:102A30003327A00D611D231F849F600D211D822F50
:102A4000762F6A2F11249F5750408AF0E1F0882397
:102A50004AF0EE0FFF1FBB1F661F771F881F9150A4
:102A60005040A9F79E3F510570F060CFAACF5F3F5D
:102A7000ECF3983EDCF3869577956795B795F795D7
:102A8000E7959F5FC1F7FE2B880F911D969587955F
:102A900097F90895A1E21A2EAA1BBB1BFD010DC0D8
:102AA000AA1FBB1FEE1FFF1FA217B307E407F507FE
:102AB00020F0A21BB30BE40BF50B661F771F881FDA
:102AC000991F1A9469F760957095809590959B0170
:102AD000AC01BD01CF010895EE0FFF1F0590F491E9
:082AE000E02D0994F894FFCFEA
:102AE8005C0E5C0E564D4450565F317C315F564D3E
:102AF8004450560D0A00000000005E025C02B40259
:102B0800E1FF00000000BF0700001F0000001F00D9
:102B180000005E025C0DB402E3FF00000000FD0748
:102B280000001D0000001D0000005E02660DB402DA
:102B3800E5FF00000000810700001B0000001B00EB
:102B480000005E02520DB402E7FFF8FF000000002B
:102B5800580AEFFF080000000000190000001900E3
:102B680000005E027A0DB402EFFF000000000000D2
:102B780000000000110000005E025C02B402F1FFD8
:102B88000200000000009009EFFFFEFF00000000B7
:102B98000F0000000F0000005E02700DB402F3FF8A
:102BA80000000000390700000D0000000D000000C3
:102BB8005E02480DB402020000000000C5060000D5
:102BC800FEFF0000FEFF00005E023E0DB4023E0262
:102BD8003E024A02580264026C02760280028A02AD
:102BE8009402DC01E801C401D001A601AE01B801DC
:102BF8008E019801700178018201560162013E013F
:102C08004A012601320121001F001D001B0013008C
:102C180011000F00000000000200000000008C0BF3
:102C28000000FEFF0000FEFF00005E02840DB402FB
:102C3800F1FFF3FFF1FF0000840DEFFFF1FF020049
:102C4800EFFF00008E0DEFFFEDFF0000E5FFE7FF4F
:102C5800F8FFE5FF00008E0DE3FFE5FFE3FF00004E
:102C6800840DE1FFE3FFE1FF0000840DDFFFE1FFDA
:102C7800DFFF0000840DA002AC020200000000008B
:102C880081070000FEFF0000FEFF00005E02520DFB
:102C9800B402000000006702000000006A02564DFE
:102CA8004450435F005F564D4450430D0A0045723F
:102CB800726F723A20417474656D707420746F205D
:102CC800736574206120726561642D6F6E6C792064
:102CD8007661726961626C65206F722064617461EB
:102CE8002074797065206E6F7420737570706F72C0
:102CF8007465640D0A0000000000C61042124810F6
:102D080061105310A4106E616E00696E66006F76D4
:042D180066002E0023
:00000001FF
