:100000000C94BD000C94140E0C943B0E0C94E50063
:100010000C94E5000C94E5000C94E5000C94240C81
:100020000C94E5000C94E5000C94E5000C94E500BC
:100030000C94E5000C94E5000C94E5000C94E500AC
:100040000C94620E0C94E5000C9444110C947611FF
:100050000C94E5000C94E5000C94E5000C94E5008C
:100060000C94E5000C94E50009206D61783A00538A
:1000700070616365206D696E3A0009206D61783AA0
:10008000004D61726B20206D696E3A004578746591
:100090006E743D0009200009002073003A6D0020B5
:1000A0002073002020486561643A206D00293A20C1
:1000B0004761703A005261772073616D706C6573AF
:1000C000280020626974732900202800293A2056EC
:1000D000616C75653A0028004465636F646564204F
:1000E000004861736820436F6465004E45437800A3
:1000F0004A56430050616E61736F6E6963204F6CA6
:1001000064005243360052433500536F6E79004EFF
:10011000454300556E6B6E6F776E0000000008005F
:1001200002010000030407000000000000000001BD
:10013000020408102040800102040810200102047B
:10014000081020040404040404040402020202024D
:100150000203030303030300000000230026002919
:100160000000000000250028002B000000000024F3
:100170000027002A00000402A61111241FBECFEFA1
:10018000D8E0DEBFCDBF13E0A0E0B1E0E6E5FAE2E3
:1001900002C005900D92A831B107D9F725E0A8E17A
:1001A000B3E001C01D92A43BB207E1F711E0CAE73A
:1001B000D1E004C02297FE010E942515C637D10761
:1001C000C9F70E94EA110C9429150C940000CF93F2
:1001D000DF93EC0102960E94E803EEEEF1E0A489C1
:1001E000B58916970D90BC91A02DAC0FBD1F8689C7
:1001F00097898D939C93A08DB18D16970D90BC918E
:10020000A02DAC0FBD1F828D938D50969C938E9325
:100210001F97A2A1B3A116970D90BC91A02DAC0F72
:10022000BD1F84A195A154969C938E935397CE01A4
:100230004196248D358DD90116970D90BC91A02D36
:10024000A80FB91F468D578D4D935C93D901189710
:100250000D90BC91A02DA80FB91F80A191A18D93E5
:100260009C93CE014B9626A137A1D90116970D90EC
:10027000BC91A02DA80FB91F40A551A54D935C932B
:10028000D90118970D90BC91A02DA80FB91F82A578
:1002900093A58D939C93A4A5B5A516970D90BC919D
:1002A000A02DAC0FBD1F86A597A55E969C938E933F
:1002B0005D97A0A9B1A916970D90BC91A02DAC0F88
:1002C000BD1F82A993A990969C938E935F97A4A932
:1002D000B5A916970D90BC91A02DAC0FBD1F86A996
:1002E00097A992969C938E9391978EE392E099832F
:1002F00088838AE492E09B838A8388E592E0988BE6
:100300008F8784E692E09A8B898B8CE692E09C8BB7
:100310008B8B86E792E09C8F8B8F80E892E09E8F9C
:100320008D8F8AE892E098A38F8F84E992E09AA358
:1003300089A3DF91CF91089540ED57E060E070E030
:1003400087ED94E00E947A0D20E835E240E050E02D
:1003500067E175E087ED94E00E948D0D87ED94E0F4
:100360000E94770D64E071E0809108059091090585
:100370000E945A126AE070E080E090E00E94DB0E7A
:1003800041E060E087ED94E00E94F80D26E040E84F
:1003900055E260E070E087E195E00E94E21083E0C2
:1003A00094E00E94040C68E173E082EE93E00E9406
:1003B000FA0360E08DE00C94A00F62EE73E083E03E
:1003C00094E00E94150C8823F1F061E08DE00E941A
:1003D000A00F83E094E00E94210280EE93E00E944F
:1003E000430B4091E5035091E6036091E703709160
:1003F000E8032AE030E087E195E00E946C1382EE8A
:1004000093E00C946B0208956BE083E094E00E940B
:10041000970B80EA92E0909304048093030480EEAB
:1004200093E00C94E70080E00895FC0112821382AF
:100430001482158216821782128608951092D604AD
:10044000089581E090E0909308048093070410924F
:10045000D6040895CF93DF93CDB7DEB762970FB67A
:10046000F894DEBF0FBECDBF89300CF080E023E1F1
:1004700031E03A8329832FE031E03C832B832AE06B
:1004800031E03E832D8326E031E038872F8322E060
:1004900031E03A87298724EF30E03C872B8720EF33
:1004A00030E03E872D872BEE30E0388B2F8721EE12
:1004B00030E03A8B298BE82FEE0FFF0BEC0FFD1F7E
:1004C0008181928162960FB6F894DEBF0FBECDBFD8
:1004D000DF91CF9108952F923F924F925F926F924A
:1004E0007F928F929F92AF92BF92CF92DF92EF92C4
:1004F000FF920F931F93CF93DF93EC018A81893092
:1005000074F568ED70E087E195E00E9437128A810A
:100510000E942A02BC0187E195E00E94371266ED35
:1005200070E087E195E00E9437126A81772767FDC6
:1005300070954AE050E087E195E00E941C136CEC56
:1005400070E087E195E00E9437124B815C816D81FC
:100550007E8120E130E087E195E00E943C1369EC68
:1005600070E087E195E00E9437124AE050E06F8129
:1005700087E195E00E94491362EC70E087E195E025
:100580000E94671265EB70E087E195E00E943712E8
:100590004AE050E06A8587E195E00E9449136DEAE0
:1005A00070E087E195E00E943712E885F985608167
:1005B00071814AE050E087E195E00E94561363EABA
:1005C00070E087E195E00E943712E885F985628145
:1005D00073814AE050E087E195E00E9450136FE993
:1005E00070E087E195E00E943712E885F985648123
:1005F00075814AE050E087E195E00E945613E88556
:10060000F9858281938144805580480E591E612C62
:10061000712CC12CD12C212C312CAA24AA943FE777
:10062000B32E88248A944FE7942E53E0E52EF12CC4
:100630008A8590E0E816F9060CF06EC0E885F98529
:10064000C701880F991FE80FF91F00811181C801A8
:10065000AA2797FDA095BA2F480E591E6A1E7B1E29
:10066000E0FE16C00A151B050CF45801C016D10691
:100670000CF46801B70175956795615071094AE0FE
:1006800050E087E195E00E941C136CE970E00DC01A
:100690001016110624F4081519050CF4480120164B
:1006A00031060CF4180169E970E087E195E00E94D9
:1006B00037124AE050E0B80187E195E00E941C1330
:1006C00087010150110900FF06C067E970E087E16A
:1006D00095E00E943712C80183709927019731F481
:1006E00064E970E087E195E00E943712C8018770E5
:1006F0009927019721F487E195E00E9463120F7119
:1007000011270130110521F487E195E00E94631261
:100710008FEFE81AF80A8CCF87E195E00E94631208
:100720006CE870E087E195E00E9437122AE030E043
:10073000B301A20187E195E00E946C1361E870E0CB
:1007400087E195E00E9437124AE050E0B50187E169
:1007500095E00E941C136AE770E087E195E00E9433
:1007600037124AE050E0B60187E195E00E94241379
:100770006FE670E087E195E00E9437124AE050E0B2
:10078000B40187E195E00E941C1368E670E087E100
:1007900095E00E9437124AE050E0B10187E195E010
:1007A0000E94241387E195E0DF91CF911F910F9173
:1007B000FF90EF90DF90CF90BF90AF909F908F9081
:1007C0007F906F905F904F903F902F900C946312AA
:1007D000FC018AE191E0918380838EE094E091872F
:1007E00080871386128213821482158216821782E2
:1007F00012860895FC017187608708952F923F92B9
:100800004F925F926F927F928F929F92AF92BF9220
:10081000CF92DF92EF92FF920F931F93CF93DF93CC
:10082000CDB7DEB72E970FB6F894DEBF0FBECDBFA3
:100830001C013A872987BE82AD8281E0D1011C96D6
:100840008C931C97662321F01A968C91861388C18D
:10085000F101938491103AC041155105B9F1A0847A
:10086000B184D50112960D90BC91A02DBA83A983B5
:10087000BA0180E090E00E9410142B013C0120E0BE
:1008800030E040E45FE30E949E140E94E413E9819B
:10089000FA81E617F70708F415C2D5011296AD9054
:1008A000BC90139720E030E040EA5FE3C301B2015F
:1008B0000E949E1420E030E040E85FE30E94801335
:1008C0000E94E4136A157B0508F4FCC182E0F10183
:1008D000848729853A852115310589F1A084B18461
:1008E000D50114968D909C901597B90180E090E009
:1008F0000E9410142B013C0120E030E040E45FE353
:100900000E949E140E94E4138616970608F428C1DC
:10091000F501A480B58020E030E040EA5FE3C30148
:10092000B2010E949E1420E030E040E85FE30E94A4
:1009300080130E94E4136A157B0508F411C1D101EC
:100940001A966C900115110509F463C0812C912C45
:100950005401C601A0E0B0E089839A83AB83BC83D5
:10096000C801A0E0B0E08D839E83AF83B887C70144
:10097000A0E0B0E089879A87AB87BC87D1011C963D
:100980007C90272D30E07614D8F5D10118964D9043
:100990005C901997F901EE0FFF1FE40DF51DFE871E
:1009A000ED870081118169817A818B819C810E9410
:1009B00010146B017C0120E030E040E45FE30E9412
:1009C0009E140E94E4130617170708F4C9C0AD85EA
:1009D000BE850D911C9120E030E040EA5FE3C70145
:1009E000B6010E949E1420E030E040E85FE30E94E0
:1009F00080130E94E4136017710708F07BC0B0C039
:100A0000C901019797FDC90195958795F1018783E4
:100A100069C06A9483E0D1011C968C93812C912C3F
:100A20005401C701A0E0B0E089839A83AB83BC8303
:100A3000C601A0E0B0E089879A87AB87BC87AD810B
:100A4000BE81CD01A0E0B0E08D839E83AF83B887E7
:100A5000F1017484272D30E07614D0F5F101408443
:100A60005184C901880F991F840D951D9E878D871C
:100A7000DC010D911C9169817A818B819C810E949E
:100A800010146B017C0120E030E040E45FE30E9441
:100A90009E140E94E4130617170708F461C0ED8541
:100AA000FE850081118120E030E040EA5FE3C7016C
:100AB000B6010E949E1420E030E040E85FE30E940F
:100AC00080130E94E4136017710708F087C048C0C4
:100AD000C901019797FDC901959587958150D1016D
:100AE00017968C93F10183829482A582B682992411
:100AF0009394E8C081E0870DD1011C968C9382010C
:100B0000080F111D080F111DF801408051806D81E3
:100B10007E818F8198850E9410146B017C0120E0FA
:100B200030E040E45FE30E949E140E94E413461606
:100B30005706C0F4D8014D905C9069857A858B8505
:100B40009C850E9410146B017C0120E030E040E4A1
:100B50005FE30E949E140E94E4134616570618F5A0
:100B6000912CB0C0F8014080518020E030E040EA94
:100B70005FE3C701B6010E949E1420E030E040E828
:100B80005FE30E9480130E94E4136415750590F2E0
:100B9000880C991CAA1CBB1C689480F873947394ED
:100BA000F1017486EBCED8010D911C9120E030E06C
:100BB00040EA5FE3C701B6010E949E1420E030E0E6
:100BC00040E85FE30E9480130E94E41360177107FE
:100BD00038F2880C991CAA1CBB1CE0CF81E0870D61
:100BE000F10184878201080F111D080F111DD80122
:100BF0004D905C9069857A858B859C850E94101448
:100C00006B017C0120E030E040E45FE30E949E1431
:100C10000E94E4134616570610F1D8014D905C90DF
:100C200020E030E040EA5FE3C701B6010E949E1475
:100C300020E030E040E85FE30E9480130E94E4136C
:100C40006415750560F0880C991CAA1CBB1C68947F
:100C500080F873947394D1011C967C92F9CEF801BC
:100C6000408051806D817E818F8198850E94101413
:100C70006B017C0120E030E040E45FE30E949E14C1
:100C80000E94E4134616570608F46ACFF801008163
:100C9000118120E030E040EA5FE3C701B6010E9425
:100CA0009E1420E030E040E85FE30E9480130E9441
:100CB000E4136017710708F453CF880C991CAA1C21
:100CC000BB1CC7CF892D2E960FB6F894DEBF0FBE82
:100CD000CDBFDF91CF911F910F91FF90EF90DF90EB
:100CE000CF90BF90AF909F908F907F906F905F90CC
:100CF0004F903F902F900895AF92BF92CF92DF9286
:100D0000EF92FF920F931F93CF93DF93EC01E88153
:100D1000F98136970190F081E02DE80FF91F828567
:100D2000843089F5A085B18514968D919C91159795
:100D30008739964040F114968D919C9115978E3F7E
:100D40009A4008F516968D919C911797873A914095
:100D5000D0F016968D919C911797833C924098F411
:100D60001782E881F98136970190F081E02DEC0F30
:100D7000FD1F8FEF9FEFDC0183839483A583B683F0
:100D800081E0828322C084E3A82E82E0B82E9CE911
:100D9000C92E96E0D92E24E3E22E22E0F22E00E0C6
:100DA00010E020EA31E140E453E264E4CF010E9424
:100DB000FE03882351F0E881F98136970190F08194
:100DC000E02DEC0FFD1F91E09283DF91CF911F91F9
:100DD0000F91FF90EF90DF90CF90BF90AF9008956C
:100DE000AF92BF92CF92DF92EF92FF920F931F9339
:100DF000CF93DF93EC01E881F9813697808191816F
:100E00008C0F9D1FFC012285322F377F323131F04C
:100E1000203221F02A3211F080E01FC0A12CB12C29
:100E200038E5C32E32E0D32E48E5E42E42E0F42E1E
:100E300000EB14E028E532E040E659E060E00E9473
:100E4000FE03882349F3E881F98136970190F08108
:100E5000E02DEC0FFD1F92E09283DF91CF911F9167
:100E60000F91FF90EF90DF90CF90BF90AF900895DB
:100E7000AF92BF92CF92DF92EF92FF920F931F93A8
:100E8000CF93DF93EC01E881F981369780819181DE
:100E900051E4A52E53E0B52E63ECC62E69E0D62EA4
:100EA00071E4E72E73E0F72E00E010E024E03DE06F
:100EB00044E05DE060E38C0F9D1F0E94FE038823E9
:100EC00051F0E881F98136970190F081E02DEC0F27
:100ED000FD1F95E09283DF91CF911F910F91FF90BD
:100EE000EF90DF90CF90BF90AF900895AF92BF92F8
:100EF000CF92DF92EF92FF920F931F93CF93DF93E6
:100F0000EC01E881F981369780819181E4E3AE2E8E
:100F1000E2E0BE2EFCE9CF2EF6E0DF2EA4E3EA2EBF
:100F2000A2E0FA2E00E010E020EA31E140EA51E1CF
:100F300064E48C0F9D1F0E94FE03882351F0E8811A
:100F4000F98136970190F081E02DEC0FFD1F97E0BD
:100F50009283DF91CF911F910F91FF90EF90DF90DF
:100F6000CF90BF90AF9008959F92AF92BF92CF92D3
:100F7000DF92EF92FF920F931F93CF93DF93EC01D9
:100F8000E881F981369780819181BDE0AB2EB2E096
:100F9000BB2E17E2C12E16E0D12E0DE0E02E02E0AE
:100FA000F02E00E010E028E630E140ED50E264E28F
:100FB0008C0F9D1F0E94FE03982E81113BC0E8817B
:100FC000F98136970190F081E02DEC0FFD1F8285AD
:100FD000823209F04AC020E030E04DE052E060E0AB
:100FE000CF010E94FE03882309F43FC0E881F98104
:100FF00036970190F081E02DEC0FFD1FA085B185A3
:1010000018968D919C9119978D39944000F11896FE
:101010008D919C911997823B9740C8F443815481EC
:1010200065817681506843835483658376838781A5
:101030008F5F8783E881F98136970190F081E02DF9
:10104000EC0FFD1F86E08283992493940EC01896BE
:101050008D919C9119978938914038F018968D910F
:101060009C9119978239924010F3892DDF91CF918D
:101070001F910F91FF90EF90DF90CF90BF90AF90B6
:101080009F9008952F923F924F925F926F927F921E
:101090008F929F92AF92BF92CF92DF92EF92FF9288
:1010A0000F931F93CF93DF9300D01F92CDB7DEB77E
:1010B0007C015B016A01DC01ED91FC9136970081B6
:1010C0001181080F191FF80194848285981608F081
:1010D000BAC090858185E92FF82FE90DF11DE90D42
:1010E000F11D208131813B832A83892D8095817078
:1010F0008983812CBA0180E090E00E9410142B01BA
:101100003C0120E030E040E45FE30E949E140E9436
:10111000E413AA81BB81A617B707B0F020E030E046
:1011200040EA5FE3C301B2010E949E1420E030E078
:1011300040E85FE30E9480130E94E413EA81FB8190
:101140006E177F0708F064C01601220C331CB10132
:1011500080E090E00E9410142B013C0120E030E080
:1011600040E45FE30E949E140E94E4132A813B81C5
:1011700026173707A8F020E030E040EA5FE3C3011C
:10118000B2010E949E1420E030E040E85FE30E943C
:1011900080130E94E413AA81BB816A177B07D0F5F4
:1011A000B1016C0D7D1D80E090E00E9410142B01B8
:1011B0003C0120E030E040E45FE30E949E140E9486
:1011C000E413EA81FB81E617F707A8F020E030E09E
:1011D00040EA5FE3C301B2010E949E1420E030E0C8
:1011E00040E85FE30E9480130E94E4132A813B8160
:1011F0006217730788F4D8011B968C91882331F10C
:10120000B1E09B1226C0EA81FB81EC15FD0520F5BB
:1012100091E003C092E001C093E0D5018C918F5F13
:10122000891710F48C931BC0F5011082D701ED9142
:10123000FC9136970190F081E02DEE0DFF1D848525
:101240008F5F84870CC0B1E0B98308C0E2E0E98316
:1012500005C0F2E0F98302C022E02983812C898154
:10126000982D0F900F900F90DF91CF911F910F91BC
:10127000FF90EF90DF90CF90BF90AF909F908F90B6
:101280007F906F905F904F903F902F9008950F93B5
:101290001F93CF93DF93EC01E881F9813897019098
:1012A000F081E02DE80FF91F82858D3008F4B1C080
:1012B00081E08487E881F98136970190F081E02D03
:1012C000EC0FFD1F14821582168217821382E881AB
:1012D000F9813697808191818C0F9D1FBC016D5FD4
:1012E0007F4F49E753E00E944208892B09F091C0E3
:1012F000E881F98136970190F081E02DEC0FFD1F18
:10130000128288819981FC0138970190F081E02D4B
:10131000EC0FFD1F34852285321708F05AC0FC01FE
:101320003697808191818C0F9D1FBC016D5F7F4F2F
:1013300049E753E00E9442088C01E881F981369721
:10134000808191818C0F9D1FBC016D5F7F4F49E7AC
:1013500053E00E94420801301105A9F4892B09F0DD
:1013600058C0E881F98136970190F081E02DEC0FAB
:10137000FD1F4481558166817781440F551F661F8B
:10138000771F416016C0012B09F043C0019709F097
:1013900040C0E881F98136970190F081E02DEC0F93
:1013A000FD1F4481558166817781440F551F661F5B
:1013B000771F4483558366837783E881F981369765
:1013C0000190F081E02DEC0FFD1F82818F5F828301
:1013D00098CF8DE0878388819981FC0138970190AF
:1013E000F081E02DEC0FFD1FDC0116970D90BC91F4
:1013F000A02DAC0FBD1F14968D919D910D90BC91A9
:10140000A02D83839483A583B68383E0828381E0C8
:1014100001C080E0DF91CF911F910F910895EF926D
:10142000FF920F931F93CF93DF93EC01E881F98133
:1014300038970190F081E02DE80FF91F8285811126
:1014400002C080E019C18385A085B18581110EC0DD
:1014500012968D919C9113978F3C974090F3129622
:101460008D919C91139786309D4058F714968D91DD
:101470009C9115978A39924020F314968D919C91F6
:10148000159789359440E8F683E08487E881F981EF
:1014900036970190F081E02DEC0FFD1F148215822C
:1014A000168217821382E881F981369780819181B3
:1014B0008C0F9D1FBC016D5F7F4F4CEB51E00E9474
:1014C0004208892B09F0BDCFE881F98136978081E8
:1014D00091818C0F9D1FBC016D5F7F4F4CEB51E0E4
:1014E0000E944208019709F0ACCFE881F981369754
:1014F0000190F081E02DEC0FFD1F1282A881B981CF
:10150000FD0138970190F081E02DEC0FFD1F9485CF
:1015100082851697981708F08AC08D919C918C0F40
:101520009D1FBC016D5F7F4F4CEB51E00E94420854
:101530008C01E881F98136970190F081E02DEC0F64
:10154000FD1F82818330D9F0E881F981369780814F
:1015500091818C0F9D1FBC016D5F7F4F4CEB51E063
:101560000E9442087C01E881F98136970190F08160
:10157000E02DEC0FFD1F82818330C9F40CC0BF0148
:101580006D5F7F4F4CEB51E0CF010E94420808177E
:101590001907D1F256CFBF016D5F7F4F4CEB51E081
:1015A000CF010E944208E816F90609F04ACF01155A
:1015B0001105B1F4EA94EF2809F043CFE881F981ED
:1015C00036970190F081E02DEC0FFD1F448155818D
:1015D00066817781440F551F661F771F416017C0D2
:1015E0000130110509F02DCFEF2809F02ACFE8814D
:1015F000F98136970190F081E02DEC0FFD1F4481B9
:10160000558166817781440F551F661F771F44837C
:10161000558366837783E881F98136970190F0815D
:10162000E02DEC0FFD1F82818F5F828367CF0D90CD
:10163000BC91A02DAC0FBD1F12968C918783888121
:101640009981FC0138970190F081E02DEC0FFD1F8E
:10165000DC0116970D90BC91A02DAC0FBD1F149608
:101660008D919D910D90BC91A02D83839483A58332
:10167000B68384E0828381E0DF91CF911F910F9147
:10168000FF90EF900895CF93DF93EC01E881F9810B
:101690003A97808191818C0F9D1F0E947C06811159
:1016A00042C0E881F9813C97808191818C0F9D1F18
:1016B0000E94F006811137C0E881F9813E97808150
:1016C00091818C0F9D1F0E94470981112CC0E881D8
:1016D000F9817297808191818C0F9D1F0E940F0A62
:1016E000811121C0E881F9817497808191818C0FEB
:1016F0009D1F0E943807811116C0E881F9817897F3
:10170000808191818C0F9D1F0E94760781110BC0F3
:10171000E881F9817697808191818C0F9D1FDF91FF
:10172000CF910C94B40781E0DF91CF9108952AE91D
:1017300032E0FC0131832083609306041092090497
:1017400024E622830895EF92FF920F931F93CF9385
:10175000DF938C01EB017A01E881F9810190F0813E
:10176000E02DCB0109958091D6048A8740E08091D5
:10177000D604481720F5A42FB0E0CD01880F991F9B
:10178000E885F985E80FF91FDC01A25FBB4F2D91B9
:101790003C912E9DC0012F9D900D3E9D900D1124DA
:1017A000D80112962C9130E040FF03C0319521956D
:1017B0003109280F391F318320834F5FD8CF81E053
:1017C000DF91CF911F910F91FF90EF900895CF93EC
:1017D000DF93EC018091060460E00E94670FE881CE
:1017E000F9810190F081E02DCE01DF91CF91099434
:1017F00080910904882339F08091D60480FF02C0CB
:101800002D9A08952D9808950E94E70BF89482E090
:101810008093B0008093B10094E69093B30010924F
:10182000B20080937000789408952091070430915D
:1018300008042430310531F442E350E00E94A30B48
:1018400081E0089580E008951F920F920FB60F92E5
:1018500011242F933F934F935F936F937F938F93B5
:101860009F93AF93BF93EF93FF93809106040E94E1
:10187000D60F40910A0450910B0460910C047091B2
:101880000D044F5F5F4F6F4F7F4F40930A0450939B
:101890000B0460930C0470930D042091D60424363D
:1018A00030F024E030E030930804209307042091C6
:1018B0000704309108042230310509F124F4213065
:1018C000310549F07FC023303105E1F12430310585
:1018D00009F46EC077C0892B09F074C080910A04A6
:1018E00090910B04A0910C04B0910D0484369105E5
:1018F000A105B10508F45EC01092D60425C0019779
:1019000009F060C0E091D60481E08E0F8093D60488
:10191000F0E080910A0490910B04A0910C04B09126
:101920000D04EE0FFF1FE25FFB4F91838083109247
:101930000A0410920B0410920C0410920D0483E020
:1019400090E031C0892B01F5E091D60481E08E0F43
:101950008093D604F0E080910A0490910B04A0914A
:101960000C04B0910D04EE0FFF1FE25FFB4F91835B
:10197000808310920A0410920B0410920C041092AF
:101980000D0482E090E00FC080910A0490910B0456
:10199000A0910C04B0910D0485369105A105B10507
:1019A00088F084E090E090930804809307040AC0D4
:1019B000892B41F410920A0410920B0410920C042B
:1019C00010920D040E94F80BFF91EF91BF91AF911F
:1019D0009F918F917F916F915F914F913F912F9147
:1019E0000F900FBE0F901F901895DC01ED91FC91A8
:1019F000389720813181820F931F0C947C06DC0183
:101A0000ED91FC91389720813181820F931F0C94C6
:101A1000F006DC01ED91FC91389720813181820F35
:101A2000931F0C943807DC01ED91FC9138972081CD
:101A30003181820F931F0C947607DC01ED91FC91AC
:101A4000389720813181820F931F0C94B407DC01F9
:101A5000ED91FC91389720813181820F931F0C9476
:101A60004709DC01ED91FC91389720813181820F8B
:101A7000931F0C940F0ADC01ED91FC9138972081A3
:101A80003181820F931F0C94430BDC01ED91FC918B
:101A90003A9720813181820F931F0C94430B0F934F
:101AA0001F93CF93DF93EC01662359F00E94AC0E95
:101AB00069837A838B839C83DF91CF911F910F91F0
:101AC00008950E94AC0E09811A812B813C81601B14
:101AD000710B820B930B623371058105910530F711
:101AE00063E070E080E090E00E94DB0EEACF60E00F
:101AF0000C944F0DFC0113AA14AA15AA16AA118260
:101B0000128213821482411551056105710521F07D
:101B1000CB01BA010C94DB0E0895FB01BA01A901B7
:101B2000DC01D296FC93EE93D19726E0CF010C9482
:101B3000E2101F93CF93DF93EC01162F62EA72E05D
:101B400089A99AA90E945A124AE050E0612F89A9F6
:101B50009AA90E94491369EA72E089A99AA90E9488
:101B60005A1262E370E080E090E0DF91CF911F9124
:101B70000C94DB0E1F93CF93DF93EC01162F8D8116
:101B8000882389F189A99AA9DC01ED91FC9104804F
:101B9000F581E02D0995892BA9F307C0263731057A
:101BA00019F12835310509F41D8289A99AA9DC01AA
:101BB000ED91FC910480F581E02D09951816190628
:101BC00094F489A99AA9DC01ED91FC910680F78132
:101BD000E02D09959C01332723363105F9F6612F55
:101BE000CE010E94990D83E6DF91CF911F91089558
:101BF0000F931F93CF93DF931F92CDB7DEB78C0166
:101C0000662349F081E0F801858360E0C8014983DB
:101C10000E94BA0D4981F80145830F90DF91CF9161
:101C20001F910F91089508951F920F920FB60F9272
:101C300011242F933F934F935F936F937F938F93D1
:101C40009F93AF93BF93EF93FF93E0910001F091C7
:101C500001010995FF91EF91BF91AF919F918F91F4
:101C60007F916F915F914F913F912F910F900FBE98
:101C70000F901F9018951F920F920FB60F9211247C
:101C80002F933F934F935F936F937F938F939F9384
:101C9000AF93BF93EF93FF93E0910201F0910301A3
:101CA0000995FF91EF91BF91AF919F918F917F9196
:101CB0006F915F914F913F912F910F900FBE0F90B9
:101CC0001F9018951F920F920FB60F9211242F9309
:101CD0003F938F939F93AF93BF9380910F05909104
:101CE0001005A0911105B091120530910E0523E069
:101CF000230F2D3720F40196A11DB11D05C026E844
:101D0000230F0296A11DB11D20930E0580930F0590
:101D100090931005A0931105B093120580911305BF
:101D200090911405A0911505B09116050196A11D7D
:101D3000B11D8093130590931405A0931505B093DE
:101D40001605BF91AF919F918F913F912F910F9069
:101D50000FBE0F901F9018952FB7F89460910F0544
:101D60007091100580911105909112052FBF089573
:101D70003FB7F8948091130590911405A091150533
:101D8000B091160526B5A89B05C02F3F19F0019606
:101D9000A11DB11D3FBF6627782F892F9A2F620F93
:101DA000711D811D911D42E0660F771F881F991FCD
:101DB0004A95D1F70895CF92DF92EF92FF92CF9399
:101DC000DF936B017C010E94B80EEB01C114D104BA
:101DD000E104F10489F00E947E130E94B80E6C1B8E
:101DE0007D0B683E734090F381E0C81AD108E1088A
:101DF000F108C851DC4FEACFDF91CF91FF90EF900F
:101E0000DF90CF900895789484B5826084BD84B5C6
:101E1000816084BD85B5826085BD85B5816085BDE5
:101E2000EEE6F0E0808181608083E1E8F0E01082FE
:101E3000808182608083808181608083E0E8F0E03F
:101E4000808181608083E1EBF0E080818460808329
:101E5000E0EBF0E0808181608083EAE7F0E0808160
:101E600084608083808182608083808181608083C0
:101E70008081806880831092C1000895833081F052
:101E800028F4813099F08230A1F008958730A9F0CC
:101E90008830B9F08430D1F4809180008F7D03C008
:101EA000809180008F7780938000089584B58F772C
:101EB00002C084B58F7D84BD08958091B0008F7776
:101EC00003C08091B0008F7D8093B0000895CF93C0
:101ED000DF9390E0FC01E15DFE4F2491FC01ED5B9E
:101EE000FE4F8491882349F190E0880F991FFC01EF
:101EF000E559FE4FA591B4918F599E4FFC01C591B4
:101F0000D4919FB7611108C0F8948C9120958223D9
:101F10008C93888182230AC0623051F4F8948C91AA
:101F2000322F309583238C938881822B888304C041
:101F3000F8948C91822B8C939FBFDF91CF91089561
:101F40000F931F93CF93DF931F92CDB7DEB7282F48
:101F500030E0F901E55EFE4F8491F901E15DFE4F4D
:101F60001491F901ED5BFE4F04910023C9F0882321
:101F700021F069830E943E0F6981E02FF0E0EE0FAF
:101F8000FF1FEF59FE4FA591B4919FB7F8948C9124
:101F9000611103C01095812301C0812B8C939FBFD9
:101FA0000F90DF91CF911F910F910895CF93DF9301
:101FB000282F30E0F901E55EFE4F8491F901E15DE3
:101FC000FE4FD491F901ED5BFE4FC491CC2391F00B
:101FD00081110E943E0FEC2FF0E0EE0FFF1FE95A37
:101FE000FE4FA591B4912C912D2381E090E021F436
:101FF00080E002C080E090E0DF91CF910895FC0185
:10200000818D228D90E0805C9F4F821B91098F73A0
:1020100099270895FC01918D828D981731F0828D5A
:10202000E80FF11D858D90E008958FEF9FEF0895E3
:10203000FC01918D828D981761F0828DDF01A80FD0
:10204000B11D5D968C91928D9F5F9F73928F90E0F2
:1020500008958FEF9FEF08958CE991E1892B49F066
:1020600080E090E0892B29F00E949C1181110C9452
:1020700000000895FC01848DDF01A80FB11DA35A53
:10208000BF4F2C91848D90E001968F739927848F98
:10209000A689B7892C93A089B1898C9180648C938F
:1020A000938D848D981306C00288F389E02D80817A
:1020B0008F7D80830895CF93DF93EC01888D8823F3
:1020C000C9F0EA89FB89808185FD05C0A889B989A5
:1020D0008C9186FD0FC00FB607FCF5CF808185FF80
:1020E000F2CFA889B9898C9185FFEDCFCE010E94EE
:1020F0003A10E7CFDF91CF910895CF92DF92FF9210
:102100000F931F93CF93DF931F92CDB7DEB76C0170
:1021100081E0D60158968C9358975B969C915B977B
:102120005C968C915C97981307C05096ED91FC914A
:102130005197808185FD2EC0F601038D10E00F5F61
:102140001F4F0F731127F02EF601848DF81211C066
:102150000FB607FCF9CFD6015096ED91FC9151973F
:10216000808185FFF1CFC60169830E943A106981A1
:10217000EBCF838DE80FF11DE35AFF4F6083D6014B
:102180005B960C935B975296ED91FC9153978081EF
:1021900080620CC0D6015696ED91FC9157976083F2
:1021A0005096ED91FC91519780818064808381E00D
:1021B00090E00F90DF91CF911F910F91FF90DF90F2
:1021C000CF900895BF92CF92DF92EF92FF92CF937C
:1021D000DF93EC016A017B01B22EE889F98982E084
:1021E0008083411581EE580761057105A1F060E01B
:1021F00079E08DE390E0A70196010E94011521503E
:10220000310941095109569547953795279521156B
:1022100080E1380798F0E889F989108260E874E86D
:102220008EE190E0A70196010E940115215031092D
:10223000410951095695479537952795EC85FD85B8
:102240003083EE85FF852083188EEC89FD89B0826E
:10225000EA89FB89808180618083EA89FB898081AA
:1022600088608083EA89FB89808180688083EA892D
:10227000FB8980818F7D8083DF91CF91FF90EF90EC
:10228000DF90CF90BF9008951F920F920FB60F92DC
:1022900011242F938F939F93EF93FF93E091270542
:1022A000F09128058081E0912D05F0912E0582FDA9
:1022B00012C09081809130058F5F8F73209131051E
:1022C000821751F0E0913005F0E0E95EFA4F958F0A
:1022D0008093300501C08081FF91EF919F918F9194
:1022E0002F910F900FBE0F901F9018951F920F9275
:1022F0000FB60F9211242F933F934F935F936F93D9
:102300007F938F939F93AF93BF93EF93FF9387E157
:1023100095E00E943A10FF91EF91BF91AF919F918C
:102320008F917F916F915F914F913F912F910F907E
:102330000FBE0F901F90189587E195E00E94FF0F48
:1023400021E0892B09F420E0822F089510921A05CC
:102350001092190588EE93E0A0E0B0E080931B0591
:1023600090931C05A0931D05B0931E058EEF92E07F
:10237000909318058093170585EC90E090932405C1
:102380008093230584EC90E09093260580932505A7
:1023900080EC90E0909328058093270581EC90E0F5
:1023A00090932A058093290582EC90E090932C0568
:1023B00080932B0586EC90E090932E0580932D055D
:1023C00010923005109231051092320510923305AB
:1023D000089508950E94030F0E94E9110E949C0134
:1023E000CCE2D0E10E94DD012097E1F30E942C10A5
:1023F000F9CFCF92DF92EF92FF920F931F93CF937B
:10240000DF937C016A01EB0100E010E00C151D0573
:1024100071F06991D701ED91FC910190F081E02D6F
:10242000C7010995892B19F00F5F1F4FEFCFC80126
:10243000DF91CF911F910F91FF90EF90DF90CF90A0
:1024400008956115710581F0DB010D900020E9F719
:10245000AD0141505109461B570BDC01ED91FC9138
:102460000280F381E02D099480E090E00895EF92DE
:10247000FF920F931F93CF93DF938C017B01C0E0FA
:10248000D0E0F701EC0FFD1F6491662359F0F801CD
:10249000A081B181ED91FC91C8010995892B11F0C2
:1024A0002196EFCFCE01DF91CF911F910F91FF9039
:1024B000EF9008950C942112DC01ED91FC910190B4
:1024C000F081E02D09946FEA72E00C9421120F93D1
:1024D0001F93CF93DF93EC010E9437128C01CE0142
:1024E0000E946312800F911FDF91CF911F910F9176
:1024F00008958F929F92AF92BF92CF92DF92EF9208
:10250000FF920F931F93CF93DF93CDB7DEB7A197C1
:102510000FB6F894DEBF0FBECDBF7C01C42EE52FF1
:10252000CB01D22E19A221E02D1510F02AE0D22ED7
:102530008E010F5D1F4F8D2C912CA12CB12C6C2D79
:102540007E2FA50194010E9401158C2DD29E801929
:102550001124015011098A3014F4805D01C0895C96
:10256000F8018083211531054105510521F0C22E66
:10257000E32FCA01E4CFB801C7010E942112A1963E
:102580000FB6F894DEBF0FBECDBFDF91CF911F9184
:102590000F91FF90EF90DF90CF90BF90AF909F9002
:1025A0008F900895CF92DF92EF92FF920F931F9337
:1025B000CF93DF93EC016A017B012115310579F49A
:1025C000E881F9810190F081E02D642FDF91CF91B6
:1025D0001F910F91FF90EF90DF90CF9009942A30D8
:1025E0003105E9F477FF1AC06DE20E945C128C019C
:1025F00044275527BA014C195D096E097F092AE065
:10260000CE010E947912800F911FDF91CF911F910F
:102610000F91FF90EF90DF90CF9008952AE0B701DF
:10262000A601CE01DF91CF911F910F91FF90EF9006
:10263000DF90CF900C9479129A01AB01662757FD79
:102640006095762F0C94D2120F931F93CF93DF9344
:10265000EC019A01AB01662757FD6095762F0E9429
:10266000D2128C01CE010E946312800F911FDF9164
:10267000CF911F910F9108952115310541F4DC018F
:10268000ED91FC910190F081E02D642F09940C9460
:1026900079129A01462F50E060E070E00C943C13F0
:1026A0009A01AB0160E070E00C943C130F931F9310
:1026B000CF93DF93EC019A01AB0160E070E00E94E0
:1026C0003C138C01CE010E946312800F911FDF9199
:1026D000CF911F910F9108950F931F93CF93DF9385
:1026E000EC010E943C138C01CE010E946312800F0A
:1026F000911FDF91CF911F910F9108950895505828
:10270000BB27AA270ED0E0C0D1D030F0D6D020F021
:1027100031F49F3F11F41EF4C6C00EF4E095E7FBC0
:10272000BCC0E92FE2D080F3BA17620773078407B1
:10273000950718F071F49EF5FAC00EF4E0950B2E93
:10274000BA2FA02D0B01B90190010C01CA01A00103
:102750001124FF27591B99F0593F50F4503E68F15E
:102760001A16F040A22F232F342F4427585FF3CF9F
:10277000469537952795A795F0405395C9F77EF470
:102780001F16BA0B620B730B840BBAF09150A1F0B9
:10279000FF0FBB1F661F771F881FC2F70EC0BA0F3F
:1027A000621F731F841F48F4879577956795B795C7
:1027B000F7959E3F08F0B3CF9395880F08F09927BF
:1027C000EE0F97958795089598D088F09F5790F0D1
:1027D000B92F9927B751A0F0D1F0660F771F881F46
:1027E000991F1AF0BA95C9F712C0B13081F09FD085
:1027F000B1E008959CC0672F782F8827B85F39F023
:10280000B93FCCF3869577956795B395D9F73EF4A4
:1028100090958095709561957F4F8F4F9F4F08954C
:10282000E89409C097FB3EF490958095709561956A
:102830007F4F8F4F9F4F9923A9F0F92F96E9BB2720
:102840009395F695879577956795B795F111F8CF9C
:10285000FAF4BB0F11F460FF1BC06F5F7F4F8F4F07
:102860009F4F16C0882311F096E911C0772321F0FD
:102870009EE8872F762F05C0662371F096E8862F95
:1028800070E060E02AF09A95660F771F881FDAF7EC
:10289000880F9695879597F9089597F99F6780E82F
:1028A00070E060E008959FEF80EC089500240A94A2
:1028B0001616170618060906089500240A9412161B
:1028C0001306140605060895092E0394000C11F44E
:1028D000882352F0BB0F40F4BF2B11F460FF04C0FB
:1028E0006F5F7F4F8F4F9F4F089557FD9058440F54
:1028F000551F59F05F3F71F04795880F97FB991F5F
:1029000061F09F3F79F0879508951216130614061B
:10291000551FF2CF4695F1DF08C0161617061806A8
:10292000991FF1CF86957105610508940895E89483
:10293000BB2766277727CB0197F908950BD0C4CF23
:10294000B5DF28F0BADF18F0952309F0A6CFABCF9A
:102950001124EECFCADFA0F3959FD1F3950F50E07D
:10296000551F629FF001729FBB27F00DB11D639F41
:10297000AA27F00DB11DAA1F649F6627B00DA11DE7
:10298000661F829F2227B00DA11D621F739FB00D8D
:10299000A11D621F839FA00D611D221F749F3327FD
:1029A000A00D611D231F849F600D211D822F762F96
:1029B0006A2F11249F5750408AF0E1F088234AF093
:1029C000EE0FFF1FBB1F661F771F881F91505040DF
:1029D000A9F79E3F510570F060CFAACF5F3FECF39F
:1029E000983EDCF3869577956795B795F795E795CB
:1029F0009F5FC1F7FE2B880F911D9695879597F9DC
:102A00000895A1E21A2EAA1BBB1BFD010DC0AA1F2F
:102A1000BB1FEE1FFF1FA217B307E407F50720F047
:102A2000A21BB30BE40BF50B661F771F881F991FC2
:102A30001A9469F760957095809590959B01AC010B
:102A4000BD01CF010895EE0FFF1F0590F491E02D19
:062A50000994F894FFCF89
:102A5600130E130E564D4450565F317C315F564D62
:102A66004450560D0A0000000000150213026B02C6
:102A7600E1FF00000000760700001F0000001F00B5
:102A860000001502130D6B02E3FF00000000B407FF
:102A960000001D0000001D00000015021D0D6B0248
:102AA600E5FF00000000380700001B0000001B00C7
:102AB60000001502090D6B02E7FFF8FF0000000099
:102AC6000F0AEFFF080000000000190000001900BF
:102AD60000001502310D6B02EFFF00000000000040
:102AE6000000000011000000150213026B02F1FF46
:102AF6000200000000004709EFFFFEFF0000000093
:102B06000F0000000F0000001502270D6B02F3FFF7
:102B160000000000F00600000D0000000D0000009F
:102B26001502FF0C6B020200000000007C0600008C
:102B3600FEFF0000FEFF00001502F50C6B023E02D0
:102B46003E024A02580264026C02760280028A023F
:102B56009402DC01E801C401D001A601AE01B8016E
:102B66008E019801700178018201560162013E01D1
:102B76004A012601320121001F001D001B0013001F
:102B860011000F0000000000020000000000430BCF
:102B96000000FEFF0000FEFF000015023B0D6B0269
:102BA600F1FFF3FFF1FF00003B0DEFFFF1FF020025
:102BB600EFFF0000450DEFFFEDFF0000E5FFE7FF2B
:102BC600F8FFE5FF0000450DE3FFE5FFE3FF00002A
:102BD6003B0DE1FFE3FFE1FF00003B0DDFFFE1FFFF
:102BE600DFFF00003B0D000000001E020000000099
:102BF6002102564D4450435F005F564D4450430DED
:102C06000A004572726F723A20417474656D707471
:102C160020746F20736574206120726561642D6F66
:102C26006E6C79207661726961626C65206F7220C4
:102C3600646174612074797065206E6F7420737599
:102C460070706F727465640D0A00000000007D10DC
:102C5600F911FF0F18100A105B106E616E00696E95
:082C660066006F7666002E0087
:00000001FF
