:100000000C94BD000C943B080C9462080C94E50021
:100010000C94E5000C94E5000C94E5000C949B0610
:100020000C94E5000C94E5000C94E5000C94E500BC
:100030000C94E5000C94E5000C94E5000C94E500AC
:100040000C9489080C94E5000C946B0B0C949D0B9C
:100050000C94E5000C94E5000C94E5000C94E5008C
:100060000C94E5000C94E50009206D61783A00538A
:1000700070616365206D696E3A0009206D61783AA0
:10008000004D61726B20206D696E3A004578746591
:100090006E743D0009200009002073003A6D0020B5
:1000A0002073002020486561643A206D00293A20C1
:1000B0004761703A005261772073616D706C6573AF
:1000C000280020626974732900202800293A2056EC
:1000D000616C75653A0028004465636F646564204F
:1000E000004861736820436F6465004E45437800A3
:1000F0004A56430050616E61736F6E6963204F6CA6
:1001000064005243360052433500536F6E79004EFF
:10011000454300556E6B6E6F776E0000000008005F
:1001200002010000030407000000000000000001BD
:10013000020408102040800102040810200102047B
:10014000081020040404040404040402020202024D
:100150000203030303030300000000230026002919
:100160000000000000250028002B000000000024F3
:100170000027002A00004B01CD0B11241FBECFEF3A
:10018000D8E0DEBFCDBF11E0A0E0B1E0E4EAFEE1DF
:1001900002C005900D92AE3BB107D9F724E0AEEB5B
:1001A000B1E001C01D92A634B207E1F711E0CAE741
:1001B000D1E004C02297FE010E944C0FC637D10740
:1001C000C9F70E94110C0C94500F0C94000040EDE4
:1001D00057E060E070E089E693E00E94A10720E824
:1001E00035E240E050E069EA73E089E693E00E947E
:1001F000B40789E693E00E949E0764E071E0809175
:100200009A0390919B030E94810C6AE070E080E069
:1002100090E00E94020941E060E089E693E00E94DC
:100220001F0826E040E855E260E070E089EA93E0CC
:100230000E94090B85E992E00E947B066EEB71E05B
:1002400088E892E00E944E0360E08DE00C94C709BC
:1002500068E872E085E992E00E948C068823D1F07C
:1002600061E08DE00E94C70985E992E00E94750176
:1002700086E892E00E94D0056091BE017091BF01B6
:100280004AE050E089EA93E00E947D0D88E892E020
:100290000C94BF0108956BE085E992E00E940E0680
:1002A00086E491E0909396028093950288E892E02C
:1002B0000E943C038AE291E0909387028093860239
:1002C00086E391E09093890280938802089580E00C
:1002D0000895FC01128213821482158216821782FD
:1002E0001286089510926803089581E090E090933B
:1002F0009A0280939902109268030895CF93DF9336
:10030000CDB7DEB762970FB6F894DEBF0FBECDBF94
:1003100089300CF080E023E131E03A8329832FE03B
:1003200031E03C832B832AE031E03E832D8326E0BD
:1003300031E038872F8322E031E03A87298724EFA4
:1003400030E03C872B8720EF30E03E872D872BEE77
:1003500030E0388B2F8721EE30E03A8B298BE82F65
:10036000EE0FFF0BEC0FFD1F8181928162960FB69D
:10037000F894DEBF0FBECDBFDF91CF9108952F92CD
:100380003F924F925F926F927F928F929F92AF9225
:10039000BF92CF92DF92EF92FF920F931F93CF9372
:1003A000DF93EC018A81893074F568ED70E089EAA9
:1003B00093E00E945E0C8A810E947E01BC0189EA62
:1003C00093E00E945E0C66ED70E089EA93E00E9483
:1003D0005E0C6A81772767FD70954AE050E089EAF4
:1003E00093E00E94430D6CEC70E089EA93E00E9478
:1003F0005E0C4B815C816D817E8120E130E089EA79
:1004000093E00E94630D69EC70E089EA93E00E943A
:100410005E0C4AE050E06F8189EA93E00E94700D23
:1004200062EC70E089EA93E00E948E0C65EB70E06C
:1004300089EA93E00E945E0C4AE050E06A8589EA0E
:1004400093E00E94700D6DEA70E089EA93E00E94EB
:100450005E0CE885F985608171814AE050E089EAA7
:1004600093E00E947D0D63EA70E089EA93E00E94C8
:100470005E0CE885F985628173814AE050E089EA83
:1004800093E00E94770D6FE970E089EA93E00E94A3
:100490005E0CE885F985648175814AE050E089EA5F
:1004A00093E00E947D0DE885F985828193814480E7
:1004B0005580480E591E612C712CC12CD12C212C39
:1004C000312CAA24AA943FE7B32E88248A944FE7BC
:1004D000942E53E0E52EF12C8A8590E0E816F9067B
:1004E0000CF06EC0E885F985C701880F991FE80FE9
:1004F000F91F00811181C801AA2797FDA095BA2F85
:10050000480E591E6A1E7B1EE0FE16C00A151B050A
:100510000CF45801C016D1060CF46801B7017595AA
:100520006795615071094AE050E089EA93E00E94C2
:10053000430D6CE970E00DC01016110624F4081587
:1005400019050CF44801201631060CF4180169E96C
:1005500070E089EA93E00E945E0C4AE050E0B80146
:1005600089EA93E00E94430D87010150110900FFC1
:1005700006C067E970E089EA93E00E945E0CC8015A
:1005800083709927019731F464E970E089EA93E078
:100590000E945E0CC80187709927019721F489EAAF
:1005A00093E00E948A0C0F7111270130110521F48C
:1005B00089EA93E00E948A0C8FEFE81AF80A8CCF40
:1005C00089EA93E00E948A0C6CE870E089EA93E083
:1005D0000E945E0C2AE030E0B301A20189EA93E0B8
:1005E0000E94930D61E870E089EA93E00E945E0C3E
:1005F0004AE050E0B50189EA93E00E94430D6AE7C2
:1006000070E089EA93E00E945E0C4AE050E0B60197
:1006100089EA93E00E944B0D6FE670E089EA93E06F
:100620000E945E0C4AE050E0B40189EA93E00E9427
:10063000430D68E670E089EA93E00E945E0C4AE0B0
:1006400050E0B10189EA93E00E944B0D89EA93E002
:10065000DF91CF911F910F91FF90EF90DF90CF909E
:10066000BF90AF909F908F907F906F905F904F90D2
:100670003F902F900C948A0CFC018AE191E09183C9
:10068000808380EA92E091878087138612821382AA
:10069000148215821682178212860895FC017187D2
:1006A000608708952F923F924F925F926F927F9250
:1006B0008F929F92AF92BF92CF92DF92EF92FF9272
:1006C0000F931F93CF93DF93CDB7DEB72E970FB65F
:1006D000F894DEBF0FBECDBF1C013A872987BE82CA
:1006E000AD8281E0D1011C968C931C97662321F08A
:1006F0001A968C91861388C1F101938491103AC0A7
:1007000041155105B9F1A084B184D50112960D901F
:10071000BC91A02DBA83A983BA0180E090E00E9429
:10072000370E2B013C0120E030E040E45FE30E9403
:10073000C50E0E940B0EE981FA81E617F70708F44F
:1007400015C2D5011296AD90BC90139720E030E011
:1007500040EA5FE3C301B2010E94C50E20E030E031
:1007600040E85FE30E94A70D0E940B0E6A157B050F
:1007700008F4FCC182E0F101848729853A852115BE
:10078000310589F1A084B184D50114968D909C9097
:100790001597B90180E090E00E94370E2B013C01D3
:1007A00020E030E040E45FE30E94C50E0E940B0EA3
:1007B0008616970608F428C1F501A480B58020E0CC
:1007C00030E040EA5FE3C301B2010E94C50E20E0C1
:1007D00030E040E85FE30E94A70D0E940B0E6A150F
:1007E0007B0508F411C1D1011A966C900115110511
:1007F00009F463C0812C912C5401C601A0E0B0E043
:1008000089839A83AB83BC83C801A0E0B0E08D8369
:100810009E83AF83B887C701A0E0B0E089879A873D
:10082000AB87BC87D1011C967C90272D30E07614D5
:10083000D8F5D10118964D905C901997F901EE0FFB
:10084000FF1FE40DF51DFE87ED8700811181698191
:100850007A818B819C810E94370E6B017C0120E0A4
:1008600030E040E45FE30E94C50E0E940B0E0617C5
:10087000170708F4C9C0AD85BE850D911C9120E015
:1008800030E040EA5FE3C701B6010E94C50E20E0F8
:1008900030E040E85FE30E94A70D0E940B0E601756
:1008A000710708F07BC0B0C0C901019797FDC9016D
:1008B00095958795F101878369C06A9483E0D1019A
:1008C0001C968C93812C912C5401C701A0E0B0E0C0
:1008D00089839A83AB83BC83C601A0E0B0E089879B
:1008E0009A87AB87BC87AD81BE81CD01A0E0B0E027
:1008F0008D839E83AF83B887F1017484272D30E008
:100900007614D0F5F10140845184C901880F991FF4
:10091000840D951D9E878D87DC010D911C91698149
:100920007A818B819C810E94370E6B017C0120E0D3
:1009300030E040E45FE30E94C50E0E940B0E0617F4
:10094000170708F461C0ED85FE850081118120E064
:1009500030E040EA5FE3C701B6010E94C50E20E027
:1009600030E040E85FE30E94A70D0E940B0E601785
:10097000710708F087C048C0C901019797FDC901F8
:10098000959587958150D10117968C93F1018382BB
:100990009482A582B68299249394E8C081E0870D61
:1009A000D1011C968C938201080F111D080F111D97
:1009B000F801408051806D817E818F8198850E94F1
:1009C000370E6B017C0120E030E040E45FE30E94E1
:1009D000C50E0E940B0E46165706C0F4D8014D9066
:1009E0005C9069857A858B859C850E94370E6B01AA
:1009F0007C0120E030E040E45FE30E94C50E0E94ED
:100A00000B0E4616570618F5912CB0C0F801408021
:100A1000518020E030E040EA5FE3C701B6010E9468
:100A2000C50E20E030E040E85FE30E94A70D0E9481
:100A30000B0E6415750590F2880C991CAA1CBB1C42
:100A4000689480F873947394F1017486EBCED801A6
:100A50000D911C9120E030E040EA5FE3C701B60150
:100A60000E94C50E20E030E040E85FE30E94A70D41
:100A70000E940B0E6017710738F2880C991CAA1C93
:100A8000BB1CE0CF81E0870DF10184878201080F54
:100A9000111D080F111DD8014D905C9069857A8554
:100AA0008B859C850E94370E6B017C0120E030E035
:100AB00040E45FE30E94C50E0E940B0E46165706E7
:100AC00010F1D8014D905C9020E030E040EA5FE307
:100AD000C701B6010E94C50E20E030E040E85FE3A8
:100AE0000E94A70D0E940B0E6415750560F0880C1E
:100AF000991CAA1CBB1C689480F873947394D10150
:100B00001C967C92F9CEF801408051806D817E81E7
:100B10008F8198850E94370E6B017C0120E030E0C8
:100B200040E45FE30E94C50E0E940B0E4616570676
:100B300008F46ACFF8010081118120E030E040EA3A
:100B40005FE3C701B6010E94C50E20E030E040E837
:100B50005FE30E94A70D0E940B0E6017710708F457
:100B600053CF880C991CAA1CBB1CC7CF892D2E966D
:100B70000FB6F894DEBF0FBECDBFDF91CF911F91AE
:100B80000F91FF90EF90DF90CF90BF90AF909F902C
:100B90008F907F906F905F904F903F902F9008952F
:100BA000AF92BF92CF92DF92EF92FF920F931F937B
:100BB000CF93DF93EC01E881F981369780819181B1
:100BC00051E4A52E53E0B52E63ECC62E69E0D62E77
:100BD00071E4E72E73E0F72E00E010E024E03DE042
:100BE00044E05DE060E38C0F9D1F0E945203882368
:100BF00051F0E881F98136970190F081E02DEC0FFA
:100C0000FD1F95E09283DF91CF911F910F91FF908F
:100C1000EF90DF90CF90BF90AF90089520E431E047
:100C2000FC01318320836093980210929B0224E69A
:100C300022830895EF92FF920F931F93CF93DF9338
:100C40008C01EB017A01E881F9810190F081E02DBE
:100C5000CB010995809168038A8740E08091680301
:100C6000481720F5A42FB0E0CD01880F991FE88523
:100C7000F985E80FF91FDC01A056BD4F2D913C917D
:100C80002E9DC0012F9D900D3E9D900D1124D801E9
:100C900012962C9130E040FF03C031952195310927
:100CA000280F391F318320834F5FD8CF81E0DF9138
:100CB000CF911F910F91FF90EF900895CF93DF9305
:100CC000EC018091980260E00E948E09E881F98130
:100CD0000190F081E02DCE01DF91CF9109948091B8
:100CE0009B02882339F08091680380FF02C02D9A0F
:100CF00008952D9808950E945E06F89482E08093EE
:100D0000B0008093B10094E69093B3001092B200CB
:100D100080937000789408952091990230919A02FE
:100D20002430310531F442E350E00E941A0681E09C
:100D3000089580E008951F920F920FB60F9211242C
:100D40002F933F934F935F936F937F938F939F93D3
:100D5000AF93BF93EF93FF93809198020E94FD0998
:100D600040919C0250919D0260919E0270919F0261
:100D70004F5F5F4F6F4F7F4F40939C0250939D0298
:100D800060939E0270939F0220916803243630F096
:100D900024E030E030939A02209399022091990246
:100DA00030919A022230310509F124F421303105C5
:100DB00049F07FC023303105E1F12430310509F4D9
:100DC0006EC077C0892B09F074C080919C0290910D
:100DD0009D02A0919E02B0919F0284369105A105CB
:100DE000B10508F45EC01092680325C0019709F0B0
:100DF00060C0E091680381E08E0F80936803F0E0AB
:100E000080919C0290919D02A0919E02B0919F02C0
:100E1000EE0FFF1FE056FD4F9183808310929C02DE
:100E200010929D0210929E0210929F0283E090E029
:100E300031C0892B01F5E091680381E08E0F80932A
:100E40006803F0E080919C0290919D02A0919E0227
:100E5000B0919F02EE0FFF1FE056FD4F91838083FC
:100E600010929C0210929D0210929E0210929F027C
:100E700082E090E00FC080919C0290919D02A09131
:100E80009E02B0919F0285369105A105B10588F0BB
:100E900084E090E090939A02809399020AC0892B93
:100EA00041F410929C0210929D0210929E021092A8
:100EB0009F020E946F06FF91EF91BF91AF919F91AA
:100EC0008F917F916F915F914F913F912F910F90F3
:100ED0000FBE0F901F901895DC01ED91FC91389793
:100EE00020813181820F931F0C94D0050F931F93A3
:100EF000CF93DF93EC01662359F00E94D3086983F6
:100F00007A838B839C83DF91CF911F910F910895FA
:100F10000E94D30809811A812B813C81601B710BCF
:100F2000820B930B623371058105910530F763E005
:100F300070E080E090E00E940209EACF60E00C944B
:100F40007607FC0113AA14AA15AA16AA1182128206
:100F500013821482411551056105710521F0CB0101
:100F6000BA010C9402090895FB01BA01A901DC0140
:100F7000D296FC93EE93D19726E0CF010C94090B07
:100F80001F93CF93DF93EC01162F68E471E089A9DA
:100F90009AA90E94810C4AE050E0612F89A99AA980
:100FA0000E94700D6FE471E089A99AA90E94810CDA
:100FB00062E370E080E090E0DF91CF911F910C94AC
:100FC00002091F93CF93DF93EC01162F8D818823A5
:100FD00089F189A99AA9DC01ED91FC910480F58140
:100FE000E02D0995892BA9F307C02637310519F1A2
:100FF0002835310509F41D8289A99AA9DC01ED91F2
:10100000FC910480F581E02D09951816190694F4D9
:1010100089A99AA9DC01ED91FC910680F781E02D68
:1010200009959C01332723363105F9F6612FCE014E
:101030000E94C00783E6DF91CF911F9108950F931F
:101040001F93CF93DF931F92CDB7DEB78C0166233A
:1010500049F081E0F801858360E0C80149830E947E
:10106000E1074981F80145830F90DF91CF911F91EE
:101070000F91089508951F920F920FB60F921124A9
:101080002F933F934F935F936F937F938F939F9390
:10109000AF93BF93EF93FF93E0910001F0910101B3
:1010A0000995FF91EF91BF91AF919F918F917F91A2
:1010B0006F915F914F913F912F910F900FBE0F90C5
:1010C0001F9018951F920F920FB60F9211242F9315
:1010D0003F934F935F936F937F938F939F93AF93C0
:1010E000BF93EF93FF93E0910201F0910301099503
:1010F000FF91EF91BF91AF919F918F917F916F91F0
:101100005F914F913F912F910F900FBE0F901F90C5
:1011100018951F920F920FB60F9211242F933F93A1
:101120008F939F93AF93BF938091A1039091A2035C
:10113000A091A303B091A4033091A00323E0230F57
:101140002D3720F40196A11DB11D05C026E8230FFF
:101150000296A11DB11D2093A0038093A10390933B
:10116000A203A093A303B093A4038091A50390913D
:10117000A603A091A703B091A8030196A11DB11DDC
:101180008093A5039093A603A093A703B093A8030D
:10119000BF91AF919F918F913F912F910F900FBE73
:1011A0000F901F9018952FB7F8946091A10370913C
:1011B000A2038091A3039091A4032FBF08953FB78A
:1011C000F8948091A5039091A603A091A703B091F4
:1011D000A80326B5A89B05C02F3F19F00196A11DB5
:1011E000B11D3FBF6627782F892F9A2F620F711D7F
:1011F000811D911D42E0660F771F881F991F4A9538
:10120000D1F70895CF92DF92EF92FF92CF93DF93C1
:101210006B017C010E94DF08EB01C114D104E104E1
:10122000F10489F00E94A50D0E94DF086C1B7D0B64
:10123000683E734090F381E0C81AD108E108F108D4
:10124000C851DC4FEACFDF91CF91FF90EF90DF9054
:10125000CF900895789484B5826084BD84B5816010
:1012600084BD85B5826085BD85B5816085BDEEE6AE
:10127000F0E0808181608083E1E8F0E0108280818D
:1012800082608083808181608083E0E8F0E08081FB
:1012900081608083E1EBF0E0808184608083E0EB1B
:1012A000F0E0808181608083EAE7F0E08081846003
:1012B000808380818260808380818160808380815F
:1012C000806880831092C1000895833081F028F4F3
:1012D000813099F08230A1F008958730A9F08830EC
:1012E000B9F08430D1F4809180008F7D03C080916B
:1012F00080008F7780938000089584B58F7702C037
:1013000084B58F7D84BD08958091B0008F7703C030
:101310008091B0008F7D8093B0000895CF93DF93CC
:1013200090E0FC01E15DFE4F2491FC01ED5BFE4F7E
:101330008491882349F190E0880F991FFC01E559B9
:10134000FE4FA591B4918F599E4FFC01C591D49148
:101350009FB7611108C0F8948C91209582238C93DB
:10136000888182230AC0623051F4F8948C91322F24
:10137000309583238C938881822B888304C0F894D2
:101380008C91822B8C939FBFDF91CF9108950F9307
:101390001F93CF93DF931F92CDB7DEB7282F30E096
:1013A000F901E55EFE4F8491F901E15DFE4F149174
:1013B000F901ED5BFE4F04910023C9F0882321F071
:1013C00069830E9465096981E02FF0E0EE0FFF1F3D
:1013D000EF59FE4FA591B4919FB7F8948C9161118C
:1013E00003C01095812301C0812B8C939FBF0F9068
:1013F000DF91CF911F910F910895CF93DF93282F05
:1014000030E0F901E55EFE4F8491F901E15DFE4FA8
:10141000D491F901ED5BFE4FC491CC2391F0811181
:101420000E946509EC2FF0E0EE0FFF1FE95AFE4F16
:10143000A591B4912C912D2381E090E021F480E0DE
:1014400002C080E090E0DF91CF910895FC01818D92
:10145000228D90E0805C9F4F821B91098F739927AA
:101460000895FC01918D828D981731F0828DE80FDF
:10147000F11D858D90E008958FEF9FEF0895FC0199
:10148000918D828D981761F0828DDF01A80FB11DBB
:101490005D968C91928D9F5F9F73928F90E00895DF
:1014A0008FEF9FEF089583EC9BE0892B49F080E05C
:1014B00090E0892B29F00E94C30B81110C9400004D
:1014C0000895FC01848DDF01A80FB11DA35ABF4F01
:1014D0002C91848D90E001968F739927848FA68933
:1014E000B7892C93A089B1898C9180648C93938D5A
:1014F000848D981306C00288F389E02D80818F7D4A
:1015000080830895CF93DF93EC01888D8823C9F001
:10151000EA89FB89808185FD05C0A889B9898C91FC
:1015200086FD0FC00FB607FCF5CF808185FFF2CF97
:10153000A889B9898C9185FFEDCFCE010E94610AFF
:10154000E7CFDF91CF910895CF92DF92FF920F9373
:101550001F93CF93DF931F92CDB7DEB76C0181E06D
:10156000D60158968C9358975B969C915B975C96A6
:101570008C915C97981307C05096ED91FC91519710
:10158000808185FD2EC0F601038D10E00F5F1F4F97
:101590000F731127F02EF601848DF81211C00FB6CB
:1015A00007FCF9CFD6015096ED91FC9151978081BF
:1015B00085FFF1CFC60169830E94610A6981EBCF83
:1015C000838DE80FF11DE35AFF4F6083D6015B96D0
:1015D0000C935B975296ED91FC91539780818062BA
:1015E0000CC0D6015696ED91FC91579760835096AA
:1015F000ED91FC91519780818064808381E090E03F
:101600000F90DF91CF911F910F91FF90DF90CF90BE
:101610000895BF92CF92DF92EF92FF92CF93DF9324
:10162000EC016A017B01B22EE889F98982E08083AE
:10163000411581EE580761057105A1F060E079E080
:101640008DE390E0A70196010E94280F21503109F7
:10165000410951095695479537952795211580E100
:10166000380798F0E889F989108260E874E88EE11B
:1016700090E0A70196010E94280F215031094109ED
:1016800051095695479537952795EC85FD8530830B
:10169000EE85FF852083188EEC89FD89B082EA896A
:1016A000FB89808180618083EA89FB8980818860F1
:1016B0008083EA89FB89808180688083EA89FB894D
:1016C00080818F7D8083DF91CF91FF90EF90DF90BD
:1016D000CF90BF9008951F920F920FB60F921124D2
:1016E0002F938F939F93EF93FF93E091B903F09122
:1016F000BA038081E091BF03F091C00382FD12C064
:1017000090818091C2038F5F8F732091C3038217F2
:1017100051F0E091C203F0E0E755FC4F958F8093C4
:10172000C20301C08081FF91EF919F918F912F9112
:101730000F900FBE0F901F9018951F920F920FB62B
:101740000F9211242F933F934F935F936F937F9347
:101750008F939F93AF93BF93EF93FF9389EA93E0A7
:101760000E94610AFF91EF91BF91AF919F918F917C
:101770007F916F915F914F913F912F910F900FBE8D
:101780000F901F90189589EA93E00E94260A21E0A5
:10179000892B09F420E0822F08951092AC03109257
:1017A000AB0388EE93E0A0E0B0E08093AD039093AC
:1017B000AE03A093AF03B093B00384EA91E090939B
:1017C000AA038093A90385EC90E09093B6038093DD
:1017D000B50384EC90E09093B8038093B70380EC5A
:1017E00090E09093BA038093B90381EC90E09093DA
:1017F000BC038093BB0382EC90E09093BE03809384
:10180000BD0386EC90E09093C0038093BF031092D9
:10181000C2031092C3031092C4031092C50308952B
:1018200008950E942A090E94100C0E94E700C3E557
:10183000DAE00E9428012097E1F30E94530AF9CFD1
:10184000CF92DF92EF92FF920F931F93CF93DF938C
:101850007C016A01EB0100E010E00C151D0571F040
:101860006991D701ED91FC910190F081E02DC701C4
:101870000995892B19F00F5F1F4FEFCFC801DF913A
:10188000CF911F910F91FF90EF90DF90CF9008952F
:101890006115710581F0DB010D900020E9F7AD01C4
:1018A00041505109461B570BDC01ED91FC91028020
:1018B000F381E02D099480E090E00895EF92FF928B
:1018C0000F931F93CF93DF938C017B01C0E0D0E097
:1018D000F701EC0FFD1F6491662359F0F801A08118
:1018E000B181ED91FC91C8010995892B11F02196E8
:1018F000EFCFCE01DF91CF911F910F91FF90EF902D
:1019000008950C94480CDC01ED91FC910190F0815C
:10191000E02D099465E571E00C94480C0F931F933A
:10192000CF93DF93EC010E945E0C8C01CE010E94EC
:101930008A0C800F911FDF91CF911F910F91089515
:101940008F929F92AF92BF92CF92DF92EF92FF92CF
:101950000F931F93CF93DF93CDB7DEB7A1970FB649
:10196000F894DEBF0FBECDBF7C01C42EE52FCB01A6
:10197000D22E19A221E02D1510F02AE0D22E8E01D0
:101980000F5D1F4F8D2C912CA12CB12C6C2D7E2F17
:10199000A50194010E94280F8C2DD29E801911243C
:1019A000015011098A3014F4805D01C0895CF8018E
:1019B0008083211531054105510521F0C22EE32F09
:1019C000CA01E4CFB801C7010E94480CA1960FB626
:1019D000F894DEBF0FBECDBFDF91CF911F910F9165
:1019E000FF90EF90DF90CF90BF90AF909F908F903F
:1019F0000895CF92DF92EF92FF920F931F93CF93B0
:101A0000DF93EC016A017B012115310579F4E8814E
:101A1000F9810190F081E02D642FDF91CF911F912A
:101A20000F91FF90EF90DF90CF9009942A3031050D
:101A3000E9F477FF1AC06DE20E94830C8C01442701
:101A40005527BA014C195D096E097F092AE0CE01BC
:101A50000E94A00C800F911FDF91CF911F910F91D9
:101A6000FF90EF90DF90CF9008952AE0B701A60194
:101A7000CE01DF91CF911F910F91FF90EF90DF90FA
:101A8000CF900C94A00C9A01AB01662757FD60958E
:101A9000762F0C94F90C0F931F93CF93DF93EC01E7
:101AA0009A01AB01662757FD6095762F0E94F90CCD
:101AB0008C01CE010E948A0C800F911FDF91CF9183
:101AC0001F910F9108952115310541F4DC01ED912D
:101AD000FC910190F081E02D642F09940C94A00CEE
:101AE0009A01462F50E060E070E00C94630D9A017B
:101AF000AB0160E070E00C94630D0F931F93CF93E4
:101B0000DF93EC019A01AB0160E070E00E94630D8D
:101B10008C01CE010E948A0C800F911FDF91CF9122
:101B20001F910F9108950F931F93CF93DF93EC01B3
:101B30000E94630D8C01CE010E948A0C800F911FC0
:101B4000DF91CF911F910F91089508955058BB27B1
:101B5000AA270ED0E0C0D1D030F0D6D020F031F49A
:101B60009F3F11F41EF4C6C00EF4E095E7FBBCC025
:101B7000E92FE2D080F3BA1762077307840795074D
:101B800018F071F49EF5FAC00EF4E0950B2EBA2F02
:101B9000A02D0B01B90190010C01CA01A001112473
:101BA000FF27591B99F0593F50F4503E68F11A161F
:101BB000F040A22F232F342F4427585FF3CF4695B0
:101BC00037952795A795F0405395C9F77EF41F16D2
:101BD000BA0B620B730B840BBAF09150A1F0FF0F9C
:101BE000BB1F661F771F881FC2F70EC0BA0F621F88
:101BF000731F841F48F4879577956795B795F79578
:101C00009E3F08F0B3CF9395880F08F09927EE0F09
:101C100097958795089598D088F09F5790F0B92FA1
:101C20009927B751A0F0D1F0660F771F881F991F31
:101C30001AF0BA95C9F712C0B13081F09FD0B1E067
:101C400008959CC0672F782F8827B85F39F0B93F77
:101C5000CCF3869577956795B395D9F73EF4909533
:101C60008095709561957F4F8F4F9F4F0895E894B1
:101C700009C097FB3EF490958095709561957F4FD4
:101C80008F4F9F4F9923A9F0F92F96E9BB27939582
:101C9000F695879577956795B795F111F8CFFAF492
:101CA000BB0F11F460FF1BC06F5F7F4F8F4F9F4FC3
:101CB00016C0882311F096E911C0772321F09EE821
:101CC000872F762F05C0662371F096E8862F70E087
:101CD00060E02AF09A95660F771F881FDAF7880F61
:101CE0009695879597F9089597F99F6780E870E032
:101CF00060E008959FEF80EC089500240A94161682
:101D0000170618060906089500240A9412161306E9
:101D1000140605060895092E0394000C11F4882377
:101D200052F0BB0F40F4BF2B11F460FF04C06F5F93
:101D30007F4F8F4F9F4F089557FD9058440F551F69
:101D400059F05F3F71F04795880F97FB991F61F03D
:101D50009F3F79F087950895121613061406551FB4
:101D6000F2CF4695F1DF08C0161617061806991F20
:101D7000F1CF86957105610508940895E894BB2715
:101D800066277727CB0197F908950BD0C4CFB5DF2D
:101D900028F0BADF18F0952309F0A6CFABCF1124B5
:101DA000EECFCADFA0F3959FD1F3950F50E0551FFA
:101DB000629FF001729FBB27F00DB11D639FAA27A0
:101DC000F00DB11DAA1F649F6627B00DA11D661FEF
:101DD000829F2227B00DA11D621F739FB00DA11D10
:101DE000621F839FA00D611D221F749F3327A00DCA
:101DF000611D231F849F600D211D822F762F6A2F66
:101E000011249F5750408AF0E1F088234AF0EE0FEA
:101E1000FF1FBB1F661F771F881F91505040A9F7F7
:101E20009E3F510570F060CFAACF5F3FECF3983E24
:101E3000DCF3869577956795B795F795E7959F5F5E
:101E4000C1F7FE2B880F911D9695879597F90895F8
:101E5000A1E21A2EAA1BBB1BFD010DC0AA1FBB1FAE
:101E6000EE1FFF1FA217B307E407F50720F0A21B20
:101E7000B30BE40BF50B661F771F881F991F1A948D
:101E800069F760957095809590959B01AC01BD01B7
:101E9000CF010895EE0FFF1F0590F491E02D0994F6
:041EA000F894FFCFE4
:101EA4003A083A08564D4450565F317C315F564DDE
:101EB4004450560D0A000000000069016701BF018B
:101EC4002A013601020000000000D0050000FEFFD8
:101ED4000000FEFF000069016C07BF010000000064
:101EE4007201000000007501564D4450435F005FCD
:101EF400564D4450430D0A004572726F723A2041A8
:101F04007474656D707420746F207365742061201F
:101F1400726561642D6F6E6C79207661726961629D
:101F24006C65206F7220646174612074797065201F
:101F34006E6F7420737570706F727465640D0A002F
:101F440000000000A40A200C260A3F0A310A820A73
:0E1F54006E616E00696E66006F7666002E008C
:00000001FF
